{
  "transactions": [
    {
      "hash": "0x26184fb8c842624c8bc3541bb31a06d431f1bfd4084e1bfc7c00d004f3e3dac3",
      "transactionType": "CALL",
      "contractName": null,
      "contractAddress": "0x6a6CA9BE573CE881A2084eDa08E3007A679E7666",
      "function": "upgradeToAndCall(address,bytes)",
      "arguments": [
        "0x23Ac77e5d4D59fEFe76f521e7B4A4377E738E966",
        "0x"
      ],
      "transaction": {
        "type": "0x02",
        "from": "0x1dd37d479ac16113ff8f160210ee209944d2b28d",
        "to": "0x6a6ca9be573ce881a2084eda08e3007a679e7666",
        "gas": "0xd802",
        "value": "0x0",
        "data": "0x4f1ef28600000000000000000000000023ac77e5d4d59fefe76f521e7b4a4377e738e96600000000000000000000000000000000000000000000000000000000000000400000000000000000000000000000000000000000000000000000000000000000",
        "nonce": "0x32a",
        "accessList": []
      },
      "additionalContracts": [],
      "isFixedGasLimit": false
    }
  ],
  "receipts": [
    {
      "transactionHash": "0x26184fb8c842624c8bc3541bb31a06d431f1bfd4084e1bfc7c00d004f3e3dac3",
      "transactionIndex": "0x5",
      "blockHash": "0x172f8908538adef759eaafbf3437e4b13992625b9fb09bc2fddfed94a15a07d1",
      "blockNumber": "0x579daa",
      "from": "0x1dD37D479ac16113fF8f160210Ee209944d2b28d",
      "to": "0x6a6CA9BE573CE881A2084eDa08E3007A679E7666",
      "cumulativeGasUsed": "0x3cdf2",
      "gasUsed": "0x93b3",
      "contractAddress": null,
      "logs": [
        {
          "address": "0x6a6CA9BE573CE881A2084eDa08E3007A679E7666",
          "topics": [
            "0xbc7cd75a20ee27fd9adebab32041f755214dbc6bffa90cc0225b39da2e5c2d3b",
            "0x00000000000000000000000023ac77e5d4d59fefe76f521e7b4a4377e738e966"
          ],
          "data": "0x",
          "blockHash": "0x172f8908538adef759eaafbf3437e4b13992625b9fb09bc2fddfed94a15a07d1",
          "blockNumber": "0x579daa",
          "transactionHash": "0x26184fb8c842624c8bc3541bb31a06d431f1bfd4084e1bfc7c00d004f3e3dac3",
          "transactionIndex": "0x5",
          "logIndex": "0x3",
          "removed": false
        }
      ],
      "status": "0x1",
      "logsBloom": "0x00000000000000000000000000000000400000000000000000000000000000000000000000000000000000000000000000000000000000000000000000000000000000000000000000000000000002000000000000000000000000000000000000000000000000000000400000000000000000000000004000000000000080000000000000000000000000000000000000000000000010000000000000000000000000000000000000000000000000000000000000000000000000000000000000000020000000000000000000000000000000000000000000000000000000000000000000000000000000000001000000000000008000000000000000000000",
      "type": "0x2",
      "effectiveGasPrice": "0xb2d760ce"
    }
  ],
  "libraries": [],
  "pending": [],
  "returns": {},
  "timestamp": 1713654793,
  "chain": 11155111,
  "commit": "2ee8af2"
}