{
  "transactions": [
    {
      "hash": "0xa3e3a536da77aed851f0cda0ebb7c8440a99d7dc711862336a0ff5cacbad9703",
      "transactionType": "CALL",
      "contractName": null,
      "contractAddress": "0xB7396333135FD3D20e357c29A6685F0ae8aa699a",
      "function": "upgradeToAndCall(address,bytes)",
      "arguments": [
        "0x8D84d820A48E87b804Cd38048777a0bA41657E2A",
        "0x"
      ],
      "transaction": {
        "type": "0x02",
        "from": "0x1dd37d479ac16113ff8f160210ee209944d2b28d",
        "to": "0xb7396333135fd3d20e357c29a6685f0ae8aa699a",
        "gas": "0xcc51",
        "value": "0x0",
        "data": "0x4f1ef2860000000000000000000000008d84d820a48e87b804cd38048777a0ba41657e2a00000000000000000000000000000000000000000000000000000000000000400000000000000000000000000000000000000000000000000000000000000000",
        "nonce": "0x180",
        "accessList": []
      },
      "additionalContracts": [],
      "isFixedGasLimit": false
    }
  ],
  "receipts": [
    {
      "transactionHash": "0xa3e3a536da77aed851f0cda0ebb7c8440a99d7dc711862336a0ff5cacbad9703",
      "transactionIndex": "0x15",
      "blockHash": "0xaa5e59c98b3125405b01c7be79b46b6779b7a4dd8ffc57b89b54c98ceb79c94d",
      "blockNumber": "0x55c44b",
      "from": "0x1dD37D479ac16113fF8f160210Ee209944d2b28d",
      "to": "0xB7396333135FD3D20e357c29A6685F0ae8aa699a",
      "cumulativeGasUsed": "0x1c07e8",
      "gasUsed": "0x93ed",
      "contractAddress": null,
      "logs": [
        {
          "address": "0xB7396333135FD3D20e357c29A6685F0ae8aa699a",
          "topics": [
            "0xbc7cd75a20ee27fd9adebab32041f755214dbc6bffa90cc0225b39da2e5c2d3b",
            "0x0000000000000000000000008d84d820a48e87b804cd38048777a0ba41657e2a"
          ],
          "data": "0x",
          "blockHash": "0xaa5e59c98b3125405b01c7be79b46b6779b7a4dd8ffc57b89b54c98ceb79c94d",
          "blockNumber": "0x55c44b",
          "transactionHash": "0xa3e3a536da77aed851f0cda0ebb7c8440a99d7dc711862336a0ff5cacbad9703",
          "transactionIndex": "0x15",
          "logIndex": "0x1f",
          "removed": false
        }
      ],
      "status": "0x1",
      "logsBloom": "0x00000000000000000000000000000000400000000000000000000000000000000000000000000000000000000010000000000000040000000000000000000000000000000000000000000000000002000000000000000000002000000000000000000000000000000000000000000000000000000000000000000000000000000000000000000000000000000000002000000000000000000000004000000000000000000000000000000000000000000000000000000000000000000000400000000020000000000000000000000000000000000000000000000000000000000000000000000000000000000000000000000000000000000000000000000000",
      "type": "0x2",
      "effectiveGasPrice": "0xe003fffc"
    }
  ],
  "libraries": [],
  "pending": [],
  "returns": {},
  "timestamp": 1712150778,
  "chain": 11155111,
  "commit": "5ba60e0"
}