{
  "transactions": [
    {
      "hash": "0xba43b463f5c5f20490e4e590300fe43428406592fe84d25bc4914ab814b4d003",
      "transactionType": "CALL",
      "contractName": null,
      "contractAddress": "0xB7396333135FD3D20e357c29A6685F0ae8aa699a",
      "function": "upgradeToAndCall(address,bytes)",
      "arguments": [
        "0xB0C8e4E34E6EC2A6aAb4E28aa14277BF5c8bDF20",
        "0x"
      ],
      "transaction": {
        "type": "0x02",
        "from": "0x1dd37d479ac16113ff8f160210ee209944d2b28d",
        "to": "0xb7396333135fd3d20e357c29a6685f0ae8aa699a",
        "gas": "0xcc51",
        "value": "0x0",
        "data": "0x4f1ef286000000000000000000000000b0c8e4e34e6ec2a6aab4e28aa14277bf5c8bdf2000000000000000000000000000000000000000000000000000000000000000400000000000000000000000000000000000000000000000000000000000000000",
        "nonce": "0x16d",
        "accessList": []
      },
      "additionalContracts": [],
      "isFixedGasLimit": false
    }
  ],
  "receipts": [
    {
      "transactionHash": "0xba43b463f5c5f20490e4e590300fe43428406592fe84d25bc4914ab814b4d003",
      "transactionIndex": "0x27",
      "blockHash": "0xfb3fd286b17fb0e60d8c3f690601bfad71232658024a0f6e65beb687bfb0b424",
      "blockNumber": "0x557ea6",
      "from": "0x1dD37D479ac16113fF8f160210Ee209944d2b28d",
      "to": "0xB7396333135FD3D20e357c29A6685F0ae8aa699a",
      "cumulativeGasUsed": "0x5ffc27",
      "gasUsed": "0x93ed",
      "contractAddress": null,
      "logs": [
        {
          "address": "0xB7396333135FD3D20e357c29A6685F0ae8aa699a",
          "topics": [
            "0xbc7cd75a20ee27fd9adebab32041f755214dbc6bffa90cc0225b39da2e5c2d3b",
            "0x000000000000000000000000b0c8e4e34e6ec2a6aab4e28aa14277bf5c8bdf20"
          ],
          "data": "0x",
          "blockHash": "0xfb3fd286b17fb0e60d8c3f690601bfad71232658024a0f6e65beb687bfb0b424",
          "blockNumber": "0x557ea6",
          "transactionHash": "0xba43b463f5c5f20490e4e590300fe43428406592fe84d25bc4914ab814b4d003",
          "transactionIndex": "0x27",
          "logIndex": "0x50",
          "removed": false
        }
      ],
      "status": "0x1",
      "logsBloom": "0x00000000000000000000000000000000400000400000000000000000000000000000000000000000000000000000000000000000040000000000000000000000000000000000000000000000000002000000000000000000002000000000000000000000000000000000000000000000000000000000000000000000000000000000000000000000000000000400000000000000000000000000004000000000000000000000000000000000000000000000000000000000000000000000000000000020000000000000000000000000000000000000000000000000000000000000000000000000000000000000000000000000000000000000200000000000",
      "type": "0x2",
      "effectiveGasPrice": "0xb2d05e0d"
    }
  ],
  "libraries": [],
  "pending": [],
  "returns": {},
  "timestamp": 1711936562,
  "chain": 11155111,
  "commit": "4ff89b5"
}