{
  "transactions": [
    {
      "hash": "0x7b8992e9c1300f66ce5c24bd6dbad19eaf2a54641c9257af57ff569871a19731",
      "transactionType": "CALL",
      "contractName": null,
      "contractAddress": "0xB7396333135FD3D20e357c29A6685F0ae8aa699a",
      "function": "upgradeToAndCall(address,bytes)",
      "arguments": [
        "0x9EA34B87987a336DDE59b9462195e2F66eb1752b",
        "0x"
      ],
      "transaction": {
        "type": "0x02",
        "from": "0x1dd37d479ac16113ff8f160210ee209944d2b28d",
        "to": "0xb7396333135fd3d20e357c29a6685f0ae8aa699a",
        "gas": "0xba10",
        "value": "0x0",
        "data": "0x4f1ef2860000000000000000000000009ea34b87987a336dde59b9462195e2f66eb1752b00000000000000000000000000000000000000000000000000000000000000400000000000000000000000000000000000000000000000000000000000000000",
        "nonce": "0x1d3",
        "accessList": []
      },
      "additionalContracts": [],
      "isFixedGasLimit": false
    }
  ],
  "receipts": [
    {
      "transactionHash": "0x7b8992e9c1300f66ce5c24bd6dbad19eaf2a54641c9257af57ff569871a19731",
      "transactionIndex": "0x2",
      "blockHash": "0x0b680afccdf6b5edc2b5d1db89f9b4524c672e7ee9ab99f5a57ceed7623b05bb",
      "blockNumber": "0x55e91b",
      "from": "0x1dD37D479ac16113fF8f160210Ee209944d2b28d",
      "to": "0xB7396333135FD3D20e357c29A6685F0ae8aa699a",
      "cumulativeGasUsed": "0x15672",
      "gasUsed": "0x7f39",
      "contractAddress": null,
      "logs": [
        {
          "address": "0xB7396333135FD3D20e357c29A6685F0ae8aa699a",
          "topics": [
            "0xbc7cd75a20ee27fd9adebab32041f755214dbc6bffa90cc0225b39da2e5c2d3b",
            "0x0000000000000000000000009ea34b87987a336dde59b9462195e2f66eb1752b"
          ],
          "data": "0x",
          "blockHash": "0x0b680afccdf6b5edc2b5d1db89f9b4524c672e7ee9ab99f5a57ceed7623b05bb",
          "blockNumber": "0x55e91b",
          "transactionHash": "0x7b8992e9c1300f66ce5c24bd6dbad19eaf2a54641c9257af57ff569871a19731",
          "transactionIndex": "0x2",
          "logIndex": "0x1",
          "removed": false
        }
      ],
      "status": "0x1",
      "logsBloom": "0x00000000000000000000000000000000400000000000000000000000000000000000000000000000000000000000000000000000040000000000000000000000000000000000000000000100000002000000000000000000002000000000000000000000000000000000000000000000000000000000000000000000000000000000000000000000000000000000000000000000000000000000004000000000000000000000000000000000000000000000000000000000000000000000000000000020000000000000000000000000000008000000800000000000000000000000000000000000000000000000000000000000000000000000000000000000",
      "type": "0x2",
      "effectiveGasPrice": "0xb2d05e0d"
    }
  ],
  "libraries": [],
  "pending": [],
  "returns": {},
  "timestamp": 1712268976,
  "chain": 11155111,
  "commit": "25ccd29"
}