{
  "transactions": [
    {
      "hash": "0x20abb97f39413506e2deb406fed9a726ac943e48c45cd5213abdd4aeb0650c0d",
      "transactionType": "CALL",
      "contractName": null,
      "contractAddress": "0x4FCfc8ce8E2FA6cf77b7d89DcDBFb9b14ff7397A",
      "function": "upgradeToAndCall(address,bytes)",
      "arguments": [
        "0x5343Ba218A688910876FBCAF5ED622878C6eaE6a",
        "0x"
      ],
      "transaction": {
        "type": "0x02",
        "from": "0x1dd37d479ac16113ff8f160210ee209944d2b28d",
        "to": "0x4fcfc8ce8e2fa6cf77b7d89dcdbfb9b14ff7397a",
        "gas": "0xaecc",
        "value": "0x0",
        "data": "0x4f1ef2860000000000000000000000005343ba218a688910876fbcaf5ed622878c6eae6a00000000000000000000000000000000000000000000000000000000000000400000000000000000000000000000000000000000000000000000000000000000",
        "nonce": "0x2f0",
        "accessList": []
      },
      "additionalContracts": [],
      "isFixedGasLimit": false
    }
  ],
  "receipts": [
    {
      "transactionHash": "0x20abb97f39413506e2deb406fed9a726ac943e48c45cd5213abdd4aeb0650c0d",
      "transactionIndex": "0x8",
      "blockHash": "0x2dda7440db0b4de237dd33b3963181364f8f401f707cc09526431282a741b792",
      "blockNumber": "0x5726b5",
      "from": "0x1dD37D479ac16113fF8f160210Ee209944d2b28d",
      "to": "0x4FCfc8ce8E2FA6cf77b7d89DcDBFb9b14ff7397A",
      "cumulativeGasUsed": "0x37520",
      "gasUsed": "0x7e8e",
      "contractAddress": null,
      "logs": [
        {
          "address": "0x4FCfc8ce8E2FA6cf77b7d89DcDBFb9b14ff7397A",
          "topics": [
            "0xbc7cd75a20ee27fd9adebab32041f755214dbc6bffa90cc0225b39da2e5c2d3b",
            "0x0000000000000000000000005343ba218a688910876fbcaf5ed622878c6eae6a"
          ],
          "data": "0x",
          "blockHash": "0x2dda7440db0b4de237dd33b3963181364f8f401f707cc09526431282a741b792",
          "blockNumber": "0x5726b5",
          "transactionHash": "0x20abb97f39413506e2deb406fed9a726ac943e48c45cd5213abdd4aeb0650c0d",
          "transactionIndex": "0x8",
          "logIndex": "0x2",
          "removed": false
        }
      ],
      "status": "0x1",
      "logsBloom": "0x00000000000000000000000000000000400000000080000000000000000000000000000000000000000000000000000000000000000000000000000000000000000000000000000000000000000002000000000000000000000008000000000000000000000000000000010000000000000000000000000000000000000000000000000000000000000000000040000000000000000000000000000000000000000100000000000000000000000000000000000000000001000000000000000000000020000000000000000000000000000000000000000000000000000000000000000000000000000000000000000000000000000000000000000000000000",
      "type": "0x2",
      "effectiveGasPrice": "0xb313af6a"
    }
  ],
  "libraries": [],
  "pending": [],
  "returns": {},
  "timestamp": 1713280986,
  "chain": 11155111,
  "commit": "53be4fa"
}