{
  "transactions": [
    {
      "hash": "0x5f42b876b1f4a6c2f2497cf9a700b3dcc8731eb5346166ba1a87bcbb20ce89bc",
      "transactionType": "CALL",
      "contractName": null,
      "contractAddress": "0x6a6CA9BE573CE881A2084eDa08E3007A679E7666",
      "function": "upgradeToAndCall(address,bytes)",
      "arguments": [
        "0x5c605D45b9645268F0B8AfA8C01D2Bd1671175fD",
        "0x"
      ],
      "transaction": {
        "type": "0x02",
        "from": "0x1dd37d479ac16113ff8f160210ee209944d2b28d",
        "to": "0x6a6ca9be573ce881a2084eda08e3007a679e7666",
        "gas": "0xd802",
        "value": "0x0",
        "data": "0x4f1ef2860000000000000000000000005c605d45b9645268f0b8afa8c01d2bd1671175fd00000000000000000000000000000000000000000000000000000000000000400000000000000000000000000000000000000000000000000000000000000000",
        "nonce": "0x322",
        "accessList": []
      },
      "additionalContracts": [],
      "isFixedGasLimit": false
    }
  ],
  "receipts": [
    {
      "transactionHash": "0x5f42b876b1f4a6c2f2497cf9a700b3dcc8731eb5346166ba1a87bcbb20ce89bc",
      "transactionIndex": "0x6",
      "blockHash": "0x9e3ab68e990e2da7b24b9529f3c9b0d098de3b83a76c4493d299bb12956328cf",
      "blockNumber": "0x578872",
      "from": "0x1dD37D479ac16113fF8f160210Ee209944d2b28d",
      "to": "0x6a6CA9BE573CE881A2084eDa08E3007A679E7666",
      "cumulativeGasUsed": "0x48ab9",
      "gasUsed": "0x93b3",
      "contractAddress": null,
      "logs": [
        {
          "address": "0x6a6CA9BE573CE881A2084eDa08E3007A679E7666",
          "topics": [
            "0xbc7cd75a20ee27fd9adebab32041f755214dbc6bffa90cc0225b39da2e5c2d3b",
            "0x0000000000000000000000005c605d45b9645268f0b8afa8c01d2bd1671175fd"
          ],
          "data": "0x",
          "blockHash": "0x9e3ab68e990e2da7b24b9529f3c9b0d098de3b83a76c4493d299bb12956328cf",
          "blockNumber": "0x578872",
          "transactionHash": "0x5f42b876b1f4a6c2f2497cf9a700b3dcc8731eb5346166ba1a87bcbb20ce89bc",
          "transactionIndex": "0x6",
          "logIndex": "0x4",
          "removed": false
        }
      ],
      "status": "0x1",
      "logsBloom": "0x00000100000000000000000000000000400000000000000000000000000000000000000000000000000000000000000000000000000000000000000000000000000000000000000000000000000002000000000000000000000000000000000000000000000000000000400000000000000000000000004000000000000080000000000000000000000000000000000000000000000000000000000000000000000000000200000000000000000000000000000000000000000000000000000000000020000000000000000000000000000000000000000000000000000000000000000000000000000000000000000000040000000000000000000000000000",
      "type": "0x2",
      "effectiveGasPrice": "0xb2d28523"
    }
  ],
  "libraries": [],
  "pending": [],
  "returns": {},
  "timestamp": 1713589444,
  "chain": 11155111,
  "commit": "2ee8af2"
}