{
  "transactions": [
    {
      "hash": "0x58687e530d8b48544df92981d2b19eb5eb87872fbcd0fc3e00e3d87935d6385c",
      "transactionType": "CALL",
      "contractName": null,
      "contractAddress": "0xB7396333135FD3D20e357c29A6685F0ae8aa699a",
      "function": "upgradeToAndCall(address,bytes)",
      "arguments": [
        "0x3E0411C8CA8165587ae7dc7CF17F6D2646FB9A68",
        "0x"
      ],
      "transaction": {
        "type": "0x02",
        "from": "0x1dd37d479ac16113ff8f160210ee209944d2b28d",
        "to": "0xb7396333135fd3d20e357c29a6685f0ae8aa699a",
        "gas": "0xcc51",
        "value": "0x0",
        "data": "0x4f1ef2860000000000000000000000003e0411c8ca8165587ae7dc7cf17f6d2646fb9a6800000000000000000000000000000000000000000000000000000000000000400000000000000000000000000000000000000000000000000000000000000000",
        "nonce": "0x18b",
        "accessList": []
      },
      "additionalContracts": [],
      "isFixedGasLimit": false
    }
  ],
  "receipts": [
    {
      "transactionHash": "0x58687e530d8b48544df92981d2b19eb5eb87872fbcd0fc3e00e3d87935d6385c",
      "transactionIndex": "0x5",
      "blockHash": "0x18c0e3bea7f89019d7fa25d84d9f9677e5c9a964f15daee8c65a62b4e645e4ca",
      "blockNumber": "0x55cca1",
      "from": "0x1dD37D479ac16113fF8f160210Ee209944d2b28d",
      "to": "0xB7396333135FD3D20e357c29A6685F0ae8aa699a",
      "cumulativeGasUsed": "0x3e4af",
      "gasUsed": "0x93ed",
      "contractAddress": null,
      "logs": [
        {
          "address": "0xB7396333135FD3D20e357c29A6685F0ae8aa699a",
          "topics": [
            "0xbc7cd75a20ee27fd9adebab32041f755214dbc6bffa90cc0225b39da2e5c2d3b",
            "0x0000000000000000000000003e0411c8ca8165587ae7dc7cf17f6d2646fb9a68"
          ],
          "data": "0x",
          "blockHash": "0x18c0e3bea7f89019d7fa25d84d9f9677e5c9a964f15daee8c65a62b4e645e4ca",
          "blockNumber": "0x55cca1",
          "transactionHash": "0x58687e530d8b48544df92981d2b19eb5eb87872fbcd0fc3e00e3d87935d6385c",
          "transactionIndex": "0x5",
          "logIndex": "0x3",
          "removed": false
        }
      ],
      "status": "0x1",
      "logsBloom": "0x00000000000000000000000000000000400000000000000000000000000000000000000000000000000000000000000000000000040000000004000000000000000000000000000000000000000002000000000000000000002000000000000000000000000000000000100000000000000000000000000000000000000000000000000000000000000000000000000000000000000000000000004000000000000000000000000000000000000000000000000000000000000000000000000000000020000000000000000000000000000000020000000000000000000000000000000000000000000000000000000000000000000000000000000000000000",
      "type": "0x2",
      "effectiveGasPrice": "0xb58df946"
    }
  ],
  "libraries": [],
  "pending": [],
  "returns": {},
  "timestamp": 1712176470,
  "chain": 11155111,
  "commit": "5ba60e0"
}