{
  "transactions": [
    {
      "hash": "0xd8f586a46016494e905a0b2e7fb90b5df651ad79c844239ccf59b66fa8cd1a21",
      "transactionType": "CALL",
      "contractName": null,
      "contractAddress": "0x89EC6fEC45c8f9183cB971930d2a0aB5d1d49Cf4",
      "function": "upgradeToAndCall(address,bytes)",
      "arguments": [
        "0xA192ebd131699608690CfEC4566624a200AE85Df",
        "0x"
      ],
      "transaction": {
        "type": "0x02",
        "from": "0x1dd37d479ac16113ff8f160210ee209944d2b28d",
        "to": "0x89ec6fec45c8f9183cb971930d2a0ab5d1d49cf4",
        "gas": "0xcb89",
        "value": "0x0",
        "data": "0x4f1ef286000000000000000000000000a192ebd131699608690cfec4566624a200ae85df00000000000000000000000000000000000000000000000000000000000000400000000000000000000000000000000000000000000000000000000000000000",
        "nonce": "0x3aa",
        "accessList": []
      },
      "additionalContracts": [],
      "isFixedGasLimit": false
    }
  ],
  "receipts": [
    {
      "transactionHash": "0xd8f586a46016494e905a0b2e7fb90b5df651ad79c844239ccf59b66fa8cd1a21",
      "transactionIndex": "0x6",
      "blockHash": "0x16c923b832ba26f98db5bc62efc7c6676f9bd130d4f40353a64e2486d8caf667",
      "blockNumber": "0x57bbf2",
      "from": "0x1dD37D479ac16113fF8f160210Ee209944d2b28d",
      "to": "0x89EC6fEC45c8f9183cB971930d2a0aB5d1d49Cf4",
      "cumulativeGasUsed": "0x7ebf8",
      "gasUsed": "0x935c",
      "contractAddress": null,
      "logs": [
        {
          "address": "0x89EC6fEC45c8f9183cB971930d2a0aB5d1d49Cf4",
          "topics": [
            "0xbc7cd75a20ee27fd9adebab32041f755214dbc6bffa90cc0225b39da2e5c2d3b",
            "0x000000000000000000000000a192ebd131699608690cfec4566624a200ae85df"
          ],
          "data": "0x",
          "blockHash": "0x16c923b832ba26f98db5bc62efc7c6676f9bd130d4f40353a64e2486d8caf667",
          "blockNumber": "0x57bbf2",
          "transactionHash": "0xd8f586a46016494e905a0b2e7fb90b5df651ad79c844239ccf59b66fa8cd1a21",
          "transactionIndex": "0x6",
          "logIndex": "0x9",
          "removed": false
        }
      ],
      "status": "0x1",
      "logsBloom": "0x00000000000000000000000000000000400000000000000000000000000000000020000040000000000000000000000000000000000000000000000000000000000002000000000000000000000002000000000000000000000000000000000000000000000000000000000000040000000000000000000000000000000000000000000000000000000000000000000000000000000000000000000000000000000000000000000000000000000000000000000000000000000008000000000040000020000000000000000000000000000000000000000000000000000000000000000000000000000000000000000000000000000000000000000000000000",
      "type": "0x2",
      "effectiveGasPrice": "0xb2d7989e"
    }
  ],
  "libraries": [],
  "pending": [],
  "returns": {},
  "timestamp": 1713749534,
  "chain": 11155111,
  "commit": "68d2e60"
}