{
  "transactions": [
    {
      "hash": "0xda77925a582a1aa178857b218c35775955a3dcba87c4aae57ae1c039b70e34b0",
      "transactionType": "CALL",
      "contractName": null,
      "contractAddress": "0xAE8C09948fE8cA98adAB9f560E352Df70C25AcC7",
      "function": "upgradeToAndCall(address,bytes)",
      "arguments": [
        "0x2d5D2428Be587d8B22AD855b1DAb57B9B38Bf791",
        "0x"
      ],
      "transaction": {
        "type": "0x02",
        "from": "0x1dd37d479ac16113ff8f160210ee209944d2b28d",
        "to": "0xae8c09948fe8ca98adab9f560e352df70c25acc7",
        "gas": "0xd780",
        "value": "0x0",
        "data": "0x4f1ef2860000000000000000000000002d5d2428be587d8b22ad855b1dab57b9b38bf79100000000000000000000000000000000000000000000000000000000000000400000000000000000000000000000000000000000000000000000000000000000",
        "nonce": "0xbd",
        "accessList": []
      },
      "additionalContracts": [],
      "isFixedGasLimit": false
    }
  ],
  "receipts": [
    {
      "transactionHash": "0xda77925a582a1aa178857b218c35775955a3dcba87c4aae57ae1c039b70e34b0",
      "transactionIndex": "0x1b",
      "blockHash": "0x72a694434bed88170424b3352f0ff174d3ea6dc221f675bf3bc19465f8939905",
      "blockNumber": "0x53befc",
      "from": "0x1dD37D479ac16113fF8f160210Ee209944d2b28d",
      "to": "0xAE8C09948fE8cA98adAB9f560E352Df70C25AcC7",
      "cumulativeGasUsed": "0x37b6d5",
      "gasUsed": "0x935a",
      "contractAddress": null,
      "logs": [
        {
          "address": "0xAE8C09948fE8cA98adAB9f560E352Df70C25AcC7",
          "topics": [
            "0xbc7cd75a20ee27fd9adebab32041f755214dbc6bffa90cc0225b39da2e5c2d3b",
            "0x0000000000000000000000002d5d2428be587d8b22ad855b1dab57b9b38bf791"
          ],
          "data": "0x",
          "blockHash": "0x72a694434bed88170424b3352f0ff174d3ea6dc221f675bf3bc19465f8939905",
          "blockNumber": "0x53befc",
          "transactionHash": "0xda77925a582a1aa178857b218c35775955a3dcba87c4aae57ae1c039b70e34b0",
          "transactionIndex": "0x1b",
          "logIndex": "0x57",
          "removed": false
        }
      ],
      "status": "0x1",
      "logsBloom": "0x00000000000000000000000000000000410000000000000000000000000000000000000000000000000000000000000000000000000000400000000000000000000000000000000000000000000082000000000000000000100000000000000000000000000000000000000000000000000000000000000000000000000000000000000000000000000000000000000000000000000000000000000000000000000000000000000000000000000000000000000000000100000000000000000000000020000000000000000000000000000000000000000000000000000000000000000000000000000000000000000000000000000000000000000000000000",
      "type": "0x2",
      "effectiveGasPrice": "0x19aa3d37a2"
    }
  ],
  "libraries": [],
  "pending": [],
  "returns": {},
  "timestamp": 1710473510,
  "chain": 11155111,
  "commit": "fbc4a61"
}