{
  "transactions": [
    {
      "hash": "0xbba368c5e4a5dbc517f4557292b6301bba8e244522b228b24a747dc6d9af3352",
      "transactionType": "CALL",
      "contractName": null,
      "contractAddress": "0xB7396333135FD3D20e357c29A6685F0ae8aa699a",
      "function": "upgradeToAndCall(address,bytes)",
      "arguments": [
        "0x4EC24275723a94981d4aAEaADf5469B29DE928E2",
        "0x"
      ],
      "transaction": {
        "type": "0x02",
        "from": "0x1dd37d479ac16113ff8f160210ee209944d2b28d",
        "to": "0xb7396333135fd3d20e357c29a6685f0ae8aa699a",
        "gas": "0xcc51",
        "value": "0x0",
        "data": "0x4f1ef2860000000000000000000000004ec24275723a94981d4aaeaadf5469b29de928e200000000000000000000000000000000000000000000000000000000000000400000000000000000000000000000000000000000000000000000000000000000",
        "nonce": "0x184",
        "accessList": []
      },
      "additionalContracts": [],
      "isFixedGasLimit": false
    }
  ],
  "receipts": [
    {
      "transactionHash": "0xbba368c5e4a5dbc517f4557292b6301bba8e244522b228b24a747dc6d9af3352",
      "transactionIndex": "0x44",
      "blockHash": "0x80e48f260ead4efc78c14c1258b12ce4e4c0b36a9388a090619be34481b16bf9",
      "blockNumber": "0x55c4a6",
      "from": "0x1dD37D479ac16113fF8f160210Ee209944d2b28d",
      "to": "0xB7396333135FD3D20e357c29A6685F0ae8aa699a",
      "cumulativeGasUsed": "0x15a75b2",
      "gasUsed": "0x93ed",
      "contractAddress": null,
      "logs": [
        {
          "address": "0xB7396333135FD3D20e357c29A6685F0ae8aa699a",
          "topics": [
            "0xbc7cd75a20ee27fd9adebab32041f755214dbc6bffa90cc0225b39da2e5c2d3b",
            "0x0000000000000000000000004ec24275723a94981d4aaeaadf5469b29de928e2"
          ],
          "data": "0x",
          "blockHash": "0x80e48f260ead4efc78c14c1258b12ce4e4c0b36a9388a090619be34481b16bf9",
          "blockNumber": "0x55c4a6",
          "transactionHash": "0xbba368c5e4a5dbc517f4557292b6301bba8e244522b228b24a747dc6d9af3352",
          "transactionIndex": "0x44",
          "logIndex": "0xed",
          "removed": false
        }
      ],
      "status": "0x1",
      "logsBloom": "0x00000000000000000000000000000000400000000000000000000000000000000000000000000000000000000000000000000000040000000000000000000000000000000000000000000000000002000000000000000000002000000000000000000000000000000000000000000000000000000000000000000000000000000000000000000000000000000000000000000000000000000000004000000000000000000000000000000400000000000000000000000000000000000000000000000020000000000200000000000000000000000000000000000000000000000000000000000000000000000000000000000000000000000000000000000800",
      "type": "0x2",
      "effectiveGasPrice": "0x177b843bb"
    }
  ],
  "libraries": [],
  "pending": [],
  "returns": {},
  "timestamp": 1712151868,
  "chain": 11155111,
  "commit": "5ba60e0"
}