{
  "transactions": [
    {
      "hash": "0x6c5dc9e2340baffdcb2dd090a99015c4ca869ff0cc6cfab3a44ac96394272625",
      "transactionType": "CALL",
      "contractName": null,
      "contractAddress": "0x6a6CA9BE573CE881A2084eDa08E3007A679E7666",
      "function": "upgradeToAndCall(address,bytes)",
      "arguments": [
        "0xB6f12d0fE1B40Fd3128f20a845CB78961d41d8DE",
        "0x"
      ],
      "transaction": {
        "type": "0x02",
        "from": "0x1dd37d479ac16113ff8f160210ee209944d2b28d",
        "to": "0x6a6ca9be573ce881a2084eda08e3007a679e7666",
        "gas": "0xaf68",
        "value": "0x0",
        "data": "0x4f1ef286000000000000000000000000b6f12d0fe1b40fd3128f20a845cb78961d41d8de00000000000000000000000000000000000000000000000000000000000000400000000000000000000000000000000000000000000000000000000000000000",
        "nonce": "0x321",
        "accessList": []
      },
      "additionalContracts": [],
      "isFixedGasLimit": false
    }
  ],
  "receipts": [
    {
      "transactionHash": "0x6c5dc9e2340baffdcb2dd090a99015c4ca869ff0cc6cfab3a44ac96394272625",
      "transactionIndex": "0x5",
      "blockHash": "0xc49eb9836a3b76b62aa7b677adf44768e13f52718fd41a9dea6a4b770f1f0762",
      "blockNumber": "0x578840",
      "from": "0x1dD37D479ac16113fF8f160210Ee209944d2b28d",
      "to": "0x6a6CA9BE573CE881A2084eDa08E3007A679E7666",
      "cumulativeGasUsed": "0x2e475",
      "gasUsed": "0x7eff",
      "contractAddress": null,
      "logs": [
        {
          "address": "0x6a6CA9BE573CE881A2084eDa08E3007A679E7666",
          "topics": [
            "0xbc7cd75a20ee27fd9adebab32041f755214dbc6bffa90cc0225b39da2e5c2d3b",
            "0x000000000000000000000000b6f12d0fe1b40fd3128f20a845cb78961d41d8de"
          ],
          "data": "0x",
          "blockHash": "0xc49eb9836a3b76b62aa7b677adf44768e13f52718fd41a9dea6a4b770f1f0762",
          "blockNumber": "0x578840",
          "transactionHash": "0x6c5dc9e2340baffdcb2dd090a99015c4ca869ff0cc6cfab3a44ac96394272625",
          "transactionIndex": "0x5",
          "logIndex": "0x3",
          "removed": false
        }
      ],
      "status": "0x1",
      "logsBloom": "0x00000000000000400000000000000000400000000000000000000000000000000000000000000000000000000000000000000000000000000000000000001000000000000000000000000000000002000000000000000000000000000000000000000000000000000000400000000000000000000000004000000000000080000000000000000000000000000000000000000000000000000000000000000000000000000000000000000000000000000000000000000000000000000000000000000020000000010000000000000000000000000000000000000000000000000000000000000000000000000000000000000000000000000000000000000000",
      "type": "0x2",
      "effectiveGasPrice": "0xb2d4eccb"
    }
  ],
  "libraries": [],
  "pending": [],
  "returns": {},
  "timestamp": 1713588844,
  "chain": 11155111,
  "commit": "2ee8af2"
}