{
  "transactions": [
    {
      "hash": "0x9b51cce80049d717bdab3fb01ab0f66b2b2b78ab6e646ee0e2f479bab15be5bb",
      "transactionType": "CALL",
      "contractName": null,
      "contractAddress": "0xB7396333135FD3D20e357c29A6685F0ae8aa699a",
      "function": "upgradeToAndCall(address,bytes)",
      "arguments": [
        "0x1f6f26E767e1DFCC03e7C55d37B8CdfF8a63130B",
        "0x"
      ],
      "transaction": {
        "type": "0x02",
        "from": "0x1dd37d479ac16113ff8f160210ee209944d2b28d",
        "to": "0xb7396333135fd3d20e357c29a6685f0ae8aa699a",
        "gas": "0xcc51",
        "value": "0x0",
        "data": "0x4f1ef2860000000000000000000000001f6f26e767e1dfcc03e7c55d37b8cdff8a63130b00000000000000000000000000000000000000000000000000000000000000400000000000000000000000000000000000000000000000000000000000000000",
        "nonce": "0x19f",
        "accessList": []
      },
      "additionalContracts": [],
      "isFixedGasLimit": false
    }
  ],
  "receipts": [
    {
      "transactionHash": "0x9b51cce80049d717bdab3fb01ab0f66b2b2b78ab6e646ee0e2f479bab15be5bb",
      "transactionIndex": "0xa",
      "blockHash": "0x4c9ec7c25958205cdb1a12b826ce8684cd21b99e128147348f6a2d26a9700367",
      "blockNumber": "0x55d154",
      "from": "0x1dD37D479ac16113fF8f160210Ee209944d2b28d",
      "to": "0xB7396333135FD3D20e357c29A6685F0ae8aa699a",
      "cumulativeGasUsed": "0x279837",
      "gasUsed": "0x93ed",
      "contractAddress": null,
      "logs": [
        {
          "address": "0xB7396333135FD3D20e357c29A6685F0ae8aa699a",
          "topics": [
            "0xbc7cd75a20ee27fd9adebab32041f755214dbc6bffa90cc0225b39da2e5c2d3b",
            "0x0000000000000000000000001f6f26e767e1dfcc03e7c55d37b8cdff8a63130b"
          ],
          "data": "0x",
          "blockHash": "0x4c9ec7c25958205cdb1a12b826ce8684cd21b99e128147348f6a2d26a9700367",
          "blockNumber": "0x55d154",
          "transactionHash": "0x9b51cce80049d717bdab3fb01ab0f66b2b2b78ab6e646ee0e2f479bab15be5bb",
          "transactionIndex": "0xa",
          "logIndex": "0x8",
          "removed": false
        }
      ],
      "status": "0x1",
      "logsBloom": "0x00000000000000000000000000000000400000000000000000000000000000000000000000000000000000000000000000000000040000000000000000000000000000000000000800000000000002000000000000000000002000000000000000000000000000000000000000000000000000000000000000000000000000000000000000000000000000000000000000000000000000000000004000000000000000000000000000000000000000000000000000000000000100000000000000000020000000000000000000000000000000000000000000000000000000000000000000000000000000000000000000000000000000000000002000000000",
      "type": "0x2",
      "effectiveGasPrice": "0xb2d05e13"
    }
  ],
  "libraries": [],
  "pending": [],
  "returns": {},
  "timestamp": 1712191758,
  "chain": 11155111,
  "commit": "bc68ffc"
}