{
  "transactions": [
    {
      "hash": "0x64ee5a198c608e5aa43472d4da39eab55327f288210ae1462778deabc08c1a98",
      "transactionType": "CALL",
      "contractName": null,
      "contractAddress": "0x3E03Ada049648A54c9c8984fb2b71EAae319E49d",
      "function": "upgradeToAndCall(address,bytes)",
      "arguments": [
        "0x5BEF31CAbEC870732b104e2b0ce119Ea81a26a0C",
        "0x"
      ],
      "transaction": {
        "type": "0x02",
        "from": "0x1dd37d479ac16113ff8f160210ee209944d2b28d",
        "to": "0x3e03ada049648a54c9c8984fb2b71eaae319e49d",
        "gas": "0xd80d",
        "value": "0x0",
        "data": "0x4f1ef2860000000000000000000000005bef31cabec870732b104e2b0ce119ea81a26a0c00000000000000000000000000000000000000000000000000000000000000400000000000000000000000000000000000000000000000000000000000000000",
        "nonce": "0x28f",
        "accessList": []
      },
      "additionalContracts": [],
      "isFixedGasLimit": false
    }
  ],
  "receipts": [
    {
      "transactionHash": "0x64ee5a198c608e5aa43472d4da39eab55327f288210ae1462778deabc08c1a98",
      "transactionIndex": "0xa",
      "blockHash": "0x1e3b697b4c290a896e7c58baca262c08758e8770a6dd7dce5e2601b2219b582e",
      "blockNumber": "0x56847b",
      "from": "0x1dD37D479ac16113fF8f160210Ee209944d2b28d",
      "to": "0x3E03Ada049648A54c9c8984fb2b71EAae319E49d",
      "cumulativeGasUsed": "0x108a6d",
      "gasUsed": "0x93bb",
      "contractAddress": null,
      "logs": [
        {
          "address": "0x3E03Ada049648A54c9c8984fb2b71EAae319E49d",
          "topics": [
            "0xbc7cd75a20ee27fd9adebab32041f755214dbc6bffa90cc0225b39da2e5c2d3b",
            "0x0000000000000000000000005bef31cabec870732b104e2b0ce119ea81a26a0c"
          ],
          "data": "0x",
          "blockHash": "0x1e3b697b4c290a896e7c58baca262c08758e8770a6dd7dce5e2601b2219b582e",
          "blockNumber": "0x56847b",
          "transactionHash": "0x64ee5a198c608e5aa43472d4da39eab55327f288210ae1462778deabc08c1a98",
          "transactionIndex": "0xa",
          "logIndex": "0x9",
          "removed": false
        }
      ],
      "status": "0x1",
      "logsBloom": "0x00000000000000000000000000000000400000000000000000000000000000000000000000000000000000000000000000000000000000000000000000000000000000000000000000000000000002000000000000000000010000000000000000000000000000000000000000000000000000000000000000000000000000000000000000000000000000000000001000000000000000000000000000000000000000000000000000000000000000000000000000000000000000000000000000000020000000000400000000000000000000000000000000000000000000000000004000000000000000000000000004000000000000000100000000000000",
      "type": "0x2",
      "effectiveGasPrice": "0xee4cc572"
    }
  ],
  "libraries": [],
  "pending": [],
  "returns": {},
  "timestamp": 1712776769,
  "chain": 11155111,
  "commit": "6e5a1d9"
}