{
  "transactions": [
    {
      "hash": "0xd7c592fb567cccc0a636018d277aac7bc69969b6eccc6c8017ce29799dbed810",
      "transactionType": "CALL",
      "contractName": null,
      "contractAddress": "0x2792D5255515bED5C6DdF0c02cB135d8fCB85BaC",
      "function": "upgradeToAndCall(address,bytes)",
      "arguments": [
        "0xD3FE0f84442D5FF303760eb31B583EE89e7C9C13",
        "0x"
      ],
      "transaction": {
        "type": "0x02",
        "from": "0x1dd37d479ac16113ff8f160210ee209944d2b28d",
        "to": "0x2792d5255515bed5c6ddf0c02cb135d8fcb85bac",
        "gas": "0xd800",
        "value": "0x0",
        "data": "0x4f1ef286000000000000000000000000d3fe0f84442d5ff303760eb31b583ee89e7c9c1300000000000000000000000000000000000000000000000000000000000000400000000000000000000000000000000000000000000000000000000000000000",
        "nonce": "0x7c",
        "accessList": []
      },
      "additionalContracts": [],
      "isFixedGasLimit": false
    }
  ],
  "receipts": [
    {
      "transactionHash": "0xd7c592fb567cccc0a636018d277aac7bc69969b6eccc6c8017ce29799dbed810",
      "transactionIndex": "0x3a",
      "blockHash": "0xd903b7402e3ceb3042aac3c9b706166f1f77a6fd5e2be23593a04c3812e2feec",
      "blockNumber": "0x53a814",
      "from": "0x1dD37D479ac16113fF8f160210Ee209944d2b28d",
      "to": "0x2792D5255515bED5C6DdF0c02cB135d8fCB85BaC",
      "cumulativeGasUsed": "0x1f8828",
      "gasUsed": "0x93b2",
      "contractAddress": null,
      "logs": [
        {
          "address": "0x2792D5255515bED5C6DdF0c02cB135d8fCB85BaC",
          "topics": [
            "0xbc7cd75a20ee27fd9adebab32041f755214dbc6bffa90cc0225b39da2e5c2d3b",
            "0x000000000000000000000000d3fe0f84442d5ff303760eb31b583ee89e7c9c13"
          ],
          "data": "0x",
          "blockHash": "0xd903b7402e3ceb3042aac3c9b706166f1f77a6fd5e2be23593a04c3812e2feec",
          "blockNumber": "0x53a814",
          "transactionHash": "0xd7c592fb567cccc0a636018d277aac7bc69969b6eccc6c8017ce29799dbed810",
          "transactionIndex": "0x3a",
          "logIndex": "0x18",
          "removed": false
        }
      ],
      "status": "0x1",
      "logsBloom": "0x00000000000000000000000000000000400000000000000000000000000020000000000000000000000000010000000000000000000000000000000900000000000000000000000000000000000002000000000000000000000000000000000000000000000000008000000000000000000000000000000000000000000000000000000000000000000000000000000000000000000000000000000000000000000000000000000000000000000000000000000000000000000000000000000000000020000000000000000000000000000000000200000000000000000000000000000000000000000000000000000000000000000000000000000000000000",
      "type": "0x2",
      "effectiveGasPrice": "0x1fa0034432"
    }
  ],
  "libraries": [],
  "pending": [],
  "returns": {},
  "timestamp": 1710399060,
  "chain": 11155111,
  "commit": "a588e37"
}