{
  "transactions": [
    {
      "hash": "0x5c1e3b6f9df14116752f5e73f64025ac4dbfd15c7e804caeeb75eeb3c336e7bc",
      "transactionType": "CALL",
      "contractName": null,
      "contractAddress": "0x424d41797A1EC36051cAe9385A8C8b96Aafa3b52",
      "function": "upgradeToAndCall(address,bytes)",
      "arguments": [
        "0x90e0508D972BeC4Bbea24ae095a55dEbD0A55Ed8",
        "0x"
      ],
      "transaction": {
        "type": "0x02",
        "from": "0x1dd37d479ac16113ff8f160210ee209944d2b28d",
        "to": "0x424d41797a1ec36051cae9385a8c8b96aafa3b52",
        "gas": "0xd7d0",
        "value": "0x0",
        "data": "0x4f1ef28600000000000000000000000090e0508d972bec4bbea24ae095a55debd0a55ed800000000000000000000000000000000000000000000000000000000000000400000000000000000000000000000000000000000000000000000000000000000",
        "nonce": "0x37b",
        "accessList": []
      },
      "additionalContracts": [],
      "isFixedGasLimit": false
    }
  ],
  "receipts": [
    {
      "transactionHash": "0x5c1e3b6f9df14116752f5e73f64025ac4dbfd15c7e804caeeb75eeb3c336e7bc",
      "transactionIndex": "0x4",
      "blockHash": "0x10fe4365360f260e5b4fd8213efa1d0024a7228c1d32ec004bbbef1a009db3d8",
      "blockNumber": "0x57b8e0",
      "from": "0x1dD37D479ac16113fF8f160210Ee209944d2b28d",
      "to": "0x424d41797A1EC36051cAe9385A8C8b96Aafa3b52",
      "cumulativeGasUsed": "0x24203",
      "gasUsed": "0x9391",
      "contractAddress": null,
      "logs": [
        {
          "address": "0x424d41797A1EC36051cAe9385A8C8b96Aafa3b52",
          "topics": [
            "0xbc7cd75a20ee27fd9adebab32041f755214dbc6bffa90cc0225b39da2e5c2d3b",
            "0x00000000000000000000000090e0508d972bec4bbea24ae095a55debd0a55ed8"
          ],
          "data": "0x",
          "blockHash": "0x10fe4365360f260e5b4fd8213efa1d0024a7228c1d32ec004bbbef1a009db3d8",
          "blockNumber": "0x57b8e0",
          "transactionHash": "0x5c1e3b6f9df14116752f5e73f64025ac4dbfd15c7e804caeeb75eeb3c336e7bc",
          "transactionIndex": "0x4",
          "logIndex": "0x2",
          "removed": false
        }
      ],
      "status": "0x1",
      "logsBloom": "0x00000000000000000000000000800000400000000000000000000000000000000000000000000800000000000000000000000000000000000000000000000000000000000000000000000000000002000000000000000000000000000000000000000000000000000000000000004000000000000000000000000000000000000000000000000000000000000000000000000000000000000000000000000000000000000000000000000000000000000080000000000000000000000000000000000020000000001000000000000800000000000000000000000000000000000000000000000000000000000000000000000000000000000000000000000000",
      "type": "0x2",
      "effectiveGasPrice": "0xb2d916aa"
    }
  ],
  "libraries": [],
  "pending": [],
  "returns": {},
  "timestamp": 1713739946,
  "chain": 11155111,
  "commit": "df39e50"
}