{
  "transactions": [
    {
      "hash": "0xe8c1bff2f981b121ac1c3e00c3401051f46e66728f80b45253bc126705114498",
      "transactionType": "CALL",
      "contractName": null,
      "contractAddress": "0xAE8C09948fE8cA98adAB9f560E352Df70C25AcC7",
      "function": "upgradeToAndCall(address,bytes)",
      "arguments": [
        "0xb5D29da4bFfD30b33451872365D33B4082aC8232",
        "0x"
      ],
      "transaction": {
        "type": "0x02",
        "from": "0x1dd37d479ac16113ff8f160210ee209944d2b28d",
        "to": "0xae8c09948fe8ca98adab9f560e352df70c25acc7",
        "gas": "0xd780",
        "value": "0x0",
        "data": "0x4f1ef286000000000000000000000000b5d29da4bffd30b33451872365d33b4082ac823200000000000000000000000000000000000000000000000000000000000000400000000000000000000000000000000000000000000000000000000000000000",
        "nonce": "0xc3",
        "accessList": []
      },
      "additionalContracts": [],
      "isFixedGasLimit": false
    }
  ],
  "receipts": [
    {
      "transactionHash": "0xe8c1bff2f981b121ac1c3e00c3401051f46e66728f80b45253bc126705114498",
      "transactionIndex": "0x38",
      "blockHash": "0x700cf4948f9181e2be251406e1fafba4f1a177586077c1a8caf00fa245bed37c",
      "blockNumber": "0x53c1ea",
      "from": "0x1dD37D479ac16113fF8f160210Ee209944d2b28d",
      "to": "0xAE8C09948fE8cA98adAB9f560E352Df70C25AcC7",
      "cumulativeGasUsed": "0x3c1cc4",
      "gasUsed": "0x935a",
      "contractAddress": null,
      "logs": [
        {
          "address": "0xAE8C09948fE8cA98adAB9f560E352Df70C25AcC7",
          "topics": [
            "0xbc7cd75a20ee27fd9adebab32041f755214dbc6bffa90cc0225b39da2e5c2d3b",
            "0x000000000000000000000000b5d29da4bffd30b33451872365d33b4082ac8232"
          ],
          "data": "0x",
          "blockHash": "0x700cf4948f9181e2be251406e1fafba4f1a177586077c1a8caf00fa245bed37c",
          "blockNumber": "0x53c1ea",
          "transactionHash": "0xe8c1bff2f981b121ac1c3e00c3401051f46e66728f80b45253bc126705114498",
          "transactionIndex": "0x38",
          "logIndex": "0x35",
          "removed": false
        }
      ],
      "status": "0x1",
      "logsBloom": "0x00000000000080000000000000000000400000000000000000000000000000000000000000000000000000000000000000000000000000000000000000000000000000000000000000000000000082000000000000000000100080000000000000000000000000800000000000000000000000000000000000000000000000000000000000000000000000000000000000000000000000000000000000000000000000000000000000000000000000000000000000000000000000000000000000000020000000000000000000000000000000000000000000000000000000000000000000000000000000000000000000000000000000000000000000000000",
      "type": "0x2",
      "effectiveGasPrice": "0x2ce0c514b2"
    }
  ],
  "libraries": [],
  "pending": [],
  "returns": {},
  "timestamp": 1710482934,
  "chain": 11155111,
  "commit": "10ce204"
}