{
  "transactions": [
    {
      "hash": "0x03074fb33f88d8a3a48e58caf586dd7fa9b7d932322775246ec354b112011194",
      "transactionType": "CALL",
      "contractName": null,
      "contractAddress": "0x494fA86556E48AbcB43ededd114D47e54e9F9dA1",
      "function": "upgradeToAndCall(address,bytes)",
      "arguments": [
        "0xBfD871f1e54fb2eC42e730D5B232099665127930",
        "0x"
      ],
      "transaction": {
        "type": "0x02",
        "from": "0x1dd37d479ac16113ff8f160210ee209944d2b28d",
        "to": "0x494fa86556e48abcb43ededd114d47e54e9f9da1",
        "gas": "0xcbdc",
        "value": "0x0",
        "data": "0x4f1ef286000000000000000000000000bfd871f1e54fb2ec42e730d5b23209966512793000000000000000000000000000000000000000000000000000000000000000400000000000000000000000000000000000000000000000000000000000000000",
        "nonce": "0x36b",
        "accessList": []
      },
      "additionalContracts": [],
      "isFixedGasLimit": false
    }
  ],
  "receipts": [
    {
      "transactionHash": "0x03074fb33f88d8a3a48e58caf586dd7fa9b7d932322775246ec354b112011194",
      "transactionIndex": "0x3",
      "blockHash": "0x59d787c8581549f00840fb00d874e91e869d83126c92c40525f4442808281117",
      "blockNumber": "0x57b4b7",
      "from": "0x1dD37D479ac16113fF8f160210Ee209944d2b28d",
      "to": "0x494fA86556E48AbcB43ededd114D47e54e9F9dA1",
      "cumulativeGasUsed": "0x4c330",
      "gasUsed": "0x9398",
      "contractAddress": null,
      "logs": [
        {
          "address": "0x494fA86556E48AbcB43ededd114D47e54e9F9dA1",
          "topics": [
            "0xbc7cd75a20ee27fd9adebab32041f755214dbc6bffa90cc0225b39da2e5c2d3b",
            "0x000000000000000000000000bfd871f1e54fb2ec42e730d5b232099665127930"
          ],
          "data": "0x",
          "blockHash": "0x59d787c8581549f00840fb00d874e91e869d83126c92c40525f4442808281117",
          "blockNumber": "0x57b4b7",
          "transactionHash": "0x03074fb33f88d8a3a48e58caf586dd7fa9b7d932322775246ec354b112011194",
          "transactionIndex": "0x3",
          "logIndex": "0x3",
          "removed": false
        }
      ],
      "status": "0x1",
      "logsBloom": "0x000000000000000000000000000000004000000000000000000000000000000000000000000000000000000000000000001000000000c0000000000000000000000000000000000000000000000002000000000000000000000000000000000000000000000000000000000000000000000000000000000000000000000000000000000000000000000100000000000000000000000000000000000000000000000000000000080000000000000000000000000000000000000000000000000000000020000000000000000000000000040000000000000000000000000000000000000000000000000000000000000000000000000000000000000000000000",
      "type": "0x2",
      "effectiveGasPrice": "0xb35696f5"
    }
  ],
  "libraries": [],
  "pending": [],
  "returns": {},
  "timestamp": 1713727142,
  "chain": 11155111,
  "commit": "df39e50"
}