{
  "transactions": [
    {
      "hash": "0x83a44fa9c32cd5de798d28c5dd53005f33a822fed96961c981c6da435d35e2b2",
      "transactionType": "CALL",
      "contractName": null,
      "contractAddress": "0x4F42857dc6e937D5b3131873561785a87AAa3E16",
      "function": "upgradeToAndCall(address,bytes)",
      "arguments": [
        "0xFe7aA0bA5947b36CE0c45dE59dCb1b53db192Fc6",
        "0x"
      ],
      "transaction": {
        "type": "0x02",
        "from": "0x1dd37d479ac16113ff8f160210ee209944d2b28d",
        "to": "0x4f42857dc6e937d5b3131873561785a87aaa3e16",
        "gas": "0xcc75",
        "value": "0x0",
        "data": "0x4f1ef286000000000000000000000000fe7aa0ba5947b36ce0c45de59dcb1b53db192fc600000000000000000000000000000000000000000000000000000000000000400000000000000000000000000000000000000000000000000000000000000000",
        "nonce": "0x174",
        "accessList": []
      },
      "additionalContracts": [],
      "isFixedGasLimit": false
    }
  ],
  "receipts": [
    {
      "transactionHash": "0x83a44fa9c32cd5de798d28c5dd53005f33a822fed96961c981c6da435d35e2b2",
      "transactionIndex": "0x2",
      "blockHash": "0x9435bb01ad60db3dc7c8ca8d69e437ef28c9f9df373c3f224445dc6e1a421d3d",
      "blockNumber": "0x557fbe",
      "from": "0x1dD37D479ac16113fF8f160210Ee209944d2b28d",
      "to": "0x4F42857dc6e937D5b3131873561785a87AAa3E16",
      "cumulativeGasUsed": "0x16b40",
      "gasUsed": "0x9407",
      "contractAddress": null,
      "logs": [
        {
          "address": "0x4F42857dc6e937D5b3131873561785a87AAa3E16",
          "topics": [
            "0xbc7cd75a20ee27fd9adebab32041f755214dbc6bffa90cc0225b39da2e5c2d3b",
            "0x000000000000000000000000fe7aa0ba5947b36ce0c45de59dcb1b53db192fc6"
          ],
          "data": "0x",
          "blockHash": "0x9435bb01ad60db3dc7c8ca8d69e437ef28c9f9df373c3f224445dc6e1a421d3d",
          "blockNumber": "0x557fbe",
          "transactionHash": "0x83a44fa9c32cd5de798d28c5dd53005f33a822fed96961c981c6da435d35e2b2",
          "transactionIndex": "0x2",
          "logIndex": "0x1",
          "removed": false
        }
      ],
      "status": "0x1",
      "logsBloom": "0x00000000000000000000000000000000400000004000000000000000000000000000000000000000000000000000000000000000000000000000000000000000000000002000000000000000000002000000000000000000000000100000000000000000000000000000000000000000000000000000000000000000000001000000000000000000000000000000000000000000000000000000000000000000000000000000000000000000000000000080000000000000000000000000000000000020000000000000000000000000000000000000000000000000000000000000000000000000000000000000000000000000000000008000000000000000",
      "type": "0x2",
      "effectiveGasPrice": "0xb2d05e0d"
    }
  ],
  "libraries": [],
  "pending": [],
  "returns": {},
  "timestamp": 1711939921,
  "chain": 11155111,
  "commit": "1fa1bb4"
}