{
  "transactions": [
    {
      "hash": "0xb15413f45d1ec6f013a47a348af3e1caca8a7789d2ed08a5bbfaf921338528dc",
      "transactionType": "CALL",
      "contractName": null,
      "contractAddress": "0x4F42857dc6e937D5b3131873561785a87AAa3E16",
      "function": "upgradeToAndCall(address,bytes)",
      "arguments": [
        "0x025a927EA120F187c9B430BeaFb1b32D14fC4586",
        "0x"
      ],
      "transaction": {
        "type": "0x02",
        "from": "0x1dd37d479ac16113ff8f160210ee209944d2b28d",
        "to": "0x4f42857dc6e937d5b3131873561785a87aaa3e16",
        "gas": "0xcc93",
        "value": "0x0",
        "data": "0x4f1ef286000000000000000000000000025a927ea120f187c9b430beafb1b32d14fc458600000000000000000000000000000000000000000000000000000000000000400000000000000000000000000000000000000000000000000000000000000000",
        "nonce": "0x1a1",
        "accessList": []
      },
      "additionalContracts": [],
      "isFixedGasLimit": false
    }
  ],
  "receipts": [
    {
      "transactionHash": "0xb15413f45d1ec6f013a47a348af3e1caca8a7789d2ed08a5bbfaf921338528dc",
      "transactionIndex": "0x6",
      "blockHash": "0x3e2bca37482e06d3e67452f82fb4d76e08ff3615b6338a17da0a3c393093f047",
      "blockNumber": "0x55d38c",
      "from": "0x1dD37D479ac16113fF8f160210Ee209944d2b28d",
      "to": "0x4F42857dc6e937D5b3131873561785a87AAa3E16",
      "cumulativeGasUsed": "0x95ac5",
      "gasUsed": "0x941d",
      "contractAddress": null,
      "logs": [
        {
          "address": "0x4F42857dc6e937D5b3131873561785a87AAa3E16",
          "topics": [
            "0xbc7cd75a20ee27fd9adebab32041f755214dbc6bffa90cc0225b39da2e5c2d3b",
            "0x000000000000000000000000025a927ea120f187c9b430beafb1b32d14fc4586"
          ],
          "data": "0x",
          "blockHash": "0x3e2bca37482e06d3e67452f82fb4d76e08ff3615b6338a17da0a3c393093f047",
          "blockNumber": "0x55d38c",
          "transactionHash": "0xb15413f45d1ec6f013a47a348af3e1caca8a7789d2ed08a5bbfaf921338528dc",
          "transactionIndex": "0x6",
          "logIndex": "0x8",
          "removed": false
        }
      ],
      "status": "0x1",
      "logsBloom": "0x00000000000000000000000000000000420000000000000000000000000000000000000000000000000000000200000000000000000000000000000000000000000000000000000000000000000002000000000000000000000000100000000000000000000000000000000000000000000000000000000000000000000001000000000000000000000000000000000000000000000000000000000000000000000000000000000000000000000000000000000000000000000000080000000000000020000000000000000000000000000000000000000000000000000000000000000000000000000000000000000000000000000000008000000000000000",
      "type": "0x2",
      "effectiveGasPrice": "0xb2d05e1a"
    }
  ],
  "libraries": [],
  "pending": [],
  "returns": {},
  "timestamp": 1712199003,
  "chain": 11155111,
  "commit": "bc68ffc"
}