{
  "transactions": [
    {
      "hash": "0x258a5cdd915f40259acbf39474df4b0851ebb17b34c091dc474e8afeed4b613c",
      "transactionType": "CALL",
      "contractName": null,
      "contractAddress": "0x4F42857dc6e937D5b3131873561785a87AAa3E16",
      "function": "upgradeToAndCall(address,bytes)",
      "arguments": [
        "0x2B89b2bA0205E3742a689eeb21B71c32fd7ac22B",
        "0x"
      ],
      "transaction": {
        "type": "0x02",
        "from": "0x1dd37d479ac16113ff8f160210ee209944d2b28d",
        "to": "0x4f42857dc6e937d5b3131873561785a87aaa3e16",
        "gas": "0xcc75",
        "value": "0x0",
        "data": "0x4f1ef2860000000000000000000000002b89b2ba0205e3742a689eeb21b71c32fd7ac22b00000000000000000000000000000000000000000000000000000000000000400000000000000000000000000000000000000000000000000000000000000000",
        "nonce": "0x187",
        "accessList": []
      },
      "additionalContracts": [],
      "isFixedGasLimit": false
    }
  ],
  "receipts": [
    {
      "transactionHash": "0x258a5cdd915f40259acbf39474df4b0851ebb17b34c091dc474e8afeed4b613c",
      "transactionIndex": "0x7",
      "blockHash": "0x1ab3b364ecb6b6a9e349fc60fe03cf432c5701d33a3a05593e8a86a1850bd867",
      "blockNumber": "0x55cc33",
      "from": "0x1dD37D479ac16113fF8f160210Ee209944d2b28d",
      "to": "0x4F42857dc6e937D5b3131873561785a87AAa3E16",
      "cumulativeGasUsed": "0xaa9a3",
      "gasUsed": "0x9407",
      "contractAddress": null,
      "logs": [
        {
          "address": "0x4F42857dc6e937D5b3131873561785a87AAa3E16",
          "topics": [
            "0xbc7cd75a20ee27fd9adebab32041f755214dbc6bffa90cc0225b39da2e5c2d3b",
            "0x0000000000000000000000002b89b2ba0205e3742a689eeb21b71c32fd7ac22b"
          ],
          "data": "0x",
          "blockHash": "0x1ab3b364ecb6b6a9e349fc60fe03cf432c5701d33a3a05593e8a86a1850bd867",
          "blockNumber": "0x55cc33",
          "transactionHash": "0x258a5cdd915f40259acbf39474df4b0851ebb17b34c091dc474e8afeed4b613c",
          "transactionIndex": "0x7",
          "logIndex": "0x7",
          "removed": false
        }
      ],
      "status": "0x1",
      "logsBloom": "0x00000000000000000000000000000000400000000000000000000000000000000000000000000000000000000000000000000000000000000000000000000000000000000000000000400000000002000000000000000000000000100000000000000000000000000000000000000000000000000000000000000000000001000000000000000000000000000000000000000000000000000000000000000000000000000020000000000000000000000000000000000000000000000000000000000020000000000000000000000000000000000000000000000000000000000000000000000000000000000000000000000000000100008000000000000000",
      "type": "0x2",
      "effectiveGasPrice": "0xb37c8720"
    }
  ],
  "libraries": [],
  "pending": [],
  "returns": {},
  "timestamp": 1712175113,
  "chain": 11155111,
  "commit": "5ba60e0"
}