{
  "transactions": [
    {
      "hash": "0x223f3134248c9abbc54ae68552f18047163e2e3bc6cf7979db696b8f0b25e281",
      "transactionType": "CALL",
      "contractName": null,
      "contractAddress": "0x1756E8ECDF73D58304e2BF8F6a8bF361B9FC29F4",
      "function": "upgradeToAndCall(address,bytes)",
      "arguments": [
        "0x26e53C54853365327eFba9D60B35587331b7349c",
        "0x"
      ],
      "transaction": {
        "type": "0x02",
        "from": "0x1dd37d479ac16113ff8f160210ee209944d2b28d",
        "to": "0x1756e8ecdf73d58304e2bf8f6a8bf361b9fc29f4",
        "gas": "0xd73b",
        "value": "0x0",
        "data": "0x4f1ef28600000000000000000000000026e53c54853365327efba9d60b35587331b7349c00000000000000000000000000000000000000000000000000000000000000400000000000000000000000000000000000000000000000000000000000000000",
        "nonce": "0x233",
        "accessList": []
      },
      "additionalContracts": [],
      "isFixedGasLimit": false
    }
  ],
  "receipts": [
    {
      "transactionHash": "0x223f3134248c9abbc54ae68552f18047163e2e3bc6cf7979db696b8f0b25e281",
      "transactionIndex": "0x7",
      "blockHash": "0x4e301e30b0a196a2c5a0a2326215572d37e6aab18f32e7819fedbda3a80aa71b",
      "blockNumber": "0x5639a0",
      "from": "0x1dD37D479ac16113fF8f160210Ee209944d2b28d",
      "to": "0x1756E8ECDF73D58304e2BF8F6a8bF361B9FC29F4",
      "cumulativeGasUsed": "0x9c97b",
      "gasUsed": "0x932b",
      "contractAddress": null,
      "logs": [
        {
          "address": "0x1756E8ECDF73D58304e2BF8F6a8bF361B9FC29F4",
          "topics": [
            "0xbc7cd75a20ee27fd9adebab32041f755214dbc6bffa90cc0225b39da2e5c2d3b",
            "0x00000000000000000000000026e53c54853365327efba9d60b35587331b7349c"
          ],
          "data": "0x",
          "blockHash": "0x4e301e30b0a196a2c5a0a2326215572d37e6aab18f32e7819fedbda3a80aa71b",
          "blockNumber": "0x5639a0",
          "transactionHash": "0x223f3134248c9abbc54ae68552f18047163e2e3bc6cf7979db696b8f0b25e281",
          "transactionIndex": "0x7",
          "logIndex": "0xa",
          "removed": false
        }
      ],
      "status": "0x1",
      "logsBloom": "0x000000000000000040000000000000004000004000000000000000000000000000000000000000000000000000000000000000000000000000000000000000c0000000000000000000000000000002000000000000000000000000000000000000000000000000000000000000000000000000000000000000000000000000000400000000000000000000000000000000000000000000000000000000000000000000000000000000000000000000000000000000000000000000000000000000000020000000000000000000000000000000000000000000000000000000000000000000000000000000000000000000000010000000000000000000000000",
      "type": "0x2",
      "effectiveGasPrice": "0xb2d5f17a"
    }
  ],
  "libraries": [],
  "pending": [],
  "returns": {},
  "timestamp": 1712536325,
  "chain": 11155111,
  "commit": "3b4c1b5"
}