{
  "transactions": [
    {
      "hash": "0x0c189d51116bd9ceeffb0c0888da016884cdb3457fc13dacd6d18268b10c1e13",
      "transactionType": "CALL",
      "contractName": null,
      "contractAddress": "0x4F42857dc6e937D5b3131873561785a87AAa3E16",
      "function": "upgradeToAndCall(address,bytes)",
      "arguments": [
        "0xA4009241a00329edBc39D77E9D8c7cb7533C7355",
        "0x"
      ],
      "transaction": {
        "type": "0x02",
        "from": "0x1dd37d479ac16113ff8f160210ee209944d2b28d",
        "to": "0x4f42857dc6e937d5b3131873561785a87aaa3e16",
        "gas": "0xd86b",
        "value": "0x0",
        "data": "0x4f1ef286000000000000000000000000a4009241a00329edbc39d77e9d8c7cb7533c735500000000000000000000000000000000000000000000000000000000000000400000000000000000000000000000000000000000000000000000000000000000",
        "nonce": "0x18e",
        "accessList": []
      },
      "additionalContracts": [],
      "isFixedGasLimit": false
    }
  ],
  "receipts": [
    {
      "transactionHash": "0x0c189d51116bd9ceeffb0c0888da016884cdb3457fc13dacd6d18268b10c1e13",
      "transactionIndex": "0x4",
      "blockHash": "0x9fef22b9e0df86196f89e6373ef4bfe25b8abd1878d1c9def971c7fbcd7a2477",
      "blockNumber": "0x55cdb3",
      "from": "0x1dD37D479ac16113fF8f160210Ee209944d2b28d",
      "to": "0x4F42857dc6e937D5b3131873561785a87AAa3E16",
      "cumulativeGasUsed": "0x20f44",
      "gasUsed": "0x93fb",
      "contractAddress": null,
      "logs": [
        {
          "address": "0x4F42857dc6e937D5b3131873561785a87AAa3E16",
          "topics": [
            "0xbc7cd75a20ee27fd9adebab32041f755214dbc6bffa90cc0225b39da2e5c2d3b",
            "0x000000000000000000000000a4009241a00329edbc39d77e9d8c7cb7533c7355"
          ],
          "data": "0x",
          "blockHash": "0x9fef22b9e0df86196f89e6373ef4bfe25b8abd1878d1c9def971c7fbcd7a2477",
          "blockNumber": "0x55cdb3",
          "transactionHash": "0x0c189d51116bd9ceeffb0c0888da016884cdb3457fc13dacd6d18268b10c1e13",
          "transactionIndex": "0x4",
          "logIndex": "0x1",
          "removed": false
        }
      ],
      "status": "0x1",
      "logsBloom": "0x00000000000000000000000000000000400000000000000000000000000000000000000000000000000000000000000000000000000000000000000000000000000000000000000008000000000002000000000000000000000000100000000000000000000000000000000000000000000000000000000000000000000001000000000000000000000000000000000000000000002000000400000000000000000000000000000000000000000000000000000000000000000000000000000000000020000000000000000000000000000000000000000000000000000000000000000000000000000000000000000000000000000000008000000000000000",
      "type": "0x2",
      "effectiveGasPrice": "0xb2d70676"
    }
  ],
  "libraries": [],
  "pending": [],
  "returns": {},
  "timestamp": 1712179956,
  "chain": 11155111,
  "commit": "070a898"
}