{
  "transactions": [
    {
      "hash": "0x7a505e29d6dc0cceceb82d87b25763492c59dc02815b90530f80150241d141a4",
      "transactionType": "CALL",
      "contractName": null,
      "contractAddress": "0xB7396333135FD3D20e357c29A6685F0ae8aa699a",
      "function": "upgradeToAndCall(address,bytes)",
      "arguments": [
        "0xfB10B58f7605e1EF6150039CE7DF723DDDD7b048",
        "0x"
      ],
      "transaction": {
        "type": "0x02",
        "from": "0x1dd37d479ac16113ff8f160210ee209944d2b28d",
        "to": "0xb7396333135fd3d20e357c29a6685f0ae8aa699a",
        "gas": "0xcc51",
        "value": "0x0",
        "data": "0x4f1ef286000000000000000000000000fb10b58f7605e1ef6150039ce7df723dddd7b04800000000000000000000000000000000000000000000000000000000000000400000000000000000000000000000000000000000000000000000000000000000",
        "nonce": "0x188",
        "accessList": []
      },
      "additionalContracts": [],
      "isFixedGasLimit": false
    }
  ],
  "receipts": [
    {
      "transactionHash": "0x7a505e29d6dc0cceceb82d87b25763492c59dc02815b90530f80150241d141a4",
      "transactionIndex": "0x9",
      "blockHash": "0x30b74eca69dc40a8296b8ab064dedfd21a9e3280d82f6864e5773966117c76a2",
      "blockNumber": "0x55cc35",
      "from": "0x1dD37D479ac16113fF8f160210Ee209944d2b28d",
      "to": "0xB7396333135FD3D20e357c29A6685F0ae8aa699a",
      "cumulativeGasUsed": "0xb6382",
      "gasUsed": "0x93ed",
      "contractAddress": null,
      "logs": [
        {
          "address": "0xB7396333135FD3D20e357c29A6685F0ae8aa699a",
          "topics": [
            "0xbc7cd75a20ee27fd9adebab32041f755214dbc6bffa90cc0225b39da2e5c2d3b",
            "0x000000000000000000000000fb10b58f7605e1ef6150039ce7df723dddd7b048"
          ],
          "data": "0x",
          "blockHash": "0x30b74eca69dc40a8296b8ab064dedfd21a9e3280d82f6864e5773966117c76a2",
          "blockNumber": "0x55cc35",
          "transactionHash": "0x7a505e29d6dc0cceceb82d87b25763492c59dc02815b90530f80150241d141a4",
          "transactionIndex": "0x9",
          "logIndex": "0x9",
          "removed": false
        }
      ],
      "status": "0x1",
      "logsBloom": "0x00000000000000000000000000000000400000000000000000000000000000000000000000000000000000000000000400000000040000008000000000000000000000000000000000000000000002000000000000000000002000000000000000000000000000000000000000000000000000000000000000000000000000000000000000000000010000000000000000000000000000000000004000000000000000000000000000000000000000000000000000000000000000000000000000000020000000000000000000000000000000000000000000000000000000000000000000000000000000000000000000000000000000000000000000000000",
      "type": "0x2",
      "effectiveGasPrice": "0xb36fc0db"
    }
  ],
  "libraries": [],
  "pending": [],
  "returns": {},
  "timestamp": 1712175132,
  "chain": 11155111,
  "commit": "5ba60e0"
}