{
  "transactions": [
    {
      "hash": "0xef240c6161ddbeca5908366f52abced9e26991a0c54d4fc1be8ef2b0b59ad5d9",
      "transactionType": "CALL",
      "contractName": null,
      "contractAddress": "0xB7396333135FD3D20e357c29A6685F0ae8aa699a",
      "function": "upgradeToAndCall(address,bytes)",
      "arguments": [
        "0xc5D3dE61b8988ffb36813CCA34EfbC9F06d90a34",
        "0x"
      ],
      "transaction": {
        "type": "0x02",
        "from": "0x1dd37d479ac16113ff8f160210ee209944d2b28d",
        "to": "0xb7396333135fd3d20e357c29a6685f0ae8aa699a",
        "gas": "0xcc51",
        "value": "0x0",
        "data": "0x4f1ef286000000000000000000000000c5d3de61b8988ffb36813cca34efbc9f06d90a3400000000000000000000000000000000000000000000000000000000000000400000000000000000000000000000000000000000000000000000000000000000",
        "nonce": "0x18f",
        "accessList": []
      },
      "additionalContracts": [],
      "isFixedGasLimit": false
    }
  ],
  "receipts": [
    {
      "transactionHash": "0xef240c6161ddbeca5908366f52abced9e26991a0c54d4fc1be8ef2b0b59ad5d9",
      "transactionIndex": "0x4",
      "blockHash": "0x61d01a68a4509a9d700e60ba6ba8416dc9d7529c5ca60377279568e2fdd66c06",
      "blockNumber": "0x55cdb5",
      "from": "0x1dD37D479ac16113fF8f160210Ee209944d2b28d",
      "to": "0xB7396333135FD3D20e357c29A6685F0ae8aa699a",
      "cumulativeGasUsed": "0xb29a2",
      "gasUsed": "0x93ed",
      "contractAddress": null,
      "logs": [
        {
          "address": "0xB7396333135FD3D20e357c29A6685F0ae8aa699a",
          "topics": [
            "0xbc7cd75a20ee27fd9adebab32041f755214dbc6bffa90cc0225b39da2e5c2d3b",
            "0x000000000000000000000000c5d3de61b8988ffb36813cca34efbc9f06d90a34"
          ],
          "data": "0x",
          "blockHash": "0x61d01a68a4509a9d700e60ba6ba8416dc9d7529c5ca60377279568e2fdd66c06",
          "blockNumber": "0x55cdb5",
          "transactionHash": "0xef240c6161ddbeca5908366f52abced9e26991a0c54d4fc1be8ef2b0b59ad5d9",
          "transactionIndex": "0x4",
          "logIndex": "0x13",
          "removed": false
        }
      ],
      "status": "0x1",
      "logsBloom": "0x00000000000000000000000000000000400000000000000000000000000000000000000000000000000000000000000000000000040000000000000000000000000000000100000000000000000002000000000000000000082000000000000000000000000000000000000000000000000000000010000000000000000000000000000000000000000000000000000000000000000000000000004000000000000000000000000000000000000000000000000000000000000000000000000000000020000000000000000000000000000000000000000000000000000000000000000000000000000000000000000000000000000000000000000000000000",
      "type": "0x2",
      "effectiveGasPrice": "0xb2d65287"
    }
  ],
  "libraries": [],
  "pending": [],
  "returns": {},
  "timestamp": 1712179994,
  "chain": 11155111,
  "commit": "070a898"
}