{
  "transactions": [
    {
      "hash": "0x66be269c3728f6538cacc3bd33e53c41a1c7450b0caf167050e701f75b094d67",
      "transactionType": "CALL",
      "contractName": null,
      "contractAddress": "0x424d41797A1EC36051cAe9385A8C8b96Aafa3b52",
      "function": "upgradeToAndCall(address,bytes)",
      "arguments": [
        "0x63416Af9719e7f245B6A7bCfc3efC6639c330f20",
        "0x"
      ],
      "transaction": {
        "type": "0x02",
        "from": "0x1dd37d479ac16113ff8f160210ee209944d2b28d",
        "to": "0x424d41797a1ec36051cae9385a8c8b96aafa3b52",
        "gas": "0xd7d0",
        "value": "0x0",
        "data": "0x4f1ef28600000000000000000000000063416af9719e7f245b6a7bcfc3efc6639c330f2000000000000000000000000000000000000000000000000000000000000000400000000000000000000000000000000000000000000000000000000000000000",
        "nonce": "0x36f",
        "accessList": []
      },
      "additionalContracts": [],
      "isFixedGasLimit": false
    }
  ],
  "receipts": [
    {
      "transactionHash": "0x66be269c3728f6538cacc3bd33e53c41a1c7450b0caf167050e701f75b094d67",
      "transactionIndex": "0x8",
      "blockHash": "0x110d1fd88211a0951cd0ca3446869933d82b1c0f31abb1e44f2e67508da6d4a8",
      "blockNumber": "0x57b510",
      "from": "0x1dD37D479ac16113fF8f160210Ee209944d2b28d",
      "to": "0x424d41797A1EC36051cAe9385A8C8b96Aafa3b52",
      "cumulativeGasUsed": "0x6080d",
      "gasUsed": "0x9391",
      "contractAddress": null,
      "logs": [
        {
          "address": "0x424d41797A1EC36051cAe9385A8C8b96Aafa3b52",
          "topics": [
            "0xbc7cd75a20ee27fd9adebab32041f755214dbc6bffa90cc0225b39da2e5c2d3b",
            "0x00000000000000000000000063416af9719e7f245b6a7bcfc3efc6639c330f20"
          ],
          "data": "0x",
          "blockHash": "0x110d1fd88211a0951cd0ca3446869933d82b1c0f31abb1e44f2e67508da6d4a8",
          "blockNumber": "0x57b510",
          "transactionHash": "0x66be269c3728f6538cacc3bd33e53c41a1c7450b0caf167050e701f75b094d67",
          "transactionIndex": "0x8",
          "logIndex": "0x5",
          "removed": false
        }
      ],
      "status": "0x1",
      "logsBloom": "0x00000000000000000000000000000000400000000000000000000000000800000000000000000000000000000000000000000000000000000000800000000000000000000000000000000000000002000000000000000000000000000000000000000000000000020000000000004000000000000000000000000000000000000000000000000000000000000000000000000000000000000000000000000000000000000000000000000000000000000080000000000000000000000000000000000020000000000000000000000800000000000000000000000000000000000000000000000000000000000000000000000000000000000000000000000000",
      "type": "0x2",
      "effectiveGasPrice": "0xb2e090bf"
    }
  ],
  "libraries": [],
  "pending": [],
  "returns": {},
  "timestamp": 1713728215,
  "chain": 11155111,
  "commit": "df39e50"
}