{
  "transactions": [
    {
      "hash": "0xbd767ca19b517602373a9e872ee2807470d357e250d8e703bab89f6eb14e049b",
      "transactionType": "CALL",
      "contractName": null,
      "contractAddress": "0x4F42857dc6e937D5b3131873561785a87AAa3E16",
      "function": "upgradeToAndCall(address,bytes)",
      "arguments": [
        "0xa1dEde3cbE14CB251F1fa4CBb141c12f5619cCC4",
        "0x"
      ],
      "transaction": {
        "type": "0x02",
        "from": "0x1dd37d479ac16113ff8f160210ee209944d2b28d",
        "to": "0x4f42857dc6e937d5b3131873561785a87aaa3e16",
        "gas": "0xcbf0",
        "value": "0x0",
        "data": "0x4f1ef286000000000000000000000000a1dede3cbe14cb251f1fa4cbb141c12f5619ccc400000000000000000000000000000000000000000000000000000000000000400000000000000000000000000000000000000000000000000000000000000000",
        "nonce": "0x1af",
        "accessList": []
      },
      "additionalContracts": [],
      "isFixedGasLimit": false
    }
  ],
  "receipts": [
    {
      "transactionHash": "0xbd767ca19b517602373a9e872ee2807470d357e250d8e703bab89f6eb14e049b",
      "transactionIndex": "0xd",
      "blockHash": "0x0b025fb89aeda212c64e763445f669a8bd01de982eff1c06c2426be9267079f5",
      "blockNumber": "0x55e40f",
      "from": "0x1dD37D479ac16113fF8f160210Ee209944d2b28d",
      "to": "0x4F42857dc6e937D5b3131873561785a87AAa3E16",
      "cumulativeGasUsed": "0xc17fd",
      "gasUsed": "0x93a6",
      "contractAddress": null,
      "logs": [
        {
          "address": "0x4F42857dc6e937D5b3131873561785a87AAa3E16",
          "topics": [
            "0xbc7cd75a20ee27fd9adebab32041f755214dbc6bffa90cc0225b39da2e5c2d3b",
            "0x000000000000000000000000a1dede3cbe14cb251f1fa4cbb141c12f5619ccc4"
          ],
          "data": "0x",
          "blockHash": "0x0b025fb89aeda212c64e763445f669a8bd01de982eff1c06c2426be9267079f5",
          "blockNumber": "0x55e40f",
          "transactionHash": "0xbd767ca19b517602373a9e872ee2807470d357e250d8e703bab89f6eb14e049b",
          "transactionIndex": "0xd",
          "logIndex": "0xe",
          "removed": false
        }
      ],
      "status": "0x1",
      "logsBloom": "0x00000000000000000000000000000000400000000000000000000000000000000000000000000000000000000000000000000000000000000000000000000000000010000000000000000000000002000000000000000000000000100000000000001000000000000000000000000000000000000000000000000000000001000000000000000000000000000000000000000000000000000000000000000000000000000000000000000000000000000000000000000000000000000000000000000020000000000000000000000000000000000000000000000000000000000000000000000000000000200000000000000000000000008000000000000000",
      "type": "0x2",
      "effectiveGasPrice": "0xb2f70deb"
    }
  ],
  "libraries": [],
  "pending": [],
  "returns": {},
  "timestamp": 1712252729,
  "chain": 11155111,
  "commit": "c8a00bb"
}