{
  "transactions": [
    {
      "hash": "0xb53db708fef1052fbadd415f435a646c0b98e1fb9f926136955cf9f604692920",
      "transactionType": "CALL",
      "contractName": null,
      "contractAddress": "0x424d41797A1EC36051cAe9385A8C8b96Aafa3b52",
      "function": "upgradeToAndCall(address,bytes)",
      "arguments": [
        "0x2d7bEb6ebA7CdCdf29F25A4c7DEbc250C573B926",
        "0x"
      ],
      "transaction": {
        "type": "0x02",
        "from": "0x1dd37d479ac16113ff8f160210ee209944d2b28d",
        "to": "0x424d41797a1ec36051cae9385a8c8b96aafa3b52",
        "gas": "0xd7d0",
        "value": "0x0",
        "data": "0x4f1ef2860000000000000000000000002d7beb6eba7cdcdf29f25a4c7debc250c573b92600000000000000000000000000000000000000000000000000000000000000400000000000000000000000000000000000000000000000000000000000000000",
        "nonce": "0x374",
        "accessList": []
      },
      "additionalContracts": [],
      "isFixedGasLimit": false
    }
  ],
  "receipts": [
    {
      "transactionHash": "0xb53db708fef1052fbadd415f435a646c0b98e1fb9f926136955cf9f604692920",
      "transactionIndex": "0x4",
      "blockHash": "0xd58586e47eeb5f0b4c6eed4164daba05f9010d0b8ce9396955bad50b74e85e2e",
      "blockNumber": "0x57b8b9",
      "from": "0x1dD37D479ac16113fF8f160210Ee209944d2b28d",
      "to": "0x424d41797A1EC36051cAe9385A8C8b96Aafa3b52",
      "cumulativeGasUsed": "0x312b3",
      "gasUsed": "0x9391",
      "contractAddress": null,
      "logs": [
        {
          "address": "0x424d41797A1EC36051cAe9385A8C8b96Aafa3b52",
          "topics": [
            "0xbc7cd75a20ee27fd9adebab32041f755214dbc6bffa90cc0225b39da2e5c2d3b",
            "0x0000000000000000000000002d7beb6eba7cdcdf29f25a4c7debc250c573b926"
          ],
          "data": "0x",
          "blockHash": "0xd58586e47eeb5f0b4c6eed4164daba05f9010d0b8ce9396955bad50b74e85e2e",
          "blockNumber": "0x57b8b9",
          "transactionHash": "0xb53db708fef1052fbadd415f435a646c0b98e1fb9f926136955cf9f604692920",
          "transactionIndex": "0x4",
          "logIndex": "0x2",
          "removed": false
        }
      ],
      "status": "0x1",
      "logsBloom": "0x00000000000000000000000000000000400000000000000000000000000000000000000000000000000000000000000000000000000000000000000000000000000000000000000000000000000002000000000000000000000000000000000000000000000000000000000000004000000000000000000000000000000004000000000000000000000000000000000000000000000000000000000000000000000000000000002000000000000000000080000000000000000000000000000000000020000000000000000000000800000000000000000000000000000000000000000000000000000000000000000000000000000000000000080000000000",
      "type": "0x2",
      "effectiveGasPrice": "0xb2d7628f"
    }
  ],
  "libraries": [],
  "pending": [],
  "returns": {},
  "timestamp": 1713739478,
  "chain": 11155111,
  "commit": "df39e50"
}