{
  "transactions": [
    {
      "hash": "0xeabf7139f9f9956377a2e90ed61ffea20758018182c90d8022cc87d717a383f2",
      "transactionType": "CALL",
      "contractName": null,
      "contractAddress": "0x4F42857dc6e937D5b3131873561785a87AAa3E16",
      "function": "upgradeToAndCall(address,bytes)",
      "arguments": [
        "0x983bf237729B09195d62384C38B7607bD5dEB288",
        "0x"
      ],
      "transaction": {
        "type": "0x02",
        "from": "0x1dd37d479ac16113ff8f160210ee209944d2b28d",
        "to": "0x4f42857dc6e937d5b3131873561785a87aaa3e16",
        "gas": "0xcc75",
        "value": "0x0",
        "data": "0x4f1ef286000000000000000000000000983bf237729b09195d62384c38b7607bd5deb28800000000000000000000000000000000000000000000000000000000000000400000000000000000000000000000000000000000000000000000000000000000",
        "nonce": "0x170",
        "accessList": []
      },
      "additionalContracts": [],
      "isFixedGasLimit": false
    }
  ],
  "receipts": [
    {
      "transactionHash": "0xeabf7139f9f9956377a2e90ed61ffea20758018182c90d8022cc87d717a383f2",
      "transactionIndex": "0x4",
      "blockHash": "0x1a7712b38fe7020b3d7f4125e4720b4938671a4d9999a1d7a8e0d50bbdb9bcd6",
      "blockNumber": "0x557f5a",
      "from": "0x1dD37D479ac16113fF8f160210Ee209944d2b28d",
      "to": "0x4F42857dc6e937D5b3131873561785a87AAa3E16",
      "cumulativeGasUsed": "0x48202",
      "gasUsed": "0x9407",
      "contractAddress": null,
      "logs": [
        {
          "address": "0x4F42857dc6e937D5b3131873561785a87AAa3E16",
          "topics": [
            "0xbc7cd75a20ee27fd9adebab32041f755214dbc6bffa90cc0225b39da2e5c2d3b",
            "0x000000000000000000000000983bf237729b09195d62384c38b7607bd5deb288"
          ],
          "data": "0x",
          "blockHash": "0x1a7712b38fe7020b3d7f4125e4720b4938671a4d9999a1d7a8e0d50bbdb9bcd6",
          "blockNumber": "0x557f5a",
          "transactionHash": "0xeabf7139f9f9956377a2e90ed61ffea20758018182c90d8022cc87d717a383f2",
          "transactionIndex": "0x4",
          "logIndex": "0x3",
          "removed": false
        }
      ],
      "status": "0x1",
      "logsBloom": "0x00000000000000000000000000000000400040000000000000000000000000000000004000000000000000000000000000000000000000000000000000000000000000000000000000000000000002000000000000000000000000100000000000000000000000000000000000000000000000000000000000000000000001000000000000000000000000000000000000000000000000000000000000000000000000000000000000000000000000800000000000000000000000000000000000000020000000000000000000000000000000000000000000000000000000000000000000000000000000000000000000000000000000008000000000000000",
      "type": "0x2",
      "effectiveGasPrice": "0xb2d05e0e"
    }
  ],
  "libraries": [],
  "pending": [],
  "returns": {},
  "timestamp": 1711938725,
  "chain": 11155111,
  "commit": "bfe4024"
}