{
  "transactions": [
    {
      "hash": "0x1010d9b4cefa7ac130311d97d7881212a5d3af75bd41c8be83c2a51e919a6a28",
      "transactionType": "CALL",
      "contractName": null,
      "contractAddress": "0x3E03Ada049648A54c9c8984fb2b71EAae319E49d",
      "function": "upgradeToAndCall(address,bytes)",
      "arguments": [
        "0x319B433538268386217719Af3f6fc8fb8825F8a6",
        "0x"
      ],
      "transaction": {
        "type": "0x02",
        "from": "0x1dd37d479ac16113ff8f160210ee209944d2b28d",
        "to": "0x3e03ada049648a54c9c8984fb2b71eaae319e49d",
        "gas": "0xd80d",
        "value": "0x0",
        "data": "0x4f1ef286000000000000000000000000319b433538268386217719af3f6fc8fb8825f8a600000000000000000000000000000000000000000000000000000000000000400000000000000000000000000000000000000000000000000000000000000000",
        "nonce": "0x291",
        "accessList": []
      },
      "additionalContracts": [],
      "isFixedGasLimit": false
    }
  ],
  "receipts": [
    {
      "transactionHash": "0x1010d9b4cefa7ac130311d97d7881212a5d3af75bd41c8be83c2a51e919a6a28",
      "transactionIndex": "0xd",
      "blockHash": "0x7b3b1adeeb987dae3b5ad1bededd36d8f470f3e1d80f97adcec2470b0fc697a3",
      "blockNumber": "0x5684e4",
      "from": "0x1dD37D479ac16113fF8f160210Ee209944d2b28d",
      "to": "0x3E03Ada049648A54c9c8984fb2b71EAae319E49d",
      "cumulativeGasUsed": "0xc0fa0",
      "gasUsed": "0x93bb",
      "contractAddress": null,
      "logs": [
        {
          "address": "0x3E03Ada049648A54c9c8984fb2b71EAae319E49d",
          "topics": [
            "0xbc7cd75a20ee27fd9adebab32041f755214dbc6bffa90cc0225b39da2e5c2d3b",
            "0x000000000000000000000000319b433538268386217719af3f6fc8fb8825f8a6"
          ],
          "data": "0x",
          "blockHash": "0x7b3b1adeeb987dae3b5ad1bededd36d8f470f3e1d80f97adcec2470b0fc697a3",
          "blockNumber": "0x5684e4",
          "transactionHash": "0x1010d9b4cefa7ac130311d97d7881212a5d3af75bd41c8be83c2a51e919a6a28",
          "transactionIndex": "0xd",
          "logIndex": "0xa",
          "removed": false
        }
      ],
      "status": "0x1",
      "logsBloom": "0x00000000000000000000000000000000400000000000000000000000000000000000000000000000000000000000000000000000000000000000000000000000000000000000000000000000000002000200000000000000010000000000000000000000000000000000000000000000000000000000000000000000000000000000000000000000000000000000000000000000000000000000000080000000000000000000000000000001000000000000000000000000000000000000000000000020000000000000000000000000000000000000000000000000000000000000000000000000000000000000000004000000000000000100000000000000",
      "type": "0x2",
      "effectiveGasPrice": "0x17d36b122"
    }
  ],
  "libraries": [],
  "pending": [],
  "returns": {},
  "timestamp": 1712778075,
  "chain": 11155111,
  "commit": "6e5a1d9"
}