{
  "transactions": [
    {
      "hash": "0x2c0e1252bf5e373596fcdd328aa7ecae5bb3b96b3a43cf43baac960650535bad",
      "transactionType": "CALL",
      "contractName": null,
      "contractAddress": "0xAE8C09948fE8cA98adAB9f560E352Df70C25AcC7",
      "function": "upgradeToAndCall(address,bytes)",
      "arguments": [
        "0xAC99B7Bda58548f643e14155619b893e5f176c03",
        "0x"
      ],
      "transaction": {
        "type": "0x02",
        "from": "0x1dd37d479ac16113ff8f160210ee209944d2b28d",
        "to": "0xae8c09948fe8ca98adab9f560e352df70c25acc7",
        "gas": "0xd780",
        "value": "0x0",
        "data": "0x4f1ef286000000000000000000000000ac99b7bda58548f643e14155619b893e5f176c0300000000000000000000000000000000000000000000000000000000000000400000000000000000000000000000000000000000000000000000000000000000",
        "nonce": "0xc7",
        "accessList": []
      },
      "additionalContracts": [],
      "isFixedGasLimit": false
    }
  ],
  "receipts": [
    {
      "transactionHash": "0x2c0e1252bf5e373596fcdd328aa7ecae5bb3b96b3a43cf43baac960650535bad",
      "transactionIndex": "0x15",
      "blockHash": "0xd5486ab4523903a4560b9c1970bdef9996f63fa0597d525c1ac6f11b52eda172",
      "blockNumber": "0x53c26f",
      "from": "0x1dD37D479ac16113fF8f160210Ee209944d2b28d",
      "to": "0xAE8C09948fE8cA98adAB9f560E352Df70C25AcC7",
      "cumulativeGasUsed": "0x49a24c",
      "gasUsed": "0x935a",
      "contractAddress": null,
      "logs": [
        {
          "address": "0xAE8C09948fE8cA98adAB9f560E352Df70C25AcC7",
          "topics": [
            "0xbc7cd75a20ee27fd9adebab32041f755214dbc6bffa90cc0225b39da2e5c2d3b",
            "0x000000000000000000000000ac99b7bda58548f643e14155619b893e5f176c03"
          ],
          "data": "0x",
          "blockHash": "0xd5486ab4523903a4560b9c1970bdef9996f63fa0597d525c1ac6f11b52eda172",
          "blockNumber": "0x53c26f",
          "transactionHash": "0x2c0e1252bf5e373596fcdd328aa7ecae5bb3b96b3a43cf43baac960650535bad",
          "transactionIndex": "0x15",
          "logIndex": "0xa4",
          "removed": false
        }
      ],
      "status": "0x1",
      "logsBloom": "0x00000000000000000000000000008000400000000000000000000000000000000000000000000000000000000000000000000000000000000000000000000000000000000000000000000000000082000000000000000000100000000000000000000000000000000000000000000000000000000000000000000000000000000000000000000000000000000000000000000000000000000000000000000000000000000001000000000000000000000000000000000000000000000000000000000020000000000000000000020000000000000000000000000000000000000000000000000000000000000000000000000000000000000000000000000000",
      "type": "0x2",
      "effectiveGasPrice": "0x427699dfc9"
    }
  ],
  "libraries": [],
  "pending": [],
  "returns": {},
  "timestamp": 1710484695,
  "chain": 11155111,
  "commit": "10ce204"
}