{
  "transactions": [
    {
      "hash": "0xdaf4e6c036a9812ff50baf5d92f13eddd0250e46f4cc742599ad32390638e13c",
      "transactionType": "CALL",
      "contractName": null,
      "contractAddress": "0x494fA86556E48AbcB43ededd114D47e54e9F9dA1",
      "function": "upgradeToAndCall(address,bytes)",
      "arguments": [
        "0xF1ed34e0af58a11A1AF8EfaCf2ff82802c9A8038",
        "0x"
      ],
      "transaction": {
        "type": "0x02",
        "from": "0x1dd37d479ac16113ff8f160210ee209944d2b28d",
        "to": "0x494fa86556e48abcb43ededd114d47e54e9f9da1",
        "gas": "0xcbdc",
        "value": "0x0",
        "data": "0x4f1ef286000000000000000000000000f1ed34e0af58a11a1af8efacf2ff82802c9a803800000000000000000000000000000000000000000000000000000000000000400000000000000000000000000000000000000000000000000000000000000000",
        "nonce": "0x35b",
        "accessList": []
      },
      "additionalContracts": [],
      "isFixedGasLimit": false
    }
  ],
  "receipts": [
    {
      "transactionHash": "0xdaf4e6c036a9812ff50baf5d92f13eddd0250e46f4cc742599ad32390638e13c",
      "transactionIndex": "0x18",
      "blockHash": "0xaa31b395b34608b3b1b8e394a916e41c4eada2f2443426f541ee3ea1e9044c9f",
      "blockNumber": "0x57a41c",
      "from": "0x1dD37D479ac16113fF8f160210Ee209944d2b28d",
      "to": "0x494fA86556E48AbcB43ededd114D47e54e9F9dA1",
      "cumulativeGasUsed": "0x1f7051",
      "gasUsed": "0x9398",
      "contractAddress": null,
      "logs": [
        {
          "address": "0x494fA86556E48AbcB43ededd114D47e54e9F9dA1",
          "topics": [
            "0xbc7cd75a20ee27fd9adebab32041f755214dbc6bffa90cc0225b39da2e5c2d3b",
            "0x000000000000000000000000f1ed34e0af58a11a1af8efacf2ff82802c9a8038"
          ],
          "data": "0x",
          "blockHash": "0xaa31b395b34608b3b1b8e394a916e41c4eada2f2443426f541ee3ea1e9044c9f",
          "blockNumber": "0x57a41c",
          "transactionHash": "0xdaf4e6c036a9812ff50baf5d92f13eddd0250e46f4cc742599ad32390638e13c",
          "transactionIndex": "0x18",
          "logIndex": "0x21",
          "removed": false
        }
      ],
      "status": "0x1",
      "logsBloom": "0x00000000000000000000000000000000400000000000000000000000000000000000000000000000000000000000000000100000000040000000000000000000000000800000000000000000000002000000000000000000000000200000000000000000000000000000000000000000000000000000000000000000000000000000000000000000000000000000000000000000000000000000000000000000000000000000080000100000000000000000000000000000000000000000000000000020000000000000000000000000000000000000000000000000000000000000000000000000000000000000000000000000000000000000000000000000",
      "type": "0x2",
      "effectiveGasPrice": "0x1084773ca"
    }
  ],
  "libraries": [],
  "pending": [],
  "returns": {},
  "timestamp": 1713675002,
  "chain": 11155111,
  "commit": "df39e50"
}