{
  "transactions": [
    {
      "hash": "0x0c30787f582e1b783b109009f00642506f05967ad9527cfd485a3df5f25a9054",
      "transactionType": "CALL",
      "contractName": null,
      "contractAddress": "0x1756E8ECDF73D58304e2BF8F6a8bF361B9FC29F4",
      "function": "upgradeToAndCall(address,bytes)",
      "arguments": [
        "0x872BD206F13F28882EBF3719c7D0A4494E9D0Ec8",
        "0x"
      ],
      "transaction": {
        "type": "0x02",
        "from": "0x1dd37d479ac16113ff8f160210ee209944d2b28d",
        "to": "0x1756e8ecdf73d58304e2bf8f6a8bf361b9fc29f4",
        "gas": "0xcb27",
        "value": "0x0",
        "data": "0x4f1ef286000000000000000000000000872bd206f13f28882ebf3719c7d0a4494e9d0ec800000000000000000000000000000000000000000000000000000000000000400000000000000000000000000000000000000000000000000000000000000000",
        "nonce": "0x231",
        "accessList": []
      },
      "additionalContracts": [],
      "isFixedGasLimit": false
    }
  ],
  "receipts": [
    {
      "transactionHash": "0x0c30787f582e1b783b109009f00642506f05967ad9527cfd485a3df5f25a9054",
      "transactionIndex": "0x7",
      "blockHash": "0x21e4fb287a7c5c8c5a023944e7ba7feb0ed503d022ca78e13e6bcb93f761c739",
      "blockNumber": "0x56392c",
      "from": "0x1dD37D479ac16113fF8f160210Ee209944d2b28d",
      "to": "0x1756E8ECDF73D58304e2BF8F6a8bF361B9FC29F4",
      "cumulativeGasUsed": "0xbaa08",
      "gasUsed": "0x9315",
      "contractAddress": null,
      "logs": [
        {
          "address": "0x1756E8ECDF73D58304e2BF8F6a8bF361B9FC29F4",
          "topics": [
            "0xbc7cd75a20ee27fd9adebab32041f755214dbc6bffa90cc0225b39da2e5c2d3b",
            "0x000000000000000000000000872bd206f13f28882ebf3719c7d0a4494e9d0ec8"
          ],
          "data": "0x",
          "blockHash": "0x21e4fb287a7c5c8c5a023944e7ba7feb0ed503d022ca78e13e6bcb93f761c739",
          "blockNumber": "0x56392c",
          "transactionHash": "0x0c30787f582e1b783b109009f00642506f05967ad9527cfd485a3df5f25a9054",
          "transactionIndex": "0x7",
          "logIndex": "0xd",
          "removed": false
        }
      ],
      "status": "0x1",
      "logsBloom": "0x00000000000000000000000000000000400000400000000000000000000000000000000000000000000000000000000000000000000000000000000000000080000000000000000000000000000002000000000000000000000000000000000000000000000000000000000000000000000000000000000000000000000000000000000000000000000000000000000000000000000000000000000000000000000000000000000100000000000000000000000000000000000000000000000000000020000000000000000000000000001000000000000000000000000000000000000000000000000000000000000000000010000000000000000800000000",
      "type": "0x2",
      "effectiveGasPrice": "0xb2d832f7"
    }
  ],
  "libraries": [],
  "pending": [],
  "returns": {},
  "timestamp": 1712534845,
  "chain": 11155111,
  "commit": "e66bf59"
}