{
  "transactions": [
    {
      "hash": "0x252db365ca528a4dff9d585b0dd78fe4af95b7c84a61f075a63e0064445b8476",
      "transactionType": "CALL",
      "contractName": null,
      "contractAddress": "0xe9c1727B668Ce1106FAA49ceA48bf1b33527E913",
      "function": "upgradeToAndCall(address,bytes)",
      "arguments": [
        "0x8ed4A2dB90e1439144a93a136E056c16710269D0",
        "0x"
      ],
      "transaction": {
        "type": "0x02",
        "from": "0x1dd37d479ac16113ff8f160210ee209944d2b28d",
        "to": "0xe9c1727b668ce1106faa49cea48bf1b33527e913",
        "gas": "0xd847",
        "value": "0x0",
        "data": "0x4f1ef2860000000000000000000000008ed4a2db90e1439144a93a136e056c16710269d000000000000000000000000000000000000000000000000000000000000000400000000000000000000000000000000000000000000000000000000000000000",
        "nonce": "0xd3",
        "accessList": []
      },
      "additionalContracts": [],
      "isFixedGasLimit": false
    }
  ],
  "receipts": [
    {
      "transactionHash": "0x252db365ca528a4dff9d585b0dd78fe4af95b7c84a61f075a63e0064445b8476",
      "transactionIndex": "0xe",
      "blockHash": "0xd8587f1c8b8894281f8979d9bb2d90945faad075d738e04824991ac75cafd0f4",
      "blockNumber": "0x53c699",
      "from": "0x1dD37D479ac16113fF8f160210Ee209944d2b28d",
      "to": "0xe9c1727B668Ce1106FAA49ceA48bf1b33527E913",
      "cumulativeGasUsed": "0x19f1c8",
      "gasUsed": "0x93e2",
      "contractAddress": null,
      "logs": [
        {
          "address": "0xe9c1727B668Ce1106FAA49ceA48bf1b33527E913",
          "topics": [
            "0xbc7cd75a20ee27fd9adebab32041f755214dbc6bffa90cc0225b39da2e5c2d3b",
            "0x0000000000000000000000008ed4a2db90e1439144a93a136e056c16710269d0"
          ],
          "data": "0x",
          "blockHash": "0xd8587f1c8b8894281f8979d9bb2d90945faad075d738e04824991ac75cafd0f4",
          "blockNumber": "0x53c699",
          "transactionHash": "0x252db365ca528a4dff9d585b0dd78fe4af95b7c84a61f075a63e0064445b8476",
          "transactionIndex": "0xe",
          "logIndex": "0x1a",
          "removed": false
        }
      ],
      "status": "0x1",
      "logsBloom": "0x00000000000000000000000000000000400000000000000000000000000000000000000000000000000000000000000000000000000000000000000000000000000000000000000000000000000002000000000000000008000000000000000000000000000000000000000000000000000000000000000000000000000000000000400000000000040000000000000000000000000000000000000000000000000000000000000000000000000000000000000000000040000000000000000000000020000020000000000000000000000000000000000000000000000000000000000000000000000000000000000000000000040000000000000000000000",
      "type": "0x2",
      "effectiveGasPrice": "0x1db5050be7"
    }
  ],
  "libraries": [],
  "pending": [],
  "returns": {},
  "timestamp": 1710498270,
  "chain": 11155111,
  "commit": "00bce6b"
}