{
  "transactions": [
    {
      "hash": "0xcf9980a27a7dc6871e46d8c83715db4d2f2ab61a8b47bbb0f3684786524001fa",
      "transactionType": "CALL",
      "contractName": null,
      "contractAddress": "0x424d41797A1EC36051cAe9385A8C8b96Aafa3b52",
      "function": "upgradeToAndCall(address,bytes)",
      "arguments": [
        "0x438aFA4Ff3E7565809707Aa2F99AACe4A1F86118",
        "0x"
      ],
      "transaction": {
        "type": "0x02",
        "from": "0x1dd37d479ac16113ff8f160210ee209944d2b28d",
        "to": "0x424d41797a1ec36051cae9385a8c8b96aafa3b52",
        "gas": "0xd7d0",
        "value": "0x0",
        "data": "0x4f1ef286000000000000000000000000438afa4ff3e7565809707aa2f99aace4a1f8611800000000000000000000000000000000000000000000000000000000000000400000000000000000000000000000000000000000000000000000000000000000",
        "nonce": "0x372",
        "accessList": []
      },
      "additionalContracts": [],
      "isFixedGasLimit": false
    }
  ],
  "receipts": [
    {
      "transactionHash": "0xcf9980a27a7dc6871e46d8c83715db4d2f2ab61a8b47bbb0f3684786524001fa",
      "transactionIndex": "0x4",
      "blockHash": "0xdbb2baeb96984b1d683bab8d3480f82225dfffb395dd830194c1e14871b4bb42",
      "blockNumber": "0x57b896",
      "from": "0x1dD37D479ac16113fF8f160210Ee209944d2b28d",
      "to": "0x424d41797A1EC36051cAe9385A8C8b96Aafa3b52",
      "cumulativeGasUsed": "0x24203",
      "gasUsed": "0x9391",
      "contractAddress": null,
      "logs": [
        {
          "address": "0x424d41797A1EC36051cAe9385A8C8b96Aafa3b52",
          "topics": [
            "0xbc7cd75a20ee27fd9adebab32041f755214dbc6bffa90cc0225b39da2e5c2d3b",
            "0x000000000000000000000000438afa4ff3e7565809707aa2f99aace4a1f86118"
          ],
          "data": "0x",
          "blockHash": "0xdbb2baeb96984b1d683bab8d3480f82225dfffb395dd830194c1e14871b4bb42",
          "blockNumber": "0x57b896",
          "transactionHash": "0xcf9980a27a7dc6871e46d8c83715db4d2f2ab61a8b47bbb0f3684786524001fa",
          "transactionIndex": "0x4",
          "logIndex": "0x2",
          "removed": false
        }
      ],
      "status": "0x1",
      "logsBloom": "0x00000000000000000000000000000000400000000000000000000000000000000000000000000000000000000000000000000000000000000000000000000000000000000000000000000000000002000000000000000000000000000000000000000000000000000000000000004000000000000000000000000000000010000000000000000000000000000000000000000000000000100000000000000000000000000000000000000000000000000080000000000000000000000000000000000020000000000000000000000800000000000000000000000000020000000000000000000000000000000000000000000000000000000000000000000000",
      "type": "0x2",
      "effectiveGasPrice": "0xb2d5ae2c"
    }
  ],
  "libraries": [],
  "pending": [],
  "returns": {},
  "timestamp": 1713739062,
  "chain": 11155111,
  "commit": "df39e50"
}