{
  "transactions": [
    {
      "hash": "0x4c8d821d5802430c092999ea7d32c3a3946cd7d06ab1a29662898f38b0c28e7c",
      "transactionType": "CALL",
      "contractName": null,
      "contractAddress": "0x1756E8ECDF73D58304e2BF8F6a8bF361B9FC29F4",
      "function": "upgradeToAndCall(address,bytes)",
      "arguments": [
        "0x73b09ea2231329f52C23b63992dD6dc13a08CC98",
        "0x"
      ],
      "transaction": {
        "type": "0x02",
        "from": "0x1dd37d479ac16113ff8f160210ee209944d2b28d",
        "to": "0x1756e8ecdf73d58304e2bf8f6a8bf361b9fc29f4",
        "gas": "0xcb27",
        "value": "0x0",
        "data": "0x4f1ef28600000000000000000000000073b09ea2231329f52c23b63992dd6dc13a08cc9800000000000000000000000000000000000000000000000000000000000000400000000000000000000000000000000000000000000000000000000000000000",
        "nonce": "0x22e",
        "accessList": []
      },
      "additionalContracts": [],
      "isFixedGasLimit": false
    }
  ],
  "receipts": [
    {
      "transactionHash": "0x4c8d821d5802430c092999ea7d32c3a3946cd7d06ab1a29662898f38b0c28e7c",
      "transactionIndex": "0x3",
      "blockHash": "0x838afd147a734ff0161d0c16ddfcd6483d748c12d29cd1697064e1dab0d21c0b",
      "blockNumber": "0x5638e3",
      "from": "0x1dD37D479ac16113fF8f160210Ee209944d2b28d",
      "to": "0x1756E8ECDF73D58304e2BF8F6a8bF361B9FC29F4",
      "cumulativeGasUsed": "0x3019f",
      "gasUsed": "0x9315",
      "contractAddress": null,
      "logs": [
        {
          "address": "0x1756E8ECDF73D58304e2BF8F6a8bF361B9FC29F4",
          "topics": [
            "0xbc7cd75a20ee27fd9adebab32041f755214dbc6bffa90cc0225b39da2e5c2d3b",
            "0x00000000000000000000000073b09ea2231329f52c23b63992dd6dc13a08cc98"
          ],
          "data": "0x",
          "blockHash": "0x838afd147a734ff0161d0c16ddfcd6483d748c12d29cd1697064e1dab0d21c0b",
          "blockNumber": "0x5638e3",
          "transactionHash": "0x4c8d821d5802430c092999ea7d32c3a3946cd7d06ab1a29662898f38b0c28e7c",
          "transactionIndex": "0x3",
          "logIndex": "0x3",
          "removed": false
        }
      ],
      "status": "0x1",
      "logsBloom": "0x00000000000000000000000000000000400000400000000000000000000000000000000000000000000000000000000000000000000000000000000000000080000000000000000000000000010002000000000000000010000000000000000000000000000000000004000000000000000000000000000000000000000000000000000000000000000000000000000000000000000000000000000000000000000000000000000000000000000000000000000000000000000000000000000000000020000000000000000000000000000000000000000000000000000000000000000000000000000000000000000000000010000000000000000000000000",
      "type": "0x2",
      "effectiveGasPrice": "0xb2d90384"
    }
  ],
  "libraries": [],
  "pending": [],
  "returns": {},
  "timestamp": 1712533961,
  "chain": 11155111,
  "commit": "4fa6e76"
}