{
  "transactions": [
    {
      "hash": "0xc4d8bca813db0276d44ecb8267124b724e801ae15a2fc5358eb710729f5a2903",
      "transactionType": "CALL",
      "contractName": null,
      "contractAddress": "0x40d3c957F6854f8F94648CC1834E66432909237A",
      "function": "upgradeToAndCall(address,bytes)",
      "arguments": [
        "0xDcFbCB2e7CAa4CA1A3f3CBdb68305984936A9C76",
        "0x"
      ],
      "transaction": {
        "type": "0x02",
        "from": "0x1dd37d479ac16113ff8f160210ee209944d2b28d",
        "to": "0x40d3c957f6854f8f94648cc1834e66432909237a",
        "gas": "0xcbdc",
        "value": "0x0",
        "data": "0x4f1ef286000000000000000000000000dcfbcb2e7caa4ca1a3f3cbdb68305984936a9c7600000000000000000000000000000000000000000000000000000000000000400000000000000000000000000000000000000000000000000000000000000000",
        "nonce": "0x3b1",
        "accessList": []
      },
      "additionalContracts": [],
      "isFixedGasLimit": false
    }
  ],
  "receipts": [
    {
      "transactionHash": "0xc4d8bca813db0276d44ecb8267124b724e801ae15a2fc5358eb710729f5a2903",
      "transactionIndex": "0x6",
      "blockHash": "0x475923205837125488af8fa2de021784c6e9c1877f5a28783fa7d10469f1548f",
      "blockNumber": "0x57bd53",
      "from": "0x1dD37D479ac16113fF8f160210Ee209944d2b28d",
      "to": "0x40d3c957F6854f8F94648CC1834E66432909237A",
      "cumulativeGasUsed": "0x460b6",
      "gasUsed": "0x9398",
      "contractAddress": null,
      "logs": [
        {
          "address": "0x40d3c957F6854f8F94648CC1834E66432909237A",
          "topics": [
            "0xbc7cd75a20ee27fd9adebab32041f755214dbc6bffa90cc0225b39da2e5c2d3b",
            "0x000000000000000000000000dcfbcb2e7caa4ca1a3f3cbdb68305984936a9c76"
          ],
          "data": "0x",
          "blockHash": "0x475923205837125488af8fa2de021784c6e9c1877f5a28783fa7d10469f1548f",
          "blockNumber": "0x57bd53",
          "transactionHash": "0xc4d8bca813db0276d44ecb8267124b724e801ae15a2fc5358eb710729f5a2903",
          "transactionIndex": "0x6",
          "logIndex": "0x4",
          "removed": false
        }
      ],
      "status": "0x1",
      "logsBloom": "0x00000000000000000080000000000000400000000000000000000000000000000008000000000000000000000000000000000000000000000000000000000000000000000020000000000000000002000000000000000000000000010000000000000000000000000000000000000000000000000000000000000000000000000000000000000000000000000000000000000000000000000000000000000000000000000000000000000000000008000000000000000000000000000000000000000028000000000000000000000000000000000000000000000000000000000000000000000000000000000000000000000000000000000000000000000000",
      "type": "0x2",
      "effectiveGasPrice": "0xb2d96617"
    }
  ],
  "libraries": [],
  "pending": [],
  "returns": {},
  "timestamp": 1713753782,
  "chain": 11155111,
  "commit": "68d2e60"
}