{
  "transactions": [
    {
      "hash": "0x47b8fd550fb2c4dcb4701b9dbeb8f027482ebc18c01c591af2d85da9c79bac90",
      "transactionType": "CALL",
      "contractName": null,
      "contractAddress": "0xe9c1727B668Ce1106FAA49ceA48bf1b33527E913",
      "function": "upgradeToAndCall(address,bytes)",
      "arguments": [
        "0xd6A2B4CF09CEa4eB28FE56E408cAA29522B92631",
        "0x"
      ],
      "transaction": {
        "type": "0x02",
        "from": "0x1dd37d479ac16113ff8f160210ee209944d2b28d",
        "to": "0xe9c1727b668ce1106faa49cea48bf1b33527e913",
        "gas": "0xcc24",
        "value": "0x0",
        "data": "0x4f1ef286000000000000000000000000d6a2b4cf09cea4eb28fe56e408caa29522b9263100000000000000000000000000000000000000000000000000000000000000400000000000000000000000000000000000000000000000000000000000000000",
        "nonce": "0xcc",
        "accessList": []
      },
      "additionalContracts": [],
      "isFixedGasLimit": false
    }
  ],
  "receipts": [
    {
      "transactionHash": "0x47b8fd550fb2c4dcb4701b9dbeb8f027482ebc18c01c591af2d85da9c79bac90",
      "transactionIndex": "0x1a",
      "blockHash": "0x7b7801d03f63c85d537425064b7c093de5acdcfa39d60d7289e5bcfcfefdcf8d",
      "blockNumber": "0x53c43e",
      "from": "0x1dD37D479ac16113fF8f160210Ee209944d2b28d",
      "to": "0xe9c1727B668Ce1106FAA49ceA48bf1b33527E913",
      "cumulativeGasUsed": "0x114d15",
      "gasUsed": "0x93cc",
      "contractAddress": null,
      "logs": [
        {
          "address": "0xe9c1727B668Ce1106FAA49ceA48bf1b33527E913",
          "topics": [
            "0xbc7cd75a20ee27fd9adebab32041f755214dbc6bffa90cc0225b39da2e5c2d3b",
            "0x000000000000000000000000d6a2b4cf09cea4eb28fe56e408caa29522b92631"
          ],
          "data": "0x",
          "blockHash": "0x7b7801d03f63c85d537425064b7c093de5acdcfa39d60d7289e5bcfcfefdcf8d",
          "blockNumber": "0x53c43e",
          "transactionHash": "0x47b8fd550fb2c4dcb4701b9dbeb8f027482ebc18c01c591af2d85da9c79bac90",
          "transactionIndex": "0x1a",
          "logIndex": "0xa",
          "removed": false
        }
      ],
      "status": "0x1",
      "logsBloom": "0x00000000000000000000000000000000400000000000000000000000000008000000000000000000000000000000000000000000000000000000000000000000000000000000000000000000000002000000000000000000000000000000000000000000000000000000000000000000000000000000000000000000000000000000400000000000000000000000004000000000000000000000000000000000000000000000040000000000000000000000000000000000000000000000000000000020000020000000000000000000000000000000000000000000000000000000000000000000000000000000000000000000040000000000000000000000",
      "type": "0x2",
      "effectiveGasPrice": "0x3c6a48e2b0"
    }
  ],
  "libraries": [],
  "pending": [],
  "returns": {},
  "timestamp": 1710490612,
  "chain": 11155111,
  "commit": "10ce204"
}