{
  "transactions": [
    {
      "hash": "0xb42bdda26f23ca53dcf24463245d929445da628d4ded98cb677608d0a95d1017",
      "transactionType": "CALL",
      "contractName": null,
      "contractAddress": "0x3E03Ada049648A54c9c8984fb2b71EAae319E49d",
      "function": "upgradeToAndCall(address,bytes)",
      "arguments": [
        "0x31A3eE160842acde3e8d519180d74Cdba7f2b7C4",
        "0x"
      ],
      "transaction": {
        "type": "0x02",
        "from": "0x1dd37d479ac16113ff8f160210ee209944d2b28d",
        "to": "0x3e03ada049648a54c9c8984fb2b71eaae319e49d",
        "gas": "0xd80d",
        "value": "0x0",
        "data": "0x4f1ef28600000000000000000000000031a3ee160842acde3e8d519180d74cdba7f2b7c400000000000000000000000000000000000000000000000000000000000000400000000000000000000000000000000000000000000000000000000000000000",
        "nonce": "0x284",
        "accessList": []
      },
      "additionalContracts": [],
      "isFixedGasLimit": false
    }
  ],
  "receipts": [
    {
      "transactionHash": "0xb42bdda26f23ca53dcf24463245d929445da628d4ded98cb677608d0a95d1017",
      "transactionIndex": "0x4",
      "blockHash": "0x91eb2dfe035c3178e5922f1e71f975126221b5227cb84f23f541be08e7bfe004",
      "blockNumber": "0x5656f5",
      "from": "0x1dD37D479ac16113fF8f160210Ee209944d2b28d",
      "to": "0x3E03Ada049648A54c9c8984fb2b71EAae319E49d",
      "cumulativeGasUsed": "0x3ded0",
      "gasUsed": "0x93bb",
      "contractAddress": null,
      "logs": [
        {
          "address": "0x3E03Ada049648A54c9c8984fb2b71EAae319E49d",
          "topics": [
            "0xbc7cd75a20ee27fd9adebab32041f755214dbc6bffa90cc0225b39da2e5c2d3b",
            "0x00000000000000000000000031a3ee160842acde3e8d519180d74cdba7f2b7c4"
          ],
          "data": "0x",
          "blockHash": "0x91eb2dfe035c3178e5922f1e71f975126221b5227cb84f23f541be08e7bfe004",
          "blockNumber": "0x5656f5",
          "transactionHash": "0xb42bdda26f23ca53dcf24463245d929445da628d4ded98cb677608d0a95d1017",
          "transactionIndex": "0x4",
          "logIndex": "0x4",
          "removed": false
        }
      ],
      "status": "0x1",
      "logsBloom": "0x00000000000000000000000000000000400000000000000000000000000000000000000000000000020000000000000000000000000000000000000000000000000000000000000000000000000002000000000000000000010000000000000000000000000000000000000000000000000000000000000000000000000000000000000000000000000000000000000000000000000000000000000000000000000000000000000000000000000000000000000000000000000000000000000000000020000000000000000000000000000000000000000000000000000004000000000000000000000000000000000004000000000000000100010000000000",
      "type": "0x2",
      "effectiveGasPrice": "0xb2d853fd"
    }
  ],
  "libraries": [],
  "pending": [],
  "returns": {},
  "timestamp": 1712630080,
  "chain": 11155111,
  "commit": "5493dc0"
}