{
  "transactions": [
    {
      "hash": "0xa7418d0d6dcbf5c7f094a603307d0ede79783cf37395d61c9e75ec078ecfe63b",
      "transactionType": "CALL",
      "contractName": null,
      "contractAddress": "0x4F42857dc6e937D5b3131873561785a87AAa3E16",
      "function": "upgradeToAndCall(address,bytes)",
      "arguments": [
        "0x7c0689dB10578A91516eBE4e4731371226D6f516",
        "0x"
      ],
      "transaction": {
        "type": "0x02",
        "from": "0x1dd37d479ac16113ff8f160210ee209944d2b28d",
        "to": "0x4f42857dc6e937d5b3131873561785a87aaa3e16",
        "gas": "0xcc3a",
        "value": "0x0",
        "data": "0x4f1ef2860000000000000000000000007c0689db10578a91516ebe4e4731371226d6f51600000000000000000000000000000000000000000000000000000000000000400000000000000000000000000000000000000000000000000000000000000000",
        "nonce": "0x16b",
        "accessList": []
      },
      "additionalContracts": [],
      "isFixedGasLimit": false
    }
  ],
  "receipts": [
    {
      "transactionHash": "0xa7418d0d6dcbf5c7f094a603307d0ede79783cf37395d61c9e75ec078ecfe63b",
      "transactionIndex": "0x6",
      "blockHash": "0xcda956ef8b330039d3a8ddb55c691fc7d062ea654832d3e4b49df9a9088225a1",
      "blockNumber": "0x557e94",
      "from": "0x1dD37D479ac16113fF8f160210Ee209944d2b28d",
      "to": "0x4F42857dc6e937D5b3131873561785a87AAa3E16",
      "cumulativeGasUsed": "0x455ea",
      "gasUsed": "0x93dc",
      "contractAddress": null,
      "logs": [
        {
          "address": "0x4F42857dc6e937D5b3131873561785a87AAa3E16",
          "topics": [
            "0xbc7cd75a20ee27fd9adebab32041f755214dbc6bffa90cc0225b39da2e5c2d3b",
            "0x0000000000000000000000007c0689db10578a91516ebe4e4731371226d6f516"
          ],
          "data": "0x",
          "blockHash": "0xcda956ef8b330039d3a8ddb55c691fc7d062ea654832d3e4b49df9a9088225a1",
          "blockNumber": "0x557e94",
          "transactionHash": "0xa7418d0d6dcbf5c7f094a603307d0ede79783cf37395d61c9e75ec078ecfe63b",
          "transactionIndex": "0x6",
          "logIndex": "0x4",
          "removed": false
        }
      ],
      "status": "0x1",
      "logsBloom": "0x00000000000000000000000000000000400000080000000000000000000000000000000000000000000000000000000000000000000000000000000000000000000000000000000000000000000002000000000000000000000000100000000000000000000000000000000000000000000000000000000000000000000001000000000000000000000000000000000000000000000008000000000000000000000000000000000000000000000000000000000000000000000000000000000000000020000000000000000000000000000000000400000000000000000000000000000000000000000000000000000000000000000000008000000000000000",
      "type": "0x2",
      "effectiveGasPrice": "0xb2d05e0c"
    }
  ],
  "libraries": [],
  "pending": [],
  "returns": {},
  "timestamp": 1711936350,
  "chain": 11155111,
  "commit": "4ff89b5"
}