{
  "transactions": [
    {
      "hash": "0x642a952184face184b50b8849c52d1e1142a1b54eb381aab71043b3f753b4982",
      "transactionType": "CALL",
      "contractName": null,
      "contractAddress": "0x2815ef0140d8e066c0D4773f881B57ca65b80bFF",
      "function": "upgradeToAndCall(address,bytes)",
      "arguments": [
        "0xFa8F52FA81662897e4459FAFF7Ec8931219693ED",
        "0x"
      ],
      "transaction": {
        "type": "0x02",
        "from": "0x1dd37d479ac16113ff8f160210ee209944d2b28d",
        "to": "0x2815ef0140d8e066c0d4773f881b57ca65b80bff",
        "gas": "0xcc51",
        "value": "0x0",
        "data": "0x4f1ef286000000000000000000000000fa8f52fa81662897e4459faff7ec8931219693ed00000000000000000000000000000000000000000000000000000000000000400000000000000000000000000000000000000000000000000000000000000000",
        "nonce": "0x126",
        "accessList": []
      },
      "additionalContracts": [],
      "isFixedGasLimit": false
    }
  ],
  "receipts": [
    {
      "transactionHash": "0x642a952184face184b50b8849c52d1e1142a1b54eb381aab71043b3f753b4982",
      "transactionIndex": "0x3",
      "blockHash": "0xe0011b73d66e2ba92021ef139bb647a97adb9fd1dc5dd1170f60b8b6ba3f5b78",
      "blockNumber": "0x540f66",
      "from": "0x1dD37D479ac16113fF8f160210Ee209944d2b28d",
      "to": "0x2815ef0140d8e066c0D4773f881B57ca65b80bFF",
      "cumulativeGasUsed": "0x5471d",
      "gasUsed": "0x93ed",
      "contractAddress": null,
      "logs": [
        {
          "address": "0x2815ef0140d8e066c0D4773f881B57ca65b80bFF",
          "topics": [
            "0xbc7cd75a20ee27fd9adebab32041f755214dbc6bffa90cc0225b39da2e5c2d3b",
            "0x000000000000000000000000fa8f52fa81662897e4459faff7ec8931219693ed"
          ],
          "data": "0x",
          "blockHash": "0xe0011b73d66e2ba92021ef139bb647a97adb9fd1dc5dd1170f60b8b6ba3f5b78",
          "blockNumber": "0x540f66",
          "transactionHash": "0x642a952184face184b50b8849c52d1e1142a1b54eb381aab71043b3f753b4982",
          "transactionIndex": "0x3",
          "logIndex": "0x5",
          "removed": false
        }
      ],
      "status": "0x1",
      "logsBloom": "0x00000000000000000000000000000000400000000000000000000000000000000002000000000000000000020000000000000000000000000000000000000000000000000000000000000000000002000000000000000000000000000000000000000000000000000000000000000000000000000000000000000000000000000000000000000000000000000000000000000000000000000000000008000000000000000000000000000000000000000000000000000000000000000000000000000020000000000000000000000000000000000000000000000000000010800000000000000000000000000000000000000000080000000000000000000000",
      "type": "0x2",
      "effectiveGasPrice": "0x1c9859fa5"
    }
  ],
  "libraries": [],
  "pending": [],
  "returns": {},
  "timestamp": 1710734873,
  "chain": 11155111,
  "commit": "fabdd4e"
}