{
  "transactions": [
    {
      "hash": "0x61ef962cae4ce86f34df2b65f2e23b5dce4ae6623bbeee5d59821aea3cfcfa91",
      "transactionType": "CALL",
      "contractName": null,
      "contractAddress": "0xB7396333135FD3D20e357c29A6685F0ae8aa699a",
      "function": "upgradeToAndCall(address,bytes)",
      "arguments": [
        "0x92c9eE7740F85517069aeE4cf8248072bAd1f8Fb",
        "0x"
      ],
      "transaction": {
        "type": "0x02",
        "from": "0x1dd37d479ac16113ff8f160210ee209944d2b28d",
        "to": "0xb7396333135fd3d20e357c29a6685f0ae8aa699a",
        "gas": "0xcc51",
        "value": "0x0",
        "data": "0x4f1ef28600000000000000000000000092c9ee7740f85517069aee4cf8248072bad1f8fb00000000000000000000000000000000000000000000000000000000000000400000000000000000000000000000000000000000000000000000000000000000",
        "nonce": "0x1ac",
        "accessList": []
      },
      "additionalContracts": [],
      "isFixedGasLimit": false
    }
  ],
  "receipts": [
    {
      "transactionHash": "0x61ef962cae4ce86f34df2b65f2e23b5dce4ae6623bbeee5d59821aea3cfcfa91",
      "transactionIndex": "0xb",
      "blockHash": "0x6cd2f4945390b28baf7dde421a2b1c852b54ef2741afb3cd117cbdc304cbfc18",
      "blockNumber": "0x55df4a",
      "from": "0x1dD37D479ac16113fF8f160210Ee209944d2b28d",
      "to": "0xB7396333135FD3D20e357c29A6685F0ae8aa699a",
      "cumulativeGasUsed": "0xac209",
      "gasUsed": "0x93ed",
      "contractAddress": null,
      "logs": [
        {
          "address": "0xB7396333135FD3D20e357c29A6685F0ae8aa699a",
          "topics": [
            "0xbc7cd75a20ee27fd9adebab32041f755214dbc6bffa90cc0225b39da2e5c2d3b",
            "0x00000000000000000000000092c9ee7740f85517069aee4cf8248072bad1f8fb"
          ],
          "data": "0x",
          "blockHash": "0x6cd2f4945390b28baf7dde421a2b1c852b54ef2741afb3cd117cbdc304cbfc18",
          "blockNumber": "0x55df4a",
          "transactionHash": "0x61ef962cae4ce86f34df2b65f2e23b5dce4ae6623bbeee5d59821aea3cfcfa91",
          "transactionIndex": "0xb",
          "logIndex": "0xa",
          "removed": false
        }
      ],
      "status": "0x1",
      "logsBloom": "0x00000000000000000000000000000000400000000000000000000000000000000000000000000000000000000000000000000000040000000000000000000000000000000000000000000000000002000000000000000000002000000000000000000000000000000000000000000000000000000000000100000000000000000000000000000000000000000000000000000000000000000000004000000000000080000000000008000000000000000000000000000000000000000000000000000020000000000000000000000000000000000000000000000000000000000000000000000000000000000000000000000000000000000000000000000000",
      "type": "0x2",
      "effectiveGasPrice": "0x17bb1a71a"
    }
  ],
  "libraries": [],
  "pending": [],
  "returns": {},
  "timestamp": 1712237165,
  "chain": 11155111,
  "commit": "9e3a55e"
}