{
  "transactions": [
    {
      "hash": "0xf2288f9729d98e3a1fb6d575ecb71548442811195a1a0303592487345ce22b54",
      "transactionType": "CALL",
      "contractName": null,
      "contractAddress": "0x11E32F00aBA24ecf2Ad590F83e36138f996A55b9",
      "function": "upgradeToAndCall(address,bytes)",
      "arguments": [
        "0xD8ff53e18598Fb73Ca10443CAe05BA9294CEc823",
        "0x"
      ],
      "transaction": {
        "type": "0x02",
        "from": "0x1dd37d479ac16113ff8f160210ee209944d2b28d",
        "to": "0x11e32f00aba24ecf2ad590f83e36138f996a55b9",
        "gas": "0xcc51",
        "value": "0x0",
        "data": "0x4f1ef286000000000000000000000000d8ff53e18598fb73ca10443cae05ba9294cec82300000000000000000000000000000000000000000000000000000000000000400000000000000000000000000000000000000000000000000000000000000000",
        "nonce": "0x1d6",
        "accessList": []
      },
      "additionalContracts": [],
      "isFixedGasLimit": false
    }
  ],
  "receipts": [
    {
      "transactionHash": "0xf2288f9729d98e3a1fb6d575ecb71548442811195a1a0303592487345ce22b54",
      "transactionIndex": "0x6",
      "blockHash": "0x0c73641eea98cae7b78b222c75a5d47f51e4d71ae2119fa786c8a47cb574eb90",
      "blockNumber": "0x55e9b1",
      "from": "0x1dD37D479ac16113fF8f160210Ee209944d2b28d",
      "to": "0x11E32F00aBA24ecf2Ad590F83e36138f996A55b9",
      "cumulativeGasUsed": "0x2f03e",
      "gasUsed": "0x93ed",
      "contractAddress": null,
      "logs": [
        {
          "address": "0x11E32F00aBA24ecf2Ad590F83e36138f996A55b9",
          "topics": [
            "0xbc7cd75a20ee27fd9adebab32041f755214dbc6bffa90cc0225b39da2e5c2d3b",
            "0x000000000000000000000000d8ff53e18598fb73ca10443cae05ba9294cec823"
          ],
          "data": "0x",
          "blockHash": "0x0c73641eea98cae7b78b222c75a5d47f51e4d71ae2119fa786c8a47cb574eb90",
          "blockNumber": "0x55e9b1",
          "transactionHash": "0xf2288f9729d98e3a1fb6d575ecb71548442811195a1a0303592487345ce22b54",
          "transactionIndex": "0x6",
          "logIndex": "0x2",
          "removed": false
        }
      ],
      "status": "0x1",
      "logsBloom": "0x00000000000000000000000000000000400000000000000000000000000000000008000000000000000000000000000000000000000000000000000000000400000000000000000000000000000002000000000000000000000000000000000000000000000000000000000000000000000000000000020000000000000000000000000000000000000000000000000000000000000000000000000000000000000000200000000000000000000000000000000000000000000000000000000000000020000000000000000000000000000000000000000000000000000000000008000010000000000000000000000000000000000000000000000000000000",
      "type": "0x2",
      "effectiveGasPrice": "0xb2d05e0e"
    }
  ],
  "libraries": [],
  "pending": [],
  "returns": {},
  "timestamp": 1712270873,
  "chain": 11155111,
  "commit": "d45dc0e"
}