{
  "transactions": [
    {
      "hash": "0x14331ea125c5f1132d434b3ad057f255e2091530b794c1d1717a529a617b2585",
      "transactionType": "CALL",
      "contractName": null,
      "contractAddress": "0xAE8C09948fE8cA98adAB9f560E352Df70C25AcC7",
      "function": "upgradeToAndCall(address,bytes)",
      "arguments": [
        "0x79c400F81aC11b87C5715ca14602cFeCf9465c69",
        "0x"
      ],
      "transaction": {
        "type": "0x02",
        "from": "0x1dd37d479ac16113ff8f160210ee209944d2b28d",
        "to": "0xae8c09948fe8ca98adab9f560e352df70c25acc7",
        "gas": "0xcb75",
        "value": "0x0",
        "data": "0x4f1ef28600000000000000000000000079c400f81ac11b87c5715ca14602cfecf9465c6900000000000000000000000000000000000000000000000000000000000000400000000000000000000000000000000000000000000000000000000000000000",
        "nonce": "0xcf",
        "accessList": []
      },
      "additionalContracts": [],
      "isFixedGasLimit": false
    }
  ],
  "receipts": [
    {
      "transactionHash": "0x14331ea125c5f1132d434b3ad057f255e2091530b794c1d1717a529a617b2585",
      "transactionIndex": "0x50",
      "blockHash": "0xa77360573e6a7dbae6ac0225524a76049ba02d511ab37033ad07618aa5f8fd22",
      "blockNumber": "0x53c506",
      "from": "0x1dD37D479ac16113fF8f160210Ee209944d2b28d",
      "to": "0xAE8C09948fE8cA98adAB9f560E352Df70C25AcC7",
      "cumulativeGasUsed": "0x3646ab",
      "gasUsed": "0x934e",
      "contractAddress": null,
      "logs": [
        {
          "address": "0xAE8C09948fE8cA98adAB9f560E352Df70C25AcC7",
          "topics": [
            "0xbc7cd75a20ee27fd9adebab32041f755214dbc6bffa90cc0225b39da2e5c2d3b",
            "0x00000000000000000000000079c400f81ac11b87c5715ca14602cfecf9465c69"
          ],
          "data": "0x",
          "blockHash": "0xa77360573e6a7dbae6ac0225524a76049ba02d511ab37033ad07618aa5f8fd22",
          "blockNumber": "0x53c506",
          "transactionHash": "0x14331ea125c5f1132d434b3ad057f255e2091530b794c1d1717a529a617b2585",
          "transactionIndex": "0x50",
          "logIndex": "0x1d",
          "removed": false
        }
      ],
      "status": "0x1",
      "logsBloom": "0x00000000000000000000000000000000400000000000000000000000000000000000000000000000000000000000000000000000000000000000000000000000000000000000000000000000000082000000000000000000100000000000000000000000000000000000000000000000000000000040000000000000000000000000000800000000000000000000000000000000000000000000000000000000000000000000000000000000000000000000000000000000000040000000000000000020000000000000000000000000000000000000000000000000000000000000000000000000000000000000000000000000000000000000000000000000",
      "type": "0x2",
      "effectiveGasPrice": "0x24a775e132"
    }
  ],
  "libraries": [],
  "pending": [],
  "returns": {},
  "timestamp": 1710493180,
  "chain": 11155111,
  "commit": "00bce6b"
}