{
  "transactions": [
    {
      "hash": "0x9c3683fb26ec15f0e03d04f66e40cff2120bf82e5d38ac3b5e4f25f622564d0b",
      "transactionType": "CALL",
      "contractName": null,
      "contractAddress": "0x1756E8ECDF73D58304e2BF8F6a8bF361B9FC29F4",
      "function": "upgradeToAndCall(address,bytes)",
      "arguments": [
        "0x388a0A5D41112898826F19b1A6a50a08c5981508",
        "0x"
      ],
      "transaction": {
        "type": "0x02",
        "from": "0x1dd37d479ac16113ff8f160210ee209944d2b28d",
        "to": "0x1756e8ecdf73d58304e2bf8f6a8bf361b9fc29f4",
        "gas": "0xd75b",
        "value": "0x0",
        "data": "0x4f1ef286000000000000000000000000388a0a5d41112898826f19b1a6a50a08c598150800000000000000000000000000000000000000000000000000000000000000400000000000000000000000000000000000000000000000000000000000000000",
        "nonce": "0x235",
        "accessList": []
      },
      "additionalContracts": [],
      "isFixedGasLimit": false
    }
  ],
  "receipts": [
    {
      "transactionHash": "0x9c3683fb26ec15f0e03d04f66e40cff2120bf82e5d38ac3b5e4f25f622564d0b",
      "transactionIndex": "0x2",
      "blockHash": "0x2becee8d44e987d5cc75f413e75edad8dd1eb9579ee5cfdd7d3c2cbe59291cde",
      "blockNumber": "0x5639b4",
      "from": "0x1dD37D479ac16113fF8f160210Ee209944d2b28d",
      "to": "0x1756E8ECDF73D58304e2BF8F6a8bF361B9FC29F4",
      "cumulativeGasUsed": "0x19da3",
      "gasUsed": "0x9341",
      "contractAddress": null,
      "logs": [
        {
          "address": "0x1756E8ECDF73D58304e2BF8F6a8bF361B9FC29F4",
          "topics": [
            "0xbc7cd75a20ee27fd9adebab32041f755214dbc6bffa90cc0225b39da2e5c2d3b",
            "0x000000000000000000000000388a0a5d41112898826f19b1a6a50a08c5981508"
          ],
          "data": "0x",
          "blockHash": "0x2becee8d44e987d5cc75f413e75edad8dd1eb9579ee5cfdd7d3c2cbe59291cde",
          "blockNumber": "0x5639b4",
          "transactionHash": "0x9c3683fb26ec15f0e03d04f66e40cff2120bf82e5d38ac3b5e4f25f622564d0b",
          "transactionIndex": "0x2",
          "logIndex": "0x2",
          "removed": false
        }
      ],
      "status": "0x1",
      "logsBloom": "0x00000000000000000000000000000000400000400000000000000000001000000000000000000000000002000000000000000000000000000000000000000080000000000000000000000000000002000000000000000000000000000000000000000010000000000000000000000000000000000000000000000000000000000000000000000000000000000000000000000000000000000000000000000000000000000000000000000000000000000000000000000000000000000000000000000020000000000000000000000000000000000000000000000000000000000000000000000000000000000000000000000010000000000000000000000000",
      "type": "0x2",
      "effectiveGasPrice": "0xb2d5b8ad"
    }
  ],
  "libraries": [],
  "pending": [],
  "returns": {},
  "timestamp": 1712536563,
  "chain": 11155111,
  "commit": "3b4c1b5"
}