{
  "transactions": [
    {
      "hash": "0x6e2cfb663053f54d2426ec5600ce97cbc75c7aff8e176df8ed558f8cb9875cf4",
      "transactionType": "CALL",
      "contractName": null,
      "contractAddress": "0xB7396333135FD3D20e357c29A6685F0ae8aa699a",
      "function": "upgradeToAndCall(address,bytes)",
      "arguments": [
        "0x90DCfDe9aDBBFedb0237e7D6b60CF4f907c39dA8",
        "0x"
      ],
      "transaction": {
        "type": "0x02",
        "from": "0x1dd37d479ac16113ff8f160210ee209944d2b28d",
        "to": "0xb7396333135fd3d20e357c29a6685f0ae8aa699a",
        "gas": "0xcc51",
        "value": "0x0",
        "data": "0x4f1ef28600000000000000000000000090dcfde9adbbfedb0237e7d6b60cf4f907c39da800000000000000000000000000000000000000000000000000000000000000400000000000000000000000000000000000000000000000000000000000000000",
        "nonce": "0x17c",
        "accessList": []
      },
      "additionalContracts": [],
      "isFixedGasLimit": false
    }
  ],
  "receipts": [
    {
      "transactionHash": "0x6e2cfb663053f54d2426ec5600ce97cbc75c7aff8e176df8ed558f8cb9875cf4",
      "transactionIndex": "0x29",
      "blockHash": "0x882a88a79f0b5b90ac192cf60973ec11e9170d034b7f2924cb9792b0cd8d2b6a",
      "blockNumber": "0x55c401",
      "from": "0x1dD37D479ac16113fF8f160210Ee209944d2b28d",
      "to": "0xB7396333135FD3D20e357c29A6685F0ae8aa699a",
      "cumulativeGasUsed": "0x3cc93d",
      "gasUsed": "0x93ed",
      "contractAddress": null,
      "logs": [
        {
          "address": "0xB7396333135FD3D20e357c29A6685F0ae8aa699a",
          "topics": [
            "0xbc7cd75a20ee27fd9adebab32041f755214dbc6bffa90cc0225b39da2e5c2d3b",
            "0x00000000000000000000000090dcfde9adbbfedb0237e7d6b60cf4f907c39da8"
          ],
          "data": "0x",
          "blockHash": "0x882a88a79f0b5b90ac192cf60973ec11e9170d034b7f2924cb9792b0cd8d2b6a",
          "blockNumber": "0x55c401",
          "transactionHash": "0x6e2cfb663053f54d2426ec5600ce97cbc75c7aff8e176df8ed558f8cb9875cf4",
          "transactionIndex": "0x29",
          "logIndex": "0x36",
          "removed": false
        }
      ],
      "status": "0x1",
      "logsBloom": "0x00000000000000000000000000000000400000000000000000000000000000000000000000000000000000000000000000000000040000000000000000000000000000000000000000000000000002000000000000000000002000000000000000000000000000000000000000000000000000000000000000000000000000000000000000000000000000000000000000000000000000000000004000000000000000000000000000000000000000000000000000000000000000000000000000000020000000000000000000000000000000000000000000000000000000000000000002000000010000400000000000000000000000000000000000000000",
      "type": "0x2",
      "effectiveGasPrice": "0xb3f3a87a"
    }
  ],
  "libraries": [],
  "pending": [],
  "returns": {},
  "timestamp": 1712149886,
  "chain": 11155111,
  "commit": "5ba60e0"
}