{
  "transactions": [
    {
      "hash": "0x41d5efe48518956de2d1340f6daa2970e35196732a412ae619ba278395889835",
      "transactionType": "CALL",
      "contractName": null,
      "contractAddress": "0x4F42857dc6e937D5b3131873561785a87AAa3E16",
      "function": "upgradeToAndCall(address,bytes)",
      "arguments": [
        "0x3E05bfF090D582762d7A880B4C4d59a089F35A8f",
        "0x"
      ],
      "transaction": {
        "type": "0x02",
        "from": "0x1dd37d479ac16113ff8f160210ee209944d2b28d",
        "to": "0x4f42857dc6e937d5b3131873561785a87aaa3e16",
        "gas": "0xcc75",
        "value": "0x0",
        "data": "0x4f1ef2860000000000000000000000003e05bff090d582762d7a880b4c4d59a089f35a8f00000000000000000000000000000000000000000000000000000000000000400000000000000000000000000000000000000000000000000000000000000000",
        "nonce": "0x17e",
        "accessList": []
      },
      "additionalContracts": [],
      "isFixedGasLimit": false
    }
  ],
  "receipts": [
    {
      "transactionHash": "0x41d5efe48518956de2d1340f6daa2970e35196732a412ae619ba278395889835",
      "transactionIndex": "0x8",
      "blockHash": "0xd656e021117a28a272da3abb9cbec8b63f9b065806fcd4258090046cea9e3471",
      "blockNumber": "0x55c441",
      "from": "0x1dD37D479ac16113fF8f160210Ee209944d2b28d",
      "to": "0x4F42857dc6e937D5b3131873561785a87AAa3E16",
      "cumulativeGasUsed": "0x4ee08",
      "gasUsed": "0x9407",
      "contractAddress": null,
      "logs": [
        {
          "address": "0x4F42857dc6e937D5b3131873561785a87AAa3E16",
          "topics": [
            "0xbc7cd75a20ee27fd9adebab32041f755214dbc6bffa90cc0225b39da2e5c2d3b",
            "0x0000000000000000000000003e05bff090d582762d7a880b4c4d59a089f35a8f"
          ],
          "data": "0x",
          "blockHash": "0xd656e021117a28a272da3abb9cbec8b63f9b065806fcd4258090046cea9e3471",
          "blockNumber": "0x55c441",
          "transactionHash": "0x41d5efe48518956de2d1340f6daa2970e35196732a412ae619ba278395889835",
          "transactionIndex": "0x8",
          "logIndex": "0x3",
          "removed": false
        }
      ],
      "status": "0x1",
      "logsBloom": "0x00000000000000000000000000000000400000000000000000000000000000000000000000000000000000000000000000000000000000000000000000000000000000000000000000000000000002000000000000000000040000100000000000000000000000000000000000000000000000000000000000000000000001000000000000000000000000000000000000000000000000000000000000000000000000000000000000000000000200000000000000000000000000000000000000000020000000800000000000000000000000000000000000000000000000000000000000000000000000000000000000000000000000008000000000000000",
      "type": "0x2",
      "effectiveGasPrice": "0x101a5f638"
    }
  ],
  "libraries": [],
  "pending": [],
  "returns": {},
  "timestamp": 1712150658,
  "chain": 11155111,
  "commit": "5ba60e0"
}