{
  "transactions": [
    {
      "hash": "0xfcf7fec757688ad005bb4d1e41fc9e4f4be71a86fb4206a879ec662fd1c0b1b8",
      "transactionType": "CALL",
      "contractName": null,
      "contractAddress": "0xAE8C09948fE8cA98adAB9f560E352Df70C25AcC7",
      "function": "upgradeToAndCall(address,bytes)",
      "arguments": [
        "0x2a002B1a0CbBBb855a5480FF367400a1F0b05648",
        "0x"
      ],
      "transaction": {
        "type": "0x02",
        "from": "0x1dd37d479ac16113ff8f160210ee209944d2b28d",
        "to": "0xae8c09948fe8ca98adab9f560e352df70c25acc7",
        "gas": "0xcba2",
        "value": "0x0",
        "data": "0x4f1ef2860000000000000000000000002a002b1a0cbbbb855a5480ff367400a1f0b0564800000000000000000000000000000000000000000000000000000000000000400000000000000000000000000000000000000000000000000000000000000000",
        "nonce": "0xbb",
        "accessList": []
      },
      "additionalContracts": [],
      "isFixedGasLimit": false
    }
  ],
  "receipts": [
    {
      "transactionHash": "0xfcf7fec757688ad005bb4d1e41fc9e4f4be71a86fb4206a879ec662fd1c0b1b8",
      "transactionIndex": "0x31",
      "blockHash": "0x5fb461d88b880968a8a9c9a8cd11636139e808dab8eb06791933baf896264628",
      "blockNumber": "0x53be4c",
      "from": "0x1dD37D479ac16113fF8f160210Ee209944d2b28d",
      "to": "0xAE8C09948fE8cA98adAB9f560E352Df70C25AcC7",
      "cumulativeGasUsed": "0x3055c9",
      "gasUsed": "0x936e",
      "contractAddress": null,
      "logs": [
        {
          "address": "0xAE8C09948fE8cA98adAB9f560E352Df70C25AcC7",
          "topics": [
            "0xbc7cd75a20ee27fd9adebab32041f755214dbc6bffa90cc0225b39da2e5c2d3b",
            "0x0000000000000000000000002a002b1a0cbbbb855a5480ff367400a1f0b05648"
          ],
          "data": "0x",
          "blockHash": "0x5fb461d88b880968a8a9c9a8cd11636139e808dab8eb06791933baf896264628",
          "blockNumber": "0x53be4c",
          "transactionHash": "0xfcf7fec757688ad005bb4d1e41fc9e4f4be71a86fb4206a879ec662fd1c0b1b8",
          "transactionIndex": "0x31",
          "logIndex": "0x32",
          "removed": false
        }
      ],
      "status": "0x1",
      "logsBloom": "0x00000000000000000000000000000000400000000000000000000000000000000000000000000000000000000000000000000000000000000000000000000000000000000000000000000000000082000000000000000000100000000000000000000000000000000000000000000000000000000000000000000000000000000000000000000000000000000000000000000000000000000000000000000000000004000040000000000000000000000000000000000000000000000000000000000020000000000000000000000000000000010000000000000000000000000000000000000000000000000000000000000000000000000000000000000000",
      "type": "0x2",
      "effectiveGasPrice": "0x21795a7356"
    }
  ],
  "libraries": [],
  "pending": [],
  "returns": {},
  "timestamp": 1710471317,
  "chain": 11155111,
  "commit": "65ab00b"
}