{
  "transactions": [
    {
      "hash": "0x224223238abf3ea31668677692a1256afe206d749f1f05491b4e19aec1421c77",
      "transactionType": "CALL",
      "contractName": null,
      "contractAddress": "0xB7396333135FD3D20e357c29A6685F0ae8aa699a",
      "function": "upgradeToAndCall(address,bytes)",
      "arguments": [
        "0x02ADB4a179509D81649bf726534FF4fFf291807e",
        "0x"
      ],
      "transaction": {
        "type": "0x02",
        "from": "0x1dd37d479ac16113ff8f160210ee209944d2b28d",
        "to": "0xb7396333135fd3d20e357c29a6685f0ae8aa699a",
        "gas": "0xcc51",
        "value": "0x0",
        "data": "0x4f1ef28600000000000000000000000002adb4a179509d81649bf726534ff4fff291807e00000000000000000000000000000000000000000000000000000000000000400000000000000000000000000000000000000000000000000000000000000000",
        "nonce": "0x1aa",
        "accessList": []
      },
      "additionalContracts": [],
      "isFixedGasLimit": false
    }
  ],
  "receipts": [
    {
      "transactionHash": "0x224223238abf3ea31668677692a1256afe206d749f1f05491b4e19aec1421c77",
      "transactionIndex": "0x6",
      "blockHash": "0x9c075086f49200f56b3e810791e8334106480efc51890adc5f01dfb0b318bbc7",
      "blockNumber": "0x55de3a",
      "from": "0x1dD37D479ac16113fF8f160210Ee209944d2b28d",
      "to": "0xB7396333135FD3D20e357c29A6685F0ae8aa699a",
      "cumulativeGasUsed": "0x2b346",
      "gasUsed": "0x93ed",
      "contractAddress": null,
      "logs": [
        {
          "address": "0xB7396333135FD3D20e357c29A6685F0ae8aa699a",
          "topics": [
            "0xbc7cd75a20ee27fd9adebab32041f755214dbc6bffa90cc0225b39da2e5c2d3b",
            "0x00000000000000000000000002adb4a179509d81649bf726534ff4fff291807e"
          ],
          "data": "0x",
          "blockHash": "0x9c075086f49200f56b3e810791e8334106480efc51890adc5f01dfb0b318bbc7",
          "blockNumber": "0x55de3a",
          "transactionHash": "0x224223238abf3ea31668677692a1256afe206d749f1f05491b4e19aec1421c77",
          "transactionIndex": "0x6",
          "logIndex": "0x1",
          "removed": false
        }
      ],
      "status": "0x1",
      "logsBloom": "0x00000000000000000000000000000000400000000000000000000000000000000000000000000000000000000000000000000000040000000000000000000000000000000000000000000000000002000000000000000000002000000000000000000000000000000000000000000000000000000000000000000000000000000000000008000000000000000000000000000000000000000000004000000000000000000000000000000000000000000000000000000000000000000000000000000020000002000000000000000000000000000000000000000000000000000000000000000000000000000000000000080000000000000000000000000000",
      "type": "0x2",
      "effectiveGasPrice": "0xc55c6070"
    }
  ],
  "libraries": [],
  "pending": [],
  "returns": {},
  "timestamp": 1712233769,
  "chain": 11155111,
  "commit": "9e3a55e"
}