{
  "transactions": [
    {
      "hash": "0x7a6c15b05ba9bec3182ddb426eec679c174f43f4297b6521cb9e7db9f2769b80",
      "transactionType": "CALL",
      "contractName": null,
      "contractAddress": "0xB7396333135FD3D20e357c29A6685F0ae8aa699a",
      "function": "upgradeToAndCall(address,bytes)",
      "arguments": [
        "0x43be30d00ed857360343Fd4D06E3033Ae3A69948",
        "0x"
      ],
      "transaction": {
        "type": "0x02",
        "from": "0x1dd37d479ac16113ff8f160210ee209944d2b28d",
        "to": "0xb7396333135fd3d20e357c29a6685f0ae8aa699a",
        "gas": "0xcc51",
        "value": "0x0",
        "data": "0x4f1ef28600000000000000000000000043be30d00ed857360343fd4d06e3033ae3a6994800000000000000000000000000000000000000000000000000000000000000400000000000000000000000000000000000000000000000000000000000000000",
        "nonce": "0x1a3",
        "accessList": []
      },
      "additionalContracts": [],
      "isFixedGasLimit": false
    }
  ],
  "receipts": [
    {
      "transactionHash": "0x7a6c15b05ba9bec3182ddb426eec679c174f43f4297b6521cb9e7db9f2769b80",
      "transactionIndex": "0x8",
      "blockHash": "0xa57bb5834b7c0aa6e199494cfb90a733f224fcf40a6a6090c1af0e93aa0cc4b2",
      "blockNumber": "0x55d44b",
      "from": "0x1dD37D479ac16113fF8f160210Ee209944d2b28d",
      "to": "0xB7396333135FD3D20e357c29A6685F0ae8aa699a",
      "cumulativeGasUsed": "0x9efeb",
      "gasUsed": "0x93ed",
      "contractAddress": null,
      "logs": [
        {
          "address": "0xB7396333135FD3D20e357c29A6685F0ae8aa699a",
          "topics": [
            "0xbc7cd75a20ee27fd9adebab32041f755214dbc6bffa90cc0225b39da2e5c2d3b",
            "0x00000000000000000000000043be30d00ed857360343fd4d06e3033ae3a69948"
          ],
          "data": "0x",
          "blockHash": "0xa57bb5834b7c0aa6e199494cfb90a733f224fcf40a6a6090c1af0e93aa0cc4b2",
          "blockNumber": "0x55d44b",
          "transactionHash": "0x7a6c15b05ba9bec3182ddb426eec679c174f43f4297b6521cb9e7db9f2769b80",
          "transactionIndex": "0x8",
          "logIndex": "0x9",
          "removed": false
        }
      ],
      "status": "0x1",
      "logsBloom": "0x00000000000000000000000000000000400000000000000000400000000000000000000000000000000000000000000000000000040000000000000000000000000000000000000000000000000002000000000000000000002000000000000000000000000000000000000000000000000000000000000000000000000000000000000000000000000000000000000000000000000000000000004000000000000000000000000000000000000000000000000000000002000000000000000000000020000000000000000000000000000000080000000000000000000000000000000000000000000000000000000000000000000000000000000000000000",
      "type": "0x2",
      "effectiveGasPrice": "0xb2d05e14"
    }
  ],
  "libraries": [],
  "pending": [],
  "returns": {},
  "timestamp": 1712201440,
  "chain": 11155111,
  "commit": "9e3a55e"
}