{
  "transactions": [
    {
      "hash": "0xdc05fb90282a8d83a5d420efe29f5d86034ad72908148c7a73a8a5a2382a495d",
      "transactionType": "CALL",
      "contractName": null,
      "contractAddress": "0x4FCfc8ce8E2FA6cf77b7d89DcDBFb9b14ff7397A",
      "function": "upgradeToAndCall(address,bytes)",
      "arguments": [
        "0x5343Ba218A688910876FBCAF5ED622878C6eaE6a",
        "0x"
      ],
      "transaction": {
        "type": "0x02",
        "from": "0x1dd37d479ac16113ff8f160210ee209944d2b28d",
        "to": "0x4fcfc8ce8e2fa6cf77b7d89dcdbfb9b14ff7397a",
        "gas": "0xd75d",
        "value": "0x0",
        "data": "0x4f1ef2860000000000000000000000005343ba218a688910876fbcaf5ed622878c6eae6a00000000000000000000000000000000000000000000000000000000000000400000000000000000000000000000000000000000000000000000000000000000",
        "nonce": "0x2ed",
        "accessList": []
      },
      "additionalContracts": [],
      "isFixedGasLimit": false
    }
  ],
  "receipts": [
    {
      "transactionHash": "0xdc05fb90282a8d83a5d420efe29f5d86034ad72908148c7a73a8a5a2382a495d",
      "transactionIndex": "0x7",
      "blockHash": "0xd155d2980b190d1959c2f5a827c4cdae2bf636223f29b5a37bed7f94b17b467e",
      "blockNumber": "0x5726ac",
      "from": "0x1dD37D479ac16113fF8f160210Ee209944d2b28d",
      "to": "0x4FCfc8ce8E2FA6cf77b7d89DcDBFb9b14ff7397A",
      "cumulativeGasUsed": "0x4620b",
      "gasUsed": "0x9342",
      "contractAddress": null,
      "logs": [
        {
          "address": "0x4FCfc8ce8E2FA6cf77b7d89DcDBFb9b14ff7397A",
          "topics": [
            "0xbc7cd75a20ee27fd9adebab32041f755214dbc6bffa90cc0225b39da2e5c2d3b",
            "0x0000000000000000000000005343ba218a688910876fbcaf5ed622878c6eae6a"
          ],
          "data": "0x",
          "blockHash": "0xd155d2980b190d1959c2f5a827c4cdae2bf636223f29b5a37bed7f94b17b467e",
          "blockNumber": "0x5726ac",
          "transactionHash": "0xdc05fb90282a8d83a5d420efe29f5d86034ad72908148c7a73a8a5a2382a495d",
          "transactionIndex": "0x7",
          "logIndex": "0x5",
          "removed": false
        }
      ],
      "status": "0x1",
      "logsBloom": "0x00000000000000000000000000000000400000000080000000000000000000000000000000000000000000000000000000000000000000000000000000000000000000000000000000000000000002000000000000000000000008000000000000000000000000000000010000000000000000000000000000000000000000000000000000000000000000000040000000000000000000000000000000000000000100000000000000000000000000000000000000000001000000000000000000000020000000000000000000000000000000000000000000000000000000000000000000000000000000000000000000000000000000000000000000000000",
      "type": "0x2",
      "effectiveGasPrice": "0xb319f7b9"
    }
  ],
  "libraries": [],
  "pending": [],
  "returns": {},
  "timestamp": 1713280876,
  "chain": 11155111,
  "commit": "53be4fa"
}