{
  "transactions": [
    {
      "hash": "0xb8562e4a023e2f4997d4d405b05f856b9161803647bc3dfff54e0fd001a24234",
      "transactionType": "CALL",
      "contractName": null,
      "contractAddress": "0xe9c1727B668Ce1106FAA49ceA48bf1b33527E913",
      "function": "upgradeToAndCall(address,bytes)",
      "arguments": [
        "0x06Cf41d3F387494C319F81D4c14C5a22caBd6544",
        "0x"
      ],
      "transaction": {
        "type": "0x02",
        "from": "0x1dd37d479ac16113ff8f160210ee209944d2b28d",
        "to": "0xe9c1727b668ce1106faa49cea48bf1b33527e913",
        "gas": "0xcc06",
        "value": "0x0",
        "data": "0x4f1ef28600000000000000000000000006cf41d3f387494c319f81d4c14c5a22cabd654400000000000000000000000000000000000000000000000000000000000000400000000000000000000000000000000000000000000000000000000000000000",
        "nonce": "0xb1",
        "accessList": []
      },
      "additionalContracts": [],
      "isFixedGasLimit": false
    }
  ],
  "receipts": [
    {
      "transactionHash": "0xb8562e4a023e2f4997d4d405b05f856b9161803647bc3dfff54e0fd001a24234",
      "transactionIndex": "0xd",
      "blockHash": "0x46927b8a26a0d090d4fea48c974d60d0a28890501cb529a2e379e06b5d77da08",
      "blockNumber": "0x53b9bb",
      "from": "0x1dD37D479ac16113fF8f160210Ee209944d2b28d",
      "to": "0xe9c1727B668Ce1106FAA49ceA48bf1b33527E913",
      "cumulativeGasUsed": "0xeb4a4",
      "gasUsed": "0x93b6",
      "contractAddress": null,
      "logs": [
        {
          "address": "0xe9c1727B668Ce1106FAA49ceA48bf1b33527E913",
          "topics": [
            "0xbc7cd75a20ee27fd9adebab32041f755214dbc6bffa90cc0225b39da2e5c2d3b",
            "0x00000000000000000000000006cf41d3f387494c319f81d4c14c5a22cabd6544"
          ],
          "data": "0x",
          "blockHash": "0x46927b8a26a0d090d4fea48c974d60d0a28890501cb529a2e379e06b5d77da08",
          "blockNumber": "0x53b9bb",
          "transactionHash": "0xb8562e4a023e2f4997d4d405b05f856b9161803647bc3dfff54e0fd001a24234",
          "transactionIndex": "0xd",
          "logIndex": "0x8",
          "removed": false
        }
      ],
      "status": "0x1",
      "logsBloom": "0x00000000000000000000000000000000400000000000000000000000000000000000000000000000000000000000000000000000000000000000000000000000000000000000000000000000000002000000000000000000000000000000000000000000000000000000000000000000000000000000000000000000000000000000400000000000020000000000000000000000000000000000000000000000000000000000000020000000000000000000000000000000000000000000000000000020000020000000000000000000200000000000000000000000000000000000000000000000000000000000000000000000040000000000000000000000",
      "type": "0x2",
      "effectiveGasPrice": "0xbcc6a5b2"
    }
  ],
  "libraries": [],
  "pending": [],
  "returns": {},
  "timestamp": 1710456410,
  "chain": 11155111,
  "commit": "a5e232f"
}