{
  "transactions": [
    {
      "hash": "0x14e7abdcfafc8dce897cd3d74c2dedfbce75d9e15530ba3a5e714a035aed58c3",
      "transactionType": "CALL",
      "contractName": null,
      "contractAddress": "0xe9c1727B668Ce1106FAA49ceA48bf1b33527E913",
      "function": "upgradeToAndCall(address,bytes)",
      "arguments": [
        "0x5B6C3b2cf135745DbCe8aA8Fe6a19FB61bd2B213",
        "0x"
      ],
      "transaction": {
        "type": "0x02",
        "from": "0x1dd37d479ac16113ff8f160210ee209944d2b28d",
        "to": "0xe9c1727b668ce1106faa49cea48bf1b33527e913",
        "gas": "0xcc06",
        "value": "0x0",
        "data": "0x4f1ef2860000000000000000000000005b6c3b2cf135745dbce8aa8fe6a19fb61bd2b21300000000000000000000000000000000000000000000000000000000000000400000000000000000000000000000000000000000000000000000000000000000",
        "nonce": "0xb9",
        "accessList": []
      },
      "additionalContracts": [],
      "isFixedGasLimit": false
    }
  ],
  "receipts": [
    {
      "transactionHash": "0x14e7abdcfafc8dce897cd3d74c2dedfbce75d9e15530ba3a5e714a035aed58c3",
      "transactionIndex": "0x1a",
      "blockHash": "0xdad6e4b649a2566da1f5e09405de83b471c280a058d216c4736439be06e261f2",
      "blockNumber": "0x53bc23",
      "from": "0x1dD37D479ac16113fF8f160210Ee209944d2b28d",
      "to": "0xe9c1727B668Ce1106FAA49ceA48bf1b33527E913",
      "cumulativeGasUsed": "0x15e665",
      "gasUsed": "0x93b6",
      "contractAddress": null,
      "logs": [
        {
          "address": "0xe9c1727B668Ce1106FAA49ceA48bf1b33527E913",
          "topics": [
            "0xbc7cd75a20ee27fd9adebab32041f755214dbc6bffa90cc0225b39da2e5c2d3b",
            "0x0000000000000000000000005b6c3b2cf135745dbce8aa8fe6a19fb61bd2b213"
          ],
          "data": "0x",
          "blockHash": "0xdad6e4b649a2566da1f5e09405de83b471c280a058d216c4736439be06e261f2",
          "blockNumber": "0x53bc23",
          "transactionHash": "0x14e7abdcfafc8dce897cd3d74c2dedfbce75d9e15530ba3a5e714a035aed58c3",
          "transactionIndex": "0x1a",
          "logIndex": "0x19",
          "removed": false
        }
      ],
      "status": "0x1",
      "logsBloom": "0x00000000000000000000000000000000400000000000000000000000000000000000000000000000000000000000000000080000000000000000000000000000000000000000000000000000000002000000000000000000000000000000000000200000000000000000000000000000000000000000000000000000000000000000400000010000000000000000000000000000000000000000000000000000000000000000000000000000000000000000000000000000000000000000000000000020000020000000000000000000000000000000000000000000000000000000000000000000000000000000000000000000040000000000000000000000",
      "type": "0x2",
      "effectiveGasPrice": "0x19b70be72"
    }
  ],
  "libraries": [],
  "pending": [],
  "returns": {},
  "timestamp": 1710464269,
  "chain": 11155111,
  "commit": "26554af"
}