{
  "transactions": [
    {
      "hash": "0x969bf9dbf227f82951569eb5ca97fd5a860b0531cbb88f11f13d576ad728e0c4",
      "transactionType": "CALL",
      "contractName": null,
      "contractAddress": "0x2D2754098941Bc95983762d1B37d20FAf8216905",
      "function": "setProtocolAddresses(address,address,address,address,address,address,address,address)",
      "arguments": [
        "0x4FCfc8ce8E2FA6cf77b7d89DcDBFb9b14ff7397A",
        "0x195665AeC2e97173FeEa37AbB5291669baA98779",
        "0xbE17C1d4DBA40F6B78711887a1947D0AbE7f0d50",
        "0x3F32c71264faf6cAa171cd44073c7Ea56a6e5fca",
        "0xB7FD0867f4141bdEE82969d2dD23e8e60901dF4c",
        "0x4b4b8fA731243c40bdee4de99d849C808f1F057B",
        "0xf8abD8964b46445c560bCa3A10DE49151bc0F021",
        "0x2D3e790ee227AcE348adD7D6ffC20d0C1df43109"
      ],
      "transaction": {
        "type": "0x02",
        "from": "0x1dd37d479ac16113ff8f160210ee209944d2b28d",
        "to": "0x2d2754098941bc95983762d1b37d20faf8216905",
        "gas": "0x45e9d",
        "value": "0x0",
        "data": "0x5f1988340000000000000000000000004fcfc8ce8e2fa6cf77b7d89dcdbfb9b14ff7397a000000000000000000000000195665aec2e97173feea37abb5291669baa98779000000000000000000000000be17c1d4dba40f6b78711887a1947d0abe7f0d500000000000000000000000003f32c71264faf6caa171cd44073c7ea56a6e5fca000000000000000000000000b7fd0867f4141bdee82969d2dd23e8e60901df4c0000000000000000000000004b4b8fa731243c40bdee4de99d849c808f1f057b000000000000000000000000f8abd8964b46445c560bca3a10de49151bc0f0210000000000000000000000002d3e790ee227ace348add7d6ffc20d0c1df43109",
        "nonce": "0x2db",
        "accessList": []
      },
      "additionalContracts": [],
      "isFixedGasLimit": false
    },
    {
      "hash": "0xae4af0f0866c4482c72eaba6d1763b4c38679a2e5be8a78bac04a9c0fcd888ce",
      "transactionType": "CALL",
      "contractName": "ERC1967Proxy",
      "contractAddress": "0xbE17C1d4DBA40F6B78711887a1947D0AbE7f0d50",
      "function": null,
      "arguments": null,
      "transaction": {
        "type": "0x02",
        "from": "0x1dd37d479ac16113ff8f160210ee209944d2b28d",
        "to": "0xbe17c1d4dba40f6b78711887a1947d0abe7f0d50",
        "gas": "0x11c94",
        "value": "0x0",
        "data": "0x9e9cad290000000000000000000000003f32c71264faf6caa171cd44073c7ea56a6e5fca0000000000000000000000000000000000000000000000000000000000000001",
        "nonce": "0x2dc",
        "accessList": []
      },
      "additionalContracts": [],
      "isFixedGasLimit": false
    },
    {
      "hash": "0x50cab330a55cfc8fb135e66ff51e9a01ba9df2142f913c1b664c92604e702e87",
      "transactionType": "CALL",
      "contractName": "ERC1967Proxy",
      "contractAddress": "0xbE17C1d4DBA40F6B78711887a1947D0AbE7f0d50",
      "function": null,
      "arguments": null,
      "transaction": {
        "type": "0x02",
        "from": "0x1dd37d479ac16113ff8f160210ee209944d2b28d",
        "to": "0xbe17c1d4dba40f6b78711887a1947d0abe7f0d50",
        "gas": "0x11c94",
        "value": "0x0",
        "data": "0x9e9cad29000000000000000000000000b7fd0867f4141bdee82969d2dd23e8e60901df4c0000000000000000000000000000000000000000000000000000000000000001",
        "nonce": "0x2dd",
        "accessList": []
      },
      "additionalContracts": [],
      "isFixedGasLimit": false
    },
    {
      "hash": "0x94825735cab9d2e5ffa48d6716153a7ddf652d6ffb71847c119a773df65e96e9",
      "transactionType": "CALL",
      "contractName": "ERC1967Proxy",
      "contractAddress": "0xbE17C1d4DBA40F6B78711887a1947D0AbE7f0d50",
      "function": null,
      "arguments": null,
      "transaction": {
        "type": "0x02",
        "from": "0x1dd37d479ac16113ff8f160210ee209944d2b28d",
        "to": "0xbe17c1d4dba40f6b78711887a1947d0abe7f0d50",
        "gas": "0x11c94",
        "value": "0x0",
        "data": "0x9e9cad290000000000000000000000004b4b8fa731243c40bdee4de99d849c808f1f057b0000000000000000000000000000000000000000000000000000000000000001",
        "nonce": "0x2de",
        "accessList": []
      },
      "additionalContracts": [],
      "isFixedGasLimit": false
    },
    {
      "hash": "0xa4b015b47549bf36b63f0f7f65f7a079b795a434a1e4210537781287f14fc49e",
      "transactionType": "CALL",
      "contractName": "ERC1967Proxy",
      "contractAddress": "0xbE17C1d4DBA40F6B78711887a1947D0AbE7f0d50",
      "function": null,
      "arguments": null,
      "transaction": {
        "type": "0x02",
        "from": "0x1dd37d479ac16113ff8f160210ee209944d2b28d",
        "to": "0xbe17c1d4dba40f6b78711887a1947d0abe7f0d50",
        "gas": "0x11c94",
        "value": "0x0",
        "data": "0x9e9cad290000000000000000000000002d2754098941bc95983762d1b37d20faf82169050000000000000000000000000000000000000000000000000000000000000001",
        "nonce": "0x2df",
        "accessList": []
      },
      "additionalContracts": [],
      "isFixedGasLimit": false
    }
  ],
  "receipts": [
    {
      "transactionHash": "0x969bf9dbf227f82951569eb5ca97fd5a860b0531cbb88f11f13d576ad728e0c4",
      "transactionIndex": "0x10",
      "blockHash": "0x359070e16ea1f42cd7f63a08096457bf8a4bf155ebb0efadcbb0f331a3780342",
      "blockNumber": "0x56f739",
      "from": "0x1dD37D479ac16113fF8f160210Ee209944d2b28d",
      "to": "0x2D2754098941Bc95983762d1B37d20FAf8216905",
      "cumulativeGasUsed": "0x97d8e",
      "gasUsed": "0x329dc",
      "contractAddress": null,
      "logs": [],
      "status": "0x1",
      "logsBloom": "0x00000000000000000000000000000000000000000000000000000000000000000000000000000000000000000000000000000000000000000000000000000000000000000000000000000000000000000000000000000000000000000000000000000000000000000000000000000000000000000000000000000000000000000000000000000000000000000000000000000000000000000000000000000000000000000000000000000000000000000000000000000000000000000000000000000000000000000000000000000000000000000000000000000000000000000000000000000000000000000000000000000000000000000000000000000000",
      "type": "0x2",
      "effectiveGasPrice": "0xb2d7b993"
    },
    {
      "transactionHash": "0xae4af0f0866c4482c72eaba6d1763b4c38679a2e5be8a78bac04a9c0fcd888ce",
      "transactionIndex": "0x11",
      "blockHash": "0x359070e16ea1f42cd7f63a08096457bf8a4bf155ebb0efadcbb0f331a3780342",
      "blockNumber": "0x56f739",
      "from": "0x1dD37D479ac16113fF8f160210Ee209944d2b28d",
      "to": "0xbE17C1d4DBA40F6B78711887a1947D0AbE7f0d50",
      "cumulativeGasUsed": "0xa4b96",
      "gasUsed": "0xce08",
      "contractAddress": null,
      "logs": [
        {
          "address": "0xbE17C1d4DBA40F6B78711887a1947D0AbE7f0d50",
          "topics": [
            "0x6a51febf99909656dd24dfa3562a7b303d7f130a915393f8a74402fa531061cb",
            "0x0000000000000000000000003f32c71264faf6caa171cd44073c7ea56a6e5fca"
          ],
          "data": "0x0000000000000000000000000000000000000000000000000000000000000001",
          "blockHash": "0x359070e16ea1f42cd7f63a08096457bf8a4bf155ebb0efadcbb0f331a3780342",
          "blockNumber": "0x56f739",
          "transactionHash": "0xae4af0f0866c4482c72eaba6d1763b4c38679a2e5be8a78bac04a9c0fcd888ce",
          "transactionIndex": "0x11",
          "logIndex": "0x1",
          "removed": false
        }
      ],
      "status": "0x1",
      "logsBloom": "0x00004000000000000000000000000000000000000000000000000000000000000000000000000000000000000000000000000000000000010010000000000000000000000000000000000000000000000000000000000000200000000000000000000000000020000000000000000008000000000000000000000000000000000000000000000000000000800000000000000000000000000000000000000020000000000000000000000000000001000000000000000000000000000000000000000000000000000000000000000000000000000000000000000000000000000000000000000000000000000000000000000000000000000000000000000000",
      "type": "0x2",
      "effectiveGasPrice": "0xb2d7b993"
    },
    {
      "transactionHash": "0x50cab330a55cfc8fb135e66ff51e9a01ba9df2142f913c1b664c92604e702e87",
      "transactionIndex": "0x12",
      "blockHash": "0x359070e16ea1f42cd7f63a08096457bf8a4bf155ebb0efadcbb0f331a3780342",
      "blockNumber": "0x56f739",
      "from": "0x1dD37D479ac16113fF8f160210Ee209944d2b28d",
      "to": "0xbE17C1d4DBA40F6B78711887a1947D0AbE7f0d50",
      "cumulativeGasUsed": "0xb199e",
      "gasUsed": "0xce08",
      "contractAddress": null,
      "logs": [
        {
          "address": "0xbE17C1d4DBA40F6B78711887a1947D0AbE7f0d50",
          "topics": [
            "0x6a51febf99909656dd24dfa3562a7b303d7f130a915393f8a74402fa531061cb",
            "0x000000000000000000000000b7fd0867f4141bdee82969d2dd23e8e60901df4c"
          ],
          "data": "0x0000000000000000000000000000000000000000000000000000000000000001",
          "blockHash": "0x359070e16ea1f42cd7f63a08096457bf8a4bf155ebb0efadcbb0f331a3780342",
          "blockNumber": "0x56f739",
          "transactionHash": "0x50cab330a55cfc8fb135e66ff51e9a01ba9df2142f913c1b664c92604e702e87",
          "transactionIndex": "0x12",
          "logIndex": "0x2",
          "removed": false
        }
      ],
      "status": "0x1",
      "logsBloom": "0x00000000000000000000000000000000000000000000000000000000000000000000000000000000000000000000000000000000000000010010000000000000000000000000000000000000000000000000000000000000200000000000000000000000000820000000000000001000000000000000000000000000000000000000000000000000000000800000000000000000000000000000000000000020000000000000000000000000000000000000000000000004000000000000000000000000000000000000000000000000000000000000000000000000000000000000000000000000000000000000000000000000000000000000000000000000",
      "type": "0x2",
      "effectiveGasPrice": "0xb2d7b993"
    },
    {
      "transactionHash": "0x94825735cab9d2e5ffa48d6716153a7ddf652d6ffb71847c119a773df65e96e9",
      "transactionIndex": "0x13",
      "blockHash": "0x359070e16ea1f42cd7f63a08096457bf8a4bf155ebb0efadcbb0f331a3780342",
      "blockNumber": "0x56f739",
      "from": "0x1dD37D479ac16113fF8f160210Ee209944d2b28d",
      "to": "0xbE17C1d4DBA40F6B78711887a1947D0AbE7f0d50",
      "cumulativeGasUsed": "0xbe7a6",
      "gasUsed": "0xce08",
      "contractAddress": null,
      "logs": [
        {
          "address": "0xbE17C1d4DBA40F6B78711887a1947D0AbE7f0d50",
          "topics": [
            "0x6a51febf99909656dd24dfa3562a7b303d7f130a915393f8a74402fa531061cb",
            "0x0000000000000000000000004b4b8fa731243c40bdee4de99d849c808f1f057b"
          ],
          "data": "0x0000000000000000000000000000000000000000000000000000000000000001",
          "blockHash": "0x359070e16ea1f42cd7f63a08096457bf8a4bf155ebb0efadcbb0f331a3780342",
          "blockNumber": "0x56f739",
          "transactionHash": "0x94825735cab9d2e5ffa48d6716153a7ddf652d6ffb71847c119a773df65e96e9",
          "transactionIndex": "0x13",
          "logIndex": "0x3",
          "removed": false
        }
      ],
      "status": "0x1",
      "logsBloom": "0x00000000000000000000000000000000000000000000000000000000000000000000200000000000000000000000000000000000000000010010000000000000000000000000000000000000000000000000000000000000200000000000000000000000000020000000000000000000000000000000000000000000000000000000000000800000000000800000000000000000000000000000000000000028000000000000000000000000000000000000000000000000000000000000000000000000000000000000000000000000000000000000000000000000000000000000000000000000000000000000000000000000000000000000000000000000",
      "type": "0x2",
      "effectiveGasPrice": "0xb2d7b993"
    },
    {
      "transactionHash": "0xa4b015b47549bf36b63f0f7f65f7a079b795a434a1e4210537781287f14fc49e",
      "transactionIndex": "0x14",
      "blockHash": "0x359070e16ea1f42cd7f63a08096457bf8a4bf155ebb0efadcbb0f331a3780342",
      "blockNumber": "0x56f739",
      "from": "0x1dD37D479ac16113fF8f160210Ee209944d2b28d",
      "to": "0xbE17C1d4DBA40F6B78711887a1947D0AbE7f0d50",
      "cumulativeGasUsed": "0xcb5ae",
      "gasUsed": "0xce08",
      "contractAddress": null,
      "logs": [
        {
          "address": "0xbE17C1d4DBA40F6B78711887a1947D0AbE7f0d50",
          "topics": [
            "0x6a51febf99909656dd24dfa3562a7b303d7f130a915393f8a74402fa531061cb",
            "0x0000000000000000000000002d2754098941bc95983762d1b37d20faf8216905"
          ],
          "data": "0x0000000000000000000000000000000000000000000000000000000000000001",
          "blockHash": "0x359070e16ea1f42cd7f63a08096457bf8a4bf155ebb0efadcbb0f331a3780342",
          "blockNumber": "0x56f739",
          "transactionHash": "0xa4b015b47549bf36b63f0f7f65f7a079b795a434a1e4210537781287f14fc49e",
          "transactionIndex": "0x14",
          "logIndex": "0x4",
          "removed": false
        }
      ],
      "status": "0x1",
      "logsBloom": "0x00000000000000000000000000000000000000000000000000000000000000000000000000000000000000000000000000000000000000010010000000000000000000000800000000000000000000000000000000000000200000000000000000000000000020000000000000000000000000000000000000000000000000001040000000000000000000800000000000000000000000000000000000000020000000000000000000000000000000000000000000000000000000000000000000000000000000000000000000000000000000000000000000000000000000000000000000000000000000000000000000000000000000000000000000000000",
      "type": "0x2",
      "effectiveGasPrice": "0xb2d7b993"
    }
  ],
  "libraries": [],
  "pending": [],
  "returns": {},
  "timestamp": 1713134969,
  "chain": 11155111,
  "commit": "f053c50"
}