{
  "transactions": [
    {
      "hash": "0xf5fe181af9d975c0d2e5d0ca5153e3079962f581b63e49d02ce17c5ffdb0d8c1",
      "transactionType": "CALL",
      "contractName": null,
      "contractAddress": "0x8406e793409bE7A70c304785cfEa1dBcD91fECc4",
      "function": "setProtocolAddresses(address,address,address,address,address,address)",
      "arguments": [
        "0xd0c43b304ff5e40AE6df9578c111b9769FB798F4",
        "0x2792D5255515bED5C6DdF0c02cB135d8fCB85BaC",
        "0xBD99C6A0760da75a32D366C8B308b83a92A74C2f",
        "0x6dC5E26ECeD13B6DFCcCC778868D6bcEC23d44d4",
        "0x0aA18E997d6e75205E7706B08016cc8366885DC8",
        "0x1F1727d181A63A2b11861F5ebaEe6aC98bDE5FC7"
      ],
      "transaction": {
        "type": "0x02",
        "from": "0x1dd37d479ac16113ff8f160210ee209944d2b28d",
        "to": "0x8406e793409be7a70c304785cfea1dbcd91fecc4",
        "gas": "0x41c74",
        "value": "0x0",
        "data": "0xf8121873000000000000000000000000d0c43b304ff5e40ae6df9578c111b9769fb798f40000000000000000000000002792d5255515bed5c6ddf0c02cb135d8fcb85bac000000000000000000000000bd99c6a0760da75a32d366c8b308b83a92a74c2f0000000000000000000000006dc5e26eced13b6dfcccc778868d6bcec23d44d40000000000000000000000000aa18e997d6e75205e7706b08016cc8366885dc80000000000000000000000001f1727d181a63a2b11861f5ebaee6ac98bde5fc7",
        "nonce": "0x62",
        "accessList": []
      },
      "additionalContracts": [],
      "isFixedGasLimit": false
    },
    {
      "hash": "0x0f17fd5f909c3d205bd6083526e5cc12ec84e1e956a46a15dc0fd7133b6bc1df",
      "transactionType": "CALL",
      "contractName": "ERC1967Proxy",
      "contractAddress": "0xBD99C6A0760da75a32D366C8B308b83a92A74C2f",
      "function": null,
      "arguments": null,
      "transaction": {
        "type": "0x02",
        "from": "0x1dd37d479ac16113ff8f160210ee209944d2b28d",
        "to": "0xbd99c6a0760da75a32d366c8b308b83a92a74c2f",
        "gas": "0x11c94",
        "value": "0x0",
        "data": "0x9e9cad290000000000000000000000006dc5e26eced13b6dfcccc778868d6bcec23d44d40000000000000000000000000000000000000000000000000000000000000001",
        "nonce": "0x63",
        "accessList": []
      },
      "additionalContracts": [],
      "isFixedGasLimit": false
    },
    {
      "hash": "0x13ea111549ff9dab55d68a4bcd4575b841f9b0c30ad2002efdf0a87b4d6b2a5f",
      "transactionType": "CALL",
      "contractName": "ERC1967Proxy",
      "contractAddress": "0xBD99C6A0760da75a32D366C8B308b83a92A74C2f",
      "function": null,
      "arguments": null,
      "transaction": {
        "type": "0x02",
        "from": "0x1dd37d479ac16113ff8f160210ee209944d2b28d",
        "to": "0xbd99c6a0760da75a32d366c8b308b83a92a74c2f",
        "gas": "0x11c94",
        "value": "0x0",
        "data": "0x9e9cad290000000000000000000000000aa18e997d6e75205e7706b08016cc8366885dc80000000000000000000000000000000000000000000000000000000000000001",
        "nonce": "0x64",
        "accessList": []
      },
      "additionalContracts": [],
      "isFixedGasLimit": false
    },
    {
      "hash": "0x17f21d675d49b64a06cf07346942bb687b5924b196780f73b16bdf1220db0b83",
      "transactionType": "CALL",
      "contractName": "ERC1967Proxy",
      "contractAddress": "0xBD99C6A0760da75a32D366C8B308b83a92A74C2f",
      "function": null,
      "arguments": null,
      "transaction": {
        "type": "0x02",
        "from": "0x1dd37d479ac16113ff8f160210ee209944d2b28d",
        "to": "0xbd99c6a0760da75a32d366c8b308b83a92a74c2f",
        "gas": "0x11c94",
        "value": "0x0",
        "data": "0x9e9cad290000000000000000000000001f1727d181a63a2b11861f5ebaee6ac98bde5fc70000000000000000000000000000000000000000000000000000000000000001",
        "nonce": "0x65",
        "accessList": []
      },
      "additionalContracts": [],
      "isFixedGasLimit": false
    }
  ],
  "receipts": [
    {
      "transactionHash": "0xf5fe181af9d975c0d2e5d0ca5153e3079962f581b63e49d02ce17c5ffdb0d8c1",
      "transactionIndex": "0x18",
      "blockHash": "0x505c5dca82df105516c5d51534eee6b8cd1a053b406290e5bc427efa42151997",
      "blockNumber": "0x538c87",
      "from": "0x1dD37D479ac16113fF8f160210Ee209944d2b28d",
      "to": "0x8406e793409bE7A70c304785cfEa1dBcD91fECc4",
      "cumulativeGasUsed": "0x1b1000",
      "gasUsed": "0x2cfa1",
      "contractAddress": null,
      "logs": [],
      "status": "0x1",
      "logsBloom": "0x00000000000000000000000000000000000000000000000000000000000000000000000000000000000000000000000000000000000000000000000000000000000000000000000000000000000000000000000000000000000000000000000000000000000000000000000000000000000000000000000000000000000000000000000000000000000000000000000000000000000000000000000000000000000000000000000000000000000000000000000000000000000000000000000000000000000000000000000000000000000000000000000000000000000000000000000000000000000000000000000000000000000000000000000000000000",
      "type": "0x2",
      "effectiveGasPrice": "0xf3c439eb"
    },
    {
      "transactionHash": "0x0f17fd5f909c3d205bd6083526e5cc12ec84e1e956a46a15dc0fd7133b6bc1df",
      "transactionIndex": "0x19",
      "blockHash": "0x505c5dca82df105516c5d51534eee6b8cd1a053b406290e5bc427efa42151997",
      "blockNumber": "0x538c87",
      "from": "0x1dD37D479ac16113fF8f160210Ee209944d2b28d",
      "to": "0xBD99C6A0760da75a32D366C8B308b83a92A74C2f",
      "cumulativeGasUsed": "0x1bde08",
      "gasUsed": "0xce08",
      "contractAddress": null,
      "logs": [
        {
          "address": "0xBD99C6A0760da75a32D366C8B308b83a92A74C2f",
          "topics": [
            "0x6a51febf99909656dd24dfa3562a7b303d7f130a915393f8a74402fa531061cb",
            "0x0000000000000000000000006dc5e26eced13b6dfcccc778868d6bcec23d44d4"
          ],
          "data": "0x0000000000000000000000000000000000000000000000000000000000000001",
          "blockHash": "0x505c5dca82df105516c5d51534eee6b8cd1a053b406290e5bc427efa42151997",
          "blockNumber": "0x538c87",
          "transactionHash": "0x0f17fd5f909c3d205bd6083526e5cc12ec84e1e956a46a15dc0fd7133b6bc1df",
          "transactionIndex": "0x19",
          "logIndex": "0x13",
          "removed": false
        }
      ],
      "status": "0x1",
      "logsBloom": "0x00000000000040000000000020000000000000000000008000000000000000000000000000000000000000000000000000000000000000010000000000000000000000000000000000000000000001000000000000000000200000000000000000000000000000000000000000000000000000000000000000000000000000000000000000000000000000800000000000000000000000000000000000000000000000000000000000000000000000000000000000000000000000000000000000000000000000000000000000000000000000000000800000000000000000000000040000000000000000000000000000000000000000000000000000000000",
      "type": "0x2",
      "effectiveGasPrice": "0xf3c439eb"
    },
    {
      "transactionHash": "0x13ea111549ff9dab55d68a4bcd4575b841f9b0c30ad2002efdf0a87b4d6b2a5f",
      "transactionIndex": "0x1a",
      "blockHash": "0x505c5dca82df105516c5d51534eee6b8cd1a053b406290e5bc427efa42151997",
      "blockNumber": "0x538c87",
      "from": "0x1dD37D479ac16113fF8f160210Ee209944d2b28d",
      "to": "0xBD99C6A0760da75a32D366C8B308b83a92A74C2f",
      "cumulativeGasUsed": "0x1cac10",
      "gasUsed": "0xce08",
      "contractAddress": null,
      "logs": [
        {
          "address": "0xBD99C6A0760da75a32D366C8B308b83a92A74C2f",
          "topics": [
            "0x6a51febf99909656dd24dfa3562a7b303d7f130a915393f8a74402fa531061cb",
            "0x0000000000000000000000000aa18e997d6e75205e7706b08016cc8366885dc8"
          ],
          "data": "0x0000000000000000000000000000000000000000000000000000000000000001",
          "blockHash": "0x505c5dca82df105516c5d51534eee6b8cd1a053b406290e5bc427efa42151997",
          "blockNumber": "0x538c87",
          "transactionHash": "0x13ea111549ff9dab55d68a4bcd4575b841f9b0c30ad2002efdf0a87b4d6b2a5f",
          "transactionIndex": "0x1a",
          "logIndex": "0x14",
          "removed": false
        }
      ],
      "status": "0x1",
      "logsBloom": "0x00000000000000000000000000000000000000000000008000000000000000000000000000000000000000000000000000000000000000010000000000000000000000000000000000000000000001000000000000000000200000000000000000000000000000000000000000000000000000000000000000000000000000000000000000000000000000800000000000000000000000000000000000000000000000000000000000000000000000000000000000000000000000000000000000000000000000000000000000000000000004000000800000000000000000000000000000000000000000000000000000000000200000000000000000008000",
      "type": "0x2",
      "effectiveGasPrice": "0xf3c439eb"
    },
    {
      "transactionHash": "0x17f21d675d49b64a06cf07346942bb687b5924b196780f73b16bdf1220db0b83",
      "transactionIndex": "0x1b",
      "blockHash": "0x505c5dca82df105516c5d51534eee6b8cd1a053b406290e5bc427efa42151997",
      "blockNumber": "0x538c87",
      "from": "0x1dD37D479ac16113fF8f160210Ee209944d2b28d",
      "to": "0xBD99C6A0760da75a32D366C8B308b83a92A74C2f",
      "cumulativeGasUsed": "0x1d7a18",
      "gasUsed": "0xce08",
      "contractAddress": null,
      "logs": [
        {
          "address": "0xBD99C6A0760da75a32D366C8B308b83a92A74C2f",
          "topics": [
            "0x6a51febf99909656dd24dfa3562a7b303d7f130a915393f8a74402fa531061cb",
            "0x0000000000000000000000001f1727d181a63a2b11861f5ebaee6ac98bde5fc7"
          ],
          "data": "0x0000000000000000000000000000000000000000000000000000000000000001",
          "blockHash": "0x505c5dca82df105516c5d51534eee6b8cd1a053b406290e5bc427efa42151997",
          "blockNumber": "0x538c87",
          "transactionHash": "0x17f21d675d49b64a06cf07346942bb687b5924b196780f73b16bdf1220db0b83",
          "transactionIndex": "0x1b",
          "logIndex": "0x15",
          "removed": false
        }
      ],
      "status": "0x1",
      "logsBloom": "0x00000000000000000000000000000004000000000000008000000000000000000000000000000000000000000000000000200000000000010000000000000000000000000000000000000000000001000000000000000000200000000000000000000000000000000000000000000000000000000000000000000000000000000000000000000000000000800000000000000000000000000000000000000000000040000000000000000000000000000000000000000000000000000000000000000000000000000000000000000000000000000000800000000000000000000000000000000000000000000000000000000000000000000000000000000000",
      "type": "0x2",
      "effectiveGasPrice": "0xf3c439eb"
    }
  ],
  "libraries": [],
  "pending": [],
  "returns": {},
  "timestamp": 1710309271,
  "chain": 11155111,
  "commit": "3d354ce"
}