{
  "transactions": [
    {
      "hash": "0x7df17e108ec7bd4d08913a445c675bd43f06e8e2f8cf947c9b42e8f9cbf5b98e",
      "transactionType": "CALL",
      "contractName": null,
      "contractAddress": "0xfF9Da00b90ADE84D7ecED4E67435f97D91c1e18D",
      "function": "setProtocolAddresses(address,address,address,address,address,address)",
      "arguments": [
        "0xce7432Dc05501c5a88b382F33558D373eedAC0c2",
        "0xABcDA24814e4A22e32E05e613776c115ff733450",
        "0x6E32145D86471341A18ADC4C0387133CD31B8168",
        "0xa906eE9178cA35Dcf79Adf6F4837b2D03BB4f508",
        "0xf3010b96D421a70D4897b9A0354B1dAD182050b2",
        "0xFD842913f076de621D2CE42cAFE5849Accb505C9"
      ],
      "transaction": {
        "type": "0x02",
        "from": "0x1dd37d479ac16113ff8f160210ee209944d2b28d",
        "to": "0xff9da00b90ade84d7eced4e67435f97d91c1e18d",
        "gas": "0x39e19",
        "value": "0x0",
        "data": "0xf8121873000000000000000000000000ce7432dc05501c5a88b382f33558d373eedac0c2000000000000000000000000abcda24814e4a22e32e05e613776c115ff7334500000000000000000000000006e32145d86471341a18adc4c0387133cd31b8168000000000000000000000000a906ee9178ca35dcf79adf6f4837b2d03bb4f508000000000000000000000000f3010b96d421a70d4897b9a0354b1dad182050b2000000000000000000000000fd842913f076de621d2ce42cafe5849accb505c9",
        "nonce": "0x249",
        "accessList": []
      },
      "additionalContracts": [],
      "isFixedGasLimit": false
    },
    {
      "hash": "0x999f543a3aa6053a250499336987b5daa543c99740f11bd4d3bbc62d6f8db274",
      "transactionType": "CALL",
      "contractName": "ERC1967Proxy",
      "contractAddress": "0x6E32145D86471341A18ADC4C0387133CD31B8168",
      "function": null,
      "arguments": null,
      "transaction": {
        "type": "0x02",
        "from": "0x1dd37d479ac16113ff8f160210ee209944d2b28d",
        "to": "0x6e32145d86471341a18adc4c0387133cd31b8168",
        "gas": "0x11c94",
        "value": "0x0",
        "data": "0x9e9cad29000000000000000000000000a906ee9178ca35dcf79adf6f4837b2d03bb4f5080000000000000000000000000000000000000000000000000000000000000001",
        "nonce": "0x24a",
        "accessList": []
      },
      "additionalContracts": [],
      "isFixedGasLimit": false
    },
    {
      "hash": "0x296268d1930c6dc62d069f38db36fb4413ce5869bb502f99cd48682340eb5c8f",
      "transactionType": "CALL",
      "contractName": "ERC1967Proxy",
      "contractAddress": "0x6E32145D86471341A18ADC4C0387133CD31B8168",
      "function": null,
      "arguments": null,
      "transaction": {
        "type": "0x02",
        "from": "0x1dd37d479ac16113ff8f160210ee209944d2b28d",
        "to": "0x6e32145d86471341a18adc4c0387133cd31b8168",
        "gas": "0x11c94",
        "value": "0x0",
        "data": "0x9e9cad29000000000000000000000000f3010b96d421a70d4897b9a0354b1dad182050b20000000000000000000000000000000000000000000000000000000000000001",
        "nonce": "0x24b",
        "accessList": []
      },
      "additionalContracts": [],
      "isFixedGasLimit": false
    },
    {
      "hash": "0x0ccfd15cd5f55b6461fc1970626cc93c5fd1195de07c1a9f3b775e08869e72b4",
      "transactionType": "CALL",
      "contractName": "ERC1967Proxy",
      "contractAddress": "0x6E32145D86471341A18ADC4C0387133CD31B8168",
      "function": null,
      "arguments": null,
      "transaction": {
        "type": "0x02",
        "from": "0x1dd37d479ac16113ff8f160210ee209944d2b28d",
        "to": "0x6e32145d86471341a18adc4c0387133cd31b8168",
        "gas": "0x11c94",
        "value": "0x0",
        "data": "0x9e9cad29000000000000000000000000fd842913f076de621d2ce42cafe5849accb505c90000000000000000000000000000000000000000000000000000000000000001",
        "nonce": "0x24c",
        "accessList": []
      },
      "additionalContracts": [],
      "isFixedGasLimit": false
    },
    {
      "hash": "0xb16b2c7f8c7d5c76c3ddeabe28a3d2e0a298e5e6f9dd768d77eb695c6309b8fa",
      "transactionType": "CALL",
      "contractName": "ERC1967Proxy",
      "contractAddress": "0x6E32145D86471341A18ADC4C0387133CD31B8168",
      "function": null,
      "arguments": null,
      "transaction": {
        "type": "0x02",
        "from": "0x1dd37d479ac16113ff8f160210ee209944d2b28d",
        "to": "0x6e32145d86471341a18adc4c0387133cd31b8168",
        "gas": "0x11c94",
        "value": "0x0",
        "data": "0x9e9cad29000000000000000000000000ff9da00b90ade84d7eced4e67435f97d91c1e18d0000000000000000000000000000000000000000000000000000000000000001",
        "nonce": "0x24d",
        "accessList": []
      },
      "additionalContracts": [],
      "isFixedGasLimit": false
    }
  ],
  "receipts": [
    {
      "transactionHash": "0x7df17e108ec7bd4d08913a445c675bd43f06e8e2f8cf947c9b42e8f9cbf5b98e",
      "transactionIndex": "0x8",
      "blockHash": "0x7e0bf62dc0066c86419ff8d761f9ce818dab916c4dcfb2fc03769955665ad7f5",
      "blockNumber": "0x563a37",
      "from": "0x1dD37D479ac16113fF8f160210Ee209944d2b28d",
      "to": "0xfF9Da00b90ADE84D7ecED4E67435f97D91c1e18D",
      "cumulativeGasUsed": "0x90cad",
      "gasUsed": "0x2793b",
      "contractAddress": null,
      "logs": [],
      "status": "0x1",
      "logsBloom": "0x00000000000000000000000000000000000000000000000000000000000000000000000000000000000000000000000000000000000000000000000000000000000000000000000000000000000000000000000000000000000000000000000000000000000000000000000000000000000000000000000000000000000000000000000000000000000000000000000000000000000000000000000000000000000000000000000000000000000000000000000000000000000000000000000000000000000000000000000000000000000000000000000000000000000000000000000000000000000000000000000000000000000000000000000000000000",
      "type": "0x2",
      "effectiveGasPrice": "0xb2d96c88"
    },
    {
      "transactionHash": "0x999f543a3aa6053a250499336987b5daa543c99740f11bd4d3bbc62d6f8db274",
      "transactionIndex": "0x9",
      "blockHash": "0x7e0bf62dc0066c86419ff8d761f9ce818dab916c4dcfb2fc03769955665ad7f5",
      "blockNumber": "0x563a37",
      "from": "0x1dD37D479ac16113fF8f160210Ee209944d2b28d",
      "to": "0x6E32145D86471341A18ADC4C0387133CD31B8168",
      "cumulativeGasUsed": "0x9dab5",
      "gasUsed": "0xce08",
      "contractAddress": null,
      "logs": [
        {
          "address": "0x6E32145D86471341A18ADC4C0387133CD31B8168",
          "topics": [
            "0x6a51febf99909656dd24dfa3562a7b303d7f130a915393f8a74402fa531061cb",
            "0x000000000000000000000000a906ee9178ca35dcf79adf6f4837b2d03bb4f508"
          ],
          "data": "0x0000000000000000000000000000000000000000000000000000000000000001",
          "blockHash": "0x7e0bf62dc0066c86419ff8d761f9ce818dab916c4dcfb2fc03769955665ad7f5",
          "blockNumber": "0x563a37",
          "transactionHash": "0x999f543a3aa6053a250499336987b5daa543c99740f11bd4d3bbc62d6f8db274",
          "transactionIndex": "0x9",
          "logIndex": "0x8",
          "removed": false
        }
      ],
      "status": "0x1",
      "logsBloom": "0x00000000000000000000000000000000080000000000000000000000000000000000000000000000000000000000020000000000000000010000000000000000000000000000000000000000000000000000000000000000204000000000000000000000000000000000000000000000000000000000000000000000000000000000000000000400000000800000000000000000000000000000000000000080000000000000000000000000000000000000000000000000000000000000000000000000000000000000000000000000000000000000000040000000000000000000000000000000000000000000000000000000000000000000000000000000",
      "type": "0x2",
      "effectiveGasPrice": "0xb2d96c88"
    },
    {
      "transactionHash": "0x296268d1930c6dc62d069f38db36fb4413ce5869bb502f99cd48682340eb5c8f",
      "transactionIndex": "0xa",
      "blockHash": "0x7e0bf62dc0066c86419ff8d761f9ce818dab916c4dcfb2fc03769955665ad7f5",
      "blockNumber": "0x563a37",
      "from": "0x1dD37D479ac16113fF8f160210Ee209944d2b28d",
      "to": "0x6E32145D86471341A18ADC4C0387133CD31B8168",
      "cumulativeGasUsed": "0xaa8bd",
      "gasUsed": "0xce08",
      "contractAddress": null,
      "logs": [
        {
          "address": "0x6E32145D86471341A18ADC4C0387133CD31B8168",
          "topics": [
            "0x6a51febf99909656dd24dfa3562a7b303d7f130a915393f8a74402fa531061cb",
            "0x000000000000000000000000f3010b96d421a70d4897b9a0354b1dad182050b2"
          ],
          "data": "0x0000000000000000000000000000000000000000000000000000000000000001",
          "blockHash": "0x7e0bf62dc0066c86419ff8d761f9ce818dab916c4dcfb2fc03769955665ad7f5",
          "blockNumber": "0x563a37",
          "transactionHash": "0x296268d1930c6dc62d069f38db36fb4413ce5869bb502f99cd48682340eb5c8f",
          "transactionIndex": "0xa",
          "logIndex": "0x9",
          "removed": false
        }
      ],
      "status": "0x1",
      "logsBloom": "0x00000000000000000000000000000000084000000000000000000000000000000000000000000000000000000000000000000000000000010000000000000000000000000000000000000000000000000000000000000000200000000000000000000000000000000400000000000000000000000000000000000000000000000000000000000400000000800000000000000000000000000000000000000000000000000000000000000000000000000000000000000000000000000000000000000000000000000000000000004000000000000000000040000000000000000000000000000000000000000000000000000000000000000000000000000000",
      "type": "0x2",
      "effectiveGasPrice": "0xb2d96c88"
    },
    {
      "transactionHash": "0x0ccfd15cd5f55b6461fc1970626cc93c5fd1195de07c1a9f3b775e08869e72b4",
      "transactionIndex": "0xb",
      "blockHash": "0x7e0bf62dc0066c86419ff8d761f9ce818dab916c4dcfb2fc03769955665ad7f5",
      "blockNumber": "0x563a37",
      "from": "0x1dD37D479ac16113fF8f160210Ee209944d2b28d",
      "to": "0x6E32145D86471341A18ADC4C0387133CD31B8168",
      "cumulativeGasUsed": "0xb76c5",
      "gasUsed": "0xce08",
      "contractAddress": null,
      "logs": [
        {
          "address": "0x6E32145D86471341A18ADC4C0387133CD31B8168",
          "topics": [
            "0x6a51febf99909656dd24dfa3562a7b303d7f130a915393f8a74402fa531061cb",
            "0x000000000000000000000000fd842913f076de621d2ce42cafe5849accb505c9"
          ],
          "data": "0x0000000000000000000000000000000000000000000000000000000000000001",
          "blockHash": "0x7e0bf62dc0066c86419ff8d761f9ce818dab916c4dcfb2fc03769955665ad7f5",
          "blockNumber": "0x563a37",
          "transactionHash": "0x0ccfd15cd5f55b6461fc1970626cc93c5fd1195de07c1a9f3b775e08869e72b4",
          "transactionIndex": "0xb",
          "logIndex": "0xa",
          "removed": false
        }
      ],
      "status": "0x1",
      "logsBloom": "0x00000000000000000000000000000000080000000000000000000000000000000000000000000000000000000000000000000000000000010000000000000000000000000000000000040000000000000000000000000000200000000000000000000000000000000000000000000000000000000000000000000000000000000000000000000400000000800000000000000000000000000000000000000000000000000000000000000000000000000000000000000000000000000000000000000000000000000000000000000000000000000000000140000000000000000000000000000000000000000000000000000000000000000000000000000000",
      "type": "0x2",
      "effectiveGasPrice": "0xb2d96c88"
    },
    {
      "transactionHash": "0xb16b2c7f8c7d5c76c3ddeabe28a3d2e0a298e5e6f9dd768d77eb695c6309b8fa",
      "transactionIndex": "0xc",
      "blockHash": "0x7e0bf62dc0066c86419ff8d761f9ce818dab916c4dcfb2fc03769955665ad7f5",
      "blockNumber": "0x563a37",
      "from": "0x1dD37D479ac16113fF8f160210Ee209944d2b28d",
      "to": "0x6E32145D86471341A18ADC4C0387133CD31B8168",
      "cumulativeGasUsed": "0xc44cd",
      "gasUsed": "0xce08",
      "contractAddress": null,
      "logs": [
        {
          "address": "0x6E32145D86471341A18ADC4C0387133CD31B8168",
          "topics": [
            "0x6a51febf99909656dd24dfa3562a7b303d7f130a915393f8a74402fa531061cb",
            "0x000000000000000000000000ff9da00b90ade84d7eced4e67435f97d91c1e18d"
          ],
          "data": "0x0000000000000000000000000000000000000000000000000000000000000001",
          "blockHash": "0x7e0bf62dc0066c86419ff8d761f9ce818dab916c4dcfb2fc03769955665ad7f5",
          "blockNumber": "0x563a37",
          "transactionHash": "0xb16b2c7f8c7d5c76c3ddeabe28a3d2e0a298e5e6f9dd768d77eb695c6309b8fa",
          "transactionIndex": "0xc",
          "logIndex": "0xb",
          "removed": false
        }
      ],
      "status": "0x1",
      "logsBloom": "0x00000000000000000000000000000000080000000000000000000000000000000000000000004000000000000000000000000000000000010000000000000000000000000000000000000000000000000000000000000000200000000000000000040000000000000000000000000000000000000000000000000000000000000000000000000400000000800000000000000000000000000000000000000000000000000000000000000000000000000000000000000000000000000000000000000000000000000000000000000000000000000000000040002000000000000000000000000000000000000000000000000000000000000000000000000000",
      "type": "0x2",
      "effectiveGasPrice": "0xb2d96c88"
    }
  ],
  "libraries": [],
  "pending": [],
  "returns": {},
  "timestamp": 1712538305,
  "chain": 11155111,
  "commit": "3b4c1b5"
}