{
  "transactions": [
    {
      "hash": "0x05369b3d1bb254f7e224195836936383b7f4625c71f7898462153bb16cdfd128",
      "transactionType": "CALL",
      "contractName": null,
      "contractAddress": "0x494fA86556E48AbcB43ededd114D47e54e9F9dA1",
      "function": "setProtocolAddresses(address,address,address,address,address,address,address,address)",
      "arguments": [
        "0x66687a1F2aB5f358583A5cbE7fFE85D508e8f267",
        "0x729bD606e112d69178cCFB0b9f627E0062c704E4",
        "0xcEa11b175bb37685c275651C3457F73fd28121c7",
        "0xe59d6549bf73A0adce727BD7bdBE7142867E8cb4",
        "0xfe541eCACdAC8DB3090dD523223A143a0670F302",
        "0x152dE0c97Cae5Df13a817E71cd9828c39F8e4763",
        "0x424d41797A1EC36051cAe9385A8C8b96Aafa3b52",
        "0x1db713e569152Ee12988AB031b49B4e25C6dbB29"
      ],
      "transaction": {
        "type": "0x02",
        "from": "0x1dd37d479ac16113ff8f160210ee209944d2b28d",
        "to": "0x494fa86556e48abcb43ededd114d47e54e9f9da1",
        "gas": "0x45e8d",
        "value": "0x0",
        "data": "0x5f19883400000000000000000000000066687a1f2ab5f358583a5cbe7ffe85d508e8f267000000000000000000000000729bd606e112d69178ccfb0b9f627e0062c704e4000000000000000000000000cea11b175bb37685c275651c3457f73fd28121c7000000000000000000000000e59d6549bf73a0adce727bd7bdbe7142867e8cb4000000000000000000000000fe541ecacdac8db3090dd523223a143a0670f302000000000000000000000000152de0c97cae5df13a817e71cd9828c39f8e4763000000000000000000000000424d41797a1ec36051cae9385a8c8b96aafa3b520000000000000000000000001db713e569152ee12988ab031b49b4e25c6dbb29",
        "nonce": "0x349",
        "accessList": []
      },
      "additionalContracts": [],
      "isFixedGasLimit": false
    },
    {
      "hash": "0x71ae4c055d7d83ee007209a069aae21cd9f431b17ad5f3bd8c64e03eaca7ce50",
      "transactionType": "CALL",
      "contractName": null,
      "contractAddress": "0x424d41797A1EC36051cAe9385A8C8b96Aafa3b52",
      "function": "setContractAddresses(address)",
      "arguments": [
        "0x1db713e569152Ee12988AB031b49B4e25C6dbB29"
      ],
      "transaction": {
        "type": "0x02",
        "from": "0x1dd37d479ac16113ff8f160210ee209944d2b28d",
        "to": "0x424d41797a1ec36051cae9385a8c8b96aafa3b52",
        "gas": "0x117cc",
        "value": "0x0",
        "data": "0x1f88bb870000000000000000000000001db713e569152ee12988ab031b49b4e25c6dbb29",
        "nonce": "0x34a",
        "accessList": []
      },
      "additionalContracts": [],
      "isFixedGasLimit": false
    },
    {
      "hash": "0x2ad2f0a8d56bb153ecdc5e6a3634714de48a359f1639ee910f3b43095c0fd1c9",
      "transactionType": "CALL",
      "contractName": null,
      "contractAddress": "0x66687a1F2aB5f358583A5cbE7fFE85D508e8f267",
      "function": "setContractAddresses(address)",
      "arguments": [
        "0x1db713e569152Ee12988AB031b49B4e25C6dbB29"
      ],
      "transaction": {
        "type": "0x02",
        "from": "0x1dd37d479ac16113ff8f160210ee209944d2b28d",
        "to": "0x66687a1f2ab5f358583a5cbe7ffe85d508e8f267",
        "gas": "0x12460",
        "value": "0x0",
        "data": "0x1f88bb870000000000000000000000001db713e569152ee12988ab031b49b4e25c6dbb29",
        "nonce": "0x34b",
        "accessList": []
      },
      "additionalContracts": [],
      "isFixedGasLimit": false
    },
    {
      "hash": "0x935757c595942ddcc6deab1c838a6aad548edc2fb9f0750496359cd94e678c51",
      "transactionType": "CALL",
      "contractName": "ERC1967Proxy",
      "contractAddress": "0xcEa11b175bb37685c275651C3457F73fd28121c7",
      "function": null,
      "arguments": null,
      "transaction": {
        "type": "0x02",
        "from": "0x1dd37d479ac16113ff8f160210ee209944d2b28d",
        "to": "0xcea11b175bb37685c275651c3457f73fd28121c7",
        "gas": "0x11c94",
        "value": "0x0",
        "data": "0x9e9cad29000000000000000000000000e59d6549bf73a0adce727bd7bdbe7142867e8cb40000000000000000000000000000000000000000000000000000000000000001",
        "nonce": "0x34c",
        "accessList": []
      },
      "additionalContracts": [],
      "isFixedGasLimit": false
    },
    {
      "hash": "0x5e8537b9a50bf2e97db8d167443561fa97a1469ff4b1eeec53fff0400da24d18",
      "transactionType": "CALL",
      "contractName": "ERC1967Proxy",
      "contractAddress": "0xcEa11b175bb37685c275651C3457F73fd28121c7",
      "function": null,
      "arguments": null,
      "transaction": {
        "type": "0x02",
        "from": "0x1dd37d479ac16113ff8f160210ee209944d2b28d",
        "to": "0xcea11b175bb37685c275651c3457f73fd28121c7",
        "gas": "0x11c94",
        "value": "0x0",
        "data": "0x9e9cad29000000000000000000000000fe541ecacdac8db3090dd523223a143a0670f3020000000000000000000000000000000000000000000000000000000000000001",
        "nonce": "0x34d",
        "accessList": []
      },
      "additionalContracts": [],
      "isFixedGasLimit": false
    },
    {
      "hash": "0x5d223e397dd4ca364706772d4f8f8b7847a3353a50fcf2fe8be8b7baedd9b7db",
      "transactionType": "CALL",
      "contractName": "ERC1967Proxy",
      "contractAddress": "0xcEa11b175bb37685c275651C3457F73fd28121c7",
      "function": null,
      "arguments": null,
      "transaction": {
        "type": "0x02",
        "from": "0x1dd37d479ac16113ff8f160210ee209944d2b28d",
        "to": "0xcea11b175bb37685c275651c3457f73fd28121c7",
        "gas": "0x11c94",
        "value": "0x0",
        "data": "0x9e9cad29000000000000000000000000152de0c97cae5df13a817e71cd9828c39f8e47630000000000000000000000000000000000000000000000000000000000000001",
        "nonce": "0x34e",
        "accessList": []
      },
      "additionalContracts": [],
      "isFixedGasLimit": false
    },
    {
      "hash": "0xee55ea6deafd9e8b7c5aa8c46dc250539489a2bda3b206ebd8c810ae3c16543c",
      "transactionType": "CALL",
      "contractName": "ERC1967Proxy",
      "contractAddress": "0xcEa11b175bb37685c275651C3457F73fd28121c7",
      "function": null,
      "arguments": null,
      "transaction": {
        "type": "0x02",
        "from": "0x1dd37d479ac16113ff8f160210ee209944d2b28d",
        "to": "0xcea11b175bb37685c275651c3457f73fd28121c7",
        "gas": "0x11c94",
        "value": "0x0",
        "data": "0x9e9cad29000000000000000000000000494fa86556e48abcb43ededd114d47e54e9f9da10000000000000000000000000000000000000000000000000000000000000001",
        "nonce": "0x34f",
        "accessList": []
      },
      "additionalContracts": [],
      "isFixedGasLimit": false
    }
  ],
  "receipts": [
    {
      "transactionHash": "0x05369b3d1bb254f7e224195836936383b7f4625c71f7898462153bb16cdfd128",
      "transactionIndex": "0x5",
      "blockHash": "0x6653efa4a9e6f8215d55856e58e02d1c3aa3b7f5a600332e2448ef4965bfa869",
      "blockNumber": "0x57a0ef",
      "from": "0x1dD37D479ac16113fF8f160210Ee209944d2b28d",
      "to": "0x494fA86556E48AbcB43ededd114D47e54e9F9dA1",
      "cumulativeGasUsed": "0x91416",
      "gasUsed": "0x329d0",
      "contractAddress": null,
      "logs": [],
      "status": "0x1",
      "logsBloom": "0x00000000000000000000000000000000000000000000000000000000000000000000000000000000000000000000000000000000000000000000000000000000000000000000000000000000000000000000000000000000000000000000000000000000000000000000000000000000000000000000000000000000000000000000000000000000000000000000000000000000000000000000000000000000000000000000000000000000000000000000000000000000000000000000000000000000000000000000000000000000000000000000000000000000000000000000000000000000000000000000000000000000000000000000000000000000",
      "type": "0x2",
      "effectiveGasPrice": "0xb2d879b8"
    },
    {
      "transactionHash": "0x71ae4c055d7d83ee007209a069aae21cd9f431b17ad5f3bd8c64e03eaca7ce50",
      "transactionIndex": "0x6",
      "blockHash": "0x6653efa4a9e6f8215d55856e58e02d1c3aa3b7f5a600332e2448ef4965bfa869",
      "blockNumber": "0x57a0ef",
      "from": "0x1dD37D479ac16113fF8f160210Ee209944d2b28d",
      "to": "0x424d41797A1EC36051cAe9385A8C8b96Aafa3b52",
      "cumulativeGasUsed": "0x9d367",
      "gasUsed": "0xbf51",
      "contractAddress": null,
      "logs": [],
      "status": "0x1",
      "logsBloom": "0x00000000000000000000000000000000000000000000000000000000000000000000000000000000000000000000000000000000000000000000000000000000000000000000000000000000000000000000000000000000000000000000000000000000000000000000000000000000000000000000000000000000000000000000000000000000000000000000000000000000000000000000000000000000000000000000000000000000000000000000000000000000000000000000000000000000000000000000000000000000000000000000000000000000000000000000000000000000000000000000000000000000000000000000000000000000",
      "type": "0x2",
      "effectiveGasPrice": "0xb2d879b8"
    },
    {
      "transactionHash": "0x2ad2f0a8d56bb153ecdc5e6a3634714de48a359f1639ee910f3b43095c0fd1c9",
      "transactionIndex": "0x7",
      "blockHash": "0x6653efa4a9e6f8215d55856e58e02d1c3aa3b7f5a600332e2448ef4965bfa869",
      "blockNumber": "0x57a0ef",
      "from": "0x1dD37D479ac16113fF8f160210Ee209944d2b28d",
      "to": "0x66687a1F2aB5f358583A5cbE7fFE85D508e8f267",
      "cumulativeGasUsed": "0xa9b52",
      "gasUsed": "0xc7eb",
      "contractAddress": null,
      "logs": [],
      "status": "0x1",
      "logsBloom": "0x00000000000000000000000000000000000000000000000000000000000000000000000000000000000000000000000000000000000000000000000000000000000000000000000000000000000000000000000000000000000000000000000000000000000000000000000000000000000000000000000000000000000000000000000000000000000000000000000000000000000000000000000000000000000000000000000000000000000000000000000000000000000000000000000000000000000000000000000000000000000000000000000000000000000000000000000000000000000000000000000000000000000000000000000000000000",
      "type": "0x2",
      "effectiveGasPrice": "0xb2d879b8"
    },
    {
      "transactionHash": "0x935757c595942ddcc6deab1c838a6aad548edc2fb9f0750496359cd94e678c51",
      "transactionIndex": "0x8",
      "blockHash": "0x6653efa4a9e6f8215d55856e58e02d1c3aa3b7f5a600332e2448ef4965bfa869",
      "blockNumber": "0x57a0ef",
      "from": "0x1dD37D479ac16113fF8f160210Ee209944d2b28d",
      "to": "0xcEa11b175bb37685c275651C3457F73fd28121c7",
      "cumulativeGasUsed": "0xb695a",
      "gasUsed": "0xce08",
      "contractAddress": null,
      "logs": [
        {
          "address": "0xcEa11b175bb37685c275651C3457F73fd28121c7",
          "topics": [
            "0x6a51febf99909656dd24dfa3562a7b303d7f130a915393f8a74402fa531061cb",
            "0x000000000000000000000000e59d6549bf73a0adce727bd7bdbe7142867e8cb4"
          ],
          "data": "0x0000000000000000000000000000000000000000000000000000000000000001",
          "blockHash": "0x6653efa4a9e6f8215d55856e58e02d1c3aa3b7f5a600332e2448ef4965bfa869",
          "blockNumber": "0x57a0ef",
          "transactionHash": "0x935757c595942ddcc6deab1c838a6aad548edc2fb9f0750496359cd94e678c51",
          "transactionIndex": "0x8",
          "logIndex": "0x8",
          "removed": false
        }
      ],
      "status": "0x1",
      "logsBloom": "0x00000000000400000000000000000000000000000000000000000000000000000000000000000000000000000000000000000000000000010000000000000000000000000000000000000000000000000000000000000000200000000000000004001000000000000000000000000000000000000000000000000000000000000000000000000000000000800000000000000000000000000000040000000000000000000000000000000000000000000000000000000000000000000000000000000000000000000000000000000000000000000000000000000000000000000000000000000000000000080000000000000001000000000000000000000000",
      "type": "0x2",
      "effectiveGasPrice": "0xb2d879b8"
    },
    {
      "transactionHash": "0x5e8537b9a50bf2e97db8d167443561fa97a1469ff4b1eeec53fff0400da24d18",
      "transactionIndex": "0x9",
      "blockHash": "0x6653efa4a9e6f8215d55856e58e02d1c3aa3b7f5a600332e2448ef4965bfa869",
      "blockNumber": "0x57a0ef",
      "from": "0x1dD37D479ac16113fF8f160210Ee209944d2b28d",
      "to": "0xcEa11b175bb37685c275651C3457F73fd28121c7",
      "cumulativeGasUsed": "0xc3762",
      "gasUsed": "0xce08",
      "contractAddress": null,
      "logs": [
        {
          "address": "0xcEa11b175bb37685c275651C3457F73fd28121c7",
          "topics": [
            "0x6a51febf99909656dd24dfa3562a7b303d7f130a915393f8a74402fa531061cb",
            "0x000000000000000000000000fe541ecacdac8db3090dd523223a143a0670f302"
          ],
          "data": "0x0000000000000000000000000000000000000000000000000000000000000001",
          "blockHash": "0x6653efa4a9e6f8215d55856e58e02d1c3aa3b7f5a600332e2448ef4965bfa869",
          "blockNumber": "0x57a0ef",
          "transactionHash": "0x5e8537b9a50bf2e97db8d167443561fa97a1469ff4b1eeec53fff0400da24d18",
          "transactionIndex": "0x9",
          "logIndex": "0x9",
          "removed": false
        }
      ],
      "status": "0x1",
      "logsBloom": "0x00000000002400000000000000000000000000000000000000000000000000000000000000000000000000000000000000000000000000010000000000000000000000000000000000000000000000000000000000000000200000000000000000000000000000000000000000000000000000000000100000800000000000000000000000000000000000800000000000000000000000000000040000000000000000000000000000000000000000000000000000000000000000000000000000000000000000000000000000000000000000000000000000000000000000000000000000000000000000000000000000000001000000000000000000000000",
      "type": "0x2",
      "effectiveGasPrice": "0xb2d879b8"
    },
    {
      "transactionHash": "0x5d223e397dd4ca364706772d4f8f8b7847a3353a50fcf2fe8be8b7baedd9b7db",
      "transactionIndex": "0xa",
      "blockHash": "0x6653efa4a9e6f8215d55856e58e02d1c3aa3b7f5a600332e2448ef4965bfa869",
      "blockNumber": "0x57a0ef",
      "from": "0x1dD37D479ac16113fF8f160210Ee209944d2b28d",
      "to": "0xcEa11b175bb37685c275651C3457F73fd28121c7",
      "cumulativeGasUsed": "0xd056a",
      "gasUsed": "0xce08",
      "contractAddress": null,
      "logs": [
        {
          "address": "0xcEa11b175bb37685c275651C3457F73fd28121c7",
          "topics": [
            "0x6a51febf99909656dd24dfa3562a7b303d7f130a915393f8a74402fa531061cb",
            "0x000000000000000000000000152de0c97cae5df13a817e71cd9828c39f8e4763"
          ],
          "data": "0x0000000000000000000000000000000000000000000000000000000000000001",
          "blockHash": "0x6653efa4a9e6f8215d55856e58e02d1c3aa3b7f5a600332e2448ef4965bfa869",
          "blockNumber": "0x57a0ef",
          "transactionHash": "0x5d223e397dd4ca364706772d4f8f8b7847a3353a50fcf2fe8be8b7baedd9b7db",
          "transactionIndex": "0xa",
          "logIndex": "0xa",
          "removed": false
        }
      ],
      "status": "0x1",
      "logsBloom": "0x00000000000400000000000000000008000000000000000000000000000000000000000000000000000000000000000000000000000000010000000000000000000000000000000000000000000000000000000000000000200000000000000000000000000000004000000000000000000000000000000000000000000000000000000000001000000000800000000000000000000000000000040000000000000000000000000000000000000000000000000000000000000000000000000000000000000000000000000000000000000000000000000000000000000000000000000000000000000000000000000000000001000000000000000000000000",
      "type": "0x2",
      "effectiveGasPrice": "0xb2d879b8"
    },
    {
      "transactionHash": "0xee55ea6deafd9e8b7c5aa8c46dc250539489a2bda3b206ebd8c810ae3c16543c",
      "transactionIndex": "0xb",
      "blockHash": "0x6653efa4a9e6f8215d55856e58e02d1c3aa3b7f5a600332e2448ef4965bfa869",
      "blockNumber": "0x57a0ef",
      "from": "0x1dD37D479ac16113fF8f160210Ee209944d2b28d",
      "to": "0xcEa11b175bb37685c275651C3457F73fd28121c7",
      "cumulativeGasUsed": "0xdd372",
      "gasUsed": "0xce08",
      "contractAddress": null,
      "logs": [
        {
          "address": "0xcEa11b175bb37685c275651C3457F73fd28121c7",
          "topics": [
            "0x6a51febf99909656dd24dfa3562a7b303d7f130a915393f8a74402fa531061cb",
            "0x000000000000000000000000494fa86556e48abcb43ededd114d47e54e9f9da1"
          ],
          "data": "0x0000000000000000000000000000000000000000000000000000000000000001",
          "blockHash": "0x6653efa4a9e6f8215d55856e58e02d1c3aa3b7f5a600332e2448ef4965bfa869",
          "blockNumber": "0x57a0ef",
          "transactionHash": "0xee55ea6deafd9e8b7c5aa8c46dc250539489a2bda3b206ebd8c810ae3c16543c",
          "transactionIndex": "0xb",
          "logIndex": "0xb",
          "removed": false
        }
      ],
      "status": "0x1",
      "logsBloom": "0x00000000200400000000000000000000000000000000000000000000000000000000000000000000000000000000000000000000000000010000000000000000000000000000000000000000000000000000000000000000200000000000000000000000000000000000000000000000000000000000000000000000000000000000000000000000000000800000000000000000000000000000040000000000000000000000000000000000000000000000000020000000000000000000000000000000000000000000000000000000000000000000000000000000000000000000000000000000000000000000000000000001000000000008000000000000",
      "type": "0x2",
      "effectiveGasPrice": "0xb2d879b8"
    }
  ],
  "libraries": [],
  "pending": [],
  "returns": {},
  "timestamp": 1713664995,
  "chain": 11155111,
  "commit": "2ee8af2"
}