{
  "transactions": [
    {
      "hash": "0x428964ca5511fc339ccfa11e8ecdf3674bc046654e7546af349ba3c96e689491",
      "transactionType": "CALL",
      "contractName": null,
      "contractAddress": "0x3E03Ada049648A54c9c8984fb2b71EAae319E49d",
      "function": "setProtocolAddresses(address,address,address,address,address,address)",
      "arguments": [
        "0x4c02435fd60ed08c5E03f52406Fb0daAadb2c9e8",
        "0xA9784A4E0F08D2B8Fa65acFF8a8012D1C5352B99",
        "0xC3f477e656aB79aA110653F36C94c8D8951f2416",
        "0x44eec035e7d228aBF2fC638681B36e7bB3C4Fe80",
        "0x300EFA649964E5C3730406FDBE91792aDeB553e5",
        "0xE7E3E27CeEF78EF1f32fe4B0d3FA0F38cA61Dd40"
      ],
      "transaction": {
        "type": "0x02",
        "from": "0x1dd37d479ac16113ff8f160210ee209944d2b28d",
        "to": "0x3e03ada049648a54c9c8984fb2b71eaae319e49d",
        "gas": "0x39e19",
        "value": "0x0",
        "data": "0xf81218730000000000000000000000004c02435fd60ed08c5e03f52406fb0daaadb2c9e8000000000000000000000000a9784a4e0f08d2b8fa65acff8a8012d1c5352b99000000000000000000000000c3f477e656ab79aa110653f36c94c8d8951f241600000000000000000000000044eec035e7d228abf2fc638681b36e7bb3c4fe80000000000000000000000000300efa649964e5c3730406fdbe91792adeb553e5000000000000000000000000e7e3e27ceef78ef1f32fe4b0d3fa0f38ca61dd40",
        "nonce": "0x261",
        "accessList": []
      },
      "additionalContracts": [],
      "isFixedGasLimit": false
    },
    {
      "hash": "0xdd897de4a41d1fc17b87f9a732600badba0819b28945f61e70fce241851bbdf7",
      "transactionType": "CALL",
      "contractName": "ERC1967Proxy",
      "contractAddress": "0xC3f477e656aB79aA110653F36C94c8D8951f2416",
      "function": null,
      "arguments": null,
      "transaction": {
        "type": "0x02",
        "from": "0x1dd37d479ac16113ff8f160210ee209944d2b28d",
        "to": "0xc3f477e656ab79aa110653f36c94c8d8951f2416",
        "gas": "0x11c94",
        "value": "0x0",
        "data": "0x9e9cad2900000000000000000000000044eec035e7d228abf2fc638681b36e7bb3c4fe800000000000000000000000000000000000000000000000000000000000000001",
        "nonce": "0x262",
        "accessList": []
      },
      "additionalContracts": [],
      "isFixedGasLimit": false
    },
    {
      "hash": "0x0a45fa3433bed0d6df09145e0ec324e8ff1a4750d68ae2a24747396aad4d5832",
      "transactionType": "CALL",
      "contractName": "ERC1967Proxy",
      "contractAddress": "0xC3f477e656aB79aA110653F36C94c8D8951f2416",
      "function": null,
      "arguments": null,
      "transaction": {
        "type": "0x02",
        "from": "0x1dd37d479ac16113ff8f160210ee209944d2b28d",
        "to": "0xc3f477e656ab79aa110653f36c94c8d8951f2416",
        "gas": "0x11c94",
        "value": "0x0",
        "data": "0x9e9cad29000000000000000000000000300efa649964e5c3730406fdbe91792adeb553e50000000000000000000000000000000000000000000000000000000000000001",
        "nonce": "0x263",
        "accessList": []
      },
      "additionalContracts": [],
      "isFixedGasLimit": false
    },
    {
      "hash": "0x1cd075b333073933953b20b4028873ff1d0f99ea58650d4de5eb3ad20b879a15",
      "transactionType": "CALL",
      "contractName": "ERC1967Proxy",
      "contractAddress": "0xC3f477e656aB79aA110653F36C94c8D8951f2416",
      "function": null,
      "arguments": null,
      "transaction": {
        "type": "0x02",
        "from": "0x1dd37d479ac16113ff8f160210ee209944d2b28d",
        "to": "0xc3f477e656ab79aa110653f36c94c8d8951f2416",
        "gas": "0x11c94",
        "value": "0x0",
        "data": "0x9e9cad29000000000000000000000000e7e3e27ceef78ef1f32fe4b0d3fa0f38ca61dd400000000000000000000000000000000000000000000000000000000000000001",
        "nonce": "0x264",
        "accessList": []
      },
      "additionalContracts": [],
      "isFixedGasLimit": false
    },
    {
      "hash": "0x77a78bfe7d8a846395218e6806cac70d95f99c81e19d7a5bf8abeff902a27ba2",
      "transactionType": "CALL",
      "contractName": "ERC1967Proxy",
      "contractAddress": "0xC3f477e656aB79aA110653F36C94c8D8951f2416",
      "function": null,
      "arguments": null,
      "transaction": {
        "type": "0x02",
        "from": "0x1dd37d479ac16113ff8f160210ee209944d2b28d",
        "to": "0xc3f477e656ab79aa110653f36c94c8d8951f2416",
        "gas": "0x11c94",
        "value": "0x0",
        "data": "0x9e9cad290000000000000000000000003e03ada049648a54c9c8984fb2b71eaae319e49d0000000000000000000000000000000000000000000000000000000000000001",
        "nonce": "0x265",
        "accessList": []
      },
      "additionalContracts": [],
      "isFixedGasLimit": false
    }
  ],
  "receipts": [
    {
      "transactionHash": "0x428964ca5511fc339ccfa11e8ecdf3674bc046654e7546af349ba3c96e689491",
      "transactionIndex": "0x9",
      "blockHash": "0xa939ec06406a482abf4b6e506f79cf8ee2bf2a8654bbe7d4ab1092a2eb9fb1c4",
      "blockNumber": "0x563ac6",
      "from": "0x1dD37D479ac16113fF8f160210Ee209944d2b28d",
      "to": "0x3E03Ada049648A54c9c8984fb2b71EAae319E49d",
      "cumulativeGasUsed": "0x142b8f",
      "gasUsed": "0x2793b",
      "contractAddress": null,
      "logs": [],
      "status": "0x1",
      "logsBloom": "0x00000000000000000000000000000000000000000000000000000000000000000000000000000000000000000000000000000000000000000000000000000000000000000000000000000000000000000000000000000000000000000000000000000000000000000000000000000000000000000000000000000000000000000000000000000000000000000000000000000000000000000000000000000000000000000000000000000000000000000000000000000000000000000000000000000000000000000000000000000000000000000000000000000000000000000000000000000000000000000000000000000000000000000000000000000000",
      "type": "0x2",
      "effectiveGasPrice": "0xb2d80bcb"
    },
    {
      "transactionHash": "0xdd897de4a41d1fc17b87f9a732600badba0819b28945f61e70fce241851bbdf7",
      "transactionIndex": "0xb",
      "blockHash": "0xa939ec06406a482abf4b6e506f79cf8ee2bf2a8654bbe7d4ab1092a2eb9fb1c4",
      "blockNumber": "0x563ac6",
      "from": "0x1dD37D479ac16113fF8f160210Ee209944d2b28d",
      "to": "0xC3f477e656aB79aA110653F36C94c8D8951f2416",
      "cumulativeGasUsed": "0x162192",
      "gasUsed": "0xce08",
      "contractAddress": null,
      "logs": [
        {
          "address": "0xC3f477e656aB79aA110653F36C94c8D8951f2416",
          "topics": [
            "0x6a51febf99909656dd24dfa3562a7b303d7f130a915393f8a74402fa531061cb",
            "0x00000000000000000000000044eec035e7d228abf2fc638681b36e7bb3c4fe80"
          ],
          "data": "0x0000000000000000000000000000000000000000000000000000000000000001",
          "blockHash": "0xa939ec06406a482abf4b6e506f79cf8ee2bf2a8654bbe7d4ab1092a2eb9fb1c4",
          "blockNumber": "0x563ac6",
          "transactionHash": "0xdd897de4a41d1fc17b87f9a732600badba0819b28945f61e70fce241851bbdf7",
          "transactionIndex": "0xb",
          "logIndex": "0x15",
          "removed": false
        }
      ],
      "status": "0x1",
      "logsBloom": "0x00000000000000004000000000000000000000000000000000000000000000080000000020000000000000000000000000000000000000010000000000000000000000000000000000000000000000000000000000000000200000000000000000000000000000000000000000000000000000000000000000000000000000000000000000000000008000800000000000000000000000000000000000000000000000000000000000000000000000000000004000000000000000000000000000000000000001000000000000000000000000000000000000000000000000000000000000000000000000000000000000000000000000000000000000000000",
      "type": "0x2",
      "effectiveGasPrice": "0xb2d80bcb"
    },
    {
      "transactionHash": "0x0a45fa3433bed0d6df09145e0ec324e8ff1a4750d68ae2a24747396aad4d5832",
      "transactionIndex": "0xc",
      "blockHash": "0xa939ec06406a482abf4b6e506f79cf8ee2bf2a8654bbe7d4ab1092a2eb9fb1c4",
      "blockNumber": "0x563ac6",
      "from": "0x1dD37D479ac16113fF8f160210Ee209944d2b28d",
      "to": "0xC3f477e656aB79aA110653F36C94c8D8951f2416",
      "cumulativeGasUsed": "0x16ef9a",
      "gasUsed": "0xce08",
      "contractAddress": null,
      "logs": [
        {
          "address": "0xC3f477e656aB79aA110653F36C94c8D8951f2416",
          "topics": [
            "0x6a51febf99909656dd24dfa3562a7b303d7f130a915393f8a74402fa531061cb",
            "0x000000000000000000000000300efa649964e5c3730406fdbe91792adeb553e5"
          ],
          "data": "0x0000000000000000000000000000000000000000000000000000000000000001",
          "blockHash": "0xa939ec06406a482abf4b6e506f79cf8ee2bf2a8654bbe7d4ab1092a2eb9fb1c4",
          "blockNumber": "0x563ac6",
          "transactionHash": "0x0a45fa3433bed0d6df09145e0ec324e8ff1a4750d68ae2a24747396aad4d5832",
          "transactionIndex": "0xc",
          "logIndex": "0x16",
          "removed": false
        }
      ],
      "status": "0x1",
      "logsBloom": "0x00000000000000004000000000000000000000000000000000000000000000080000000000000000000000000000000000000000000000010000000000000000000000000000000000000000000000000000000000000000200000000000000000000000000000000000000000000000000000000000000000000000000000000000000000000000000000800000400000000000000000000000000000000000000000000000000000000000000000000000004000000000008000000000000000000000000000000000000000000000000000000000000000000000000000000000000000000000000000000000000000000000040000000000000000000000",
      "type": "0x2",
      "effectiveGasPrice": "0xb2d80bcb"
    },
    {
      "transactionHash": "0x1cd075b333073933953b20b4028873ff1d0f99ea58650d4de5eb3ad20b879a15",
      "transactionIndex": "0xd",
      "blockHash": "0xa939ec06406a482abf4b6e506f79cf8ee2bf2a8654bbe7d4ab1092a2eb9fb1c4",
      "blockNumber": "0x563ac6",
      "from": "0x1dD37D479ac16113fF8f160210Ee209944d2b28d",
      "to": "0xC3f477e656aB79aA110653F36C94c8D8951f2416",
      "cumulativeGasUsed": "0x17bda2",
      "gasUsed": "0xce08",
      "contractAddress": null,
      "logs": [
        {
          "address": "0xC3f477e656aB79aA110653F36C94c8D8951f2416",
          "topics": [
            "0x6a51febf99909656dd24dfa3562a7b303d7f130a915393f8a74402fa531061cb",
            "0x000000000000000000000000e7e3e27ceef78ef1f32fe4b0d3fa0f38ca61dd40"
          ],
          "data": "0x0000000000000000000000000000000000000000000000000000000000000001",
          "blockHash": "0xa939ec06406a482abf4b6e506f79cf8ee2bf2a8654bbe7d4ab1092a2eb9fb1c4",
          "blockNumber": "0x563ac6",
          "transactionHash": "0x1cd075b333073933953b20b4028873ff1d0f99ea58650d4de5eb3ad20b879a15",
          "transactionIndex": "0xd",
          "logIndex": "0x17",
          "removed": false
        }
      ],
      "status": "0x1",
      "logsBloom": "0x80000000000000004000000000000000000000000000000000000000000000080000000000000000000000000000000000000000000000010000000000000000000000000000000800000000000000020000000000000000200000000000000000000000000000000000000000000000000000000000000000000000000000000000000000000000000000800000000000000000000000000000000000000000000000000000000000000000000000000000004000000000000000000000000000000000000000000000000000000000000000000000000000000000000000000000000000000000000000000000000000000000000000000000000000000000",
      "type": "0x2",
      "effectiveGasPrice": "0xb2d80bcb"
    },
    {
      "transactionHash": "0x77a78bfe7d8a846395218e6806cac70d95f99c81e19d7a5bf8abeff902a27ba2",
      "transactionIndex": "0xe",
      "blockHash": "0xa939ec06406a482abf4b6e506f79cf8ee2bf2a8654bbe7d4ab1092a2eb9fb1c4",
      "blockNumber": "0x563ac6",
      "from": "0x1dD37D479ac16113fF8f160210Ee209944d2b28d",
      "to": "0xC3f477e656aB79aA110653F36C94c8D8951f2416",
      "cumulativeGasUsed": "0x188baa",
      "gasUsed": "0xce08",
      "contractAddress": null,
      "logs": [
        {
          "address": "0xC3f477e656aB79aA110653F36C94c8D8951f2416",
          "topics": [
            "0x6a51febf99909656dd24dfa3562a7b303d7f130a915393f8a74402fa531061cb",
            "0x0000000000000000000000003e03ada049648a54c9c8984fb2b71eaae319e49d"
          ],
          "data": "0x0000000000000000000000000000000000000000000000000000000000000001",
          "blockHash": "0xa939ec06406a482abf4b6e506f79cf8ee2bf2a8654bbe7d4ab1092a2eb9fb1c4",
          "blockNumber": "0x563ac6",
          "transactionHash": "0x77a78bfe7d8a846395218e6806cac70d95f99c81e19d7a5bf8abeff902a27ba2",
          "transactionIndex": "0xe",
          "logIndex": "0x18",
          "removed": false
        }
      ],
      "status": "0x1",
      "logsBloom": "0x00000000000000004000000000000000000000000000000000000000000000080100000000000000000000000000000000000000000000010000000000000000000000000002000000000000000000000000000000000000200000000000000000000000000000000000000000001000000000000000000000000000000000000000000000000000000000800000000000000000000000000000000000000000000000000000000000000000000000000000004000000000000000000000000000000000000000000000000000000000000000000000000000000000000000000000000000000000000000000000000000000000000000000000000000000000",
      "type": "0x2",
      "effectiveGasPrice": "0xb2d80bcb"
    }
  ],
  "libraries": [],
  "pending": [],
  "returns": {},
  "timestamp": 1712540106,
  "chain": 11155111,
  "commit": "3b4c1b5"
}