{
  "transactions": [
    {
      "hash": "0xa4ab5d5f7040892039ce885bc4f5266a4ae8052b50a5c7af58332c3147817969",
      "transactionType": "CALL",
      "contractName": null,
      "contractAddress": "0x60f92710C6eEea33e675B6161A0d3d9e3AfC62ca",
      "function": "setProtocolAddresses(address,address,address,address,address,address)",
      "arguments": [
        "0x11E32F00aBA24ecf2Ad590F83e36138f996A55b9",
        "0x81Ea3F21Da0aE24da410E6398711F66291154461",
        "0xB2e265Be1A8f8355b308eCCbdCd8Cd7C0d43fF67",
        "0x3986217ea2ffeE041d9e7fdd99a1C33CE57E7B19",
        "0x709c99f4bCF580aC9563e3C0704fC7d1744815BE",
        "0x49cb681ebD7f0F961b172C2121dC5a62cCfa4Cb7"
      ],
      "transaction": {
        "type": "0x02",
        "from": "0x1dd37d479ac16113ff8f160210ee209944d2b28d",
        "to": "0x60f92710c6eeea33e675b6161a0d3d9e3afc62ca",
        "gas": "0x3e1eb",
        "value": "0x0",
        "data": "0xf812187300000000000000000000000011e32f00aba24ecf2ad590f83e36138f996a55b900000000000000000000000081ea3f21da0ae24da410e6398711f66291154461000000000000000000000000b2e265be1a8f8355b308eccbdcd8cd7c0d43ff670000000000000000000000003986217ea2ffee041d9e7fdd99a1c33ce57e7b19000000000000000000000000709c99f4bcf580ac9563e3c0704fc7d1744815be00000000000000000000000049cb681ebd7f0f961b172c2121dc5a62ccfa4cb7",
        "nonce": "0x1be",
        "accessList": []
      },
      "additionalContracts": [],
      "isFixedGasLimit": false
    },
    {
      "hash": "0xf21c0c009ae8343d18b3dec91a31e50b51dd16abae05963dcf5040d775b7ac92",
      "transactionType": "CALL",
      "contractName": "ERC1967Proxy",
      "contractAddress": "0xB2e265Be1A8f8355b308eCCbdCd8Cd7C0d43fF67",
      "function": null,
      "arguments": null,
      "transaction": {
        "type": "0x02",
        "from": "0x1dd37d479ac16113ff8f160210ee209944d2b28d",
        "to": "0xb2e265be1a8f8355b308eccbdcd8cd7c0d43ff67",
        "gas": "0x11c94",
        "value": "0x0",
        "data": "0x9e9cad290000000000000000000000003986217ea2ffee041d9e7fdd99a1c33ce57e7b190000000000000000000000000000000000000000000000000000000000000001",
        "nonce": "0x1bf",
        "accessList": []
      },
      "additionalContracts": [],
      "isFixedGasLimit": false
    },
    {
      "hash": "0x930f019503bca42fe9146b6357311d6e627add18d8f641ba9b8dd5a60722e55b",
      "transactionType": "CALL",
      "contractName": "ERC1967Proxy",
      "contractAddress": "0xB2e265Be1A8f8355b308eCCbdCd8Cd7C0d43fF67",
      "function": null,
      "arguments": null,
      "transaction": {
        "type": "0x02",
        "from": "0x1dd37d479ac16113ff8f160210ee209944d2b28d",
        "to": "0xb2e265be1a8f8355b308eccbdcd8cd7c0d43ff67",
        "gas": "0x11c94",
        "value": "0x0",
        "data": "0x9e9cad29000000000000000000000000709c99f4bcf580ac9563e3c0704fc7d1744815be0000000000000000000000000000000000000000000000000000000000000001",
        "nonce": "0x1c0",
        "accessList": []
      },
      "additionalContracts": [],
      "isFixedGasLimit": false
    },
    {
      "hash": "0xda90c9bb5900936cfc323a8f79096e4d0275765bb90744a269f14b479897e832",
      "transactionType": "CALL",
      "contractName": "ERC1967Proxy",
      "contractAddress": "0xB2e265Be1A8f8355b308eCCbdCd8Cd7C0d43fF67",
      "function": null,
      "arguments": null,
      "transaction": {
        "type": "0x02",
        "from": "0x1dd37d479ac16113ff8f160210ee209944d2b28d",
        "to": "0xb2e265be1a8f8355b308eccbdcd8cd7c0d43ff67",
        "gas": "0x11c94",
        "value": "0x0",
        "data": "0x9e9cad2900000000000000000000000049cb681ebd7f0f961b172c2121dc5a62ccfa4cb70000000000000000000000000000000000000000000000000000000000000001",
        "nonce": "0x1c1",
        "accessList": []
      },
      "additionalContracts": [],
      "isFixedGasLimit": false
    },
    {
      "hash": "0xafcf34a142496ca2b88c8a4e20e42daa29fc655e51434c43f37c9243affcbbf3",
      "transactionType": "CALL",
      "contractName": "ERC1967Proxy",
      "contractAddress": "0xB2e265Be1A8f8355b308eCCbdCd8Cd7C0d43fF67",
      "function": null,
      "arguments": null,
      "transaction": {
        "type": "0x02",
        "from": "0x1dd37d479ac16113ff8f160210ee209944d2b28d",
        "to": "0xb2e265be1a8f8355b308eccbdcd8cd7c0d43ff67",
        "gas": "0x11c94",
        "value": "0x0",
        "data": "0x9e9cad2900000000000000000000000060f92710c6eeea33e675b6161a0d3d9e3afc62ca0000000000000000000000000000000000000000000000000000000000000001",
        "nonce": "0x1c2",
        "accessList": []
      },
      "additionalContracts": [],
      "isFixedGasLimit": false
    }
  ],
  "receipts": [
    {
      "transactionHash": "0xa4ab5d5f7040892039ce885bc4f5266a4ae8052b50a5c7af58332c3147817969",
      "transactionIndex": "0x5",
      "blockHash": "0xfc8b0da2c6c2501a174d3e9a6a2b8f35b09fdb5532acc81399d74e163a4fbca4",
      "blockNumber": "0x55e4c7",
      "from": "0x1dD37D479ac16113fF8f160210Ee209944d2b28d",
      "to": "0x60f92710C6eEea33e675B6161A0d3d9e3AfC62ca",
      "cumulativeGasUsed": "0xa058f",
      "gasUsed": "0x2cf95",
      "contractAddress": null,
      "logs": [],
      "status": "0x1",
      "logsBloom": "0x00000000000000000000000000000000000000000000000000000000000000000000000000000000000000000000000000000000000000000000000000000000000000000000000000000000000000000000000000000000000000000000000000000000000000000000000000000000000000000000000000000000000000000000000000000000000000000000000000000000000000000000000000000000000000000000000000000000000000000000000000000000000000000000000000000000000000000000000000000000000000000000000000000000000000000000000000000000000000000000000000000000000000000000000000000000",
      "type": "0x2",
      "effectiveGasPrice": "0xb2d44929"
    },
    {
      "transactionHash": "0xf21c0c009ae8343d18b3dec91a31e50b51dd16abae05963dcf5040d775b7ac92",
      "transactionIndex": "0x6",
      "blockHash": "0xfc8b0da2c6c2501a174d3e9a6a2b8f35b09fdb5532acc81399d74e163a4fbca4",
      "blockNumber": "0x55e4c7",
      "from": "0x1dD37D479ac16113fF8f160210Ee209944d2b28d",
      "to": "0xB2e265Be1A8f8355b308eCCbdCd8Cd7C0d43fF67",
      "cumulativeGasUsed": "0xad397",
      "gasUsed": "0xce08",
      "contractAddress": null,
      "logs": [
        {
          "address": "0xB2e265Be1A8f8355b308eCCbdCd8Cd7C0d43fF67",
          "topics": [
            "0x6a51febf99909656dd24dfa3562a7b303d7f130a915393f8a74402fa531061cb",
            "0x0000000000000000000000003986217ea2ffee041d9e7fdd99a1c33ce57e7b19"
          ],
          "data": "0x0000000000000000000000000000000000000000000000000000000000000001",
          "blockHash": "0xfc8b0da2c6c2501a174d3e9a6a2b8f35b09fdb5532acc81399d74e163a4fbca4",
          "blockNumber": "0x55e4c7",
          "transactionHash": "0xf21c0c009ae8343d18b3dec91a31e50b51dd16abae05963dcf5040d775b7ac92",
          "transactionIndex": "0x6",
          "logIndex": "0x3",
          "removed": false
        }
      ],
      "status": "0x1",
      "logsBloom": "0x00000000000000000000000000000000000000000000000000000000000000000000000000000000000000000000000000000000000000010000000000200000000000000000000000000000000000000800000000000000200000000000000000000000000000000000000000000000000000000000000000000000000000000000000000000000000000800004000000000000004000000000000000000000000000000000000000000000000000000000000000000000000000000000000000000000020000000000000000000000000000000000000100000000000000000000000000000000000000000000000000000000000000000000000000000000",
      "type": "0x2",
      "effectiveGasPrice": "0xb2d44929"
    },
    {
      "transactionHash": "0x930f019503bca42fe9146b6357311d6e627add18d8f641ba9b8dd5a60722e55b",
      "transactionIndex": "0x7",
      "blockHash": "0xfc8b0da2c6c2501a174d3e9a6a2b8f35b09fdb5532acc81399d74e163a4fbca4",
      "blockNumber": "0x55e4c7",
      "from": "0x1dD37D479ac16113fF8f160210Ee209944d2b28d",
      "to": "0xB2e265Be1A8f8355b308eCCbdCd8Cd7C0d43fF67",
      "cumulativeGasUsed": "0xba19f",
      "gasUsed": "0xce08",
      "contractAddress": null,
      "logs": [
        {
          "address": "0xB2e265Be1A8f8355b308eCCbdCd8Cd7C0d43fF67",
          "topics": [
            "0x6a51febf99909656dd24dfa3562a7b303d7f130a915393f8a74402fa531061cb",
            "0x000000000000000000000000709c99f4bcf580ac9563e3c0704fc7d1744815be"
          ],
          "data": "0x0000000000000000000000000000000000000000000000000000000000000001",
          "blockHash": "0xfc8b0da2c6c2501a174d3e9a6a2b8f35b09fdb5532acc81399d74e163a4fbca4",
          "blockNumber": "0x55e4c7",
          "transactionHash": "0x930f019503bca42fe9146b6357311d6e627add18d8f641ba9b8dd5a60722e55b",
          "transactionIndex": "0x7",
          "logIndex": "0x4",
          "removed": false
        }
      ],
      "status": "0x1",
      "logsBloom": "0x00000000000000000000000000004000000000000000000000000000000000000000000000000000000000000000000000000000000000010000000000000000200000000000000000000000000000000800000000000000200000000000000000000000000000000000000000000000000000000000000000000000000000000000000000000000000000800004000000000000000000000000000000000000000000000000000000000000000000000000000000000000000000000000000000000000000000000000000000000000000000000000000100000400000000000000000000000000000000000000000000000000000000000000000000000000",
      "type": "0x2",
      "effectiveGasPrice": "0xb2d44929"
    },
    {
      "transactionHash": "0xda90c9bb5900936cfc323a8f79096e4d0275765bb90744a269f14b479897e832",
      "transactionIndex": "0x8",
      "blockHash": "0xfc8b0da2c6c2501a174d3e9a6a2b8f35b09fdb5532acc81399d74e163a4fbca4",
      "blockNumber": "0x55e4c7",
      "from": "0x1dD37D479ac16113fF8f160210Ee209944d2b28d",
      "to": "0xB2e265Be1A8f8355b308eCCbdCd8Cd7C0d43fF67",
      "cumulativeGasUsed": "0xc6fa7",
      "gasUsed": "0xce08",
      "contractAddress": null,
      "logs": [
        {
          "address": "0xB2e265Be1A8f8355b308eCCbdCd8Cd7C0d43fF67",
          "topics": [
            "0x6a51febf99909656dd24dfa3562a7b303d7f130a915393f8a74402fa531061cb",
            "0x00000000000000000000000049cb681ebd7f0f961b172c2121dc5a62ccfa4cb7"
          ],
          "data": "0x0000000000000000000000000000000000000000000000000000000000000001",
          "blockHash": "0xfc8b0da2c6c2501a174d3e9a6a2b8f35b09fdb5532acc81399d74e163a4fbca4",
          "blockNumber": "0x55e4c7",
          "transactionHash": "0xda90c9bb5900936cfc323a8f79096e4d0275765bb90744a269f14b479897e832",
          "transactionIndex": "0x8",
          "logIndex": "0x5",
          "removed": false
        }
      ],
      "status": "0x1",
      "logsBloom": "0x00000000000000000000000000000000000000000000000000000000000000000000000000000000000000000000000000000000000000010000000000000000000000000000000000000000000800000800000000000000200000000000000000002000000000000000000000000000000000000000000000000000000000000000000000000000000000800004000000000000002000000000000000000000000000000000000000000000000000000000000000000000000000000000000000000000000000000000000000000000000000000000000100000000000000000000000000000000000000000000000000000000000000000000000000000000",
      "type": "0x2",
      "effectiveGasPrice": "0xb2d44929"
    },
    {
      "transactionHash": "0xafcf34a142496ca2b88c8a4e20e42daa29fc655e51434c43f37c9243affcbbf3",
      "transactionIndex": "0x9",
      "blockHash": "0xfc8b0da2c6c2501a174d3e9a6a2b8f35b09fdb5532acc81399d74e163a4fbca4",
      "blockNumber": "0x55e4c7",
      "from": "0x1dD37D479ac16113fF8f160210Ee209944d2b28d",
      "to": "0xB2e265Be1A8f8355b308eCCbdCd8Cd7C0d43fF67",
      "cumulativeGasUsed": "0xd3daf",
      "gasUsed": "0xce08",
      "contractAddress": null,
      "logs": [
        {
          "address": "0xB2e265Be1A8f8355b308eCCbdCd8Cd7C0d43fF67",
          "topics": [
            "0x6a51febf99909656dd24dfa3562a7b303d7f130a915393f8a74402fa531061cb",
            "0x00000000000000000000000060f92710c6eeea33e675b6161a0d3d9e3afc62ca"
          ],
          "data": "0x0000000000000000000000000000000000000000000000000000000000000001",
          "blockHash": "0xfc8b0da2c6c2501a174d3e9a6a2b8f35b09fdb5532acc81399d74e163a4fbca4",
          "blockNumber": "0x55e4c7",
          "transactionHash": "0xafcf34a142496ca2b88c8a4e20e42daa29fc655e51434c43f37c9243affcbbf3",
          "transactionIndex": "0x9",
          "logIndex": "0x6",
          "removed": false
        }
      ],
      "status": "0x1",
      "logsBloom": "0x00000000000000000000000000000000000000000000000000000000000000000000000000000004000000000000000000000000000000010000000000000000000000000000000000000000000000000800000000000000201000000000000000000000000000000000000000000000000000000000000000000000000000000000000000000000000000800004000000000000000000000000000000000000000000000000000000000000000000000000000000000000000000000000000000000000000000000000000000000000000000000000000100000000040000000000000000000000000000000000000000000000000000000000000000000000",
      "type": "0x2",
      "effectiveGasPrice": "0xb2d44929"
    }
  ],
  "libraries": [],
  "pending": [],
  "returns": {},
  "timestamp": 1712255092,
  "chain": 11155111,
  "commit": "c8a00bb"
}