{
  "transactions": [
    {
      "hash": "0x8bc3d2cf0ee9176ed0f9dd8849822484769f4b1ad7bb2d33c6a19fd31c634d4f",
      "transactionType": "CALL",
      "contractName": null,
      "contractAddress": "0x0814DB86E4Dbc9D99A93C8Ca394e4792Bb64ab5e",
      "function": "setProtocolAddresses(address,address,address,address,address,address)",
      "arguments": [
        "0x327786a1811db6159D3c688f2394Fac390b193E8",
        "0x7BFED578d74F4B2C3f879edA4639fE968B9e3714",
        "0xBdA44CA7Bdb48f59f06Fc0edecd1E446171569a0",
        "0xF53bFb8Ad722cc7fe276e9746f978701123Fbf7C",
        "0xB031098359e841f0C8791B4Caa1A19C93F62e04B",
        "0x2139a6e9A925dE37097881eFf07946b170Da0440"
      ],
      "transaction": {
        "type": "0x02",
        "from": "0x1dd37d479ac16113ff8f160210ee209944d2b28d",
        "to": "0x0814db86e4dbc9d99a93c8ca394e4792bb64ab5e",
        "gas": "0x41c74",
        "value": "0x0",
        "data": "0xf8121873000000000000000000000000327786a1811db6159d3c688f2394fac390b193e80000000000000000000000007bfed578d74f4b2c3f879eda4639fe968b9e3714000000000000000000000000bda44ca7bdb48f59f06fc0edecd1e446171569a0000000000000000000000000f53bfb8ad722cc7fe276e9746f978701123fbf7c000000000000000000000000b031098359e841f0c8791b4caa1a19c93f62e04b0000000000000000000000002139a6e9a925de37097881eff07946b170da0440",
        "nonce": "0x42",
        "accessList": []
      },
      "additionalContracts": [],
      "isFixedGasLimit": false
    },
    {
      "hash": "0x669b5d06ae09503da98c58e61dc3f67acaa08255a60349cf42ecd01272f4dc3e",
      "transactionType": "CALL",
      "contractName": "ERC1967Proxy",
      "contractAddress": "0xBdA44CA7Bdb48f59f06Fc0edecd1E446171569a0",
      "function": null,
      "arguments": null,
      "transaction": {
        "type": "0x02",
        "from": "0x1dd37d479ac16113ff8f160210ee209944d2b28d",
        "to": "0xbda44ca7bdb48f59f06fc0edecd1e446171569a0",
        "gas": "0x11c94",
        "value": "0x0",
        "data": "0x9e9cad29000000000000000000000000f53bfb8ad722cc7fe276e9746f978701123fbf7c0000000000000000000000000000000000000000000000000000000000000001",
        "nonce": "0x43",
        "accessList": []
      },
      "additionalContracts": [],
      "isFixedGasLimit": false
    },
    {
      "hash": "0x54e8962ff76213a800369f63fd7c6335ebf6b38e719c4313917185848c6ca890",
      "transactionType": "CALL",
      "contractName": "ERC1967Proxy",
      "contractAddress": "0xBdA44CA7Bdb48f59f06Fc0edecd1E446171569a0",
      "function": null,
      "arguments": null,
      "transaction": {
        "type": "0x02",
        "from": "0x1dd37d479ac16113ff8f160210ee209944d2b28d",
        "to": "0xbda44ca7bdb48f59f06fc0edecd1e446171569a0",
        "gas": "0x11c94",
        "value": "0x0",
        "data": "0x9e9cad29000000000000000000000000b031098359e841f0c8791b4caa1a19c93f62e04b0000000000000000000000000000000000000000000000000000000000000001",
        "nonce": "0x44",
        "accessList": []
      },
      "additionalContracts": [],
      "isFixedGasLimit": false
    },
    {
      "hash": "0x2b162f5b34e0e504403ba89297517c30c53ccf6a224059d67cc671b007f58f99",
      "transactionType": "CALL",
      "contractName": "ERC1967Proxy",
      "contractAddress": "0xBdA44CA7Bdb48f59f06Fc0edecd1E446171569a0",
      "function": null,
      "arguments": null,
      "transaction": {
        "type": "0x02",
        "from": "0x1dd37d479ac16113ff8f160210ee209944d2b28d",
        "to": "0xbda44ca7bdb48f59f06fc0edecd1e446171569a0",
        "gas": "0x11c94",
        "value": "0x0",
        "data": "0x9e9cad290000000000000000000000002139a6e9a925de37097881eff07946b170da04400000000000000000000000000000000000000000000000000000000000000001",
        "nonce": "0x45",
        "accessList": []
      },
      "additionalContracts": [],
      "isFixedGasLimit": false
    }
  ],
  "receipts": [
    {
      "transactionHash": "0x8bc3d2cf0ee9176ed0f9dd8849822484769f4b1ad7bb2d33c6a19fd31c634d4f",
      "transactionIndex": "0x1a",
      "blockHash": "0x5f69ce7ca1813bcdd9dc8a80d296cd2b803300eff6b051b5775917df00e9e1cc",
      "blockNumber": "0x534b87",
      "from": "0x1dD37D479ac16113fF8f160210Ee209944d2b28d",
      "to": "0x0814DB86E4Dbc9D99A93C8Ca394e4792Bb64ab5e",
      "cumulativeGasUsed": "0x153003",
      "gasUsed": "0x2cfa1",
      "contractAddress": null,
      "logs": [],
      "status": "0x1",
      "logsBloom": "0x00000000000000000000000000000000000000000000000000000000000000000000000000000000000000000000000000000000000000000000000000000000000000000000000000000000000000000000000000000000000000000000000000000000000000000000000000000000000000000000000000000000000000000000000000000000000000000000000000000000000000000000000000000000000000000000000000000000000000000000000000000000000000000000000000000000000000000000000000000000000000000000000000000000000000000000000000000000000000000000000000000000000000000000000000000000",
      "type": "0x2",
      "effectiveGasPrice": "0xbd92763c"
    },
    {
      "transactionHash": "0x669b5d06ae09503da98c58e61dc3f67acaa08255a60349cf42ecd01272f4dc3e",
      "transactionIndex": "0x1b",
      "blockHash": "0x5f69ce7ca1813bcdd9dc8a80d296cd2b803300eff6b051b5775917df00e9e1cc",
      "blockNumber": "0x534b87",
      "from": "0x1dD37D479ac16113fF8f160210Ee209944d2b28d",
      "to": "0xBdA44CA7Bdb48f59f06Fc0edecd1E446171569a0",
      "cumulativeGasUsed": "0x15fe0b",
      "gasUsed": "0xce08",
      "contractAddress": null,
      "logs": [
        {
          "address": "0xBdA44CA7Bdb48f59f06Fc0edecd1E446171569a0",
          "topics": [
            "0x6a51febf99909656dd24dfa3562a7b303d7f130a915393f8a74402fa531061cb",
            "0x000000000000000000000000f53bfb8ad722cc7fe276e9746f978701123fbf7c"
          ],
          "data": "0x0000000000000000000000000000000000000000000000000000000000000001",
          "blockHash": "0x5f69ce7ca1813bcdd9dc8a80d296cd2b803300eff6b051b5775917df00e9e1cc",
          "blockNumber": "0x534b87",
          "transactionHash": "0x669b5d06ae09503da98c58e61dc3f67acaa08255a60349cf42ecd01272f4dc3e",
          "transactionIndex": "0x1b",
          "logIndex": "0xb",
          "removed": false
        }
      ],
      "status": "0x1",
      "logsBloom": "0x00008000000000000000000000000000000000000000000000000000000000000000000000000000000000000000000000000000000000010000000000000000000000000000000000000000000000000008000000000000200000000000000000000000000000000000000000000000000000200000000000000000000000000000000000000000000000800000000000000000000000000000000000000000000000000000000000000000000000000000000000000000000000000000000000000001000000020000000000000000000000000000000000000000000040000000000000000000000000000000000000000000000000000000000000000000",
      "type": "0x2",
      "effectiveGasPrice": "0xbd92763c"
    },
    {
      "transactionHash": "0x54e8962ff76213a800369f63fd7c6335ebf6b38e719c4313917185848c6ca890",
      "transactionIndex": "0x1c",
      "blockHash": "0x5f69ce7ca1813bcdd9dc8a80d296cd2b803300eff6b051b5775917df00e9e1cc",
      "blockNumber": "0x534b87",
      "from": "0x1dD37D479ac16113fF8f160210Ee209944d2b28d",
      "to": "0xBdA44CA7Bdb48f59f06Fc0edecd1E446171569a0",
      "cumulativeGasUsed": "0x16cc13",
      "gasUsed": "0xce08",
      "contractAddress": null,
      "logs": [
        {
          "address": "0xBdA44CA7Bdb48f59f06Fc0edecd1E446171569a0",
          "topics": [
            "0x6a51febf99909656dd24dfa3562a7b303d7f130a915393f8a74402fa531061cb",
            "0x000000000000000000000000b031098359e841f0c8791b4caa1a19c93f62e04b"
          ],
          "data": "0x0000000000000000000000000000000000000000000000000000000000000001",
          "blockHash": "0x5f69ce7ca1813bcdd9dc8a80d296cd2b803300eff6b051b5775917df00e9e1cc",
          "blockNumber": "0x534b87",
          "transactionHash": "0x54e8962ff76213a800369f63fd7c6335ebf6b38e719c4313917185848c6ca890",
          "transactionIndex": "0x1c",
          "logIndex": "0xc",
          "removed": false
        }
      ],
      "status": "0x1",
      "logsBloom": "0x00000000000000000000000000000000000000000000000000000000000000000000000000000000000000000000000000000000000000010000000000000000000000000000000000000000000000000008000000000000200000000000000000000000000000000000000000000000000000200000000000000000000000000000000000000000000008800000000000000000000000000000000000000000000000000000000000000000000000000000000000000000000000000000000000000001000000000000000000000000000000000000000000000001000000000000000000000000000000000001000000000000000000000000000000000000",
      "type": "0x2",
      "effectiveGasPrice": "0xbd92763c"
    },
    {
      "transactionHash": "0x2b162f5b34e0e504403ba89297517c30c53ccf6a224059d67cc671b007f58f99",
      "transactionIndex": "0x1d",
      "blockHash": "0x5f69ce7ca1813bcdd9dc8a80d296cd2b803300eff6b051b5775917df00e9e1cc",
      "blockNumber": "0x534b87",
      "from": "0x1dD37D479ac16113fF8f160210Ee209944d2b28d",
      "to": "0xBdA44CA7Bdb48f59f06Fc0edecd1E446171569a0",
      "cumulativeGasUsed": "0x179a1b",
      "gasUsed": "0xce08",
      "contractAddress": null,
      "logs": [
        {
          "address": "0xBdA44CA7Bdb48f59f06Fc0edecd1E446171569a0",
          "topics": [
            "0x6a51febf99909656dd24dfa3562a7b303d7f130a915393f8a74402fa531061cb",
            "0x0000000000000000000000002139a6e9a925de37097881eff07946b170da0440"
          ],
          "data": "0x0000000000000000000000000000000000000000000000000000000000000001",
          "blockHash": "0x5f69ce7ca1813bcdd9dc8a80d296cd2b803300eff6b051b5775917df00e9e1cc",
          "blockNumber": "0x534b87",
          "transactionHash": "0x2b162f5b34e0e504403ba89297517c30c53ccf6a224059d67cc671b007f58f99",
          "transactionIndex": "0x1d",
          "logIndex": "0xd",
          "removed": false
        }
      ],
      "status": "0x1",
      "logsBloom": "0x00000000000000000000000000000000000000000000000000000000000000000000000000000000000000000000000000000000000000010000000000000000000000000000000000000000000000000008000000000000a00000000000000000000000000000000000000000000000000000200000000000000000000000000000000000000000000000800000000000000000000000000000000000000000000000000000000000000000000000000000000000000000000000000000000000000001000000000000000000000000000000000000000000000000000000000000020000000000000000000000000010000000000000000000000000000000",
      "type": "0x2",
      "effectiveGasPrice": "0xbd92763c"
    }
  ],
  "libraries": [],
  "pending": [],
  "returns": {},
  "timestamp": 1710104379,
  "chain": 11155111,
  "commit": "e18da9f"
}