{
  "transactions": [
    {
      "hash": "0x0364d5e41dcb8957e67f988b97566952d6ba12f979877a458464c18776aa4b1f",
      "transactionType": "CALL",
      "contractName": null,
      "contractAddress": "0x1672800fF69f5fCE6cb394ff2aC3e7F83F1f44FB",
      "function": "setProtocolAddresses(address,address,address,address,address,address)",
      "arguments": [
        "0x2815ef0140d8e066c0D4773f881B57ca65b80bFF",
        "0x3a3AED22b7764307dd0972812B4a20Fcf3966c3B",
        "0x86521CB07241f6D6C66B6B267457D59771d454a9",
        "0xb52881EBe32CE3a13AAD36ED55eC5d9A5Eb2c262",
        "0x08D8d32BF12c4d2E842280192166245e04416cAA",
        "0x1fC436A7877d633B30bB410FE54f99395052710c"
      ],
      "transaction": {
        "type": "0x02",
        "from": "0x1dd37d479ac16113ff8f160210ee209944d2b28d",
        "to": "0x1672800ff69f5fce6cb394ff2ac3e7f83f1f44fb",
        "gas": "0x41c74",
        "value": "0x0",
        "data": "0xf81218730000000000000000000000002815ef0140d8e066c0d4773f881b57ca65b80bff0000000000000000000000003a3aed22b7764307dd0972812b4a20fcf3966c3b00000000000000000000000086521cb07241f6d6c66b6b267457d59771d454a9000000000000000000000000b52881ebe32ce3a13aad36ed55ec5d9a5eb2c26200000000000000000000000008d8d32bf12c4d2e842280192166245e04416caa0000000000000000000000001fc436a7877d633b30bb410fe54f99395052710c",
        "nonce": "0xff",
        "accessList": []
      },
      "additionalContracts": [],
      "isFixedGasLimit": false
    },
    {
      "hash": "0xd01d50ac9f04c6779fdbb5d4a3610912776ba85b75ea47189b36dc293a3ec780",
      "transactionType": "CALL",
      "contractName": "ERC1967Proxy",
      "contractAddress": "0x86521CB07241f6D6C66B6B267457D59771d454a9",
      "function": null,
      "arguments": null,
      "transaction": {
        "type": "0x02",
        "from": "0x1dd37d479ac16113ff8f160210ee209944d2b28d",
        "to": "0x86521cb07241f6d6c66b6b267457d59771d454a9",
        "gas": "0x11c94",
        "value": "0x0",
        "data": "0x9e9cad29000000000000000000000000b52881ebe32ce3a13aad36ed55ec5d9a5eb2c2620000000000000000000000000000000000000000000000000000000000000001",
        "nonce": "0x100",
        "accessList": []
      },
      "additionalContracts": [],
      "isFixedGasLimit": false
    },
    {
      "hash": "0x2c2a5d0f8db94b60723e69181e8d27366e3503c6edbe89cc3e6ee91e5f32af55",
      "transactionType": "CALL",
      "contractName": "ERC1967Proxy",
      "contractAddress": "0x86521CB07241f6D6C66B6B267457D59771d454a9",
      "function": null,
      "arguments": null,
      "transaction": {
        "type": "0x02",
        "from": "0x1dd37d479ac16113ff8f160210ee209944d2b28d",
        "to": "0x86521cb07241f6d6c66b6b267457d59771d454a9",
        "gas": "0x11c94",
        "value": "0x0",
        "data": "0x9e9cad2900000000000000000000000008d8d32bf12c4d2e842280192166245e04416caa0000000000000000000000000000000000000000000000000000000000000001",
        "nonce": "0x101",
        "accessList": []
      },
      "additionalContracts": [],
      "isFixedGasLimit": false
    },
    {
      "hash": "0x4e39943170c441735029c6159753cc46cecc22d6e3dd27ee35f853f6082dc66b",
      "transactionType": "CALL",
      "contractName": "ERC1967Proxy",
      "contractAddress": "0x86521CB07241f6D6C66B6B267457D59771d454a9",
      "function": null,
      "arguments": null,
      "transaction": {
        "type": "0x02",
        "from": "0x1dd37d479ac16113ff8f160210ee209944d2b28d",
        "to": "0x86521cb07241f6d6c66b6b267457d59771d454a9",
        "gas": "0x11c94",
        "value": "0x0",
        "data": "0x9e9cad290000000000000000000000001fc436a7877d633b30bb410fe54f99395052710c0000000000000000000000000000000000000000000000000000000000000001",
        "nonce": "0x102",
        "accessList": []
      },
      "additionalContracts": [],
      "isFixedGasLimit": false
    },
    {
      "hash": "0x94091c95298a2ffbe061e9dbda93d2bd2bc3dfdaf2044106c5f35964bd6c2354",
      "transactionType": "CALL",
      "contractName": "ERC1967Proxy",
      "contractAddress": "0x86521CB07241f6D6C66B6B267457D59771d454a9",
      "function": null,
      "arguments": null,
      "transaction": {
        "type": "0x02",
        "from": "0x1dd37d479ac16113ff8f160210ee209944d2b28d",
        "to": "0x86521cb07241f6d6c66b6b267457d59771d454a9",
        "gas": "0x11c94",
        "value": "0x0",
        "data": "0x9e9cad290000000000000000000000001672800ff69f5fce6cb394ff2ac3e7f83f1f44fb0000000000000000000000000000000000000000000000000000000000000001",
        "nonce": "0x103",
        "accessList": []
      },
      "additionalContracts": [],
      "isFixedGasLimit": false
    }
  ],
  "receipts": [
    {
      "transactionHash": "0x0364d5e41dcb8957e67f988b97566952d6ba12f979877a458464c18776aa4b1f",
      "transactionIndex": "0xd",
      "blockHash": "0x519f47534c01800c9646f64a1025f1c2b07caf93f521b93e3affe562cdaa0178",
      "blockNumber": "0x540c24",
      "from": "0x1dD37D479ac16113fF8f160210Ee209944d2b28d",
      "to": "0x1672800fF69f5fCE6cb394ff2aC3e7F83F1f44FB",
      "cumulativeGasUsed": "0x9e6bc",
      "gasUsed": "0x2cfa1",
      "contractAddress": null,
      "logs": [],
      "status": "0x1",
      "logsBloom": "0x00000000000000000000000000000000000000000000000000000000000000000000000000000000000000000000000000000000000000000000000000000000000000000000000000000000000000000000000000000000000000000000000000000000000000000000000000000000000000000000000000000000000000000000000000000000000000000000000000000000000000000000000000000000000000000000000000000000000000000000000000000000000000000000000000000000000000000000000000000000000000000000000000000000000000000000000000000000000000000000000000000000000000000000000000000000",
      "type": "0x2",
      "effectiveGasPrice": "0xd0f7c9fd"
    },
    {
      "transactionHash": "0xd01d50ac9f04c6779fdbb5d4a3610912776ba85b75ea47189b36dc293a3ec780",
      "transactionIndex": "0xe",
      "blockHash": "0x519f47534c01800c9646f64a1025f1c2b07caf93f521b93e3affe562cdaa0178",
      "blockNumber": "0x540c24",
      "from": "0x1dD37D479ac16113fF8f160210Ee209944d2b28d",
      "to": "0x86521CB07241f6D6C66B6B267457D59771d454a9",
      "cumulativeGasUsed": "0xab4c4",
      "gasUsed": "0xce08",
      "contractAddress": null,
      "logs": [
        {
          "address": "0x86521CB07241f6D6C66B6B267457D59771d454a9",
          "topics": [
            "0x6a51febf99909656dd24dfa3562a7b303d7f130a915393f8a74402fa531061cb",
            "0x000000000000000000000000b52881ebe32ce3a13aad36ed55ec5d9a5eb2c262"
          ],
          "data": "0x0000000000000000000000000000000000000000000000000000000000000001",
          "blockHash": "0x519f47534c01800c9646f64a1025f1c2b07caf93f521b93e3affe562cdaa0178",
          "blockNumber": "0x540c24",
          "transactionHash": "0xd01d50ac9f04c6779fdbb5d4a3610912776ba85b75ea47189b36dc293a3ec780",
          "transactionIndex": "0xe",
          "logIndex": "0x2",
          "removed": false
        }
      ],
      "status": "0x1",
      "logsBloom": "0x00000008000000000000000000000000000000000000000000000000000000000000000000000000000000000000000000000000000000010000000000000000000000000000000000000000000000000000000000000000200000000000000004000000000000000000000000000000000000000000000000000000000000000000000000000000000000800000000000000000000000010000000000000000000000000000000000000000000000000000000000000000000000000000000000000000000000000000000001000000000000000000000000000000000000000000000000000000000000000000000000800000000000800000000000000000",
      "type": "0x2",
      "effectiveGasPrice": "0xd0f7c9fd"
    },
    {
      "transactionHash": "0x2c2a5d0f8db94b60723e69181e8d27366e3503c6edbe89cc3e6ee91e5f32af55",
      "transactionIndex": "0xf",
      "blockHash": "0x519f47534c01800c9646f64a1025f1c2b07caf93f521b93e3affe562cdaa0178",
      "blockNumber": "0x540c24",
      "from": "0x1dD37D479ac16113fF8f160210Ee209944d2b28d",
      "to": "0x86521CB07241f6D6C66B6B267457D59771d454a9",
      "cumulativeGasUsed": "0xb82cc",
      "gasUsed": "0xce08",
      "contractAddress": null,
      "logs": [
        {
          "address": "0x86521CB07241f6D6C66B6B267457D59771d454a9",
          "topics": [
            "0x6a51febf99909656dd24dfa3562a7b303d7f130a915393f8a74402fa531061cb",
            "0x00000000000000000000000008d8d32bf12c4d2e842280192166245e04416caa"
          ],
          "data": "0x0000000000000000000000000000000000000000000000000000000000000001",
          "blockHash": "0x519f47534c01800c9646f64a1025f1c2b07caf93f521b93e3affe562cdaa0178",
          "blockNumber": "0x540c24",
          "transactionHash": "0x2c2a5d0f8db94b60723e69181e8d27366e3503c6edbe89cc3e6ee91e5f32af55",
          "transactionIndex": "0xf",
          "logIndex": "0x3",
          "removed": false
        }
      ],
      "status": "0x1",
      "logsBloom": "0x00000008000000000000000000000000000000000000000000000000000000000000000000000000000000000000000000000000000000010000000000000000000000000000000000000000000000080000000000000000200000000000000004000000000000000000000000000000000000000000000000000000000000000000000000000000000000800000000000000000000000010000000000000000000000000000000000000000000000000000000000000000000000000000000000000000000000000000000000000000000000000000000000000000000000000000000000000002000000000000000000040000000000000000000000000000",
      "type": "0x2",
      "effectiveGasPrice": "0xd0f7c9fd"
    },
    {
      "transactionHash": "0x4e39943170c441735029c6159753cc46cecc22d6e3dd27ee35f853f6082dc66b",
      "transactionIndex": "0x10",
      "blockHash": "0x519f47534c01800c9646f64a1025f1c2b07caf93f521b93e3affe562cdaa0178",
      "blockNumber": "0x540c24",
      "from": "0x1dD37D479ac16113fF8f160210Ee209944d2b28d",
      "to": "0x86521CB07241f6D6C66B6B267457D59771d454a9",
      "cumulativeGasUsed": "0xc50d4",
      "gasUsed": "0xce08",
      "contractAddress": null,
      "logs": [
        {
          "address": "0x86521CB07241f6D6C66B6B267457D59771d454a9",
          "topics": [
            "0x6a51febf99909656dd24dfa3562a7b303d7f130a915393f8a74402fa531061cb",
            "0x0000000000000000000000001fc436a7877d633b30bb410fe54f99395052710c"
          ],
          "data": "0x0000000000000000000000000000000000000000000000000000000000000001",
          "blockHash": "0x519f47534c01800c9646f64a1025f1c2b07caf93f521b93e3affe562cdaa0178",
          "blockNumber": "0x540c24",
          "transactionHash": "0x4e39943170c441735029c6159753cc46cecc22d6e3dd27ee35f853f6082dc66b",
          "transactionIndex": "0x10",
          "logIndex": "0x4",
          "removed": false
        }
      ],
      "status": "0x1",
      "logsBloom": "0x00000008000000000000000000000000000000000008000000000000000000000000020000000000000000000000000000000000000000010000000000000000000000000000000000000000000000000000000000000000200000000000000004000000000000000000000000000000000000000000000000000000010000000000000000000000000000800000000000000000000000010000000000000000000000000000000000000000000000000000000000000000000000000000000000000000000000000000000000000000000000000000000000000000000000000000000000000000000000000000000000000000000000000000000000000000",
      "type": "0x2",
      "effectiveGasPrice": "0xd0f7c9fd"
    },
    {
      "transactionHash": "0x94091c95298a2ffbe061e9dbda93d2bd2bc3dfdaf2044106c5f35964bd6c2354",
      "transactionIndex": "0x11",
      "blockHash": "0x519f47534c01800c9646f64a1025f1c2b07caf93f521b93e3affe562cdaa0178",
      "blockNumber": "0x540c24",
      "from": "0x1dD37D479ac16113fF8f160210Ee209944d2b28d",
      "to": "0x86521CB07241f6D6C66B6B267457D59771d454a9",
      "cumulativeGasUsed": "0xd1edc",
      "gasUsed": "0xce08",
      "contractAddress": null,
      "logs": [
        {
          "address": "0x86521CB07241f6D6C66B6B267457D59771d454a9",
          "topics": [
            "0x6a51febf99909656dd24dfa3562a7b303d7f130a915393f8a74402fa531061cb",
            "0x0000000000000000000000001672800ff69f5fce6cb394ff2ac3e7f83f1f44fb"
          ],
          "data": "0x0000000000000000000000000000000000000000000000000000000000000001",
          "blockHash": "0x519f47534c01800c9646f64a1025f1c2b07caf93f521b93e3affe562cdaa0178",
          "blockNumber": "0x540c24",
          "transactionHash": "0x94091c95298a2ffbe061e9dbda93d2bd2bc3dfdaf2044106c5f35964bd6c2354",
          "transactionIndex": "0x11",
          "logIndex": "0x5",
          "removed": false
        }
      ],
      "status": "0x1",
      "logsBloom": "0x00000008000000000000000000000000000000000000000000000000000000000000000000000000000000000000000000000000000000010000000000000000000000000000000000000000000000000000000000000000200000000000000004000000000000000000000000000000000000000000000000000000000000000000000000000000000000800000000000000000000000014000000000000000000000000000000000000000000000000000000000000000000000000000000000000000000010000000000000000000000000000000000000000000000000000000000000000000000000000000000000001000000000000000000000000000",
      "type": "0x2",
      "effectiveGasPrice": "0xd0f7c9fd"
    }
  ],
  "libraries": [],
  "pending": [],
  "returns": {},
  "timestamp": 1710724314,
  "chain": 11155111,
  "commit": "d66d10a"
}