{
  "transactions": [
    {
      "hash": "0x0631320e55abae480ae3107da88f2a0acac0a200842dd88a769fc47a08e00701",
      "transactionType": "CALL",
      "contractName": null,
      "contractAddress": "0x40d3c957F6854f8F94648CC1834E66432909237A",
      "function": "setProtocolAddresses(address,address,address,address,address,address,address,address)",
      "arguments": [
        "0x3d40c40f785355e9d495EE831Fee491CdDee4015",
        "0xe72A5818c4de87C0F9457808f63F77D6f0048554",
        "0xcc0f091F718f2Aa8b0177cD0b6eBE2988f64F766",
        "0x6273774501762F3ac379291170c9A79E61565Af3",
        "0x3Cca95131D11Db655A7771b99FaC1825fe0ff114",
        "0xf541Db76EB2C60178998Bdd0F8986d247bc44ff4",
        "0x3a088CBC6BdB56DD4708F2D3Ed1E94169C85eb00",
        "0x89EC6fEC45c8f9183cB971930d2a0aB5d1d49Cf4"
      ],
      "transaction": {
        "type": "0x02",
        "from": "0x1dd37d479ac16113ff8f160210ee209944d2b28d",
        "to": "0x40d3c957f6854f8f94648cc1834e66432909237a",
        "gas": "0x45e8d",
        "value": "0x0",
        "data": "0x5f1988340000000000000000000000003d40c40f785355e9d495ee831fee491cddee4015000000000000000000000000e72a5818c4de87c0f9457808f63f77d6f0048554000000000000000000000000cc0f091f718f2aa8b0177cd0b6ebe2988f64f7660000000000000000000000006273774501762f3ac379291170c9a79e61565af30000000000000000000000003cca95131d11db655a7771b99fac1825fe0ff114000000000000000000000000f541db76eb2c60178998bdd0f8986d247bc44ff40000000000000000000000003a088cbc6bdb56dd4708f2d3ed1e94169c85eb0000000000000000000000000089ec6fec45c8f9183cb971930d2a0ab5d1d49cf4",
        "nonce": "0x398",
        "accessList": []
      },
      "additionalContracts": [],
      "isFixedGasLimit": false
    },
    {
      "hash": "0xe5babd22ef9eba5e315f51e8e1f37e2fdcd1b0219acec0e819706688b1c1d75f",
      "transactionType": "CALL",
      "contractName": null,
      "contractAddress": "0x3a088CBC6BdB56DD4708F2D3Ed1E94169C85eb00",
      "function": "setContractAddresses(address)",
      "arguments": [
        "0x89EC6fEC45c8f9183cB971930d2a0aB5d1d49Cf4"
      ],
      "transaction": {
        "type": "0x02",
        "from": "0x1dd37d479ac16113ff8f160210ee209944d2b28d",
        "to": "0x3a088cbc6bdb56dd4708f2d3ed1e94169c85eb00",
        "gas": "0x117cc",
        "value": "0x0",
        "data": "0x1f88bb8700000000000000000000000089ec6fec45c8f9183cb971930d2a0ab5d1d49cf4",
        "nonce": "0x399",
        "accessList": []
      },
      "additionalContracts": [],
      "isFixedGasLimit": false
    },
    {
      "hash": "0x922ee98e50c74797f8b44608c35513b364f5a5939555574a5c5f4d855a8f70ce",
      "transactionType": "CALL",
      "contractName": null,
      "contractAddress": "0x3d40c40f785355e9d495EE831Fee491CdDee4015",
      "function": "setContractAddresses(address)",
      "arguments": [
        "0x89EC6fEC45c8f9183cB971930d2a0aB5d1d49Cf4"
      ],
      "transaction": {
        "type": "0x02",
        "from": "0x1dd37d479ac16113ff8f160210ee209944d2b28d",
        "to": "0x3d40c40f785355e9d495ee831fee491cddee4015",
        "gas": "0x10847",
        "value": "0x0",
        "data": "0x1f88bb8700000000000000000000000089ec6fec45c8f9183cb971930d2a0ab5d1d49cf4",
        "nonce": "0x39a",
        "accessList": []
      },
      "additionalContracts": [],
      "isFixedGasLimit": false
    },
    {
      "hash": "0x92bb714cb01b51e0f87eb1e2999630d4cc6427545330220ecdda3fc92fef6175",
      "transactionType": "CALL",
      "contractName": "ERC1967Proxy",
      "contractAddress": "0xcc0f091F718f2Aa8b0177cD0b6eBE2988f64F766",
      "function": null,
      "arguments": null,
      "transaction": {
        "type": "0x02",
        "from": "0x1dd37d479ac16113ff8f160210ee209944d2b28d",
        "to": "0xcc0f091f718f2aa8b0177cd0b6ebe2988f64f766",
        "gas": "0x11c94",
        "value": "0x0",
        "data": "0x9e9cad290000000000000000000000006273774501762f3ac379291170c9a79e61565af30000000000000000000000000000000000000000000000000000000000000001",
        "nonce": "0x39b",
        "accessList": []
      },
      "additionalContracts": [],
      "isFixedGasLimit": false
    },
    {
      "hash": "0x7f34b85324275645b40dbf7efa339a2107e67c81eb7d1432707db085b9953073",
      "transactionType": "CALL",
      "contractName": "ERC1967Proxy",
      "contractAddress": "0xcc0f091F718f2Aa8b0177cD0b6eBE2988f64F766",
      "function": null,
      "arguments": null,
      "transaction": {
        "type": "0x02",
        "from": "0x1dd37d479ac16113ff8f160210ee209944d2b28d",
        "to": "0xcc0f091f718f2aa8b0177cd0b6ebe2988f64f766",
        "gas": "0x11c94",
        "value": "0x0",
        "data": "0x9e9cad290000000000000000000000003cca95131d11db655a7771b99fac1825fe0ff1140000000000000000000000000000000000000000000000000000000000000001",
        "nonce": "0x39c",
        "accessList": []
      },
      "additionalContracts": [],
      "isFixedGasLimit": false
    },
    {
      "hash": "0x7969342fb344893a0f0ba725280b89ce2c78af9f5251231962934a8077cfac48",
      "transactionType": "CALL",
      "contractName": "ERC1967Proxy",
      "contractAddress": "0xcc0f091F718f2Aa8b0177cD0b6eBE2988f64F766",
      "function": null,
      "arguments": null,
      "transaction": {
        "type": "0x02",
        "from": "0x1dd37d479ac16113ff8f160210ee209944d2b28d",
        "to": "0xcc0f091f718f2aa8b0177cd0b6ebe2988f64f766",
        "gas": "0x11c94",
        "value": "0x0",
        "data": "0x9e9cad29000000000000000000000000f541db76eb2c60178998bdd0f8986d247bc44ff40000000000000000000000000000000000000000000000000000000000000001",
        "nonce": "0x39d",
        "accessList": []
      },
      "additionalContracts": [],
      "isFixedGasLimit": false
    },
    {
      "hash": "0xb6c5f9bb8f36b888ce79678c0b97eee8fa434e4c7b18a5089a763c9ea908bbc4",
      "transactionType": "CALL",
      "contractName": "ERC1967Proxy",
      "contractAddress": "0xcc0f091F718f2Aa8b0177cD0b6eBE2988f64F766",
      "function": null,
      "arguments": null,
      "transaction": {
        "type": "0x02",
        "from": "0x1dd37d479ac16113ff8f160210ee209944d2b28d",
        "to": "0xcc0f091f718f2aa8b0177cd0b6ebe2988f64f766",
        "gas": "0x11c94",
        "value": "0x0",
        "data": "0x9e9cad2900000000000000000000000040d3c957f6854f8f94648cc1834e66432909237a0000000000000000000000000000000000000000000000000000000000000001",
        "nonce": "0x39e",
        "accessList": []
      },
      "additionalContracts": [],
      "isFixedGasLimit": false
    }
  ],
  "receipts": [
    {
      "transactionHash": "0x0631320e55abae480ae3107da88f2a0acac0a200842dd88a769fc47a08e00701",
      "transactionIndex": "0x5",
      "blockHash": "0x0dfb8183f0f6aa496d5f45c8bd478666bf9fb91154029683ef820fea0b2f2f25",
      "blockNumber": "0x57ba54",
      "from": "0x1dD37D479ac16113fF8f160210Ee209944d2b28d",
      "to": "0x40d3c957F6854f8F94648CC1834E66432909237A",
      "cumulativeGasUsed": "0xa79cf",
      "gasUsed": "0x329d0",
      "contractAddress": null,
      "logs": [],
      "status": "0x1",
      "logsBloom": "0x00000000000000000000000000000000000000000000000000000000000000000000000000000000000000000000000000000000000000000000000000000000000000000000000000000000000000000000000000000000000000000000000000000000000000000000000000000000000000000000000000000000000000000000000000000000000000000000000000000000000000000000000000000000000000000000000000000000000000000000000000000000000000000000000000000000000000000000000000000000000000000000000000000000000000000000000000000000000000000000000000000000000000000000000000000000",
      "type": "0x2",
      "effectiveGasPrice": "0xb2d6482b"
    },
    {
      "transactionHash": "0xe5babd22ef9eba5e315f51e8e1f37e2fdcd1b0219acec0e819706688b1c1d75f",
      "transactionIndex": "0x6",
      "blockHash": "0x0dfb8183f0f6aa496d5f45c8bd478666bf9fb91154029683ef820fea0b2f2f25",
      "blockNumber": "0x57ba54",
      "from": "0x1dD37D479ac16113fF8f160210Ee209944d2b28d",
      "to": "0x3a088CBC6BdB56DD4708F2D3Ed1E94169C85eb00",
      "cumulativeGasUsed": "0xb3920",
      "gasUsed": "0xbf51",
      "contractAddress": null,
      "logs": [],
      "status": "0x1",
      "logsBloom": "0x00000000000000000000000000000000000000000000000000000000000000000000000000000000000000000000000000000000000000000000000000000000000000000000000000000000000000000000000000000000000000000000000000000000000000000000000000000000000000000000000000000000000000000000000000000000000000000000000000000000000000000000000000000000000000000000000000000000000000000000000000000000000000000000000000000000000000000000000000000000000000000000000000000000000000000000000000000000000000000000000000000000000000000000000000000000",
      "type": "0x2",
      "effectiveGasPrice": "0xb2d6482b"
    },
    {
      "transactionHash": "0x922ee98e50c74797f8b44608c35513b364f5a5939555574a5c5f4d855a8f70ce",
      "transactionIndex": "0x7",
      "blockHash": "0x0dfb8183f0f6aa496d5f45c8bd478666bf9fb91154029683ef820fea0b2f2f25",
      "blockNumber": "0x57ba54",
      "from": "0x1dD37D479ac16113fF8f160210Ee209944d2b28d",
      "to": "0x3d40c40f785355e9d495EE831Fee491CdDee4015",
      "cumulativeGasUsed": "0xbf876",
      "gasUsed": "0xbf56",
      "contractAddress": null,
      "logs": [],
      "status": "0x1",
      "logsBloom": "0x00000000000000000000000000000000000000000000000000000000000000000000000000000000000000000000000000000000000000000000000000000000000000000000000000000000000000000000000000000000000000000000000000000000000000000000000000000000000000000000000000000000000000000000000000000000000000000000000000000000000000000000000000000000000000000000000000000000000000000000000000000000000000000000000000000000000000000000000000000000000000000000000000000000000000000000000000000000000000000000000000000000000000000000000000000000",
      "type": "0x2",
      "effectiveGasPrice": "0xb2d6482b"
    },
    {
      "transactionHash": "0x92bb714cb01b51e0f87eb1e2999630d4cc6427545330220ecdda3fc92fef6175",
      "transactionIndex": "0x8",
      "blockHash": "0x0dfb8183f0f6aa496d5f45c8bd478666bf9fb91154029683ef820fea0b2f2f25",
      "blockNumber": "0x57ba54",
      "from": "0x1dD37D479ac16113fF8f160210Ee209944d2b28d",
      "to": "0xcc0f091F718f2Aa8b0177cD0b6eBE2988f64F766",
      "cumulativeGasUsed": "0xcc67e",
      "gasUsed": "0xce08",
      "contractAddress": null,
      "logs": [
        {
          "address": "0xcc0f091F718f2Aa8b0177cD0b6eBE2988f64F766",
          "topics": [
            "0x6a51febf99909656dd24dfa3562a7b303d7f130a915393f8a74402fa531061cb",
            "0x0000000000000000000000006273774501762f3ac379291170c9a79e61565af3"
          ],
          "data": "0x0000000000000000000000000000000000000000000000000000000000000001",
          "blockHash": "0x0dfb8183f0f6aa496d5f45c8bd478666bf9fb91154029683ef820fea0b2f2f25",
          "blockNumber": "0x57ba54",
          "transactionHash": "0x92bb714cb01b51e0f87eb1e2999630d4cc6427545330220ecdda3fc92fef6175",
          "transactionIndex": "0x8",
          "logIndex": "0xd",
          "removed": false
        }
      ],
      "status": "0x1",
      "logsBloom": "0x00000000000000000200000000000000000000000000000000000000000000000000000000000000000000000000000000000000000000010000020000000000000000200000000000000000000000000000000000000000200000008000000000000000000000000000000000000000000000000000000000000000000000000000000000000000000000800000000000000000000000000000000000000000000000000000000000000000000000000000000000000000000000000000000000000000000000040000000000000000000000000000000100000000000000000000000000000000000000000000000000000000000000000000000000000000",
      "type": "0x2",
      "effectiveGasPrice": "0xb2d6482b"
    },
    {
      "transactionHash": "0x7f34b85324275645b40dbf7efa339a2107e67c81eb7d1432707db085b9953073",
      "transactionIndex": "0x9",
      "blockHash": "0x0dfb8183f0f6aa496d5f45c8bd478666bf9fb91154029683ef820fea0b2f2f25",
      "blockNumber": "0x57ba54",
      "from": "0x1dD37D479ac16113fF8f160210Ee209944d2b28d",
      "to": "0xcc0f091F718f2Aa8b0177cD0b6eBE2988f64F766",
      "cumulativeGasUsed": "0xd9486",
      "gasUsed": "0xce08",
      "contractAddress": null,
      "logs": [
        {
          "address": "0xcc0f091F718f2Aa8b0177cD0b6eBE2988f64F766",
          "topics": [
            "0x6a51febf99909656dd24dfa3562a7b303d7f130a915393f8a74402fa531061cb",
            "0x0000000000000000000000003cca95131d11db655a7771b99fac1825fe0ff114"
          ],
          "data": "0x0000000000000000000000000000000000000000000000000000000000000001",
          "blockHash": "0x0dfb8183f0f6aa496d5f45c8bd478666bf9fb91154029683ef820fea0b2f2f25",
          "blockNumber": "0x57ba54",
          "transactionHash": "0x7f34b85324275645b40dbf7efa339a2107e67c81eb7d1432707db085b9953073",
          "transactionIndex": "0x9",
          "logIndex": "0xe",
          "removed": false
        }
      ],
      "status": "0x1",
      "logsBloom": "0x00000000000000000000000000000000000000000000000000000000000000000000000000000000000000000000000000000000000000010000020000000000000000000000000000000000000000000000000000000000200000008000000000000000000000000000000000000000000000000000000000200000000000000000000000000000000000800000000000000000020000000000000000000000000000100000000000000000000000000000000000000000000000000000000000000000000000040000000000000000000000000000000000000000000000000000000000000000000000000000000000000000000000000000000000000000",
      "type": "0x2",
      "effectiveGasPrice": "0xb2d6482b"
    },
    {
      "transactionHash": "0x7969342fb344893a0f0ba725280b89ce2c78af9f5251231962934a8077cfac48",
      "transactionIndex": "0xa",
      "blockHash": "0x0dfb8183f0f6aa496d5f45c8bd478666bf9fb91154029683ef820fea0b2f2f25",
      "blockNumber": "0x57ba54",
      "from": "0x1dD37D479ac16113fF8f160210Ee209944d2b28d",
      "to": "0xcc0f091F718f2Aa8b0177cD0b6eBE2988f64F766",
      "cumulativeGasUsed": "0xe628e",
      "gasUsed": "0xce08",
      "contractAddress": null,
      "logs": [
        {
          "address": "0xcc0f091F718f2Aa8b0177cD0b6eBE2988f64F766",
          "topics": [
            "0x6a51febf99909656dd24dfa3562a7b303d7f130a915393f8a74402fa531061cb",
            "0x000000000000000000000000f541db76eb2c60178998bdd0f8986d247bc44ff4"
          ],
          "data": "0x0000000000000000000000000000000000000000000000000000000000000001",
          "blockHash": "0x0dfb8183f0f6aa496d5f45c8bd478666bf9fb91154029683ef820fea0b2f2f25",
          "blockNumber": "0x57ba54",
          "transactionHash": "0x7969342fb344893a0f0ba725280b89ce2c78af9f5251231962934a8077cfac48",
          "transactionIndex": "0xa",
          "logIndex": "0xf",
          "removed": false
        }
      ],
      "status": "0x1",
      "logsBloom": "0x00000000000000000000000000000000000000000000000000000000000000000000000000000000000000000000000000000000000000010000020000000000000000000000000000000000000000000000000000000000200000008000000000000000000000000000000080000000000000000000000000000000000000000000000000000000000000800000000000000000000000000000000000000000000000000000080000000000000000000000000000000000000000000000000000000000000000040000000000000000000000000000000400000000000000000000000000000000000000000000000000000000000000000000000000000000",
      "type": "0x2",
      "effectiveGasPrice": "0xb2d6482b"
    },
    {
      "transactionHash": "0xb6c5f9bb8f36b888ce79678c0b97eee8fa434e4c7b18a5089a763c9ea908bbc4",
      "transactionIndex": "0xb",
      "blockHash": "0x0dfb8183f0f6aa496d5f45c8bd478666bf9fb91154029683ef820fea0b2f2f25",
      "blockNumber": "0x57ba54",
      "from": "0x1dD37D479ac16113fF8f160210Ee209944d2b28d",
      "to": "0xcc0f091F718f2Aa8b0177cD0b6eBE2988f64F766",
      "cumulativeGasUsed": "0xf3096",
      "gasUsed": "0xce08",
      "contractAddress": null,
      "logs": [
        {
          "address": "0xcc0f091F718f2Aa8b0177cD0b6eBE2988f64F766",
          "topics": [
            "0x6a51febf99909656dd24dfa3562a7b303d7f130a915393f8a74402fa531061cb",
            "0x00000000000000000000000040d3c957f6854f8f94648cc1834e66432909237a"
          ],
          "data": "0x0000000000000000000000000000000000000000000000000000000000000001",
          "blockHash": "0x0dfb8183f0f6aa496d5f45c8bd478666bf9fb91154029683ef820fea0b2f2f25",
          "blockNumber": "0x57ba54",
          "transactionHash": "0xb6c5f9bb8f36b888ce79678c0b97eee8fa434e4c7b18a5089a763c9ea908bbc4",
          "transactionIndex": "0xb",
          "logIndex": "0x10",
          "removed": false
        }
      ],
      "status": "0x1",
      "logsBloom": "0x00000000000000000000000000000000000000000000000000000000000000000000000000000000000000000000000000000000000000010000020000000000000000000000000000000000000000000000000000000000200000008000000000000000000000000000000000000000000000000000000020000000000000000000000000000000000000800000000000000000000000000000000000000000000000000000000000000000000000000000000000000000010000000000000000000000000000040000000000000000000000000000000000000000000000000000000000000000000000000000000000000000000000000000000000000008",
      "type": "0x2",
      "effectiveGasPrice": "0xb2d6482b"
    }
  ],
  "libraries": [],
  "pending": [],
  "returns": {},
  "timestamp": 1713744426,
  "chain": 11155111,
  "commit": "df39e50"
}