{
  "transactions": [
    {
      "hash": "0x96db91a1d1381be9415c082273157df49ba18810269fe2e214991620928d9ab1",
      "transactionType": "CALL",
      "contractName": null,
      "contractAddress": "0xe58Ba78A6E1a1F828cB0D28e68E175B8A302256d",
      "function": "setProtocolAddresses(address,address,address,address,address,address)",
      "arguments": [
        "0x4cF79711a5BC68EC334a430E1ab69f4b3Fb8499f",
        "0x9d01DFd35f342f8E5D202fCE8bB388E7BE2911Df",
        "0x826AA3c3b3FC78F5Bc6b120A28b1A5B7fEB294cD",
        "0x7B380aD5026258F950AF27937D64E31CE287B41f",
        "0x51ff53fda73a6419f1ED5D3dEA649D727Ef458A5",
        "0x9fA09020b17b402896a61190ab180A27A7e73002"
      ],
      "transaction": {
        "type": "0x02",
        "from": "0x1dd37d479ac16113ff8f160210ee209944d2b28d",
        "to": "0xe58ba78a6e1a1f828cb0d28e68e175b8a302256d",
        "gas": "0x36a87",
        "value": "0x0",
        "data": "0xf81218730000000000000000000000004cf79711a5bc68ec334a430e1ab69f4b3fb8499f0000000000000000000000009d01dfd35f342f8e5d202fce8bb388e7be2911df000000000000000000000000826aa3c3b3fc78f5bc6b120a28b1a5b7feb294cd0000000000000000000000007b380ad5026258f950af27937d64e31ce287b41f00000000000000000000000051ff53fda73a6419f1ed5d3dea649d727ef458a50000000000000000000000009fa09020b17b402896a61190ab180a27a7e73002",
        "nonce": "0x2a6",
        "accessList": []
      },
      "additionalContracts": [],
      "isFixedGasLimit": false
    },
    {
      "hash": "0xbc8bf58215193c90af9f5fffcdf026684a9432cb119ecd4eb5bc7f0d94ccd71e",
      "transactionType": "CALL",
      "contractName": "ERC1967Proxy",
      "contractAddress": "0x826AA3c3b3FC78F5Bc6b120A28b1A5B7fEB294cD",
      "function": null,
      "arguments": null,
      "transaction": {
        "type": "0x02",
        "from": "0x1dd37d479ac16113ff8f160210ee209944d2b28d",
        "to": "0x826aa3c3b3fc78f5bc6b120a28b1a5b7feb294cd",
        "gas": "0x11c94",
        "value": "0x0",
        "data": "0x9e9cad290000000000000000000000007b380ad5026258f950af27937d64e31ce287b41f0000000000000000000000000000000000000000000000000000000000000001",
        "nonce": "0x2a7",
        "accessList": []
      },
      "additionalContracts": [],
      "isFixedGasLimit": false
    },
    {
      "hash": "0xf4bf98e4f87f18223074e9216c0b9d51582961c5cef655198ac172dd0dac9eba",
      "transactionType": "CALL",
      "contractName": "ERC1967Proxy",
      "contractAddress": "0x826AA3c3b3FC78F5Bc6b120A28b1A5B7fEB294cD",
      "function": null,
      "arguments": null,
      "transaction": {
        "type": "0x02",
        "from": "0x1dd37d479ac16113ff8f160210ee209944d2b28d",
        "to": "0x826aa3c3b3fc78f5bc6b120a28b1a5b7feb294cd",
        "gas": "0x11c94",
        "value": "0x0",
        "data": "0x9e9cad2900000000000000000000000051ff53fda73a6419f1ed5d3dea649d727ef458a50000000000000000000000000000000000000000000000000000000000000001",
        "nonce": "0x2a8",
        "accessList": []
      },
      "additionalContracts": [],
      "isFixedGasLimit": false
    },
    {
      "hash": "0x69c9d8d0112ab5b662f381b6685db188e3bf16f06dfa304807b3c063d5a50c6f",
      "transactionType": "CALL",
      "contractName": "ERC1967Proxy",
      "contractAddress": "0x826AA3c3b3FC78F5Bc6b120A28b1A5B7fEB294cD",
      "function": null,
      "arguments": null,
      "transaction": {
        "type": "0x02",
        "from": "0x1dd37d479ac16113ff8f160210ee209944d2b28d",
        "to": "0x826aa3c3b3fc78f5bc6b120a28b1a5b7feb294cd",
        "gas": "0x11c94",
        "value": "0x0",
        "data": "0x9e9cad290000000000000000000000009fa09020b17b402896a61190ab180a27a7e730020000000000000000000000000000000000000000000000000000000000000001",
        "nonce": "0x2a9",
        "accessList": []
      },
      "additionalContracts": [],
      "isFixedGasLimit": false
    },
    {
      "hash": "0x14300ba503e70b6201d2498c7ed7e2bf607c509e525f9048cf30d15661ca784e",
      "transactionType": "CALL",
      "contractName": "ERC1967Proxy",
      "contractAddress": "0x826AA3c3b3FC78F5Bc6b120A28b1A5B7fEB294cD",
      "function": null,
      "arguments": null,
      "transaction": {
        "type": "0x02",
        "from": "0x1dd37d479ac16113ff8f160210ee209944d2b28d",
        "to": "0x826aa3c3b3fc78f5bc6b120a28b1a5b7feb294cd",
        "gas": "0x11c94",
        "value": "0x0",
        "data": "0x9e9cad29000000000000000000000000e58ba78a6e1a1f828cb0d28e68e175b8a302256d0000000000000000000000000000000000000000000000000000000000000001",
        "nonce": "0x2aa",
        "accessList": []
      },
      "additionalContracts": [],
      "isFixedGasLimit": false
    }
  ],
  "receipts": [
    {
      "transactionHash": "0x96db91a1d1381be9415c082273157df49ba18810269fe2e214991620928d9ab1",
      "transactionIndex": "0x14",
      "blockHash": "0xa1775d2282dbfc7c207d57473dff9ad8f6c7a48f8a6a89a095968d77eca13ad0",
      "blockNumber": "0x56a485",
      "from": "0x1dD37D479ac16113fF8f160210Ee209944d2b28d",
      "to": "0xe58Ba78A6E1a1F828cB0D28e68E175B8A302256d",
      "cumulativeGasUsed": "0x10a138",
      "gasUsed": "0x27925",
      "contractAddress": null,
      "logs": [],
      "status": "0x1",
      "logsBloom": "0x00000000000000000000000000000000000000000000000000000000000000000000000000000000000000000000000000000000000000000000000000000000000000000000000000000000000000000000000000000000000000000000000000000000000000000000000000000000000000000000000000000000000000000000000000000000000000000000000000000000000000000000000000000000000000000000000000000000000000000000000000000000000000000000000000000000000000000000000000000000000000000000000000000000000000000000000000000000000000000000000000000000000000000000000000000000",
      "type": "0x2",
      "effectiveGasPrice": "0xb2da8952"
    },
    {
      "transactionHash": "0xbc8bf58215193c90af9f5fffcdf026684a9432cb119ecd4eb5bc7f0d94ccd71e",
      "transactionIndex": "0x15",
      "blockHash": "0xa1775d2282dbfc7c207d57473dff9ad8f6c7a48f8a6a89a095968d77eca13ad0",
      "blockNumber": "0x56a485",
      "from": "0x1dD37D479ac16113fF8f160210Ee209944d2b28d",
      "to": "0x826AA3c3b3FC78F5Bc6b120A28b1A5B7fEB294cD",
      "cumulativeGasUsed": "0x116f40",
      "gasUsed": "0xce08",
      "contractAddress": null,
      "logs": [
        {
          "address": "0x826AA3c3b3FC78F5Bc6b120A28b1A5B7fEB294cD",
          "topics": [
            "0x6a51febf99909656dd24dfa3562a7b303d7f130a915393f8a74402fa531061cb",
            "0x0000000000000000000000007b380ad5026258f950af27937d64e31ce287b41f"
          ],
          "data": "0x0000000000000000000000000000000000000000000000000000000000000001",
          "blockHash": "0xa1775d2282dbfc7c207d57473dff9ad8f6c7a48f8a6a89a095968d77eca13ad0",
          "blockNumber": "0x56a485",
          "transactionHash": "0xbc8bf58215193c90af9f5fffcdf026684a9432cb119ecd4eb5bc7f0d94ccd71e",
          "transactionIndex": "0x15",
          "logIndex": "0xd",
          "removed": false
        }
      ],
      "status": "0x1",
      "logsBloom": "0x00000000000000000000000000400008000000000000000000000000000000000000000000000000000000000000000000000000000000010000000000000000000000000000000000000000000000000000000000000000200000000000000000000000000000000000000000000000000000000000000000000000000000000000000000000000000000800000000000000000000000000000000000000000000000000000000000000000000000000000000001000000000000000000000000000000000000000000000002000000000004000000000000000000000000000100000000000000000000000000000000000000000000000000000000000000",
      "type": "0x2",
      "effectiveGasPrice": "0xb2da8952"
    },
    {
      "transactionHash": "0xf4bf98e4f87f18223074e9216c0b9d51582961c5cef655198ac172dd0dac9eba",
      "transactionIndex": "0x16",
      "blockHash": "0xa1775d2282dbfc7c207d57473dff9ad8f6c7a48f8a6a89a095968d77eca13ad0",
      "blockNumber": "0x56a485",
      "from": "0x1dD37D479ac16113fF8f160210Ee209944d2b28d",
      "to": "0x826AA3c3b3FC78F5Bc6b120A28b1A5B7fEB294cD",
      "cumulativeGasUsed": "0x123d48",
      "gasUsed": "0xce08",
      "contractAddress": null,
      "logs": [
        {
          "address": "0x826AA3c3b3FC78F5Bc6b120A28b1A5B7fEB294cD",
          "topics": [
            "0x6a51febf99909656dd24dfa3562a7b303d7f130a915393f8a74402fa531061cb",
            "0x00000000000000000000000051ff53fda73a6419f1ed5d3dea649d727ef458a5"
          ],
          "data": "0x0000000000000000000000000000000000000000000000000000000000000001",
          "blockHash": "0xa1775d2282dbfc7c207d57473dff9ad8f6c7a48f8a6a89a095968d77eca13ad0",
          "blockNumber": "0x56a485",
          "transactionHash": "0xf4bf98e4f87f18223074e9216c0b9d51582961c5cef655198ac172dd0dac9eba",
          "transactionIndex": "0x16",
          "logIndex": "0xe",
          "removed": false
        }
      ],
      "status": "0x1",
      "logsBloom": "0x00000000000000000000000000000000000000000000000000000000000000000000000000000000000000000000000000000000000000010000000000000000000000000000000000000000000000000000000000000000200000000000000000040000000000000000000000000000000000000000000000000000000010000000000000000000000000800000000000000000000000000000000000000000000000000000000000000000000000000000000000000000000000000000000000000000000000000000000002000000000004000000000000000000000000000300000000000000000000000000000000000000000000000000000000000000",
      "type": "0x2",
      "effectiveGasPrice": "0xb2da8952"
    },
    {
      "transactionHash": "0x69c9d8d0112ab5b662f381b6685db188e3bf16f06dfa304807b3c063d5a50c6f",
      "transactionIndex": "0x17",
      "blockHash": "0xa1775d2282dbfc7c207d57473dff9ad8f6c7a48f8a6a89a095968d77eca13ad0",
      "blockNumber": "0x56a485",
      "from": "0x1dD37D479ac16113fF8f160210Ee209944d2b28d",
      "to": "0x826AA3c3b3FC78F5Bc6b120A28b1A5B7fEB294cD",
      "cumulativeGasUsed": "0x130b50",
      "gasUsed": "0xce08",
      "contractAddress": null,
      "logs": [
        {
          "address": "0x826AA3c3b3FC78F5Bc6b120A28b1A5B7fEB294cD",
          "topics": [
            "0x6a51febf99909656dd24dfa3562a7b303d7f130a915393f8a74402fa531061cb",
            "0x0000000000000000000000009fa09020b17b402896a61190ab180a27a7e73002"
          ],
          "data": "0x0000000000000000000000000000000000000000000000000000000000000001",
          "blockHash": "0xa1775d2282dbfc7c207d57473dff9ad8f6c7a48f8a6a89a095968d77eca13ad0",
          "blockNumber": "0x56a485",
          "transactionHash": "0x69c9d8d0112ab5b662f381b6685db188e3bf16f06dfa304807b3c063d5a50c6f",
          "transactionIndex": "0x17",
          "logIndex": "0xf",
          "removed": false
        }
      ],
      "status": "0x1",
      "logsBloom": "0x00000000000000000000000000000000000000000000000000000000000000000000000000002000000020000000000000000000000000010000000000000000000000000000000000000000000000000000000000000000200000000000000000000000000000000000000000000000000000000000000000000000000000000000000000000000000000800000000000000000000000000000000000000000000000000000000200000000000000000000000000000000000000000000000000000000000000000000000002000000000004000000000000000000000000000100000000000000000000000000000000000000000000000000000000000000",
      "type": "0x2",
      "effectiveGasPrice": "0xb2da8952"
    },
    {
      "transactionHash": "0x14300ba503e70b6201d2498c7ed7e2bf607c509e525f9048cf30d15661ca784e",
      "transactionIndex": "0x18",
      "blockHash": "0xa1775d2282dbfc7c207d57473dff9ad8f6c7a48f8a6a89a095968d77eca13ad0",
      "blockNumber": "0x56a485",
      "from": "0x1dD37D479ac16113fF8f160210Ee209944d2b28d",
      "to": "0x826AA3c3b3FC78F5Bc6b120A28b1A5B7fEB294cD",
      "cumulativeGasUsed": "0x13d958",
      "gasUsed": "0xce08",
      "contractAddress": null,
      "logs": [
        {
          "address": "0x826AA3c3b3FC78F5Bc6b120A28b1A5B7fEB294cD",
          "topics": [
            "0x6a51febf99909656dd24dfa3562a7b303d7f130a915393f8a74402fa531061cb",
            "0x000000000000000000000000e58ba78a6e1a1f828cb0d28e68e175b8a302256d"
          ],
          "data": "0x0000000000000000000000000000000000000000000000000000000000000001",
          "blockHash": "0xa1775d2282dbfc7c207d57473dff9ad8f6c7a48f8a6a89a095968d77eca13ad0",
          "blockNumber": "0x56a485",
          "transactionHash": "0x14300ba503e70b6201d2498c7ed7e2bf607c509e525f9048cf30d15661ca784e",
          "transactionIndex": "0x18",
          "logIndex": "0x10",
          "removed": false
        }
      ],
      "status": "0x1",
      "logsBloom": "0x00000001000000000000000000000000000000000000000000000000000000000000000000000000000000000000000000000000000000010000000000000100000000000000000000000000000000000000000000000000200000000000000000000000000000000000000000000000000000000000000000000000000000000000000000000000000000800000000000000000000000000000000000000000000000000000000000000000000000000000000000000004000000000000000000000000000000000000000002000000000004000000000000000000000000000100000000000000000000000000000000000000000000000000000000000000",
      "type": "0x2",
      "effectiveGasPrice": "0xb2da8952"
    }
  ],
  "libraries": [],
  "pending": [],
  "returns": {},
  "timestamp": 1712880389,
  "chain": 11155111,
  "commit": "c4f5ff4"
}