{
  "transactions": [
    {
      "hash": "0xa40a5d98be2e02ea568757653db1fce385c3539d7b4f2c40f834261f01d3aae2",
      "transactionType": "CALL",
      "contractName": null,
      "contractAddress": "0xe9c1727B668Ce1106FAA49ceA48bf1b33527E913",
      "function": "setProtocolAddresses(address,address,address,address,address,address)",
      "arguments": [
        "0x687e7CAF767F1952964c5b92f1a7e3b113553D2C",
        "0xAE8C09948fE8cA98adAB9f560E352Df70C25AcC7",
        "0xB5e297Dfa593B515148278bf6086D129867F96AD",
        "0x631c25cAAbb7162AFF456ADB50C93485E7c07365",
        "0x8593b8D19277f2c3eE9ccaDa431dd811fab27E5f",
        "0xEf6FCeBba53ae25fC4817e456f7f2D61037B8577"
      ],
      "transaction": {
        "type": "0x02",
        "from": "0x1dd37d479ac16113ff8f160210ee209944d2b28d",
        "to": "0xe9c1727b668ce1106faa49cea48bf1b33527e913",
        "gas": "0x41c74",
        "value": "0x0",
        "data": "0xf8121873000000000000000000000000687e7caf767f1952964c5b92f1a7e3b113553d2c000000000000000000000000ae8c09948fe8ca98adab9f560e352df70c25acc7000000000000000000000000b5e297dfa593b515148278bf6086d129867f96ad000000000000000000000000631c25caabb7162aff456adb50c93485e7c073650000000000000000000000008593b8d19277f2c3ee9ccada431dd811fab27e5f000000000000000000000000ef6fcebba53ae25fc4817e456f7f2d61037b8577",
        "nonce": "0x9e",
        "accessList": []
      },
      "additionalContracts": [],
      "isFixedGasLimit": false
    },
    {
      "hash": "0x6fc014cf3db11a5c33b6cd7ba0e50e75b6597e49f0cf92156d453bc5f8989066",
      "transactionType": "CALL",
      "contractName": "ERC1967Proxy",
      "contractAddress": "0xB5e297Dfa593B515148278bf6086D129867F96AD",
      "function": null,
      "arguments": null,
      "transaction": {
        "type": "0x02",
        "from": "0x1dd37d479ac16113ff8f160210ee209944d2b28d",
        "to": "0xb5e297dfa593b515148278bf6086d129867f96ad",
        "gas": "0x11c94",
        "value": "0x0",
        "data": "0x9e9cad29000000000000000000000000631c25caabb7162aff456adb50c93485e7c073650000000000000000000000000000000000000000000000000000000000000001",
        "nonce": "0x9f",
        "accessList": []
      },
      "additionalContracts": [],
      "isFixedGasLimit": false
    },
    {
      "hash": "0xeade630e1bd8bff8c80b7d7eee4358f5f530a20918b7d5373caccad7f83a8135",
      "transactionType": "CALL",
      "contractName": "ERC1967Proxy",
      "contractAddress": "0xB5e297Dfa593B515148278bf6086D129867F96AD",
      "function": null,
      "arguments": null,
      "transaction": {
        "type": "0x02",
        "from": "0x1dd37d479ac16113ff8f160210ee209944d2b28d",
        "to": "0xb5e297dfa593b515148278bf6086d129867f96ad",
        "gas": "0x11c94",
        "value": "0x0",
        "data": "0x9e9cad290000000000000000000000008593b8d19277f2c3ee9ccada431dd811fab27e5f0000000000000000000000000000000000000000000000000000000000000001",
        "nonce": "0xa0",
        "accessList": []
      },
      "additionalContracts": [],
      "isFixedGasLimit": false
    },
    {
      "hash": "0x99358da2be3652232ab9ff6d453a97824df93675b369f43aa00f884c8369f0c5",
      "transactionType": "CALL",
      "contractName": "ERC1967Proxy",
      "contractAddress": "0xB5e297Dfa593B515148278bf6086D129867F96AD",
      "function": null,
      "arguments": null,
      "transaction": {
        "type": "0x02",
        "from": "0x1dd37d479ac16113ff8f160210ee209944d2b28d",
        "to": "0xb5e297dfa593b515148278bf6086d129867f96ad",
        "gas": "0x11c94",
        "value": "0x0",
        "data": "0x9e9cad29000000000000000000000000ef6fcebba53ae25fc4817e456f7f2d61037b85770000000000000000000000000000000000000000000000000000000000000001",
        "nonce": "0xa1",
        "accessList": []
      },
      "additionalContracts": [],
      "isFixedGasLimit": false
    }
  ],
  "receipts": [
    {
      "transactionHash": "0xa40a5d98be2e02ea568757653db1fce385c3539d7b4f2c40f834261f01d3aae2",
      "transactionIndex": "0x6",
      "blockHash": "0xd193b437772d9a998bd1c49124fbf75aab7e4d1ec8847bf7f68c41161e1a6195",
      "blockNumber": "0x53b66b",
      "from": "0x1dD37D479ac16113fF8f160210Ee209944d2b28d",
      "to": "0xe9c1727B668Ce1106FAA49ceA48bf1b33527E913",
      "cumulativeGasUsed": "0x210f8c",
      "gasUsed": "0x2cfa1",
      "contractAddress": null,
      "logs": [],
      "status": "0x1",
      "logsBloom": "0x00000000000000000000000000000000000000000000000000000000000000000000000000000000000000000000000000000000000000000000000000000000000000000000000000000000000000000000000000000000000000000000000000000000000000000000000000000000000000000000000000000000000000000000000000000000000000000000000000000000000000000000000000000000000000000000000000000000000000000000000000000000000000000000000000000000000000000000000000000000000000000000000000000000000000000000000000000000000000000000000000000000000000000000000000000000",
      "type": "0x2",
      "effectiveGasPrice": "0x1caa0be0e"
    },
    {
      "transactionHash": "0x6fc014cf3db11a5c33b6cd7ba0e50e75b6597e49f0cf92156d453bc5f8989066",
      "transactionIndex": "0x2a",
      "blockHash": "0xd193b437772d9a998bd1c49124fbf75aab7e4d1ec8847bf7f68c41161e1a6195",
      "blockNumber": "0x53b66b",
      "from": "0x1dD37D479ac16113fF8f160210Ee209944d2b28d",
      "to": "0xB5e297Dfa593B515148278bf6086D129867F96AD",
      "cumulativeGasUsed": "0x84f4d1",
      "gasUsed": "0xce08",
      "contractAddress": null,
      "logs": [
        {
          "address": "0xB5e297Dfa593B515148278bf6086D129867F96AD",
          "topics": [
            "0x6a51febf99909656dd24dfa3562a7b303d7f130a915393f8a74402fa531061cb",
            "0x000000000000000000000000631c25caabb7162aff456adb50c93485e7c07365"
          ],
          "data": "0x0000000000000000000000000000000000000000000000000000000000000001",
          "blockHash": "0xd193b437772d9a998bd1c49124fbf75aab7e4d1ec8847bf7f68c41161e1a6195",
          "blockNumber": "0x53b66b",
          "transactionHash": "0x6fc014cf3db11a5c33b6cd7ba0e50e75b6597e49f0cf92156d453bc5f8989066",
          "transactionIndex": "0x2a",
          "logIndex": "0xe6",
          "removed": false
        }
      ],
      "status": "0x1",
      "logsBloom": "0x00000000000000000000000000000000000000000000000000000000000000000000000000000000000000000000000000000000000000010000000000000004000000000100000000000000000000080000000000000000200000000000000000000000000000000000000000000000000000000000000000000000000000000000000000000000000000800000000000000000000000000000000000000000000000000000800000000000000000000000000000000000000000000000000020000000000000000000000000000000000000000000400000000000000000000000000000000000000000000000000000000000000000000000000000000000",
      "type": "0x2",
      "effectiveGasPrice": "0x1caa0be0e"
    },
    {
      "transactionHash": "0xeade630e1bd8bff8c80b7d7eee4358f5f530a20918b7d5373caccad7f83a8135",
      "transactionIndex": "0x2b",
      "blockHash": "0xd193b437772d9a998bd1c49124fbf75aab7e4d1ec8847bf7f68c41161e1a6195",
      "blockNumber": "0x53b66b",
      "from": "0x1dD37D479ac16113fF8f160210Ee209944d2b28d",
      "to": "0xB5e297Dfa593B515148278bf6086D129867F96AD",
      "cumulativeGasUsed": "0x85c2d9",
      "gasUsed": "0xce08",
      "contractAddress": null,
      "logs": [
        {
          "address": "0xB5e297Dfa593B515148278bf6086D129867F96AD",
          "topics": [
            "0x6a51febf99909656dd24dfa3562a7b303d7f130a915393f8a74402fa531061cb",
            "0x0000000000000000000000008593b8d19277f2c3ee9ccada431dd811fab27e5f"
          ],
          "data": "0x0000000000000000000000000000000000000000000000000000000000000001",
          "blockHash": "0xd193b437772d9a998bd1c49124fbf75aab7e4d1ec8847bf7f68c41161e1a6195",
          "blockNumber": "0x53b66b",
          "transactionHash": "0xeade630e1bd8bff8c80b7d7eee4358f5f530a20918b7d5373caccad7f83a8135",
          "transactionIndex": "0x2b",
          "logIndex": "0xe7",
          "removed": false
        }
      ],
      "status": "0x1",
      "logsBloom": "0x00000000000000000008000000000000000000000000000000000800000000000000000000000000000000000000000000000000000000010000000000000000000000000100000000000000000000080000000000000000200000000000000000000000000000000000000000000000000000000000000000000000000000000000000000000000000000800008000000000000000000000000000000000000000000000000800000000000000000000000000000000000000000000000000000000000000000000000000000000000000000000000000000000000000000000000000000000000000000000000000000000000000000000000000000000000",
      "type": "0x2",
      "effectiveGasPrice": "0x1caa0be0e"
    },
    {
      "transactionHash": "0x99358da2be3652232ab9ff6d453a97824df93675b369f43aa00f884c8369f0c5",
      "transactionIndex": "0x2c",
      "blockHash": "0xd193b437772d9a998bd1c49124fbf75aab7e4d1ec8847bf7f68c41161e1a6195",
      "blockNumber": "0x53b66b",
      "from": "0x1dD37D479ac16113fF8f160210Ee209944d2b28d",
      "to": "0xB5e297Dfa593B515148278bf6086D129867F96AD",
      "cumulativeGasUsed": "0x8690e1",
      "gasUsed": "0xce08",
      "contractAddress": null,
      "logs": [
        {
          "address": "0xB5e297Dfa593B515148278bf6086D129867F96AD",
          "topics": [
            "0x6a51febf99909656dd24dfa3562a7b303d7f130a915393f8a74402fa531061cb",
            "0x000000000000000000000000ef6fcebba53ae25fc4817e456f7f2d61037b8577"
          ],
          "data": "0x0000000000000000000000000000000000000000000000000000000000000001",
          "blockHash": "0xd193b437772d9a998bd1c49124fbf75aab7e4d1ec8847bf7f68c41161e1a6195",
          "blockNumber": "0x53b66b",
          "transactionHash": "0x99358da2be3652232ab9ff6d453a97824df93675b369f43aa00f884c8369f0c5",
          "transactionIndex": "0x2c",
          "logIndex": "0xe8",
          "removed": false
        }
      ],
      "status": "0x1",
      "logsBloom": "0x00000000000000000000000000000000000000000008000000000000000002000000000000000000000000000000000000000000000000010000000000000000000000000100000000000000000000080000000000000000200000000000000000000000000000000000000000000000000000000000000000000000000000000000000000000000000000801000000000000000000000000000000000000000000000000000800000000000000000000000000000000000000000000000000000000000000000000000000000000000000000000000000000000000000000000000000000000000000000000000000000000000000000000000000000000000",
      "type": "0x2",
      "effectiveGasPrice": "0x1caa0be0e"
    }
  ],
  "libraries": [],
  "pending": [],
  "returns": {},
  "timestamp": 1710445561,
  "chain": 11155111,
  "commit": "a2cd2b2"
}