{
  "transactions": [
    {
      "hash": "0x3d9d632447fb6b512c5452347ae122a3bad9a121fdb3e417a7fd533d6586fd16",
      "transactionType": "CALL",
      "contractName": null,
      "contractAddress": "0xEF996ff24ACF98B540879428d9594e25F21aDFa7",
      "function": "setProtocolAddresses(address,address,address,address,address,address)",
      "arguments": [
        "0x9AC6B7E8b16F87F1b75ae3679B4AAeb72c417E1B",
        "0x62e6CdE609A0521Af615Ef47E579dd10Eda03f4e",
        "0xa29797085A061a732e498E4d14C1641415252159",
        "0x7518dDEd6503568b9809e96f7D1eB158522ad32A",
        "0x49453B857E09F77AA38B225d8791Af1d006342C3",
        "0x71b8d15DDcA817AC769917Dc563D543ecf650e9B"
      ],
      "transaction": {
        "type": "0x02",
        "from": "0x1dd37d479ac16113ff8f160210ee209944d2b28d",
        "to": "0xef996ff24acf98b540879428d9594e25f21adfa7",
        "gas": "0x36a94",
        "value": "0x0",
        "data": "0xf81218730000000000000000000000009ac6b7e8b16f87f1b75ae3679b4aaeb72c417e1b00000000000000000000000062e6cde609a0521af615ef47e579dd10eda03f4e000000000000000000000000a29797085a061a732e498e4d14c16414152521590000000000000000000000007518dded6503568b9809e96f7d1eb158522ad32a00000000000000000000000049453b857e09f77aa38b225d8791af1d006342c300000000000000000000000071b8d15ddca817ac769917dc563d543ecf650e9b",
        "nonce": "0x20e",
        "accessList": []
      },
      "additionalContracts": [],
      "isFixedGasLimit": false
    },
    {
      "hash": "0x54042fdd53e1b7a059d0e28c659d48c636a5463c21b8274966a83dfa5c2ce1de",
      "transactionType": "CALL",
      "contractName": "ERC1967Proxy",
      "contractAddress": "0xa29797085A061a732e498E4d14C1641415252159",
      "function": null,
      "arguments": null,
      "transaction": {
        "type": "0x02",
        "from": "0x1dd37d479ac16113ff8f160210ee209944d2b28d",
        "to": "0xa29797085a061a732e498e4d14c1641415252159",
        "gas": "0x11c94",
        "value": "0x0",
        "data": "0x9e9cad290000000000000000000000007518dded6503568b9809e96f7d1eb158522ad32a0000000000000000000000000000000000000000000000000000000000000001",
        "nonce": "0x20f",
        "accessList": []
      },
      "additionalContracts": [],
      "isFixedGasLimit": false
    },
    {
      "hash": "0x2c4e011c5ad40d232a781a8274a872750b1398b1cabfcb9d327109e9f3a3a53b",
      "transactionType": "CALL",
      "contractName": "ERC1967Proxy",
      "contractAddress": "0xa29797085A061a732e498E4d14C1641415252159",
      "function": null,
      "arguments": null,
      "transaction": {
        "type": "0x02",
        "from": "0x1dd37d479ac16113ff8f160210ee209944d2b28d",
        "to": "0xa29797085a061a732e498e4d14c1641415252159",
        "gas": "0x11c83",
        "value": "0x0",
        "data": "0x9e9cad2900000000000000000000000049453b857e09f77aa38b225d8791af1d006342c30000000000000000000000000000000000000000000000000000000000000001",
        "nonce": "0x210",
        "accessList": []
      },
      "additionalContracts": [],
      "isFixedGasLimit": false
    },
    {
      "hash": "0x97eab65470fb36397044a3360657bc0421e10a7ec06c5561b960b36293feee61",
      "transactionType": "CALL",
      "contractName": "ERC1967Proxy",
      "contractAddress": "0xa29797085A061a732e498E4d14C1641415252159",
      "function": null,
      "arguments": null,
      "transaction": {
        "type": "0x02",
        "from": "0x1dd37d479ac16113ff8f160210ee209944d2b28d",
        "to": "0xa29797085a061a732e498e4d14c1641415252159",
        "gas": "0x11c94",
        "value": "0x0",
        "data": "0x9e9cad2900000000000000000000000071b8d15ddca817ac769917dc563d543ecf650e9b0000000000000000000000000000000000000000000000000000000000000001",
        "nonce": "0x211",
        "accessList": []
      },
      "additionalContracts": [],
      "isFixedGasLimit": false
    },
    {
      "hash": "0xd0ac9302e9d09ffaaa83032ce7225c419ac9a22d1ce57350358c033e74cd8329",
      "transactionType": "CALL",
      "contractName": "ERC1967Proxy",
      "contractAddress": "0xa29797085A061a732e498E4d14C1641415252159",
      "function": null,
      "arguments": null,
      "transaction": {
        "type": "0x02",
        "from": "0x1dd37d479ac16113ff8f160210ee209944d2b28d",
        "to": "0xa29797085a061a732e498e4d14c1641415252159",
        "gas": "0x11c94",
        "value": "0x0",
        "data": "0x9e9cad29000000000000000000000000ef996ff24acf98b540879428d9594e25f21adfa70000000000000000000000000000000000000000000000000000000000000001",
        "nonce": "0x212",
        "accessList": []
      },
      "additionalContracts": [],
      "isFixedGasLimit": false
    }
  ],
  "receipts": [
    {
      "transactionHash": "0x3d9d632447fb6b512c5452347ae122a3bad9a121fdb3e417a7fd533d6586fd16",
      "transactionIndex": "0x5",
      "blockHash": "0xb830ac0b7d240e673fc64cae545b66bbc5c2cdcc03422baff4792f0837540baa",
      "blockNumber": "0x5636b6",
      "from": "0x1dD37D479ac16113fF8f160210Ee209944d2b28d",
      "to": "0xEF996ff24ACF98B540879428d9594e25F21aDFa7",
      "cumulativeGasUsed": "0x70d23",
      "gasUsed": "0x2792f",
      "contractAddress": null,
      "logs": [],
      "status": "0x1",
      "logsBloom": "0x00000000000000000000000000000000000000000000000000000000000000000000000000000000000000000000000000000000000000000000000000000000000000000000000000000000000000000000000000000000000000000000000000000000000000000000000000000000000000000000000000000000000000000000000000000000000000000000000000000000000000000000000000000000000000000000000000000000000000000000000000000000000000000000000000000000000000000000000000000000000000000000000000000000000000000000000000000000000000000000000000000000000000000000000000000000",
      "type": "0x2",
      "effectiveGasPrice": "0xb2d9766a"
    },
    {
      "transactionHash": "0x54042fdd53e1b7a059d0e28c659d48c636a5463c21b8274966a83dfa5c2ce1de",
      "transactionIndex": "0x6",
      "blockHash": "0xb830ac0b7d240e673fc64cae545b66bbc5c2cdcc03422baff4792f0837540baa",
      "blockNumber": "0x5636b6",
      "from": "0x1dD37D479ac16113fF8f160210Ee209944d2b28d",
      "to": "0xa29797085A061a732e498E4d14C1641415252159",
      "cumulativeGasUsed": "0x7db2b",
      "gasUsed": "0xce08",
      "contractAddress": null,
      "logs": [
        {
          "address": "0xa29797085A061a732e498E4d14C1641415252159",
          "topics": [
            "0x6a51febf99909656dd24dfa3562a7b303d7f130a915393f8a74402fa531061cb",
            "0x0000000000000000000000007518dded6503568b9809e96f7d1eb158522ad32a"
          ],
          "data": "0x0000000000000000000000000000000000000000000000000000000000000001",
          "blockHash": "0xb830ac0b7d240e673fc64cae545b66bbc5c2cdcc03422baff4792f0837540baa",
          "blockNumber": "0x5636b6",
          "transactionHash": "0x54042fdd53e1b7a059d0e28c659d48c636a5463c21b8274966a83dfa5c2ce1de",
          "transactionIndex": "0x6",
          "logIndex": "0x7",
          "removed": false
        }
      ],
      "status": "0x1",
      "logsBloom": "0x00000000000000000000000000000000000000000000000000000000000000000000000000000000000000000000000000400000000000010000000000000000000000000000000000000000000000000000000000000000200000000000000000000000000000000000000000000000000000000000000000000000000000000000000000000000000000880000000000000000000000000000000000000004000000000000000000000000000000000000000000002000000000000001000000000000000000000000000000000001000000000000000000000000000000000000000000000000000000000000000000000000000000000000000000000000",
      "type": "0x2",
      "effectiveGasPrice": "0xb2d9766a"
    },
    {
      "transactionHash": "0x2c4e011c5ad40d232a781a8274a872750b1398b1cabfcb9d327109e9f3a3a53b",
      "transactionIndex": "0x7",
      "blockHash": "0xb830ac0b7d240e673fc64cae545b66bbc5c2cdcc03422baff4792f0837540baa",
      "blockNumber": "0x5636b6",
      "from": "0x1dD37D479ac16113fF8f160210Ee209944d2b28d",
      "to": "0xa29797085A061a732e498E4d14C1641415252159",
      "cumulativeGasUsed": "0x8a927",
      "gasUsed": "0xcdfc",
      "contractAddress": null,
      "logs": [
        {
          "address": "0xa29797085A061a732e498E4d14C1641415252159",
          "topics": [
            "0x6a51febf99909656dd24dfa3562a7b303d7f130a915393f8a74402fa531061cb",
            "0x00000000000000000000000049453b857e09f77aa38b225d8791af1d006342c3"
          ],
          "data": "0x0000000000000000000000000000000000000000000000000000000000000001",
          "blockHash": "0xb830ac0b7d240e673fc64cae545b66bbc5c2cdcc03422baff4792f0837540baa",
          "blockNumber": "0x5636b6",
          "transactionHash": "0x2c4e011c5ad40d232a781a8274a872750b1398b1cabfcb9d327109e9f3a3a53b",
          "transactionIndex": "0x7",
          "logIndex": "0x8",
          "removed": false
        }
      ],
      "status": "0x1",
      "logsBloom": "0x00000000000000000000000000000000000000000000000000000000000000000000000000000000000000000000000000000000000000010000000000000000000000000000000000000000000000000000000000000010200000000000000000000000000000000000000000000000000000000000020000000000000000000000000000000000000000800000000000000000000000000000000000000004000000000000000000000000002000000000000000002000000000000000000000000000000000000000000000000001000000000000000000000000000000000000000000000000000000000000000000000000000000000000000000000000",
      "type": "0x2",
      "effectiveGasPrice": "0xb2d9766a"
    },
    {
      "transactionHash": "0x97eab65470fb36397044a3360657bc0421e10a7ec06c5561b960b36293feee61",
      "transactionIndex": "0x8",
      "blockHash": "0xb830ac0b7d240e673fc64cae545b66bbc5c2cdcc03422baff4792f0837540baa",
      "blockNumber": "0x5636b6",
      "from": "0x1dD37D479ac16113fF8f160210Ee209944d2b28d",
      "to": "0xa29797085A061a732e498E4d14C1641415252159",
      "cumulativeGasUsed": "0x9772f",
      "gasUsed": "0xce08",
      "contractAddress": null,
      "logs": [
        {
          "address": "0xa29797085A061a732e498E4d14C1641415252159",
          "topics": [
            "0x6a51febf99909656dd24dfa3562a7b303d7f130a915393f8a74402fa531061cb",
            "0x00000000000000000000000071b8d15ddca817ac769917dc563d543ecf650e9b"
          ],
          "data": "0x0000000000000000000000000000000000000000000000000000000000000001",
          "blockHash": "0xb830ac0b7d240e673fc64cae545b66bbc5c2cdcc03422baff4792f0837540baa",
          "blockNumber": "0x5636b6",
          "transactionHash": "0x97eab65470fb36397044a3360657bc0421e10a7ec06c5561b960b36293feee61",
          "transactionIndex": "0x8",
          "logIndex": "0x9",
          "removed": false
        }
      ],
      "status": "0x1",
      "logsBloom": "0x00000000000000000000000040000000000000000000000000000000000000000000000000000000000000000000000000000000000000010000000000000000000000000000000000000080000000000000000000000000200000000000000000000000000000000000000000000000000000000000000000000000000000010000000000000000000000800000000000000000000000000000000000000004000000000000000000000000000000000000000000002000000000000000000000000000000000000000000000000001000000000000000000000000000000000000000000000000000000000000000000000000000000000000000000000000",
      "type": "0x2",
      "effectiveGasPrice": "0xb2d9766a"
    },
    {
      "transactionHash": "0xd0ac9302e9d09ffaaa83032ce7225c419ac9a22d1ce57350358c033e74cd8329",
      "transactionIndex": "0x9",
      "blockHash": "0xb830ac0b7d240e673fc64cae545b66bbc5c2cdcc03422baff4792f0837540baa",
      "blockNumber": "0x5636b6",
      "from": "0x1dD37D479ac16113fF8f160210Ee209944d2b28d",
      "to": "0xa29797085A061a732e498E4d14C1641415252159",
      "cumulativeGasUsed": "0xa4537",
      "gasUsed": "0xce08",
      "contractAddress": null,
      "logs": [
        {
          "address": "0xa29797085A061a732e498E4d14C1641415252159",
          "topics": [
            "0x6a51febf99909656dd24dfa3562a7b303d7f130a915393f8a74402fa531061cb",
            "0x000000000000000000000000ef996ff24acf98b540879428d9594e25f21adfa7"
          ],
          "data": "0x0000000000000000000000000000000000000000000000000000000000000001",
          "blockHash": "0xb830ac0b7d240e673fc64cae545b66bbc5c2cdcc03422baff4792f0837540baa",
          "blockNumber": "0x5636b6",
          "transactionHash": "0xd0ac9302e9d09ffaaa83032ce7225c419ac9a22d1ce57350358c033e74cd8329",
          "transactionIndex": "0x9",
          "logIndex": "0xa",
          "removed": false
        }
      ],
      "status": "0x1",
      "logsBloom": "0x00000000000000000000000000000000000000000000000000000000000000000000000000000000000000000000000000000000000000010000000000000000000000000000000000000000000000400000000000000000200000000000000000000000000000000000000000000000000000000000000000000000000040000000000000000000000000800000000000000000000000000000000000000004000000000000000000000000000000000000000000002000000000000000000000000000000000000000000000000001000000000000000000000000000000000200000000000000000000000000000000000000000000000000000000000000",
      "type": "0x2",
      "effectiveGasPrice": "0xb2d9766a"
    }
  ],
  "libraries": [],
  "pending": [],
  "returns": {},
  "timestamp": 1712526341,
  "chain": 11155111,
  "commit": "e20fa39"
}