{
  "transactions": [
    {
      "hash": "0x0ea394390634dc67d44cfbcdfa1f3eed28b512a6b2ab5e1000d8f3a2bbbb8031",
      "transactionType": "CALL",
      "contractName": null,
      "contractAddress": "0xc4BeeA42D506aC8c90F201Fdc03a6390dB7088EA",
      "function": "setProtocolAddresses(address,address,address,address,address,address)",
      "arguments": [
        "0x1756E8ECDF73D58304e2BF8F6a8bF361B9FC29F4",
        "0xB2B7A98d52A39Fc72a45Aa9d7BD24fEB960D65dF",
        "0xC90B032fc4710E21D57BdA67563184A009F78389",
        "0xD8A98884f874C873F0DaFBB6e3fEE3E1bda4C796",
        "0xdb35407aad76FCd6C935128aD19A721F3B228C4b",
        "0x71140FfC5bc262c5eBd1058eF3732BDBE3277922"
      ],
      "transaction": {
        "type": "0x02",
        "from": "0x1dd37d479ac16113ff8f160210ee209944d2b28d",
        "to": "0xc4beea42d506ac8c90f201fdc03a6390db7088ea",
        "gas": "0x39e19",
        "value": "0x0",
        "data": "0xf81218730000000000000000000000001756e8ecdf73d58304e2bf8f6a8bf361b9fc29f4000000000000000000000000b2b7a98d52a39fc72a45aa9d7bd24feb960d65df000000000000000000000000c90b032fc4710e21d57bda67563184a009f78389000000000000000000000000d8a98884f874c873f0dafbb6e3fee3e1bda4c796000000000000000000000000db35407aad76fcd6c935128ad19a721f3b228c4b00000000000000000000000071140ffc5bc262c5ebd1058ef3732bdbe3277922",
        "nonce": "0x222",
        "accessList": []
      },
      "additionalContracts": [],
      "isFixedGasLimit": false
    },
    {
      "hash": "0x0dbb87d45560fce49b81f11a9f4f0be9dae0cce6e0bb406039f8192ebaa122d1",
      "transactionType": "CALL",
      "contractName": "ERC1967Proxy",
      "contractAddress": "0xC90B032fc4710E21D57BdA67563184A009F78389",
      "function": null,
      "arguments": null,
      "transaction": {
        "type": "0x02",
        "from": "0x1dd37d479ac16113ff8f160210ee209944d2b28d",
        "to": "0xc90b032fc4710e21d57bda67563184a009f78389",
        "gas": "0x11c94",
        "value": "0x0",
        "data": "0x9e9cad29000000000000000000000000d8a98884f874c873f0dafbb6e3fee3e1bda4c7960000000000000000000000000000000000000000000000000000000000000001",
        "nonce": "0x223",
        "accessList": []
      },
      "additionalContracts": [],
      "isFixedGasLimit": false
    },
    {
      "hash": "0x7699bb8ce92cc8d5953686575c7ed68c8d7f70c7d893171774439c7f06db836d",
      "transactionType": "CALL",
      "contractName": "ERC1967Proxy",
      "contractAddress": "0xC90B032fc4710E21D57BdA67563184A009F78389",
      "function": null,
      "arguments": null,
      "transaction": {
        "type": "0x02",
        "from": "0x1dd37d479ac16113ff8f160210ee209944d2b28d",
        "to": "0xc90b032fc4710e21d57bda67563184a009f78389",
        "gas": "0x11c94",
        "value": "0x0",
        "data": "0x9e9cad29000000000000000000000000db35407aad76fcd6c935128ad19a721f3b228c4b0000000000000000000000000000000000000000000000000000000000000001",
        "nonce": "0x224",
        "accessList": []
      },
      "additionalContracts": [],
      "isFixedGasLimit": false
    },
    {
      "hash": "0xe2b29d30d9b0a184e9c8285fde993bb53ff1bb395d4f8c6ac639c8b87bb95664",
      "transactionType": "CALL",
      "contractName": "ERC1967Proxy",
      "contractAddress": "0xC90B032fc4710E21D57BdA67563184A009F78389",
      "function": null,
      "arguments": null,
      "transaction": {
        "type": "0x02",
        "from": "0x1dd37d479ac16113ff8f160210ee209944d2b28d",
        "to": "0xc90b032fc4710e21d57bda67563184a009f78389",
        "gas": "0x11c94",
        "value": "0x0",
        "data": "0x9e9cad2900000000000000000000000071140ffc5bc262c5ebd1058ef3732bdbe32779220000000000000000000000000000000000000000000000000000000000000001",
        "nonce": "0x225",
        "accessList": []
      },
      "additionalContracts": [],
      "isFixedGasLimit": false
    },
    {
      "hash": "0x9951d454552ed4dd1507e22823cdbe8886ff88397ae32f57f308ff46b2b0dfb5",
      "transactionType": "CALL",
      "contractName": "ERC1967Proxy",
      "contractAddress": "0xC90B032fc4710E21D57BdA67563184A009F78389",
      "function": null,
      "arguments": null,
      "transaction": {
        "type": "0x02",
        "from": "0x1dd37d479ac16113ff8f160210ee209944d2b28d",
        "to": "0xc90b032fc4710e21d57bda67563184a009f78389",
        "gas": "0x11c94",
        "value": "0x0",
        "data": "0x9e9cad29000000000000000000000000c4beea42d506ac8c90f201fdc03a6390db7088ea0000000000000000000000000000000000000000000000000000000000000001",
        "nonce": "0x226",
        "accessList": []
      },
      "additionalContracts": [],
      "isFixedGasLimit": false
    }
  ],
  "receipts": [
    {
      "transactionHash": "0x0ea394390634dc67d44cfbcdfa1f3eed28b512a6b2ab5e1000d8f3a2bbbb8031",
      "transactionIndex": "0x23",
      "blockHash": "0xd9d088d7ac5d42d0f1e6b0f19db65aa9263e7e0583656cb127c7cc5d3ef16863",
      "blockNumber": "0x5636ef",
      "from": "0x1dD37D479ac16113fF8f160210Ee209944d2b28d",
      "to": "0xc4BeeA42D506aC8c90F201Fdc03a6390dB7088EA",
      "cumulativeGasUsed": "0x2b9be5",
      "gasUsed": "0x2793b",
      "contractAddress": null,
      "logs": [],
      "status": "0x1",
      "logsBloom": "0x00000000000000000000000000000000000000000000000000000000000000000000000000000000000000000000000000000000000000000000000000000000000000000000000000000000000000000000000000000000000000000000000000000000000000000000000000000000000000000000000000000000000000000000000000000000000000000000000000000000000000000000000000000000000000000000000000000000000000000000000000000000000000000000000000000000000000000000000000000000000000000000000000000000000000000000000000000000000000000000000000000000000000000000000000000000",
      "type": "0x2",
      "effectiveGasPrice": "0xb2d87dd2"
    },
    {
      "transactionHash": "0x0dbb87d45560fce49b81f11a9f4f0be9dae0cce6e0bb406039f8192ebaa122d1",
      "transactionIndex": "0x24",
      "blockHash": "0xd9d088d7ac5d42d0f1e6b0f19db65aa9263e7e0583656cb127c7cc5d3ef16863",
      "blockNumber": "0x5636ef",
      "from": "0x1dD37D479ac16113fF8f160210Ee209944d2b28d",
      "to": "0xC90B032fc4710E21D57BdA67563184A009F78389",
      "cumulativeGasUsed": "0x2c69ed",
      "gasUsed": "0xce08",
      "contractAddress": null,
      "logs": [
        {
          "address": "0xC90B032fc4710E21D57BdA67563184A009F78389",
          "topics": [
            "0x6a51febf99909656dd24dfa3562a7b303d7f130a915393f8a74402fa531061cb",
            "0x000000000000000000000000d8a98884f874c873f0dafbb6e3fee3e1bda4c796"
          ],
          "data": "0x0000000000000000000000000000000000000000000000000000000000000001",
          "blockHash": "0xd9d088d7ac5d42d0f1e6b0f19db65aa9263e7e0583656cb127c7cc5d3ef16863",
          "blockNumber": "0x5636ef",
          "transactionHash": "0x0dbb87d45560fce49b81f11a9f4f0be9dae0cce6e0bb406039f8192ebaa122d1",
          "transactionIndex": "0x24",
          "logIndex": "0x2b",
          "removed": false
        }
      ],
      "status": "0x1",
      "logsBloom": "0x00000000000000000000000000000000000010000000000000000000000000000000000000020000000000000000000000000000000000010000000000000000000000000000000000000000000000000000000000000000200000000000000000000000000000000000000000000000000000000000000000000000000000000000010000000000000000800000000000000010000000000000000000000000000000010000000000000000000000000000000000000000000000000000000000000000000000000000000000000000200000000000000000000000000000000000000000000000000000000000000000000000000000000000000000000000",
      "type": "0x2",
      "effectiveGasPrice": "0xb2d87dd2"
    },
    {
      "transactionHash": "0x7699bb8ce92cc8d5953686575c7ed68c8d7f70c7d893171774439c7f06db836d",
      "transactionIndex": "0x25",
      "blockHash": "0xd9d088d7ac5d42d0f1e6b0f19db65aa9263e7e0583656cb127c7cc5d3ef16863",
      "blockNumber": "0x5636ef",
      "from": "0x1dD37D479ac16113fF8f160210Ee209944d2b28d",
      "to": "0xC90B032fc4710E21D57BdA67563184A009F78389",
      "cumulativeGasUsed": "0x2d37f5",
      "gasUsed": "0xce08",
      "contractAddress": null,
      "logs": [
        {
          "address": "0xC90B032fc4710E21D57BdA67563184A009F78389",
          "topics": [
            "0x6a51febf99909656dd24dfa3562a7b303d7f130a915393f8a74402fa531061cb",
            "0x000000000000000000000000db35407aad76fcd6c935128ad19a721f3b228c4b"
          ],
          "data": "0x0000000000000000000000000000000000000000000000000000000000000001",
          "blockHash": "0xd9d088d7ac5d42d0f1e6b0f19db65aa9263e7e0583656cb127c7cc5d3ef16863",
          "blockNumber": "0x5636ef",
          "transactionHash": "0x7699bb8ce92cc8d5953686575c7ed68c8d7f70c7d893171774439c7f06db836d",
          "transactionIndex": "0x25",
          "logIndex": "0x2c",
          "removed": false
        }
      ],
      "status": "0x1",
      "logsBloom": "0x00000000000000000000000000000000000000000000000000000000000000000000000000000000000000000000000000000000000000010000000000000000000000000000000000000000000000000000000000000000200000020000000000000000000000000000000000000000000000000000000000000000000000000000000000000000000000800000000000000010000000000000000000000000000000010000000000000000000000000000000000000000080000000000000000000000000000000000000000000008200000000000000000000000000000000000000000000000000000000000000000000000000000000000000000000000",
      "type": "0x2",
      "effectiveGasPrice": "0xb2d87dd2"
    },
    {
      "transactionHash": "0xe2b29d30d9b0a184e9c8285fde993bb53ff1bb395d4f8c6ac639c8b87bb95664",
      "transactionIndex": "0x26",
      "blockHash": "0xd9d088d7ac5d42d0f1e6b0f19db65aa9263e7e0583656cb127c7cc5d3ef16863",
      "blockNumber": "0x5636ef",
      "from": "0x1dD37D479ac16113fF8f160210Ee209944d2b28d",
      "to": "0xC90B032fc4710E21D57BdA67563184A009F78389",
      "cumulativeGasUsed": "0x2e05fd",
      "gasUsed": "0xce08",
      "contractAddress": null,
      "logs": [
        {
          "address": "0xC90B032fc4710E21D57BdA67563184A009F78389",
          "topics": [
            "0x6a51febf99909656dd24dfa3562a7b303d7f130a915393f8a74402fa531061cb",
            "0x00000000000000000000000071140ffc5bc262c5ebd1058ef3732bdbe3277922"
          ],
          "data": "0x0000000000000000000000000000000000000000000000000000000000000001",
          "blockHash": "0xd9d088d7ac5d42d0f1e6b0f19db65aa9263e7e0583656cb127c7cc5d3ef16863",
          "blockNumber": "0x5636ef",
          "transactionHash": "0xe2b29d30d9b0a184e9c8285fde993bb53ff1bb395d4f8c6ac639c8b87bb95664",
          "transactionIndex": "0x26",
          "logIndex": "0x2d",
          "removed": false
        }
      ],
      "status": "0x1",
      "logsBloom": "0x00000000000000000000000000000000000000000000080000000000000000000000000000000000000000000000000000000000000000010000000000000000000000000000000000000002000000000000000000000000200000000000000000000000000000000000000000000000000000000000000000000000000000000000000000000000000000800000000000000010000000000000000000000000000000010000000000000000000000000000000000000000000100000000000000000000000000000000000000000000200000000000000000000000000000000000000000000000000000000000000000000000000000000000000000000000",
      "type": "0x2",
      "effectiveGasPrice": "0xb2d87dd2"
    },
    {
      "transactionHash": "0x9951d454552ed4dd1507e22823cdbe8886ff88397ae32f57f308ff46b2b0dfb5",
      "transactionIndex": "0x27",
      "blockHash": "0xd9d088d7ac5d42d0f1e6b0f19db65aa9263e7e0583656cb127c7cc5d3ef16863",
      "blockNumber": "0x5636ef",
      "from": "0x1dD37D479ac16113fF8f160210Ee209944d2b28d",
      "to": "0xC90B032fc4710E21D57BdA67563184A009F78389",
      "cumulativeGasUsed": "0x2ed405",
      "gasUsed": "0xce08",
      "contractAddress": null,
      "logs": [
        {
          "address": "0xC90B032fc4710E21D57BdA67563184A009F78389",
          "topics": [
            "0x6a51febf99909656dd24dfa3562a7b303d7f130a915393f8a74402fa531061cb",
            "0x000000000000000000000000c4beea42d506ac8c90f201fdc03a6390db7088ea"
          ],
          "data": "0x0000000000000000000000000000000000000000000000000000000000000001",
          "blockHash": "0xd9d088d7ac5d42d0f1e6b0f19db65aa9263e7e0583656cb127c7cc5d3ef16863",
          "blockNumber": "0x5636ef",
          "transactionHash": "0x9951d454552ed4dd1507e22823cdbe8886ff88397ae32f57f308ff46b2b0dfb5",
          "transactionIndex": "0x27",
          "logIndex": "0x2e",
          "removed": false
        }
      ],
      "status": "0x1",
      "logsBloom": "0x00000000000000000000000000000000000000000000000000000400000000000000000000004000000000000000000000000000000000010000000000000000000000000000000000000000000000000000000000000000200000000000000000000000000000000000000000000000000000000000000000000000008000000000000000000000000000800000000000000010000000000000000000000000000000010000000000000000000000000000000000000000000000000000000000000000000000000000000000000000200000000000000000000000000000000000000000000000000000000000000000000000000000000000000000000000",
      "type": "0x2",
      "effectiveGasPrice": "0xb2d87dd2"
    }
  ],
  "libraries": [],
  "pending": [],
  "returns": {},
  "timestamp": 1712527203,
  "chain": 11155111,
  "commit": "e20fa39"
}