{
  "transactions": [
    {
      "hash": "0x80f71715c50b6942e727152c5d68f4a3bd040321825a43b1007a7089527e1072",
      "transactionType": "CALL",
      "contractName": null,
      "contractAddress": "0x4F42857dc6e937D5b3131873561785a87AAa3E16",
      "function": "setProtocolAddresses(address,address,address,address,address,address)",
      "arguments": [
        "0xB7396333135FD3D20e357c29A6685F0ae8aa699a",
        "0x9d0f690C9E652B02920642a90DdA7eB868dBE48E",
        "0x42665d2f290e964A19a3a395A2689D0E7b7D10b0",
        "0xcED5E9558A19548b9A45dc9E9d9c76f907A096c3",
        "0x024e85D61F3F94910e6105d94Df125F82B8e801B",
        "0xa0279694D142EA11Fe409026769704bb2610BB0b"
      ],
      "transaction": {
        "type": "0x02",
        "from": "0x1dd37d479ac16113ff8f160210ee209944d2b28d",
        "to": "0x4f42857dc6e937d5b3131873561785a87aaa3e16",
        "gas": "0x41c74",
        "value": "0x0",
        "data": "0xf8121873000000000000000000000000b7396333135fd3d20e357c29a6685f0ae8aa699a0000000000000000000000009d0f690c9e652b02920642a90dda7eb868dbe48e00000000000000000000000042665d2f290e964a19a3a395a2689d0e7b7d10b0000000000000000000000000ced5e9558a19548b9a45dc9e9d9c76f907a096c3000000000000000000000000024e85d61f3f94910e6105d94df125f82b8e801b000000000000000000000000a0279694d142ea11fe409026769704bb2610bb0b",
        "nonce": "0x151",
        "accessList": []
      },
      "additionalContracts": [],
      "isFixedGasLimit": false
    },
    {
      "hash": "0x13f70e3d91ef492b65a132d569f9d99af50acf068885a0db30f1b04684ef78fa",
      "transactionType": "CALL",
      "contractName": "ERC1967Proxy",
      "contractAddress": "0x42665d2f290e964A19a3a395A2689D0E7b7D10b0",
      "function": null,
      "arguments": null,
      "transaction": {
        "type": "0x02",
        "from": "0x1dd37d479ac16113ff8f160210ee209944d2b28d",
        "to": "0x42665d2f290e964a19a3a395a2689d0e7b7d10b0",
        "gas": "0x11c94",
        "value": "0x0",
        "data": "0x9e9cad29000000000000000000000000ced5e9558a19548b9a45dc9e9d9c76f907a096c30000000000000000000000000000000000000000000000000000000000000001",
        "nonce": "0x152",
        "accessList": []
      },
      "additionalContracts": [],
      "isFixedGasLimit": false
    },
    {
      "hash": "0x75ae279c73483cedbba4e52e684b2bd7ab60718121d7a9a0a969ce79c6c953e1",
      "transactionType": "CALL",
      "contractName": "ERC1967Proxy",
      "contractAddress": "0x42665d2f290e964A19a3a395A2689D0E7b7D10b0",
      "function": null,
      "arguments": null,
      "transaction": {
        "type": "0x02",
        "from": "0x1dd37d479ac16113ff8f160210ee209944d2b28d",
        "to": "0x42665d2f290e964a19a3a395a2689d0e7b7d10b0",
        "gas": "0x11c94",
        "value": "0x0",
        "data": "0x9e9cad29000000000000000000000000024e85d61f3f94910e6105d94df125f82b8e801b0000000000000000000000000000000000000000000000000000000000000001",
        "nonce": "0x153",
        "accessList": []
      },
      "additionalContracts": [],
      "isFixedGasLimit": false
    },
    {
      "hash": "0x01e32e924f0ffe95f772b14f8acf8effbeffd4069ce076132c95caa634a4b84b",
      "transactionType": "CALL",
      "contractName": "ERC1967Proxy",
      "contractAddress": "0x42665d2f290e964A19a3a395A2689D0E7b7D10b0",
      "function": null,
      "arguments": null,
      "transaction": {
        "type": "0x02",
        "from": "0x1dd37d479ac16113ff8f160210ee209944d2b28d",
        "to": "0x42665d2f290e964a19a3a395a2689d0e7b7d10b0",
        "gas": "0x11c94",
        "value": "0x0",
        "data": "0x9e9cad29000000000000000000000000a0279694d142ea11fe409026769704bb2610bb0b0000000000000000000000000000000000000000000000000000000000000001",
        "nonce": "0x154",
        "accessList": []
      },
      "additionalContracts": [],
      "isFixedGasLimit": false
    },
    {
      "hash": "0x233e8ac0c91ce351ff6a7b452a4b2591af76e5dc462459b031b366791de78475",
      "transactionType": "CALL",
      "contractName": "ERC1967Proxy",
      "contractAddress": "0x42665d2f290e964A19a3a395A2689D0E7b7D10b0",
      "function": null,
      "arguments": null,
      "transaction": {
        "type": "0x02",
        "from": "0x1dd37d479ac16113ff8f160210ee209944d2b28d",
        "to": "0x42665d2f290e964a19a3a395a2689d0e7b7d10b0",
        "gas": "0x11c94",
        "value": "0x0",
        "data": "0x9e9cad290000000000000000000000004f42857dc6e937d5b3131873561785a87aaa3e160000000000000000000000000000000000000000000000000000000000000001",
        "nonce": "0x155",
        "accessList": []
      },
      "additionalContracts": [],
      "isFixedGasLimit": false
    }
  ],
  "receipts": [
    {
      "transactionHash": "0x80f71715c50b6942e727152c5d68f4a3bd040321825a43b1007a7089527e1072",
      "transactionIndex": "0x1",
      "blockHash": "0x2e23bea931ec96c916e3723e34c45adfd45bad9b65e819fcea048f071dedb54f",
      "blockNumber": "0x543e5b",
      "from": "0x1dD37D479ac16113fF8f160210Ee209944d2b28d",
      "to": "0x4F42857dc6e937D5b3131873561785a87AAa3E16",
      "cumulativeGasUsed": "0x454cf",
      "gasUsed": "0x2cfa1",
      "contractAddress": null,
      "logs": [],
      "status": "0x1",
      "logsBloom": "0x00000000000000000000000000000000000000000000000000000000000000000000000000000000000000000000000000000000000000000000000000000000000000000000000000000000000000000000000000000000000000000000000000000000000000000000000000000000000000000000000000000000000000000000000000000000000000000000000000000000000000000000000000000000000000000000000000000000000000000000000000000000000000000000000000000000000000000000000000000000000000000000000000000000000000000000000000000000000000000000000000000000000000000000000000000000",
      "type": "0x2",
      "effectiveGasPrice": "0xb7ea5ce1"
    },
    {
      "transactionHash": "0x13f70e3d91ef492b65a132d569f9d99af50acf068885a0db30f1b04684ef78fa",
      "transactionIndex": "0x2",
      "blockHash": "0x2e23bea931ec96c916e3723e34c45adfd45bad9b65e819fcea048f071dedb54f",
      "blockNumber": "0x543e5b",
      "from": "0x1dD37D479ac16113fF8f160210Ee209944d2b28d",
      "to": "0x42665d2f290e964A19a3a395A2689D0E7b7D10b0",
      "cumulativeGasUsed": "0x522d7",
      "gasUsed": "0xce08",
      "contractAddress": null,
      "logs": [
        {
          "address": "0x42665d2f290e964A19a3a395A2689D0E7b7D10b0",
          "topics": [
            "0x6a51febf99909656dd24dfa3562a7b303d7f130a915393f8a74402fa531061cb",
            "0x000000000000000000000000ced5e9558a19548b9a45dc9e9d9c76f907a096c3"
          ],
          "data": "0x0000000000000000000000000000000000000000000000000000000000000001",
          "blockHash": "0x2e23bea931ec96c916e3723e34c45adfd45bad9b65e819fcea048f071dedb54f",
          "blockNumber": "0x543e5b",
          "transactionHash": "0x13f70e3d91ef492b65a132d569f9d99af50acf068885a0db30f1b04684ef78fa",
          "transactionIndex": "0x2",
          "logIndex": "0x1",
          "removed": false
        }
      ],
      "status": "0x1",
      "logsBloom": "0x00000000000000000000000000000000000040000000000000000000000000000000000010000000000000000000000000000000000000010000000000000000001000000000000000000000000000000000000000000000200000000000000000000000000000000000000000000000000000000000000000000000000000000000000000000000000000800000000000000000000000080000000000000000000000000000000000000000000000000000000000000000000001040000000000000000000000000000000000000000000000000000000000000000000000000000000000000000000000000000000000000000000000000000000000000000",
      "type": "0x2",
      "effectiveGasPrice": "0xb7ea5ce1"
    },
    {
      "transactionHash": "0x75ae279c73483cedbba4e52e684b2bd7ab60718121d7a9a0a969ce79c6c953e1",
      "transactionIndex": "0x3",
      "blockHash": "0x2e23bea931ec96c916e3723e34c45adfd45bad9b65e819fcea048f071dedb54f",
      "blockNumber": "0x543e5b",
      "from": "0x1dD37D479ac16113fF8f160210Ee209944d2b28d",
      "to": "0x42665d2f290e964A19a3a395A2689D0E7b7D10b0",
      "cumulativeGasUsed": "0x5f0df",
      "gasUsed": "0xce08",
      "contractAddress": null,
      "logs": [
        {
          "address": "0x42665d2f290e964A19a3a395A2689D0E7b7D10b0",
          "topics": [
            "0x6a51febf99909656dd24dfa3562a7b303d7f130a915393f8a74402fa531061cb",
            "0x000000000000000000000000024e85d61f3f94910e6105d94df125f82b8e801b"
          ],
          "data": "0x0000000000000000000000000000000000000000000000000000000000000001",
          "blockHash": "0x2e23bea931ec96c916e3723e34c45adfd45bad9b65e819fcea048f071dedb54f",
          "blockNumber": "0x543e5b",
          "transactionHash": "0x75ae279c73483cedbba4e52e684b2bd7ab60718121d7a9a0a969ce79c6c953e1",
          "transactionIndex": "0x3",
          "logIndex": "0x2",
          "removed": false
        }
      ],
      "status": "0x1",
      "logsBloom": "0x00000000000000000000000000000000000000000000000001000000000000000000000010000000000000000000000000000000000000010000000000000000000000000000000000000000000000000000800000000000200000000000000000000000000000000000000000000000000000000000000000000000000000000000000000000000000000800000000000000000000000000000000000000000000000000000000000000000000000000000000000000000000001040000000000000000000000000000000000000000000000000000000000000000100000000000000000000000000000000000000000000000000000000000000000000000",
      "type": "0x2",
      "effectiveGasPrice": "0xb7ea5ce1"
    },
    {
      "transactionHash": "0x01e32e924f0ffe95f772b14f8acf8effbeffd4069ce076132c95caa634a4b84b",
      "transactionIndex": "0x4",
      "blockHash": "0x2e23bea931ec96c916e3723e34c45adfd45bad9b65e819fcea048f071dedb54f",
      "blockNumber": "0x543e5b",
      "from": "0x1dD37D479ac16113fF8f160210Ee209944d2b28d",
      "to": "0x42665d2f290e964A19a3a395A2689D0E7b7D10b0",
      "cumulativeGasUsed": "0x6bee7",
      "gasUsed": "0xce08",
      "contractAddress": null,
      "logs": [
        {
          "address": "0x42665d2f290e964A19a3a395A2689D0E7b7D10b0",
          "topics": [
            "0x6a51febf99909656dd24dfa3562a7b303d7f130a915393f8a74402fa531061cb",
            "0x000000000000000000000000a0279694d142ea11fe409026769704bb2610bb0b"
          ],
          "data": "0x0000000000000000000000000000000000000000000000000000000000000001",
          "blockHash": "0x2e23bea931ec96c916e3723e34c45adfd45bad9b65e819fcea048f071dedb54f",
          "blockNumber": "0x543e5b",
          "transactionHash": "0x01e32e924f0ffe95f772b14f8acf8effbeffd4069ce076132c95caa634a4b84b",
          "transactionIndex": "0x4",
          "logIndex": "0x3",
          "removed": false
        }
      ],
      "status": "0x1",
      "logsBloom": "0x00000000000000000000000000000000000000000000000000000000000000000000000010000000000000000000000000000000000000010000000000000000000000000000000000200000000000000000000000000000200000000000000000000000000000000000000000000000000000000000000000000000000000000000000000000000000000800000000000000000000000000000000000000000000000000000000000000000000000000000000000000000000001140000000000000000000000000000000000000000000000000000000000000000000000000000000080000000000000000000000000000000000000000000000000000000",
      "type": "0x2",
      "effectiveGasPrice": "0xb7ea5ce1"
    },
    {
      "transactionHash": "0x233e8ac0c91ce351ff6a7b452a4b2591af76e5dc462459b031b366791de78475",
      "transactionIndex": "0x5",
      "blockHash": "0x2e23bea931ec96c916e3723e34c45adfd45bad9b65e819fcea048f071dedb54f",
      "blockNumber": "0x543e5b",
      "from": "0x1dD37D479ac16113fF8f160210Ee209944d2b28d",
      "to": "0x42665d2f290e964A19a3a395A2689D0E7b7D10b0",
      "cumulativeGasUsed": "0x78cef",
      "gasUsed": "0xce08",
      "contractAddress": null,
      "logs": [
        {
          "address": "0x42665d2f290e964A19a3a395A2689D0E7b7D10b0",
          "topics": [
            "0x6a51febf99909656dd24dfa3562a7b303d7f130a915393f8a74402fa531061cb",
            "0x0000000000000000000000004f42857dc6e937d5b3131873561785a87aaa3e16"
          ],
          "data": "0x0000000000000000000000000000000000000000000000000000000000000001",
          "blockHash": "0x2e23bea931ec96c916e3723e34c45adfd45bad9b65e819fcea048f071dedb54f",
          "blockNumber": "0x543e5b",
          "transactionHash": "0x233e8ac0c91ce351ff6a7b452a4b2591af76e5dc462459b031b366791de78475",
          "transactionIndex": "0x5",
          "logIndex": "0x4",
          "removed": false
        }
      ],
      "status": "0x1",
      "logsBloom": "0x00000000000000000000000000000000000000000000000000000000000000000000000010000000000000000000000000000000000000010000000000000000000000000000000000000000000000000000000000000000200000000000000000000000000000000000000000000000000000000000000000000000000000000008000000000000000000800000000000000000000000000000000000000000000000000000000000000000000000000000000000000000000001040000000000000100000000000000000000000000000000000000000000000000000000000000000000000000000000000000000000000080000000000000000000000000",
      "type": "0x2",
      "effectiveGasPrice": "0xb7ea5ce1"
    }
  ],
  "libraries": [],
  "pending": [],
  "returns": {},
  "timestamp": 1710896246,
  "chain": 11155111,
  "commit": "df85e63"
}