{
  "transactions": [
    {
      "hash": "0x24c335a1ece18f56647ef8f0e569667e16a159b2c95c3936b3c47aff25d4f00c",
      "transactionType": "CALL",
      "contractName": null,
      "contractAddress": "0x3c69f2769A27bb9d3AE5b0d558EAD3Ff0727E9B4",
      "function": "setProtocolAddresses(address,address,address,address,address,address,address,address)",
      "arguments": [
        "0x361B8698B5F03d98028176B33CAf41f967CEe9e1",
        "0xBBdB079fB3f424d05e83662285aC721a800EED81",
        "0x3254EEAE118Ae46473eFa897c4Df5a766dEa63D2",
        "0x65a9330E7752c9bA5277b852ed8F6E2118CCd713",
        "0x74eC83e3b08f0D751BC6a0C4971415944f61af6E",
        "0x6a6CA9BE573CE881A2084eDa08E3007A679E7666",
        "0xD535B2893823CEa523F14C55c917e59BC1AEc826",
        "0x4635cF866DF13Aa30A18bA6d6aCDf9e2F36217db"
      ],
      "transaction": {
        "type": "0x02",
        "from": "0x1dd37d479ac16113ff8f160210ee209944d2b28d",
        "to": "0x3c69f2769a27bb9d3ae5b0d558ead3ff0727e9b4",
        "gas": "0x45eab",
        "value": "0x0",
        "data": "0x5f198834000000000000000000000000361b8698b5f03d98028176b33caf41f967cee9e1000000000000000000000000bbdb079fb3f424d05e83662285ac721a800eed810000000000000000000000003254eeae118ae46473efa897c4df5a766dea63d200000000000000000000000065a9330e7752c9ba5277b852ed8f6e2118ccd71300000000000000000000000074ec83e3b08f0d751bc6a0c4971415944f61af6e0000000000000000000000006a6ca9be573ce881a2084eda08e3007a679e7666000000000000000000000000d535b2893823cea523f14c55c917e59bc1aec8260000000000000000000000004635cf866df13aa30a18ba6d6acdf9e2f36217db",
        "nonce": "0x306",
        "accessList": []
      },
      "additionalContracts": [],
      "isFixedGasLimit": false
    },
    {
      "hash": "0x6ff7ea82fb54c0c5d218da601def4e64f063923d0cc2433e4485de152b04b7c1",
      "transactionType": "CALL",
      "contractName": null,
      "contractAddress": "0xD535B2893823CEa523F14C55c917e59BC1AEc826",
      "function": "setContractAddresses(address)",
      "arguments": [
        "0x4635cF866DF13Aa30A18bA6d6aCDf9e2F36217db"
      ],
      "transaction": {
        "type": "0x02",
        "from": "0x1dd37d479ac16113ff8f160210ee209944d2b28d",
        "to": "0xd535b2893823cea523f14c55c917e59bc1aec826",
        "gas": "0x117cc",
        "value": "0x0",
        "data": "0x1f88bb870000000000000000000000004635cf866df13aa30a18ba6d6acdf9e2f36217db",
        "nonce": "0x307",
        "accessList": []
      },
      "additionalContracts": [],
      "isFixedGasLimit": false
    },
    {
      "hash": "0x3674d9cf8c4321de29a0789da4cf40bb0dbdc5afe4b1d9748a8127bf9c93c8a9",
      "transactionType": "CALL",
      "contractName": null,
      "contractAddress": "0x361B8698B5F03d98028176B33CAf41f967CEe9e1",
      "function": "setContractAddresses(address)",
      "arguments": [
        "0x4635cF866DF13Aa30A18bA6d6aCDf9e2F36217db"
      ],
      "transaction": {
        "type": "0x02",
        "from": "0x1dd37d479ac16113ff8f160210ee209944d2b28d",
        "to": "0x361b8698b5f03d98028176b33caf41f967cee9e1",
        "gas": "0x12460",
        "value": "0x0",
        "data": "0x1f88bb870000000000000000000000004635cf866df13aa30a18ba6d6acdf9e2f36217db",
        "nonce": "0x308",
        "accessList": []
      },
      "additionalContracts": [],
      "isFixedGasLimit": false
    },
    {
      "hash": "0x9c3a76a262452f08c8fa54bc44fe1368d5cc433306dc2d34682f002004da52b3",
      "transactionType": "CALL",
      "contractName": "ERC1967Proxy",
      "contractAddress": "0x3254EEAE118Ae46473eFa897c4Df5a766dEa63D2",
      "function": null,
      "arguments": null,
      "transaction": {
        "type": "0x02",
        "from": "0x1dd37d479ac16113ff8f160210ee209944d2b28d",
        "to": "0x3254eeae118ae46473efa897c4df5a766dea63d2",
        "gas": "0x11c94",
        "value": "0x0",
        "data": "0x9e9cad2900000000000000000000000065a9330e7752c9ba5277b852ed8f6e2118ccd7130000000000000000000000000000000000000000000000000000000000000001",
        "nonce": "0x309",
        "accessList": []
      },
      "additionalContracts": [],
      "isFixedGasLimit": false
    },
    {
      "hash": "0x43a8de0944521eae91874707e89e7e131f8e657c1df118d52de61f3374b8c712",
      "transactionType": "CALL",
      "contractName": "ERC1967Proxy",
      "contractAddress": "0x3254EEAE118Ae46473eFa897c4Df5a766dEa63D2",
      "function": null,
      "arguments": null,
      "transaction": {
        "type": "0x02",
        "from": "0x1dd37d479ac16113ff8f160210ee209944d2b28d",
        "to": "0x3254eeae118ae46473efa897c4df5a766dea63d2",
        "gas": "0x11c94",
        "value": "0x0",
        "data": "0x9e9cad2900000000000000000000000074ec83e3b08f0d751bc6a0c4971415944f61af6e0000000000000000000000000000000000000000000000000000000000000001",
        "nonce": "0x30a",
        "accessList": []
      },
      "additionalContracts": [],
      "isFixedGasLimit": false
    },
    {
      "hash": "0x6c892c037e8acc4b2a2b07b9124ee006b43e00bc2b262de10c934a99b7c5c5ec",
      "transactionType": "CALL",
      "contractName": "ERC1967Proxy",
      "contractAddress": "0x3254EEAE118Ae46473eFa897c4Df5a766dEa63D2",
      "function": null,
      "arguments": null,
      "transaction": {
        "type": "0x02",
        "from": "0x1dd37d479ac16113ff8f160210ee209944d2b28d",
        "to": "0x3254eeae118ae46473efa897c4df5a766dea63d2",
        "gas": "0x11c83",
        "value": "0x0",
        "data": "0x9e9cad290000000000000000000000006a6ca9be573ce881a2084eda08e3007a679e76660000000000000000000000000000000000000000000000000000000000000001",
        "nonce": "0x30b",
        "accessList": []
      },
      "additionalContracts": [],
      "isFixedGasLimit": false
    },
    {
      "hash": "0x7553dba522550362ff6faf1741fef452ec18dcb86506fdd1dc90cce37c9170bd",
      "transactionType": "CALL",
      "contractName": "ERC1967Proxy",
      "contractAddress": "0x3254EEAE118Ae46473eFa897c4Df5a766dEa63D2",
      "function": null,
      "arguments": null,
      "transaction": {
        "type": "0x02",
        "from": "0x1dd37d479ac16113ff8f160210ee209944d2b28d",
        "to": "0x3254eeae118ae46473efa897c4df5a766dea63d2",
        "gas": "0x11c94",
        "value": "0x0",
        "data": "0x9e9cad290000000000000000000000003c69f2769a27bb9d3ae5b0d558ead3ff0727e9b40000000000000000000000000000000000000000000000000000000000000001",
        "nonce": "0x30c",
        "accessList": []
      },
      "additionalContracts": [],
      "isFixedGasLimit": false
    }
  ],
  "receipts": [
    {
      "transactionHash": "0x24c335a1ece18f56647ef8f0e569667e16a159b2c95c3936b3c47aff25d4f00c",
      "transactionIndex": "0x2",
      "blockHash": "0xde8368ef254473b87117a8927ac3478582b38f38f0342d229e44966bc5588703",
      "blockNumber": "0x577e81",
      "from": "0x1dD37D479ac16113fF8f160210Ee209944d2b28d",
      "to": "0x3c69f2769A27bb9d3AE5b0d558EAD3Ff0727E9B4",
      "cumulativeGasUsed": "0x4faa4",
      "gasUsed": "0x329e6",
      "contractAddress": null,
      "logs": [],
      "status": "0x1",
      "logsBloom": "0x00000000000000000000000000000000000000000000000000000000000000000000000000000000000000000000000000000000000000000000000000000000000000000000000000000000000000000000000000000000000000000000000000000000000000000000000000000000000000000000000000000000000000000000000000000000000000000000000000000000000000000000000000000000000000000000000000000000000000000000000000000000000000000000000000000000000000000000000000000000000000000000000000000000000000000000000000000000000000000000000000000000000000000000000000000000",
      "type": "0x2",
      "effectiveGasPrice": "0xbe5b3f14"
    },
    {
      "transactionHash": "0x6ff7ea82fb54c0c5d218da601def4e64f063923d0cc2433e4485de152b04b7c1",
      "transactionIndex": "0x3",
      "blockHash": "0xde8368ef254473b87117a8927ac3478582b38f38f0342d229e44966bc5588703",
      "blockNumber": "0x577e81",
      "from": "0x1dD37D479ac16113fF8f160210Ee209944d2b28d",
      "to": "0xD535B2893823CEa523F14C55c917e59BC1AEc826",
      "cumulativeGasUsed": "0x5b9f5",
      "gasUsed": "0xbf51",
      "contractAddress": null,
      "logs": [],
      "status": "0x1",
      "logsBloom": "0x00000000000000000000000000000000000000000000000000000000000000000000000000000000000000000000000000000000000000000000000000000000000000000000000000000000000000000000000000000000000000000000000000000000000000000000000000000000000000000000000000000000000000000000000000000000000000000000000000000000000000000000000000000000000000000000000000000000000000000000000000000000000000000000000000000000000000000000000000000000000000000000000000000000000000000000000000000000000000000000000000000000000000000000000000000000",
      "type": "0x2",
      "effectiveGasPrice": "0xbe5b3f14"
    },
    {
      "transactionHash": "0x3674d9cf8c4321de29a0789da4cf40bb0dbdc5afe4b1d9748a8127bf9c93c8a9",
      "transactionIndex": "0x4",
      "blockHash": "0xde8368ef254473b87117a8927ac3478582b38f38f0342d229e44966bc5588703",
      "blockNumber": "0x577e81",
      "from": "0x1dD37D479ac16113fF8f160210Ee209944d2b28d",
      "to": "0x361B8698B5F03d98028176B33CAf41f967CEe9e1",
      "cumulativeGasUsed": "0x681e0",
      "gasUsed": "0xc7eb",
      "contractAddress": null,
      "logs": [],
      "status": "0x1",
      "logsBloom": "0x00000000000000000000000000000000000000000000000000000000000000000000000000000000000000000000000000000000000000000000000000000000000000000000000000000000000000000000000000000000000000000000000000000000000000000000000000000000000000000000000000000000000000000000000000000000000000000000000000000000000000000000000000000000000000000000000000000000000000000000000000000000000000000000000000000000000000000000000000000000000000000000000000000000000000000000000000000000000000000000000000000000000000000000000000000000",
      "type": "0x2",
      "effectiveGasPrice": "0xbe5b3f14"
    },
    {
      "transactionHash": "0x9c3a76a262452f08c8fa54bc44fe1368d5cc433306dc2d34682f002004da52b3",
      "transactionIndex": "0x5",
      "blockHash": "0xde8368ef254473b87117a8927ac3478582b38f38f0342d229e44966bc5588703",
      "blockNumber": "0x577e81",
      "from": "0x1dD37D479ac16113fF8f160210Ee209944d2b28d",
      "to": "0x3254EEAE118Ae46473eFa897c4Df5a766dEa63D2",
      "cumulativeGasUsed": "0x74fe8",
      "gasUsed": "0xce08",
      "contractAddress": null,
      "logs": [
        {
          "address": "0x3254EEAE118Ae46473eFa897c4Df5a766dEa63D2",
          "topics": [
            "0x6a51febf99909656dd24dfa3562a7b303d7f130a915393f8a74402fa531061cb",
            "0x00000000000000000000000065a9330e7752c9ba5277b852ed8f6e2118ccd713"
          ],
          "data": "0x0000000000000000000000000000000000000000000000000000000000000001",
          "blockHash": "0xde8368ef254473b87117a8927ac3478582b38f38f0342d229e44966bc5588703",
          "blockNumber": "0x577e81",
          "transactionHash": "0x9c3a76a262452f08c8fa54bc44fe1368d5cc433306dc2d34682f002004da52b3",
          "transactionIndex": "0x5",
          "logIndex": "0x2",
          "removed": false
        }
      ],
      "status": "0x1",
      "logsBloom": "0x00000000000000000000000000000000000000000000000000000000000000008000000000000000000000000000000000000000000010010000000000000000000000000000000000000000000000000000000000000000200000000000000000000000000000000000000000000000000000000000000000000000000000000000000000000000000000800000000000000200000000000000000000000000000000000000000000000000000000000000000000000000000000000000000000000000000000000000000000000000000000000000000000000000000180000000000000000000000000000000000040000000000000000000000000000000",
      "type": "0x2",
      "effectiveGasPrice": "0xbe5b3f14"
    },
    {
      "transactionHash": "0x43a8de0944521eae91874707e89e7e131f8e657c1df118d52de61f3374b8c712",
      "transactionIndex": "0x6",
      "blockHash": "0xde8368ef254473b87117a8927ac3478582b38f38f0342d229e44966bc5588703",
      "blockNumber": "0x577e81",
      "from": "0x1dD37D479ac16113fF8f160210Ee209944d2b28d",
      "to": "0x3254EEAE118Ae46473eFa897c4Df5a766dEa63D2",
      "cumulativeGasUsed": "0x81df0",
      "gasUsed": "0xce08",
      "contractAddress": null,
      "logs": [
        {
          "address": "0x3254EEAE118Ae46473eFa897c4Df5a766dEa63D2",
          "topics": [
            "0x6a51febf99909656dd24dfa3562a7b303d7f130a915393f8a74402fa531061cb",
            "0x00000000000000000000000074ec83e3b08f0d751bc6a0c4971415944f61af6e"
          ],
          "data": "0x0000000000000000000000000000000000000000000000000000000000000001",
          "blockHash": "0xde8368ef254473b87117a8927ac3478582b38f38f0342d229e44966bc5588703",
          "blockNumber": "0x577e81",
          "transactionHash": "0x43a8de0944521eae91874707e89e7e131f8e657c1df118d52de61f3374b8c712",
          "transactionIndex": "0x6",
          "logIndex": "0x3",
          "removed": false
        }
      ],
      "status": "0x1",
      "logsBloom": "0x00000000000000000000000000000000000000000000000000000000000000008000000000000000000000000000000000000000000000010000000000000000000000000000000000000000000000000000000000000000200000000000000000000000000000000000000000000000000000000000000000000000000000000000000000000000000000800000000010000200000000000000000000000000000000000000000000000000000000000000000000000000000000400000000000000000000000000000000000000000000000000000000000000000000000000000000000000000000000000000800040000000000000000000000000000000",
      "type": "0x2",
      "effectiveGasPrice": "0xbe5b3f14"
    },
    {
      "transactionHash": "0x6c892c037e8acc4b2a2b07b9124ee006b43e00bc2b262de10c934a99b7c5c5ec",
      "transactionIndex": "0x7",
      "blockHash": "0xde8368ef254473b87117a8927ac3478582b38f38f0342d229e44966bc5588703",
      "blockNumber": "0x577e81",
      "from": "0x1dD37D479ac16113fF8f160210Ee209944d2b28d",
      "to": "0x3254EEAE118Ae46473eFa897c4Df5a766dEa63D2",
      "cumulativeGasUsed": "0x8ebec",
      "gasUsed": "0xcdfc",
      "contractAddress": null,
      "logs": [
        {
          "address": "0x3254EEAE118Ae46473eFa897c4Df5a766dEa63D2",
          "topics": [
            "0x6a51febf99909656dd24dfa3562a7b303d7f130a915393f8a74402fa531061cb",
            "0x0000000000000000000000006a6ca9be573ce881a2084eda08e3007a679e7666"
          ],
          "data": "0x0000000000000000000000000000000000000000000000000000000000000001",
          "blockHash": "0xde8368ef254473b87117a8927ac3478582b38f38f0342d229e44966bc5588703",
          "blockNumber": "0x577e81",
          "transactionHash": "0x6c892c037e8acc4b2a2b07b9124ee006b43e00bc2b262de10c934a99b7c5c5ec",
          "transactionIndex": "0x7",
          "logIndex": "0x4",
          "removed": false
        }
      ],
      "status": "0x1",
      "logsBloom": "0x00000000000000000000000000000000000000000000000000000000000000008000000000000000000000000000000000000000000000010000000000000000000000000000000000000000000000000000000000000000200000000000000000000000000000000000000000000000000000000000000000000000000000000000000000000000000000800000000020000200000000000000000000000000000000000000000000000000000000000000000000000000000000000000000002000000000000000000000000000000000000000000000000000000000000000000000000002000000000000000000040000000000000000000000000000000",
      "type": "0x2",
      "effectiveGasPrice": "0xbe5b3f14"
    },
    {
      "transactionHash": "0x7553dba522550362ff6faf1741fef452ec18dcb86506fdd1dc90cce37c9170bd",
      "transactionIndex": "0x8",
      "blockHash": "0xde8368ef254473b87117a8927ac3478582b38f38f0342d229e44966bc5588703",
      "blockNumber": "0x577e81",
      "from": "0x1dD37D479ac16113fF8f160210Ee209944d2b28d",
      "to": "0x3254EEAE118Ae46473eFa897c4Df5a766dEa63D2",
      "cumulativeGasUsed": "0x9b9f4",
      "gasUsed": "0xce08",
      "contractAddress": null,
      "logs": [
        {
          "address": "0x3254EEAE118Ae46473eFa897c4Df5a766dEa63D2",
          "topics": [
            "0x6a51febf99909656dd24dfa3562a7b303d7f130a915393f8a74402fa531061cb",
            "0x0000000000000000000000003c69f2769a27bb9d3ae5b0d558ead3ff0727e9b4"
          ],
          "data": "0x0000000000000000000000000000000000000000000000000000000000000001",
          "blockHash": "0xde8368ef254473b87117a8927ac3478582b38f38f0342d229e44966bc5588703",
          "blockNumber": "0x577e81",
          "transactionHash": "0x7553dba522550362ff6faf1741fef452ec18dcb86506fdd1dc90cce37c9170bd",
          "transactionIndex": "0x8",
          "logIndex": "0x5",
          "removed": false
        }
      ],
      "status": "0x1",
      "logsBloom": "0x00000000000000000000000000000000000000000000000000000000000000008000000000000000000000000000000000000000000000010000000000000000000000000000000000000000000000000000000000008000200000000000000000000000000000000000000000000000000000000000000000000000000000000000000000000000000000800000000000000200000000000000000000100008000000000000000000000000000000000000000000000000000000000000000000000000000000000000000000000000000000000000000000000000000000000000000000000000000000000000000040000000000000000000000000000000",
      "type": "0x2",
      "effectiveGasPrice": "0xbe5b3f14"
    }
  ],
  "libraries": [],
  "pending": [],
  "returns": {},
  "timestamp": 1713558773,
  "chain": 11155111,
  "commit": "53be4fa"
}