{
  "transactions": [
    {
      "hash": "0x9941cbca77197e79590626831c1982befb0c60fc0cab8eaa871a975be0520ab8",
      "transactionType": "CALL",
      "contractName": null,
      "contractAddress": "0xd0c43b304ff5e40AE6df9578c111b9769FB798F4",
      "function": "upgradeToAndCall(address,bytes)",
      "arguments": [
        "0x346EaF7117fE9655D97eCc4427c0b2A901289Be5",
        "0x"
      ],
      "transaction": {
        "type": "0x02",
        "from": "0x1dd37d479ac16113ff8f160210ee209944d2b28d",
        "to": "0xd0c43b304ff5e40ae6df9578c111b9769fb798f4",
        "gas": "0xcc25",
        "value": "0x0",
        "data": "0x4f1ef286000000000000000000000000346eaf7117fe9655d97ecc4427c0b2a901289be500000000000000000000000000000000000000000000000000000000000000400000000000000000000000000000000000000000000000000000000000000000",
        "nonce": "0x81",
        "accessList": []
      },
      "additionalContracts": [],
      "isFixedGasLimit": false
    }
  ],
  "receipts": [
    {
      "transactionHash": "0x9941cbca77197e79590626831c1982befb0c60fc0cab8eaa871a975be0520ab8",
      "transactionIndex": "0x1a",
      "blockHash": "0x3cdb8fe9df7de5d604f3654656bb62c8a5527a52437d675749c984c95e0fec16",
      "blockNumber": "0x53b2f1",
      "from": "0x1dD37D479ac16113fF8f160210Ee209944d2b28d",
      "to": "0xd0c43b304ff5e40AE6df9578c111b9769FB798F4",
      "cumulativeGasUsed": "0x22659a",
      "gasUsed": "0x93cd",
      "contractAddress": null,
      "logs": [
        {
          "address": "0xd0c43b304ff5e40AE6df9578c111b9769FB798F4",
          "topics": [
            "0xbc7cd75a20ee27fd9adebab32041f755214dbc6bffa90cc0225b39da2e5c2d3b",
            "0x000000000000000000000000346eaf7117fe9655d97ecc4427c0b2a901289be5"
          ],
          "data": "0x",
          "blockHash": "0x3cdb8fe9df7de5d604f3654656bb62c8a5527a52437d675749c984c95e0fec16",
          "blockNumber": "0x53b2f1",
          "transactionHash": "0x9941cbca77197e79590626831c1982befb0c60fc0cab8eaa871a975be0520ab8",
          "transactionIndex": "0x1a",
          "logIndex": "0x1e",
          "removed": false
        }
      ],
      "status": "0x1",
      "logsBloom": "0x00000000000000000000000000000000400000000000002000000000000000000000000000000000000004000000000000000000000000000000000000000000000000000000000000000000000002000000000000000000000000000000000000080000000000000000000000000000000000000000000000000000020000000000000000000000000000000000000000000000000000000000000000000000000000000000000000000000000000000000000000000000000000000000000000000020000000008000000000000000000000000000000000020000000000000000000000000000000000000000000000000000000000000000000000000000",
      "type": "0x2",
      "effectiveGasPrice": "0xf27a81231"
    }
  ],
  "libraries": [],
  "pending": [],
  "returns": {},
  "timestamp": 1710434346,
  "chain": 11155111,
  "commit": "a2cd2b2"
}