{
  "transactions": [
    {
      "hash": "0x66f476def032cc02cd80a6d63a5aca3d1958981f084aba07666677a126b288cd",
      "transactionType": "CALL",
      "contractName": null,
      "contractAddress": "0x687e7CAF767F1952964c5b92f1a7e3b113553D2C",
      "function": "upgradeToAndCall(address,bytes)",
      "arguments": [
        "0x707fbBFD0496aa488B179cfBF0097d9B356DD3fa",
        "0x"
      ],
      "transaction": {
        "type": "0x02",
        "from": "0x1dd37d479ac16113ff8f160210ee209944d2b28d",
        "to": "0x687e7caf767f1952964c5b92f1a7e3b113553d2c",
        "gas": "0xcc25",
        "value": "0x0",
        "data": "0x4f1ef286000000000000000000000000707fbbfd0496aa488b179cfbf0097d9b356dd3fa00000000000000000000000000000000000000000000000000000000000000400000000000000000000000000000000000000000000000000000000000000000",
        "nonce": "0xaf",
        "accessList": []
      },
      "additionalContracts": [],
      "isFixedGasLimit": false
    }
  ],
  "receipts": [
    {
      "transactionHash": "0x66f476def032cc02cd80a6d63a5aca3d1958981f084aba07666677a126b288cd",
      "transactionIndex": "0x17",
      "blockHash": "0x405e047cbb42d721e667b045357ce33fc1aecdbbf8522d7e159bf93beabe4137",
      "blockNumber": "0x53b9a7",
      "from": "0x1dD37D479ac16113fF8f160210Ee209944d2b28d",
      "to": "0x687e7CAF767F1952964c5b92f1a7e3b113553D2C",
      "cumulativeGasUsed": "0x171511",
      "gasUsed": "0x93cd",
      "contractAddress": null,
      "logs": [
        {
          "address": "0x687e7CAF767F1952964c5b92f1a7e3b113553D2C",
          "topics": [
            "0xbc7cd75a20ee27fd9adebab32041f755214dbc6bffa90cc0225b39da2e5c2d3b",
            "0x000000000000000000000000707fbbfd0496aa488b179cfbf0097d9b356dd3fa"
          ],
          "data": "0x",
          "blockHash": "0x405e047cbb42d721e667b045357ce33fc1aecdbbf8522d7e159bf93beabe4137",
          "blockNumber": "0x53b9a7",
          "transactionHash": "0x66f476def032cc02cd80a6d63a5aca3d1958981f084aba07666677a126b288cd",
          "transactionIndex": "0x17",
          "logIndex": "0x18",
          "removed": false
        }
      ],
      "status": "0x1",
      "logsBloom": "0x00000000000000000000000000000000400002000000000000000000000000000000000000000000000000000000000000002000000000000000000000000000000000000000000000000000000002000000000000000000000000000000000000000000000000000000000000000000000000000000000000000000000000000000000000000000000000000000000000000000000000000000000000000000002000000000000000000000000000000000000000000000000000100000000000000028080000000000000000000000000000000000000000000000000000000000000000000000000000000000000000000000000000000000000000000000",
      "type": "0x2",
      "effectiveGasPrice": "0xbe3be30b"
    }
  ],
  "libraries": [],
  "pending": [],
  "returns": {},
  "timestamp": 1710456169,
  "chain": 11155111,
  "commit": "a5e232f"
}