{
  "transactions": [
    {
      "hash": "0xb1cf02257d23771f8f4bfe36109bee9d29e41951effe6dfb5b60e845b42a85ab",
      "transactionType": "CALL",
      "contractName": null,
      "contractAddress": "0xd0c43b304ff5e40AE6df9578c111b9769FB798F4",
      "function": "upgradeToAndCall(address,bytes)",
      "arguments": [
        "0x390DD95628e8bFAc216166A50fB891Cde25f9Fd0",
        "0x"
      ],
      "transaction": {
        "type": "0x02",
        "from": "0x1dd37d479ac16113ff8f160210ee209944d2b28d",
        "to": "0xd0c43b304ff5e40ae6df9578c111b9769fb798f4",
        "gas": "0xcc25",
        "value": "0x0",
        "data": "0x4f1ef286000000000000000000000000390dd95628e8bfac216166a50fb891cde25f9fd000000000000000000000000000000000000000000000000000000000000000400000000000000000000000000000000000000000000000000000000000000000",
        "nonce": "0x80",
        "accessList": []
      },
      "additionalContracts": [],
      "isFixedGasLimit": false
    }
  ],
  "receipts": [
    {
      "transactionHash": "0xb1cf02257d23771f8f4bfe36109bee9d29e41951effe6dfb5b60e845b42a85ab",
      "transactionIndex": "0x42",
      "blockHash": "0x8232a8c0543a7f30f01ebc17a55045b3a8124ae160521a50325ad1f07992efd5",
      "blockNumber": "0x53a91e",
      "from": "0x1dD37D479ac16113fF8f160210Ee209944d2b28d",
      "to": "0xd0c43b304ff5e40AE6df9578c111b9769FB798F4",
      "cumulativeGasUsed": "0xed5793",
      "gasUsed": "0x93cd",
      "contractAddress": null,
      "logs": [
        {
          "address": "0xd0c43b304ff5e40AE6df9578c111b9769FB798F4",
          "topics": [
            "0xbc7cd75a20ee27fd9adebab32041f755214dbc6bffa90cc0225b39da2e5c2d3b",
            "0x000000000000000000000000390dd95628e8bfac216166a50fb891cde25f9fd0"
          ],
          "data": "0x",
          "blockHash": "0x8232a8c0543a7f30f01ebc17a55045b3a8124ae160521a50325ad1f07992efd5",
          "blockNumber": "0x53a91e",
          "transactionHash": "0xb1cf02257d23771f8f4bfe36109bee9d29e41951effe6dfb5b60e845b42a85ab",
          "transactionIndex": "0x42",
          "logIndex": "0x184",
          "removed": false
        }
      ],
      "status": "0x1",
      "logsBloom": "0x00000000000000000000000000000000400000000000002000000000000000000000000000000000000000000000000000000000000000000000000000000000000000000000000000000000000002000000000000000000000080000000000000000000000000000000000000000000000000000000000000000000000000000000000000000000000000000000000000000000000000000000000000000000000010000000000000000000000000000000000000000000000000000000000000000020000000008000000000000000000800000000000000020000000000000000000000000000000000000000000000000000000000000000000000000000",
      "type": "0x2",
      "effectiveGasPrice": "0x25888301e0"
    }
  ],
  "libraries": [],
  "pending": [],
  "returns": {},
  "timestamp": 1710402434,
  "chain": 11155111,
  "commit": "a2cd2b2"
}